:020000040800F2
:104000001805002045410008B14300088F4300080F
:10401000AD430008C1410008F5450008000000005C
:10402000000000000000000000000000DF43000866
:104030008D43000800000000DD430008E143000854
:104040005F4100085F4100085F4100085F410008D0
:104050005F4100085F4100085F4100085F410008C0
:104060005F4100085F4100085F4100085F410008B0
:104070005F4100085F4100085F4100085F410008A0
:104080005F4100085F410008B14100085F4100083E
:104090005F4100085F4100085F4100085F41000880
:1040A000994400085F4100085F410008CD440008C2
:1040B0005F4100085F410008B14500085F4100080A
:1040C0005F4100085F4100085F4100085F41000850
:1040D0005F4100085F4100085F4100085F41000840
:1040E0005F4100085F4100085F4100085F41000830
:1040F0005F4100085F4100085F4100085F41000820
:104100005F4100085F4100085F4100085F4100080F
:104110005F4100085F4100085F4100085F410008FF
:104120005F4100085F4100085F4100085F410008EF
:10413000DFF80CD000F02AF8004800479556000838
:10414000180500200648804706480047FEE7FEE7BE
:10415000FEE7FEE7FEE7FEE7FEE7FEE7FEE7FEE737
:10416000F14300083141000840EA01039B0703D0F6
:1041700009E008C9121F08C0042AFAD203E011F8A6
:10418000013B00F8013B521EF9D27047064C074D27
:1041900006E0E06840F0010394E807009847103417
:1041A000AC42F6D3FFF7C8FF346A0008546A00082F
:1041B00010B50421014800F0A6FB10BD0024014009
:1041C00000BFFEE710B501221146022000F0B2F850
:1041D00010BD10B503464FF6FF7404EAC3304FF428
:1041E000F04404EAC1242043C2F30A04204310BD72
:1041F00010B500224FF48061034800F097FE0120C3
:1042000001F0ACFE10BD0000000C014010B5012211
:104210009102034800F08AFE012001F09FFE10BDCC
:10422000000C01402DE9F041002500260024002764
:1042300040F2026001F02EFD40F2036001F02AFD21
:1042400040F2036001F026FD01F054FD102303222B
:104250001946204800F06FFE4FF4806303221021BE
:104260001D4800F068FE0423032210211A4800F0C4
:1042700062FE00224FF48061174800F057FE0122D1
:104280001021144800F052FE01220421124800F0CF
:104290004DFE022001F062FE002204210E4800F0D3
:1042A00045FEFFF7A5FFFFF7B1FFFFF78BFF0320E8
:1042B00000F024F80446012000F018F8012000F076
:1042C0000DF840F2FF30844201D000BFFEE7BDE8A8
:1042D000F081000000080140000C014010B50446C8
:1042E000A201C021062000F025F810BD10B504463B
:1042F00022460F21052000F01DF810BD70B50446C0
:104300000025002221460120FFF763FF0646002218
:104310001021074800F00AFE304601F01FFD054657
:1043200001221021024800F001FEC5F30A0070BD11
:10433000000801402DE9F04107460D461646384673
:10434000FFF7DCFF0446AC4334432146384600F017
:1043500003F8BDE8F081000070B504460D462A461A
:1043600021460020FFF735FF0646002210210648AF
:1043700000F0DCFD304601F0F1FC01221021024882
:1043800000F0D4FD70BD000000080140704700BF80
:10439000FEE7000010B50121034800F02AFE08B92D
:1043A000002010BD0120FCE70010014000BFFEE727
:1043B0007047000010B5002807DA0A07140E054AF6
:1043C00000F00F031B1FD45403E00A07130E024A28
:1043D000135410BD18ED00E000E400E07047704792
:1043E00002480068401C0149086070473400002002
:1043F00008B52648006840F4700024490860244845
:10440000006840F001002249086000BF20480068B1
:1044100000F002000028F9D000BF1D48406840F0BD
:1044200080001B4948600020009002E00098401C7A
:10443000009000985028F9D31548406840F090004B
:10444000134948600020009002E00098401C009052
:1044500000985028F9D300BF0D48406820F00300B1
:104460000B494860084600680A4908400849086046
:104470004FF41F0088600846006820F48020086020
:1044800000204860C86201F065FD08BD88ED00E0CD
:1044900000100240FFFFF6FE10B5202200210A485E
:1044A00001F0DAFE20220121074801F0D5FE20228A
:1044B0000221054801F0D0FE8021034802F0BBF83C
:1044C000022001F00BF810BD002C014010B51021A6
:1044D0002C4802F0B0F800212B4800F0E7F92B49F6
:1044E00008800121284800F0E1F9294908800221CB
:1044F000254800F0DBF9274908800321224800F015
:10450000D5F92549088000F069FA2048008800EEB6
:10451000100AB8EE400ADFED210A20EE200A2048FA
:1045200080ED000A1F481E4909680160184800888C
:1045300000EE100AB8EE400ADFED180A20EE200A5D
:10454000194880ED000A1748174909684160114869
:10455000008800EE100AB8EE400ADFED100A20EEE7
:10456000200A124880ED000A0E481049096881604F
:1045700080200C4988737F20C8731021094802F0FD
:104580000BFA10BD002C0140002401401200002055
:104590001400002016000020180000200303883CAF
:1045A000000000206400002004000020080000201B
:1045B00010B5002440210D4802F040F8012814D124
:1045C00040210A4802F037F8084801F0B2FE04B270
:1045D0000021064801F0B1FE002C03DD0120044952
:1045E000087002E002200249087010BD0008004077
:1045F0003800002000BFFEE702E008C8121F08C113
:10460000002AFAD170477047002001E001C1121F53
:10461000002AFBD17047000010B540F2096001F09C
:1046200039FB012001F054FA002000F06FF901225B
:104630001102254800F078F900220221224800F0FA
:1046400073F90021204800F07FF8012202211E4862
:1046500000F057F800231A4619461B4800F0ECF802
:10466000002301221146184800F0E6F80023022238
:104670001146154800F0E0F80023032211461248C5
:1046800000F0DAF84FF4805202210F4800F08FF862
:10469000012202210C4800F06BF802210A4800F0C8
:1046A00032F90421084800F02EF90421064800F0F0
:1046B00014F9054800F053F8012001F04FFC0248BE
:1046C00000F00AF810BD00000024014010B500F011
:1046D00087F8FFF7A1FF10BD816841F008018160F4
:1046E00000BF816801F008010029FAD1816841F01A
:1046F0000401816000BF816801F004010029FAD142
:10470000704730B5012902D002291AD10CE0C36AE2
:1047100023F47003C362C36A541E4FF4700505EAA4
:1047200004542343C3620DE0836B23F4401383637B
:10473000836B541E4FF4401505EA045423438363EE
:1047400000E000BF00BF30BD21B1826842F40062CA
:10475000826003E0826822F40062826070478168B0
:1047600001F0010119B9816841F0010181607047D0
:1047700072B101F001031BB1836843F480138360BD
:1047800001F0020393B1836843F4004383600DE0BA
:1047900001F001031BB1836823F48013836001F0EF
:1047A00002031BB1836823F400438360704701292F
:1047B00002D0022910D107E0836823F460238360CC
:1047C00083681343836008E0836823F4E0438360D5
:1047D00083681343836000E000BF00BF70470000A0
:1047E00010B540F2026001F055FA40F2026001F0AB
:1047F00051FA40F2026001F04DFA40F2026001F01D
:1048000049FA0123042200210A4800F094FB022304
:1048100004220021074800F08EFB04231A460021E1
:10482000044800F088FB082304220021014800F01E
:1048300082FB10BD00080140F0B50C46876BC7F342
:104840000156856BE71CBF1B07EB870C1F2707FA78
:104850000CF7BD43E71CBF1B07EB870702FA07F7FE
:104860003D4385630A2A0DD2016902EB420C0727FA
:1048700007FA0CF7B94302EB420703FA07F739438B
:10488000016112E0122A10D2C168A2F10A0707EBF7
:10489000470C072707FA0CF7B943A2F10A0707EB01
:1048A000470703FA07F73943C160F0BD02460B46DC
:1048B00033B1012B06D0022B06D0032B08D105E023
:1048C000D16B07E0116C05E0516C03E0916C01E0E5
:1048D000002100BF00BF88B2704701F001021AB189
:1048E000426842F04002426001F002021AB142689E
:1048F00042F02002426001F004021AB1426842F024
:10490000800242607047CA430260704705490968E7
:1049100021F47021034A11601146096801431160B6
:104920007047000004240140AAB101F480731BB158
:10493000436843F48073436001F480631BB14368B0
:1049400043F48063436001F00203CBB1836843F01A
:104950000203836014E001F480731BB1436823F405
:104960008073436001F480631BB1436823F4806368
:10497000436001F002031BB1836823F002038360EC
:104980007047000010B5022010494871002088626D
:104990000862C88208610870B6EE000A084680ED19
:1049A0000C0A9FED0B0A80ED0D0AB6EE000A80EDB1
:1049B0000E0A9FED080A80ED0F0A9FED070A80EDB1
:1049C000100A2C3000F038FC10BD0000C40000209C
:1049D00017B7D138A4F060453373BB4310B52DED44
:1049E000028B002008EE100A5248007801287DD181
:1049F00050484079022804D100F0F0FB4D498870FE
:104A000005E000F0EBFBC0F107004A498870494817
:104A1000807806280BDC47488078012807DB454969
:104A20008978491E444A52F82100804704E001F089
:104A3000EFF900203F4908703E48806A401C3D491C
:104A40008862897801F0010001F038FE3949C870A8
:104A50000846C07868BB08464079022808D1084655
:104A6000806A3649B1FBF0F0800808EE100A07E0D2
:104A70003048806A3149B1FBF0F0800808EE100A36
:104A80002C48006900EE100AB8EEC00ADFED2C0ACF
:104A900020EE200AF8EEC80A9FED2A1A01EE200A3D
:104AA000BDEEC00A10EE100A2249086100204862DB
:104AB00088622048C078012803D100201D4948623F
:104AC00088621C48C078022813D11A48406A401CEA
:104AD000184948620846406A43F69821884208D936
:104AE00001F096F900201349087000E01EE04862CA
:104AF00008611048006900EE100AB8EEC00A0D48BF
:104B000080ED120AC06800EE100AB8EEC00A09482B
:104B100080ED110A2C3000F017F8064890ED130ACA
:104B2000BCEEC00A10EE100A0249C882BDEC028B2E
:104B300010BD0000C40000204400002000A60E00AC
:104B4000FC18433F0F9C733ED0ED061A90ED072AE8
:104B500071EEC21AF0EE610AC0ED090AD0ED001A3A
:104B600090ED012A42EE201AB0EE610AD0ED041A4F
:104B7000F4EEC01AF1EE10FA04D2D0ED041AC0ED32
:104B8000081A0DE0D0ED051AF4EEC01AF1EE10FA95
:104B900004DDD0ED051AC0ED081A01E080ED080A29
:104BA000D0ED081A30EE611AD0ED001A90ED022A0D
:104BB00042EE201A90ED032A42EE411AC0ED001A8F
:104BC000704770B505460C462146284600F020F98E
:104BD00008B900BFFEE704EB8400810005F108007E
:104BE000405840F0010104EB8400820005F1080008
:104BF000815070BD70B505460C462146284600F030
:104C000007F908B900BFFEE704EB8400810005F155
:104C10000800405820F0200104EB8400820005F1D8
:104C20000800815070BD70B504460D4629462046E7
:104C300000F0EEF808B900BFFEE705EB8500810043
:104C400004F10800405820F0010105EB85008200C6
:104C500004F108008150002105EB8500820004F179
:104C60000800815005EB8500820004F10C008150A2
:104C700005EB8500820004F11000815005EB8500F2
:104C8000820004F1140081506068AA000F21914055
:104C90000843606070BD30B503461C688D0002FAA1
:104CA00005F52C400CB1012000E0002030BD2DE9BD
:104CB000F04104460D4616462946204600F0A8F865
:104CC00008B900BFFEE705EB8500820004F1100083
:104CD0003168815005EB8500820004F11400B16851
:104CE0008150308A81B205EB8500820004F10C000E
:104CF000815005EB8500810004F10800475827F436
:104D00007C57F1687068084371690843074305EBF5
:104D10008500810004F108004750307E01280ED143
:104D200005EB8500810004F10800405840F0400187
:104D300005EB8500820004F1080081500DE005EBD1
:104D40008500810004F10800405820F0400105EB87
:104D50008500820004F108008150707E01280ED188
:104D600005EB8500810004F10800405840F0800107
:104D700005EB8500820004F1080081500DE005EB91
:104D80008500810004F10800405820F0800105EB07
:104D90008500820004F108008150B07E70B905EBF7
:104DA0008500810004F10800405820F0100105EB57
:104DB0008500820004F1080081500DE005EB8500BC
:104DC000810004F10800405840F0100105EB850017
:104DD000820004F108008150BDE8F08170B50546FD
:104DE0000C462146284600F013F808B900BFFEE73C
:104DF00004EB8400810005F10800405820F4804154
:104E000004EB8400820005F10800815070BD0000B1
:104E100002460120034B9A4202D1042900DD002002
:104E2000704700000004024008B900BFFEE70021FF
:104E30000160416001768160C160417601618176E7
:104E400041617047024908780021014A117070479A
:104E50003800002010B540F2036000F01BFF40F264
:104E6000036000F017FF402303220421044800F0F0
:104E700062F8802303220421014800F05CF810BD91
:104E8000000C014010B5012202211E2000F0C4FCDC
:104E9000FFF7E0FF00F002F810BD000000B587B09A
:104EA00040F2027000F0F6FE1F4801F049FA0020BF
:104EB000ADF80400ADF80600ADF808004FF6FF703D
:104EC00003900020ADF80A008DF8100001A91648E3
:104ED00001F0B6FA0020ADF814000120ADF816007C
:104EE0000020ADF818001020ADF81A0005AA002126
:104EF0000D4801F0F1FA05AA01210B4801F0ECFA86
:104F00005021094801F08BFB00231A460321064873
:104F100001F0ACFB4021044801F089FB024801F09C
:104F20007DFA07B000BD0000000800400AB1016131
:104F300000E041617047F0B50446164600250022A6
:104F400001F00F0501F0100747B1042E05D145F01F
:104F50000305E76B1F43E76300E0354300201EE0D5
:104F6000012787401F40C7B122684FEA800C0F27F6
:104F700007FA0CF7BA43870005FA07F73A432829DE
:104F800004D1012787401F40676105E0482903D10C
:104F9000012787401F4027612260471CB8B20828BC
:104FA000DED3082022E0012787401F40E7B1626876
:104FB000A0F108074FEA870C0F2707FA0CF7BA434E
:104FC000A0F10807BF0005FA07F73A43282904D1E2
:104FD000012787401F40676105E0482903D1012769
:104FE00087401F4027616260471CB8B21028DAD39F
:104FF000F0BD02469068084008B1012070470020CB
:10500000FCE70246D068084008B101207047002044
:10501000FCE70000F0B50A4600230024002100252B
:1050200000F00046B6F1004F02D11D4EF16901E0DB
:105030001B4E7168C0F3034583B200F44016B6F509
:10504000401F08D121F0E061154E766826F0E06639
:10505000134F7E6012E000F48016B6F5801F06D173
:10506000032606FA05F4A14341F0E06106E0460D8F
:10507000360103FA06F6B14341F0E06122B1460D74
:10508000360103FA06F6314300F00046B6F1004F50
:1050900002D1034EF16101E0014E7160F0BD0000EC
:1050A0000000014010B540F2046000F0F3FD40F252
:1050B000046000F0EFFD40F2046000F0EBFD4FF4FF
:1050C000C06000F0E7FD01210C48FFF7A3FF40237B
:1050D000032204210A48FFF72EFF80230322042124
:1050E0000748FFF728FF4FF4807303220421044888
:1050F000FFF721FF00F006F810BD0000000C1A00B9
:105100000010014000B587B040F2017000F0C2FD10
:10511000314801F015F97720ADF804000020ADF812
:105120000600ADF808004FF6FF7003900020ADF8C0
:105130000A008DF8100001A9274801F081F900202C
:10514000ADF814000320ADF816000020ADF81800EB
:10515000ADF81A0005AA00211F4801F0BDF9002092
:10516000ADF814000320ADF816000020ADF81800CB
:10517000ADF81A0005AA0121174801F0ADF9002089
:10518000ADF814000320ADF816000020ADF81800AB
:10519000ADF81A0005AA02210F4801F09DF940213F
:1051A0000D4801F03CFA04210B4801F07FFA002180
:1051B000094801F038F9084800F016FF02210648B6
:1051C00001F039FA0221044801F031FA024801F0F5
:1051D00025F907B000BD00000004004010B5002014
:1051E0001349086040211348FFF703FF28B1104816
:1051F000006840F001000E49086080210D48FFF76B
:10520000F8FE28B10A48006840F00200084908602A
:105210004FF480710748FFF7ECFE28B1044800689E
:1052200040F00400024908600148006810BD000019
:105230005C000020001001409FED040A80ED000A90
:105240009FED020A80ED080A704700000000000090
:1052500010B500221146182000F0DEFA02220121CA
:105260001B2000F0D9FA10BD70B50546304800EBA0
:1052700005142068804700283ED12079052802DAED
:105280000520207153E020790A2803DA2079401C98
:1052900020714CE0A07A38B90120A07205EB4501DD
:1052A000491CC8B200F07AF8208900283FDDE08868
:1052B000218988420DDAE088401CE080E08821895D
:1052C000884234DB05EB4501C91CC8B200F066F822
:1052D0002DE0E07A00282ADD207B401C2073207B13
:1052E000E17A884223DB0020207305EB4501491C4D
:1052F000C8B200F053F81AE02079052802DD052035
:10530000207111E02079002803DD2079401E2071F2
:105310000AE0A07A012807D10020A07205EB450120
:10532000891CC8B200F03AF80020E080207370BDFC
:10533000B400002010B500F023F800F04DF8012073
:105340000149087010BD00003F0000200B480079A3
:105350000A4A5279904201D10020704707480279E9
:105360000079401C054B18711846815C00790428AF
:1053700002DB00201A4610710846EEE739000020D3
:1053800010B540F2046000F085FC012303220421E3
:105390000148FFF7D0FD10BD0010014007494A79D0
:1053A0004979491C054B5971194688544979042992
:1053B00002DB00211A4651717047000039000020BD
:1053C00010B5002400BF04E02046FFF74DFF601C2D
:1053D000C4B2012CF8DB10BD00200021114A11716C
:1053E000517100BF18E064210F4A02EB00121181D5
:1053F00002210D4A02EB0012117100210A4A02EB50
:1054000000129172084A02EB0012D172064A02EBB6
:1054100000121173411CC8B20128E4DB0349024A9F
:105420001160704739000020B40000209543000847
:1054300010B540F2056000F02DFC40F2046000F071
:1054400029FC40F2026000F025FC4FF4C06000F03F
:1054500021FC01211848FFF7DDFD18490B681849A8
:10546000032208681021FFF766FD14494B681449B0
:10547000032248681021FFF75EFD10498B68104930
:10548000032288681021FFF756FD0C4A11680C4A68
:1054900010680122FFF74AFD084A5168084A50681F
:1054A0000122FFF743FD054A9168054A90680122F1
:1054B000FFF73CFD10BD0000000230002800002076
:1054C0001C000020034951F82010034A52F8202004
:1054D00011617047280000201C000020034951F88A
:1054E0002010034A52F82020516170472800002004
:1054F0001C00002070B504460A4A52F824100A4ADB
:1055000052F82400FFF77DFDC0F10100C5B2054A45
:1055100052F82410044A52F824002A46FFF706FDE8
:1055200070BD0000280000201C00002010B50C49B0
:10553000C88A0022114600F059F900224FF40041B8
:105540000848FFF7F3FC012291030648FFF7EEFC41
:1055500000224FF400510348FFF7E8FC10BD0000A3
:10556000C4000020000C014010B50C49C88A00227C
:10557000114600F03BF900224FF400410848FFF7C4
:10558000D5FC00224FF480410548FFF7CFFC0122F3
:1055900051030348FFF7CAFC10BD0000C4000020FF
:1055A000000C014010B50C48C18A0022104600F0E2
:1055B0001DF90122D1030948FFF7B8FC00224FF47E
:1055C00080410648FFF7B2FC00224FF40051034827
:1055D000FFF7ACFC10BD0000C4000020000C01402F
:1055E00010B50C48C18A0022104600F0FFF80022D6
:1055F0004FF400410848FFF799FC00224FF4804126
:105600000548FFF793FC012251030348FFF78EFC86
:1056100010BD0000C4000020000C014010B50C4873
:10562000C28A0021084600F0E1F80122D1030948AE
:10563000FFF77CFC00224FF480410648FFF776FC20
:1056400000224FF400510348FFF770FC10BD00002A
:10565000C4000020000C014010B50C48C28A002193
:10566000084600F0C3F800224FF400410848FFF755
:105670005DFC012291030648FFF758FC00224FF41D
:1056800000510348FFF752FC10BD0000C400002089
:10569000000C014048484949086062B600F07CFCB3
:1056A000FFF7C6FE01F0C4F8FFF7ECFBFFF742FE80
:1056B000FEF7B8FD00F08EF8414800F0AFFE4FF461
:1056C000FA6000F04BFCFFF75DF901203D4948719D
:1056D000087040F25270C88240F6B830C86000F0DE
:1056E00083FB67E038480068401C3749086008467B
:1056F000006832280FD3002008600120FFF7FAFE6F
:1057000030480078012803D10020FFF7E7FE02E0CF
:105710000020FFF7D7FEFFF753FEFFF717FE2B49D8
:10572000087008460078022802D0032811D10FE043
:1057300024480078012805D100202249087000F093
:1057400067FB04E001201F49087000F04DFB01E0F9
:1057500000E000BF00BFFFF775FB1D490870084659
:10576000007820B1012803D002281FD110E01DE0ED
:105770001448007801280AD11248C06841F28831E3
:10578000884204DA0F48C06864300E49C8600DE0F2
:105790000C480078012808D10A48C068642804DD54
:1057A0000848C06864380749C86000BF00BF0A20C5
:1057B00000F0D4FB96E700000040000808ED00E090
:1057C000002C0140C40000200C000020100000202C
:1057D0001100002010B5FFF73BFD00F089F800F044
:1057E000CBF8FFF75FFCFEF771FF10BD70B5044604
:1057F0000D46164622460221064800F05AFD2A466A
:105800000121044800F055FD32460021014800F016
:1058100050FD70BD002C01402DE9F04103460D46BE
:10582000164600240027A0462A48006800F4E060DD
:10583000B0F5E06F03D100BF4FF0040830E0254819
:10584000006800F4E060B0F5C06F03D101274FF0AD
:10585000030825E01F48006800F4E060B0F5A06F81
:1058600002D10227B8461BE01A48006800F4E06045
:10587000B0F5806F03D103274FF0010810E0154801
:10588000006800F4E060B0F5407F03D104274FF0DA
:10589000000805E04FF4A06000F020F80227B846A9
:1058A000C7F1040005FA00F4C8F104010F20C84054
:1058B0003040044324010848C45403F01F01012070
:1058C00088405911890001F1E021C1F80001BDE8CB
:1058D000F08100000CED00E000E400E0024901432B
:1058E000024A1160704700000000FA050CED00E06C
:1058F00010B540F2026000F0CDF940F2036000F014
:10590000C9F94FF4C06000F0C5F94FF48073032269
:1059100018211748FFF70FFB4FF4007303221821DB
:105920001348FFF708FB4FF4806303221821104847
:10593000FFF701FB4FF40053032210210D48FFF73E
:10594000FAFA4FF48043032210210A48FFF7F3FAD2
:105950004FF40043032210210648FFF7ECFA4FF4FE
:105960008053032204210348FFF7E5FA10BD00002D
:1059700000080140000C014000B58BB040F20B6004
:1059800000F088F9514800F0DBFC0020ADF8100071
:105990004020ADF812000020ADF8140040F6A560DC
:1059A00006900020ADF816008DF81C0004A94748A9
:1059B00000F046FD0120ADF820000020ADF82200E7
:1059C000ADF82400ADF82600ADF82800ADF82A00A7
:1059D00008AA00213D4800F049FB08AA01213B48E4
:1059E00000F044FB08AA0221384800F03FFB08AA57
:1059F0000321364800F03AFB4FF47A720021334815
:105A000000F057FC60220021304800F025FC002205
:105A100011462E4800F060FC4FF47A7201212B48A9
:105A200000F047FC60220121284800F015FC00220C
:105A30000121264800F050FC4FF47A7202212348DD
:105A400000F037FC60220221204800F005FC002213
:105A500002211E4800F040FC012203211B4800F0F7
:105A600028FC60220321194800F0F6FB00220321E4
:105A7000164800F031FC4FF40060ADF80000401013
:105A8000ADF80200B820ADF804000020ADF8060023
:105A90004FF48040ADF808000020ADF80A004FF444
:105AA0008050ADF80C006946084800F0A2FA0121C8
:105AB000064800F0CFFD8021044800F0B8FD102119
:105AC000024800F0B4FD0BB000BD0000002C014006
:105AD000184B5968184B1940164BDA6A22F00052DD
:105AE0000C2820D2DFE800F0060708091F0C1F0D64
:105AF0001516171800BF00BF00BF41EA803113E040
:105B000000BF20F004004FF0805343EA8033194374
:105B10000AE000BF00BF00BF20F00C0041EA803166
:105B200042F0005200E000BF00BF024B5960DA6251
:105B30007047000000100240FF3FFFEF2DE9F04FDB
:105B40008CB0074600200A904AA090E8004CC0683C
:105B5000CDE905BECDF810A007900FF21C1ADAE9C6
:105B6000000ACDE9020A0FF2101ADAE9000ACDE9BB
:105B7000000A44484068C0F381000B900B9820B1A4
:105B8000012804D002283FD103E03F4A3EE03E4ACC
:105B90003CE03C48406800F4803CBCF5803F12D1BA
:105BA0003848C06A00F08048B8F1000F01D1364B88
:105BB00000E0364B3348406800F40039B9F5003F47
:105BC00002D15B0800E0324B2E484068C0F38341AD
:105BD0002C48406800F0006008B141F010012948ED
:105BE000406800F0804008B141F020010F2901D247
:105BF000891C06E00F2903D33E2901D8491C00E087
:105C00003F2103FB01F201E01F4A00BF00BF1D4816
:105C10004068C0F3031504A8465D22FA06F419484B
:105C20004068C0F3022502A8465D24FA06F00990F8
:105C300014484068C0F3C2251DF8056024FA06F038
:105C4000089037B1012F06D0022F06D0032F0AD1BA
:105C500006E00A9208E00A9406E009980A9003E038
:105C600008980A9000E000BF00BF0A980CB0BDE899
:105C7000F08F00000000000000000000010203049B
:105C8000060708090010024000127A00006CDC02CE
:105C900000093D00064A02EB9011096800F01F035D
:105CA00001229A401143024B03EB9012116070479E
:105CB00000100240064A02EB9011096800F01F0331
:105CC00001229A409143024B03EB901211607047FE
:105CD00000100240064A02EB9011096800F01F0311
:105CE00001229A401143024B03EB9012116070475E
:105CF0000010024000B587B040F20260FFF7CAFF13
:105D000040F20C60FFF7C6FFA023032218211148C0
:105D1000FFF711F94023032204210E48FFF70BF986
:105D2000002001904FF4827000904FF400600290C8
:105D30000120059040020390282006900020049046
:105D40006946054800F037F8034800F021F807B02D
:105D500000BD0000000801400030014010B50446BD
:105D600000BF0221094800F01EF80028F9D02146A2
:105D7000064800F016F800BF0121044800F013F8AF
:105D80000028F9D0014800F008F810BD00300140AB
:105D9000016841F04001016070470146C86880B267
:105DA0007047C160704702469068084008B1012002
:105DB00070470020FCE702460020106800F44150C4
:105DC0000B6818434B6818438B681843CB6818431B
:105DD0000B6918434B6918438B6918431060D369EA
:105DE00023F40063D361704710B560220221074895
:105DF00000F032FA60220121044800F02DFA6022FE
:105E00000021024800F028FA10BD0000002C0140DB
:105E100010B520220221094800F01EFA202201219B
:105E2000064800F019FA20220021044800F014FA74
:105E3000002211461046FFF7D9FC10BD002C01408E
:105E4000002000213F4A126842F480323D4B1A6024
:105E500000BF401C3B4A126802F4003119B94FF6EA
:105E6000FF729042F5D1374A126802F400320AB943
:105E700000BFFEE7334AD26942F08052314BDA610B
:105E8000314A126842F440422F4B1A602D4A526840
:105E90002C4B5A601A4652685A601A46526842F4AD
:105EA00080625A601A46526822F440325A601A469A
:105EB000526842F440325A601A465268234B1A40E4
:105EC000204B5A601A465268214B1A431D4B5A60A8
:105ED0001A46126842F080721A6000BF194A1268AE
:105EE00002F00072002AF9D0174A126842F4803298
:105EF000154B1A6000BF144A526802F48032002A1F
:105F0000F9D0114A126842F400320F4B1A6000BFF8
:105F10000D4A526802F40032002AF9D0094A526848
:105F200022F00302074B5A601A46526842F00202FE
:105F30005A6000BF034A526802F00802002AF9D0F2
:105F4000704700000010024000700040FFFFC3B720
:105F50000000340810B5FFF773FF10BD10B50346FD
:105F600000F014F8014600F011F80246002400BFCA
:105F700000F00CF802468A4201D3501A02E0C1F147
:105F8000FF30104404469C42F2D310BD0148006823
:105F9000704700003400002010B5124800684FF42C
:105FA0007A71B0FBF1F4601EB0F1807F01D3012063
:105FB0000FE0601E4FF0E02148610F214FF0FF30ED
:105FC000FEF7F8F900204FF0E02188610720086112
:105FD000002008B100BFFEE70021481EFEF7EAF9E5
:105FE00010BD000040000020016841F08001016008
:105FF00070470A884B881A438B881A43CB881A4308
:106000000B891A434B891A438B891A4342647047A0
:1060100031B101290CD0022913D0032922D118E073
:10602000836923F00C0383618369134383611AE05E
:10603000836923F440638361836943EA02238361B4
:1060400011E0C36923F00C03C361C3691343C36147
:1060500009E0C36923F44063C361C36943EA0223CF
:10606000C36100E000BF00BF7047000010B531B150
:1060700001293FD002297DD003297CD1BFE0036AEA
:1060800023F001030362836923F003038361036A3E
:10609000148823430362036A23F002030362036A42
:1060A0009488234303626A4B984202D0694B98421A
:1060B0001FD1036A23F004030362036A5488234355
:1060C0000362036A23F008030362036AD48823434C
:1060D0000362436823F48073436043681489234355
:1060E0004360436823F40073436043685489234347
:1060F0004360ABE0036A23F010030362836923F477
:1061000040738361036A148843EA04130362036AD9
:1061100023F020030362036A948843EA04130362B2
:106120004B4B984202D04B4B984226D1036A23F046
:1061300040030362036A548843EA04130362036A58
:1061400023F080030362036AD48843EA04130362E2
:10615000436823F4806343604368148943EA8403FB
:106160004360436823F4006343604368548943EA0F
:10617000840301E002E068E0436067E0036A23F41F
:1061800080730362C36923F00303C361036A148845
:1061900043EA04230362036A23F400730362036A7D
:1061A000948843EA04230362294B984202D0294B86
:1061B000984223D1036A23F480630362036A5488FC
:1061C00043EA04230362036A23F400630362036A5D
:1061D000D48843EA04230362436823F48053436072
:1061E0004368148943EA04134360436823F400536B
:1061F00043604368548943EA0413436026E0036A1A
:1062000023F480530362C36923F44073C361036AB8
:10621000148843EA04330362036A23F400530362DD
:10622000036A948843EA04330362094B984202D01C
:10623000084B984208D1436823F480434360436885
:10624000148943EA8413436000E000BF00BF10BD1F
:10625000002C01400034014031B101290CD0022949
:1062600013D0032922D118E0836923F070038361DE
:106270008369134383611AE0836923F4E0438361F4
:10628000836943EA0223836111E0C36923F0700349
:10629000C361C3691343C36109E0C36923F4E043E5
:1062A000C361C36943EA0223C36100E000BF00BFCA
:1062B000704731B1012906D0022906D0032908D13F
:1062C00005E0426306E0826304E0C26302E0026428
:1062D00000E000BF00BF704731B101290CD0022996
:1062E00013D0032922D118E0836923F008038361C6
:1062F0008369134383611AE0836923F40063836134
:10630000836943EA0223836111E0C36923F0080330
:10631000C361C3691343C36109E0C36923F4006324
:10632000C361C36943EA0223C36100E000BF00BF49
:10633000704701460020486A70474162704700007C
:1063400010B504463349601A8C4244D00CDCB4F1D9
:10635000804F1CD03048204410B3B0F5806F28D057
:10636000B0F5006F52D12DE0B0F5806F3CD0B0F5A4
:106370008E3F03D0B0F5923F48D13EE040F20B3063
:10638000FFF7A8FC40F20B30FFF794FC3FE04FF41E
:106390008060FFF79FFC4FF48060FFF78BFC36E0D6
:1063A00040F20140FFF796FC40F20140FFF782FC0B
:1063B0002DE040F20240FFF78DFC40F20240FFF773
:1063C00079FC24E040F20340FFF784FC40F20340F4
:1063D000FFF770FC1BE040F20440FFF77BFC40F24B
:1063E0000440FFF767FC12E040F20540FFF772FC43
:1063F00040F20540FFF75EFC09E040F20D30FFF788
:1064000069FC40F20D30FFF755FC00E000BF00BF13
:1064100010BD00000010004000FCFFBF016841F00B
:1064200001010160704721B9426842F08002426078
:1064300005E0012903D1426822F0800242607047E2
:106440000A8882621D4A90420ED0B0F1804F0BD074
:106450001B4A904208D01B4A904205D01A4A9042EB
:1064600002D01A4A90420BD1026822F070020260F8
:1064700002684B881A43026002688B881A430260E4
:106480008A68C262124A90420AD0124A904207D0E9
:10649000026822F4407202600268CB881A430260EC
:1064A000064A904202D0094A904201D10A7B026317
:1064B000426942F00102426170470000002C014035
:1064C0000004004000080040000C0040003401407F
:1064D000001000400014004070B504460E461546FA
:1064E00036B1012E26D0022E48D0032E7DD168E091
:1064F000206A20F001002062206A20F00A00206259
:10650000206A298808432062A06920F00300A06166
:10651000A06969880843A061A06920F0F000A0612B
:10652000A069E98840EA0110A061206A40F00100FA
:1065300020626DE0206A20F010002062206A20F0C6
:10654000A0002062206A298840EA01102062A06928
:1065500020F44070A061A069698840EA0120A06130
:10656000A06920F47040A061A069E98840EA013088
:10657000A061206A40F01000206249E0206A20F407
:1065800080702062206A20F420602062206A2988BE
:1065900040EA01202062E06920F00300E061E06948
:1065A00069880843E061E06920F0F000E061E0699B
:1065B000E98840EA0110E061206A40F480702062BE
:1065C00026E0206A20F480502062206A20F40050E7
:1065D0002062206A298840EA01302062E06920F4C4
:1065E0004070E061E069698800E010E040EA012065
:1065F000E061E06920F47040E061E069E98840EA28
:106600000130E061206A40F48050206200E000BF69
:1066100000BFAA8831462046FFF7FAFC70BD8268A9
:1066200022F07002826082680A4382607047C2680A
:106630000A43C2607047CA43026170470246D0688D
:1066400000EA01031069084010B10BB10120704746
:106650000020FCE7012904D1426C42F4004242646C
:1066600003E0426C22F400424264704730B5846813
:1066700024F00704846084680C438460846940F2D9
:106680000335AC438461846940F201152C43846175
:10669000046A24F00A040462046A24F0A004046278
:1066A000046A42EA03152C43046230BD826822F07A
:1066B0000702826082680A4382607047014606488A
:1066C0000078884206D00448017009B9002070475C
:1066D0000120FCE70220FAE7600000202DE9F047E6
:1066E00004460D460027B846B94600261D49601AE3
:1066F0008C421CD006DC1C48204470B1B0F5806F81
:106700001FD10FE0B0F5806F16D0B0F56C4F18D1E7
:106710000320FFF713FA074614E00220FFF70EFAF2
:1067200007460FE00220FFF709FA07460AE00220B9
:10673000FFF704FA074605E00220FFF7FFF90746D6
:1067400000E000BF00BF07EB5500B0FBF5F64FF6C9
:10675000F07006EA000806F00F0948EA0900A06098
:10676000BDE8F087004C004000BCFFBF10B50446F8
:106770002049601A8C4228D006DC1F48204490B182
:10678000B0F5806F33D117E0B0F5806F26D0B0F54B
:106790006C4F2CD140F20E30FFF79CFA40F20E30D5
:1067A000FFF788FA24E040F21140FFF793FA40F235
:1067B0001140FFF77FFA1BE040F21240FFF78AFA20
:1067C00040F21240FFF776FA12E040F21340FFF772
:1067D00081FA40F21340FFF76DFA09E040F21440ED
:1067E000FFF778FA40F21440FFF764FA00E000BFC8
:1067F00000BF10BD004C004000BCFFBF426922F04A
:1068000040024261426901F040031A43426170470D
:10681000426922F080024261426901F080031A431A
:1068200042617047C16841F40051C1607047000087
:1068300000B587B040F20460FFF72CFA4FF4A06077
:10684000FFF728FA40F21270FFF724FA4FF4C06005
:10685000FFF720FA01214548FEF7DCFB4FF4806387
:10686000032218214248FEF766FB4FF4006303221F
:1068700004213F48FEF75FFB3E48FFF777FF4FF4E8
:1068800061213C48FFF72AFF04213A4800F07AF8DA
:106890000821384800F0C4F83648FFF7C3FF01214B
:1068A0003548FEF7C0F96846FEF7BEFA01208DF8BC
:1068B0001A003248029001208DF819000020039040
:1068C000202004902B48001D009000208DF8180017
:1068D00001904FF4405005906A4601212648FEF78A
:1068E000E6F902212448FEF79EF96846FEF79CFA75
:1068F00000208DF81A002248029001208DF819001E
:1069000000200390202004901A48001D00900020D1
:106910008DF8180001904FF4405005906A4602210E
:106920001548FEF7C4F901211348FEF763F9012168
:106930001148FEF753FA02210F48FEF75BF90221D6
:106940000D48FEF74BFA40210A48FFF757FF012197
:106950000948FEF736F980210648FFF759FF022162
:106960000548FEF72EF907B000BD00001000140026
:106970000010014000480040000002409400002048
:1069800074000020C26822F00402C260C26801F0F4
:1069900004031A43C260704730B587B005460C4601
:1069A000202C34D2022201211A48FEF774F9012862
:1069B0002DD1224629461848FDF7D6FB012115485E
:1069C000FEF731F96846FEF72FFA01208DF81A001C
:1069D0001148029001208DF81900002003900494C2
:1069E0000E48009000208DF8180001904FF44050A0
:1069F00005906A4601210748FEF759F9012105482B
:106A0000FEF7F8F801210348FEF7DBF800BF07B0F6
:106A100030BD000000000240940000200448004007
:106A2000C26822F00802C260C26801F008031A437B
:106A3000C2607047546A0008000000206400000033
:106A4000F8450008B86A000864000020B40400009B
:106A500008460008000000000000000000000000E0
:106A60000000000000000000000000000000000026
:106A70000014014000100140000801400400000023
:106A80000010000000800000000000000000000076
:106A900000000000000E270769550008A5550008F2
:106AA000E1550008595600082D5500081D560008EC
:086AB0000000000000000000DE
:04000005080041317D
:00000001FF
