:020000040800F2
:10400000E8080020D1410008854300087D430008EE
:1040100081430008774300082545000800000000A0
:10402000000000000000000000000000B343000892
:104030007B43000800000000B1430008B5430008BE
:10404000EB410008EB410008EB410008EB410008A0
:10405000EB410008EB410008EB410008EB41000890
:10406000EB410008EB410008EB410008EB41000880
:10407000EB410008EB410008EB410008EB41000870
:10408000EB410008EB410008EB410008EB41000860
:10409000EB410008EB410008EB410008EB41000850
:1040A000EB410008EB410008EB410008EB41000840
:1040B000EB410008EB4100086D440008EB410008AB
:1040C000EB410008EB410008EB410008EB41000820
:1040D000EB410008EB410008EB410008EB41000810
:1040E000EB410008EB410008EB410008EB41000800
:1040F000EB410008EB410008EB410008EB410008F0
:10410000EB410008EB410008EB410008EB410008DF
:10411000EB410008EB410008EB410008EB410008CF
:10412000EB410008EB410008EB410008EB410008BF
:1041300000F002F800F03CF80AA090E8000C82447D
:104140008344AAF10107DA4501D100F031F8AFF25A
:10415000090EBAE80F0013F0010F18BFFB1A43F065
:104160000103184788150000A8150000103A24BF65
:1041700078C878C1FAD8520724BF30C830C144BFCC
:1041800004680C607047000000230024002500260E
:10419000103A28BF78C1FBD8520728BF30C148BFAA
:1041A0000B6070471FB501F09BFA1FBD10B510BD25
:1041B00000F0A8F81146FFF7F5FF00F00FFC00F043
:1041C000C6F803B4FFF7F2FF03BC00F0CDF800001F
:1041D0000948804709480047FEE7FEE7FEE7FEE79B
:1041E000FEE7FEE7FEE7FEE7FEE7FEE704480549D7
:1041F000054A064B70470000C543000831410008DE
:10420000E8000020E8080020E8040020E80400207E
:10421000032A40F2308010F0030C00F0158011F8F2
:10422000013BBCF1020F624498BF11F801CB00F8CA
:10423000013B38BF11F8013BA2F1040298BF00F81E
:1042400001CB38BF00F8013B11F0030300F02880D8
:10425000083AC0F0088051F8043B083A51F804CB02
:10426000A0E80810F5E7121D5CBF51F8043B40F8C8
:10427000043BAFF30080D20724BF11F8013B11F8D3
:1042800001CB48BF11F8012B24BF00F8013B00F817
:1042900001CB48BF00F8012B70477047704770474B
:1042A00010B5203AC0F00B80B1E81850203AA0E8D1
:1042B0001850B1E81850A0E81850BFF4F5AF5FEA05
:1042C000027C24BFB1E81850A0E8185044BF18C9B8
:1042D00018C0BDE810405FEA827C24BF51F8043B5F
:1042E00040F8043B08BF7047D20728BF31F8023BB3
:1042F00048BF11F8012B28BF20F8023B48BF00F847
:10430000012B7047754600F02BF8AE460500694654
:10431000534620F00700854618B020B5FFF766FF2A
:10432000BDE820404FF000064FF000074FF00008B6
:104330004FF0000B21F00701AC46ACE8C009ACE837
:10434000C009ACE8C009ACE8C0098D46704710B59B
:104350000446AFF300802046BDE81040FFF731BFB0
:10436000004870478400002001491820ABBEFEE7DA
:1043700026000200704700BFFEE7704700BFFEE75F
:1043800000BFFEE77047000010B5002807DA0A07F3
:10439000140E054A00F00F031B1FD45403E00A0754
:1043A000130E024A135410BD18ED00E000E400E0C3
:1043B0007047704702480068401C01490860704718
:1043C0000400002008B52648006840F47000244925
:1043D00008602448006840F001002249086000BFDE
:1043E0002048006800F002000028F9D000BF1D48F6
:1043F000406840F080001B4948600020009002E0C7
:104400000098401C009000985028F9D31548406847
:1044100040F09000134948600020009002E00098AE
:10442000401C009000985028F9D300BF0D48406808
:1044300020F003000B494860084600680A4908401C
:10444000084908604FF41F0088600846006820F49F
:104450008020086000204860C86200F061FD08BD4F
:1044600088ED00E000100240FFFFF6FE10B50221CB
:10447000254800F068FF012834D10221224800F0CD
:104480005FFF0121204800F05BFF00211E4800F083
:1044900096FD401C1D49086008460068E0B10121F6
:1044A000194800F08CFD401C194908600846006856
:1044B0004FF47A71484315490968B0FBF1F015498A
:1044C0000880124800681449B1FBF0F013490880D5
:1044D00001201349087016E000200E4908800F499A
:1044E000088010E00121084800F02DFF01280AD1C2
:1044F0000121054800F024FF0020064908800749F3
:1045000008800749087010BD00080040080000201E
:104510000C0000201000002040420F00120000207C
:104520001400002000BFFEE770B505460C4621468A
:10453000284600F01FF908B900BFFEE704EB84002D
:10454000810005F10800405840F0010104EB8400AF
:10455000820005F10800815070BD70B505460C461B
:104560002146284600F006F908B900BFFEE704EB33
:104570008400810005F10800405820F0200104EB80
:104580008400820005F10800815070BD70B50446BA
:104590000D462946204600F0EDF808B900BFFEE7B9
:1045A00005EB8500810004F10800405820F001016E
:1045B00005EB8500820004F108008150002105EB25
:1045C0008500820004F10800815005EB850082001F
:1045D00004F10C00815005EB8500820004F110000D
:1045E000815005EB8500820004F114008150606861
:1045F000AA000F2191400843606070BD30B50346AA
:104600001C688D0002FA05F52C400CB1012000E079
:10461000002030BD2DE9F04104460D4616462946DE
:10462000204600F0A7F808B900BFFEE705EB8500BB
:10463000820004F110003168815005EB8500820092
:1046400004F11400B1688150308A81B205EB850015
:10465000820004F10C00815005EB8500810004F11B
:104660000800475827F47C57F1687068084371695F
:104670000843074305EB8500810004F1080047501B
:10468000307E01280ED105EB8500810004F1080081
:10469000405840F0400105EB8500820004F108001D
:1046A00081500DE005EB8500810004F108004058C1
:1046B00020F0400105EB8500820004F108008150E4
:1046C000707E01280ED105EB8500810004F1080001
:1046D000405840F0800105EB8500820004F108009D
:1046E00081500DE005EB8500810004F10800405881
:1046F00020F0800105EB8500820004F10800815064
:10470000B07E70B905EB8500810004F108004058C7
:1047100020F0100105EB8500820004F108008150B3
:104720000DE005EB8500810004F10800405840F0E1
:10473000100105EB8500820004F108008150BDE8FE
:10474000F08170B505460C462146284600F012F867
:1047500008B900BFFEE704EB8400810005F1080002
:10476000405820F4804104EB8400820005F10800E9
:10477000815070BD02460120034B9A4202D10429A8
:1047800000DD0020704700000004024008B900BFAF
:10479000FEE700210160416001768160C1604176E1
:1047A00001618176416170470AB1016100E04161B8
:1047B0007047F0B5044616460025002201F00F05AB
:1047C00001F0100747B1042E05D145F00305E76B52
:1047D0001F43E76300E0354300201EE001278740C8
:1047E0001F40C7B122684FEA800C0F2707FA0CF769
:1047F000BA43870005FA07F73A43282904D101276D
:1048000087401F40676105E0482903D101278740A1
:104810001F4027612260471CB8B20828DED3082059
:1048200022E0012787401F40E7B16268A0F1080736
:104830004FEA870C0F2707FA0CF7BA43A0F10807D5
:10484000BF0005FA07F73A43282904D1012787401A
:104850001F40676105E0482903D1012787401F40B9
:1048600027616260471CB8B21028DAD3F0BD024657
:10487000D068084008B1012070470020FCE7000024
:10488000F0B50A46002300240021002500F0004670
:10489000B6F1004F02D11D4EF16901E01B4E716867
:1048A000C0F3034583B200F44016B6F5401F08D1AB
:1048B00021F0E061154E766826F0E066134F7E60C9
:1048C00012E000F48016B6F5801F06D1032606FA22
:1048D00005F4A14341F0E06106E0460D360103FA1C
:1048E00006F6B14341F0E06122B1460D360103FA0C
:1048F00006F6314300F00046B6F1004F02D1034EF8
:10490000F16101E0014E7160F0BD00000000014066
:1049100010B540F2056000F049FA40F2046000F082
:1049200045FA40F2026000F041FA4FF4C06000F036
:104930003DFA01211848FFF7A3FF18490B681849F1
:10494000032208681021FFF734FF14494B6814490B
:10495000032248681021FFF72CFF10498B6810498B
:10496000032288681021FFF724FF0C4A11680C4AC3
:1049700010680122FFF718FF084A5168084A50687A
:104980000122FFF711FF054A9168054A906801224C
:10499000FFF70AFF10BD00000002300024000020D5
:1049A0001800002070B504460A4A52F824100A4A3A
:1049B00052F82400FFF75BFFC0F10100C5B2054AC1
:1049C00052F82410044A52F824002A46FFF7ECFE5D
:1049D00070BD0000240000201800002008B59FEDE5
:1049E0001F0A8DED000A1E481E49086062B600F0DD
:1049F000B9FAFFF78DFF00F071FD00F0D1F82BE060
:104A000019491A4800F0A2F81848008800EE100A68
:104A1000B8EE400A8DED000A154800990160124871
:104A2000008800EE100AB8EE400A8DED000A10482A
:104A30000099416000200E490873487380208873F4
:104A40007F20C87310210A4800F0FCFD0120FFF709
:104A5000A9FF642000F068FAD2E70000000000001F
:104A60000040000808ED00E00200002000000020E7
:104A7000340000202DE9F04103460D46164600247F
:104A80000027A0462A48006800F4E060B0F5E06F17
:104A900003D100BF4FF0040830E02548006800F45F
:104AA000E060B0F5C06F03D101274FF0030825E0A7
:104AB0001F48006800F4E060B0F5A06F02D1022743
:104AC000B8461BE01A48006800F4E060B0F5806F5B
:104AD00003D103274FF0010810E01548006800F4E7
:104AE000E060B0F5407F03D104274FF0000805E0F7
:104AF0004FF4A06000F020F80227B846C7F1040088
:104B000005FA00F4C8F104010F20C8403040044306
:104B100024010848C45403F01F01012088405911A2
:104B2000890001F1E021C1F80001BDE8F081000039
:104B30000CED00E000E400E002490143024A11608C
:104B4000704700000000FA050CED00E0024608483E
:104B5000007830B107480088108007480088088036
:104B600002E00020108008800148007870470000B3
:104B700014000020120000201000002010B540F2A8
:104B8000036000F013F94FF4C06000F00FF9402308
:104B9000032204210148FFF70CFE10BD000C014068
:104BA00000B587B0FFF7EAFF012211461E20FFF78C
:104BB00061FF40F2027000F0F9F8254800F042FA77
:104BC0007720ADF804000020ADF80600ADF808002D
:104BD0004FF6FF7003900020ADF80A008DF810002A
:104BE00001A91B4800F0A2FA0020ADF81400012032
:104BF000ADF816000020ADF81800ADF81A0005AAAF
:104C00000021134800F0DEFA5021114800F08CFB1F
:104C100004210F4800F0B0FB00210D4800F09FFB7D
:104C20000B4800F0C7F90221094800F089FB012177
:104C3000074800F085FB0221054800F07DFB0121BB
:104C4000034800F079FB024800F06AFA07B000BDA3
:104C5000000800402DE9F04F8CB0074600200A9074
:104C60004AA090E8004CC068CDE905BECDF810A080
:104C700007900FF21C1ADAE9000ACDE9020A0FF2D6
:104C8000101ADAE9000ACDE9000A44484068C0F386
:104C900081000B900B9820B1012804D002283FD14D
:104CA00003E03F4A3EE03E4A3CE03C48406800F4B6
:104CB000803CBCF5803F12D13848C06A00F0804883
:104CC000B8F1000F01D1364B00E0364B3348406855
:104CD00000F40039B9F5003F02D15B0800E0324B27
:104CE0002E484068C0F383412C48406800F00060C3
:104CF00008B141F010012948406800F0804008B137
:104D000041F020010F2901D2891C06E00F2903D3AD
:104D10003E2901D8491C00E03F2103FB01F201E0DC
:104D20001F4A00BF00BF1D484068C0F3031504A818
:104D3000465D22FA06F419484068C0F3022502A82D
:104D4000465D24FA06F0099014484068C0F3C22575
:104D50001DF8056024FA06F0089037B1012F06D03F
:104D6000022F06D0032F0AD106E00A9208E00A9427
:104D700006E009980A9003E008980A9000E000BF56
:104D800000BF0A980CB0BDE8F08F000000000000E2
:104D90000000000001020304060708090010024099
:104DA00000127A00006CDC0200093D00064A02EBAA
:104DB0009011096800F01F0301229A401143024B31
:104DC00003EB90121160704700100240064A02EB9C
:104DD0009011096800F01F0301229A409143024B91
:104DE00003EB90121160704700100240064A02EB7C
:104DF0009011096800F01F0301229A401143024BF1
:104E000003EB901211607047001002400020002157
:104E10003F4A126842F480323D4B1A6000BF401C8A
:104E20003B4A126802F4003119B94FF6FF72904202
:104E3000F5D1374A126802F400320AB900BFFEE722
:104E4000334AD26942F08052314BDA61314A1268FA
:104E500042F440422F4B1A602D4A52682C4B5A6044
:104E60001A4652685A601A46526842F480625A6082
:104E70001A46526822F440325A601A46526842F486
:104E800040325A601A465268234B1A40204B5A60EF
:104E90001A465268214B1A431D4B5A601A46126833
:104EA00042F080721A6000BF194A126802F0007264
:104EB000002AF9D0174A126842F48032154B1A6062
:104EC00000BF144A526802F48032002AF9D0114A15
:104ED000126842F400320F4B1A6000BF0D4A52684C
:104EE00002F40032002AF9D0094A526822F0030283
:104EF000074B5A601A46526842F002025A6000BFDD
:104F0000034A526802F00802002AF9D070470000F4
:104F10000010024000700040FFFFC3B700003408DB
:104F200010B5FFF773FF10BD10B5034600F014F87D
:104F3000014600F011F80246002400BF00F00CF812
:104F400002468A4201D3501A02E0C1F1FF301044F8
:104F500004469C42F2D310BD01480068704700002F
:104F60000400002010B5124800684FF47A71B0FBBD
:104F7000F1F4601EB0F1807F01D301200FE0601ECC
:104F80004FF0E02148610F214FF0FF30FFF7FCF9AF
:104F900000204FF0E021886107200861002008B15F
:104FA00000BFFEE70021481EFFF7EEF910BD00002C
:104FB00030000020016841F0800101607047024626
:104FC000002031B1012906D0022906D0032908D1D9
:104FD00005E0506B06E0906B04E0D06B02E0106CD3
:104FE00000E000BF00BF704731B101290CD0022999
:104FF00013D0032922D118E0836923F00C038361C5
:105000008369134383611AE0836923F440638361F6
:10501000836943EA0223836111E0C36923F00C032F
:10502000C361C3691343C36109E0C36923F44063E7
:10503000C361C36943EA0223C36100E000BF00BF4C
:105040007047000010B504463349601A8C4244D0C2
:105050000CDCB4F1804F1CD03048204410B3B0F5C4
:10506000806F28D0B0F5006F52D12DE0B0F5806F81
:105070003CD0B0F58E3F03D0B0F5923F48D13EE032
:1050800040F20B30FFF7B2FE40F20B30FFF79EFE0E
:105090003FE04FF48060FFF7A9FE4FF48060FFF718
:1050A00095FE36E040F20140FFF7A0FE40F20140DD
:1050B000FFF78CFE2DE040F20240FFF797FE40F232
:1050C0000240FFF783FE24E040F20340FFF78EFE2C
:1050D00040F20340FFF77AFE1BE040F20440FFF786
:1050E00085FE40F20440FFF771FE12E040F20540F9
:1050F000FFF77CFE40F20540FFF768FE09E040F252
:105100000D30FFF773FE40F20D30FFF75FFE00E059
:1051100000BF00BF10BD00000010004000FCFFBF3A
:10512000016841F001010160704700000A88826255
:105130001D4A90420ED0B0F1804F0BD01B4A9042D6
:1051400008D01B4A904205D01A4A904202D01A4A0F
:1051500090420BD1026822F07002026002684B8814
:105160001A43026002688B881A4302608A68C2622E
:10517000124A90420AD0124A904207D0026822F4A2
:10518000407202600268CB881A430260064A90426D
:1051900002D0094A904201D10A7B0263426942F07F
:1051A0000102426170470000002C014000040040F1
:1051B00000080040000C0040003401400010004096
:1051C000001400402DE9F04104460E461546002724
:1051D000B846288808B9022700E000276888012817
:1051E00002D14FF0020801E04FF00108002E4CD12F
:1051F000206A20F001002062206A20F00A0020626C
:10520000206A298808432062A06920F00300A06179
:10521000A06969880843A061A06920F0F000A0613E
:10522000A069E98840EA0110A061206A40F001000D
:105230002062AA8800212046FFF7D6FE206A20F0CF
:1052400010002062206A20F0A0002062206A40EA5C
:1052500007102062A06920F44070A061A06940EAB4
:105260000820A061A06920F47040A061A069E988CD
:1052700040EA0130A061206A40F010002062AA8854
:1052800001212046FFF7B0FE4CE0206A20F010001C
:105290002062206A20F0A0002062206A298840EA6B
:1052A00001102062A06920F44070A061A0696988A3
:1052B00040EA0120A061A06920F47040A061A069CB
:1052C000E98840EA0130A061206A40F010002062C5
:1052D000AA8801212046FFF787FE206A20F00100FE
:1052E0002062206A20F00A002062206A384320628F
:1052F000A06920F00300A061A06940EA0800A06155
:10530000A06920F0F000A061A069E98840EA0110DE
:10531000A061206A40F001002062AA880021204696
:10532000FFF762FEBDE8F081826822F070028260C1
:1053300082680A4382607047C2680A43C26070474D
:10534000CA43026170470246D06800EA010310694F
:10535000084010B10BB1012070470020FCE721B9D3
:10536000826842F08002826005E0012903D18268F0
:1053700022F0800282607047826822F00702826019
:1053800082680A43826070472DE9F04704460D4663
:105390000027B846B94600261D49601A8C421CD029
:1053A00006DC1C48204470B1B0F5806F1FD10FE0BF
:1053B000B0F5806F16D0B0F56C4F18D10320FFF711
:1053C00049FC074614E00220FFF744FC07460FE0C3
:1053D0000220FFF73FFC07460AE00220FFF73AFCF5
:1053E000074605E00220FFF735FC074600E000BF56
:1053F00000BF07EB5500B0FBF5F64FF6F07006EA7C
:10540000000806F00F0948EA0900A060BDE8F0872F
:10541000004C004000BCFFBF10B504462049601A94
:105420008C4228D006DC1F48204490B1B0F5806F34
:1054300033D117E0B0F5806F26D0B0F56C4F2CD18A
:1054400040F20E30FFF7D2FC40F20E30FFF7BEFC08
:1054500024E040F21140FFF7C9FC40F21140FFF791
:10546000B5FC1BE040F21240FFF7C0FC40F21240D6
:10547000FFF7ACFC12E040F21340FFF7B7FC40F23C
:105480001340FFF7A3FC09E040F21440FFF7AEFC25
:1054900040F21440FFF79AFC00E000BF00BF10BDCF
:1054A000004C004000BCFFBF426922F04002426154
:1054B000426901F040031A4342617047426922F099
:1054C00080024261426901F080031A4342617047E1
:1054D000C16841F40051C1607047000000B587B059
:1054E00040F20460FFF762FC4FF4A060FFF75EFC3F
:1054F00040F21270FFF75AFC4FF4C060FFF756FC01
:1055000001214548FFF7BCF94FF4806303221821BD
:105510004248FFF74EF94FF40063032204213F484D
:10552000FFF747F93E48FFF777FF4FF461213C480A
:10553000FFF72AFF04213A4800F07AF8082138489A
:1055400000F0C4F83648FFF7C3FF01213548FFF7E4
:105550001DF86846FFF71AF901208DF81A00324845
:10556000029001208DF81900002003902020049063
:105570002B48001D009000208DF8180001904FF47A
:10558000405005906A4601212648FFF743F8022162
:105590002448FEF7FBFF6846FFF7F8F800208DF877
:1055A0001A002248029001208DF819000020039073
:1055B000202004901A48001D009000208DF818004B
:1055C00001904FF4405005906A4602211548FFF7BC
:1055D00021F801211348FEF7C0FF01211148FFF710
:1055E000B0F802210F48FEF7B8FF02210D48FFF77F
:1055F000A8F840210A48FFF757FF01210948FEF7A4
:1056000093FF80210648FFF759FF02210548FEF766
:105610008BFF07B000BD0000100014000010014017
:1056200000480040000002406400002044000020C8
:10563000C26822F00402C260C26801F004031A4387
:10564000C260704730B587B005460C46202C34D276
:10565000022201211A48FEF7D1FF01282DD122464E
:1056600029461848FEF7D4FD01211548FEF78EFFA4
:105670006846FFF78BF801208DF81A001148029058
:1056800001208DF819000020039004940E4800902A
:1056900000208DF8180001904FF4405005906A46A4
:1056A00001210748FEF7B6FF01210548FEF755FF27
:1056B00001210348FEF738FF00BF07B030BD0000EE
:1056C000000002406400002004480040C26822F04C
:1056D0000802C260C26801F008031A43C260704742
:1056E0004FF04070E1EE100A704700000C570008C0
:1056F00000000020340000006C4100084057000802
:1057000034000020B40800008841000800000000B8
:105710000000000000000000000000000000000089
:10572000000000000014014000100140000801408A
:10573000040000000010000000800000000E270799
:04000005080041317D
:00000001FF
