:020000040800F2
:10400000A8080020D1410008854300087D4300082E
:1040100081430008774300086D4400080000000059
:10402000000000000000000000000000B343000892
:104030007B43000800000000B1430008B5430008BE
:10404000EB410008EB410008EB410008EB410008A0
:10405000EB410008EB410008EB410008EB41000890
:10406000EB410008EB410008EB410008EB41000880
:10407000EB410008EB410008EB410008EB41000870
:10408000EB410008EB410008EB410008EB41000860
:10409000EB410008EB410008EB410008EB41000850
:1040A000EB410008EB410008EB410008EB41000840
:1040B000EB410008EB410008EB410008EB41000830
:1040C000EB410008EB410008EB410008EB41000820
:1040D000EB410008EB410008EB410008EB41000810
:1040E000EB410008EB410008EB410008EB41000800
:1040F000EB410008EB410008EB410008EB410008F0
:10410000EB410008EB410008EB410008EB410008DF
:10411000EB410008EB410008EB410008EB410008CF
:10412000EB410008EB410008EB410008EB410008BF
:1041300000F002F800F03CF80AA090E8000C82447D
:104140008344AAF10107DA4501D100F031F8AFF25A
:10415000090EBAE80F0013F0010F18BFFB1A43F065
:1041600001031847400E0000600E0000103A24BF03
:1041700078C878C1FAD8520724BF30C830C144BFCC
:1041800004680C607047000000230024002500260E
:10419000103A28BF78C1FBD8520728BF30C148BFAA
:1041A0000B6070471FB500F0F7FE1FBD10B510BDC6
:1041B00000F0A8F81146FFF7F5FF00F03FFB00F014
:1041C000C6F803B4FFF7F2FF03BC00F0CDF800001F
:1041D0000948804709480047FEE7FEE7FEE7FEE79B
:1041E000FEE7FEE7FEE7FEE7FEE7FEE704480549D7
:1041F000054A064B70470000C543000831410008DE
:10420000A8000020A8080020A8040020A80400207E
:10421000032A40F2308010F0030C00F0158011F8F2
:10422000013BBCF1020F624498BF11F801CB00F8CA
:10423000013B38BF11F8013BA2F1040298BF00F81E
:1042400001CB38BF00F8013B11F0030300F02880D8
:10425000083AC0F0088051F8043B083A51F804CB02
:10426000A0E80810F5E7121D5CBF51F8043B40F8C8
:10427000043BAFF30080D20724BF11F8013B11F8D3
:1042800001CB48BF11F8012B24BF00F8013B00F817
:1042900001CB48BF00F8012B70477047704770474B
:1042A00010B5203AC0F00B80B1E81850203AA0E8D1
:1042B0001850B1E81850A0E81850BFF4F5AF5FEA05
:1042C000027C24BFB1E81850A0E8185044BF18C9B8
:1042D00018C0BDE810405FEA827C24BF51F8043B5F
:1042E00040F8043B08BF7047D20728BF31F8023BB3
:1042F00048BF11F8012B28BF20F8023B48BF00F847
:10430000012B7047754600F02BF8AE460500694654
:10431000534620F00700854618B020B5FFF766FF2A
:10432000BDE820404FF000064FF000074FF00008B6
:104330004FF0000B21F00701AC46ACE8C009ACE837
:10434000C009ACE8C009ACE8C0098D46704710B59B
:104350000446AFF300802046BDE81040FFF731BFB0
:10436000004870474800002001491820ABBEFEE716
:1043700026000200704700BFFEE7704700BFFEE75F
:1043800000BFFEE77047000010B5002807DA0A07F3
:10439000140E054A00F00F031B1FD45403E00A0754
:1043A000130E024A135410BD18ED00E000E400E0C3
:1043B0007047704702480068401C01490860704718
:1043C0000000002008B52648006840F47000244929
:1043D00008602448006840F001002249086000BFDE
:1043E0002048006800F002000028F9D000BF1D48F6
:1043F000406840F080001B4948600020009002E0C7
:104400000098401C009000985028F9D31548406847
:1044100040F09000134948600020009002E00098AE
:10442000401C009000985028F9D300BF0D48406808
:1044300020F003000B494860084600680A4908401C
:10444000084908604FF41F0088600846006820F49F
:104450008020086000204860C86200F0A7FB08BD0B
:1044600088ED00E000100240FFFFF6FE00BFFEE70F
:1044700070B505460C462146284600F01FF908B9DC
:1044800000BFFEE704EB8400810005F108004058FE
:1044900040F0010104EB8400820005F10800815026
:1044A00070BD70B505460C462146284600F006F959
:1044B00008B900BFFEE704EB8400810005F10800A5
:1044C000405820F0200104EB8400820005F1080030
:1044D000815070BD70B504460D462946204600F057
:1044E000EDF808B900BFFEE705EB8500810004F197
:1044F0000800405820F0010105EB8500820004F11E
:1045000008008150002105EB8500820004F10800BD
:10451000815005EB8500820004F10C00815005EB11
:104520008500820004F11000815005EB85008200B7
:1045300004F1140081506068AA000F2191400843E3
:10454000606070BD30B503461C688D0002FA05F549
:104550002C400CB1012000E0002030BD2DE9F041DD
:1045600004460D4616462946204600F0A7F808B92D
:1045700000BFFEE705EB8500820004F11000316802
:10458000815005EB8500820004F11400B168815070
:10459000308A81B205EB8500820004F10C00815065
:1045A00005EB8500810004F10800475827F47C578B
:1045B000F1687068084371690843074305EB85009B
:1045C000810004F108004750307E01280ED105EB30
:1045D0008500810004F10800405840F0400105EBDF
:1045E0008500820004F1080081500DE005EB850094
:1045F000810004F10800405820F0400105EB8500DF
:10460000820004F108008150707E01280ED105EB74
:104610008500810004F10800405840F0800105EB5E
:104620008500820004F1080081500DE005EB850053
:10463000810004F10800405820F0800105EB85005E
:10464000820004F108008150B07E70B905EB85004E
:10465000810004F10800405820F0100105EB8500AE
:10466000820004F1080081500DE005EB8500810017
:1046700004F10800405840F0100105EB850082006D
:1046800004F108008150BDE8F08170B505460C4684
:104690002146284600F012F808B900BFFEE704EBF7
:1046A0008400810005F10800405820F4804104EBAB
:1046B0008400820005F10800815070BD024601208F
:1046C000034B9A4202D1042900DD0020704700000C
:1046D0000004024008B900BFFEE70021016041600C
:1046E00001768160C16041760161817641617047E8
:1046F000F0B5044616460025002201F00F0501F032
:10470000100747B1042E05D145F00305E76B1F43A1
:10471000E76300E0354300201EE0012787401F408B
:10472000C7B122684FEA800C0F2707FA0CF7BA438B
:10473000870005FA07F73A43282904D10127874063
:104740001F40676105E0482903D1012787401F40CA
:1047500027612260471CB8B20828DED3082022E077
:10476000012787401F40E7B16268A0F108074FEAC0
:10477000870C0F2707FA0CF7BA43A0F10807BF0010
:1047800005FA07F73A43282904D1012787401F403B
:10479000676105E0482903D1012787401F40276151
:1047A0006260471CB8B21028DAD3F0BDF0B50A46F3
:1047B000002300240021002500F00046B6F1004F40
:1047C00002D11D4EF16901E01B4E7168C0F3034533
:1047D00083B200F44016B6F5401F08D121F0E06125
:1047E000154E766826F0E066134F7E6012E000F406
:1047F0008016B6F5801F06D1032606FA05F4A143FC
:1048000041F0E06106E0460D360103FA06F6B143D9
:1048100041F0E06122B1460D360103FA06F631435C
:1048200000F00046B6F1004F02D1034EF16101E005
:10483000014E7160F0BD00000000014088B0002012
:1048400004900590069007909FED210A8DED030AD4
:10485000B2EE040A8DED020AB2EE040A8DED010AF1
:104860001C481D49086062B600F0C2F900F092FAD7
:104870002CE003980490029805900198069000207F
:104880008DF81C008DF81D0080208DF81E007F2003
:104890008DF81F009DED030AF7EE000A30EE200AA6
:1048A0008DED030A9DED030ADFED0C0AB4EEE00A7C
:1048B000F1EE10FA03DD9FED060A8DED030A1021DB
:1048C00004A800F01BFB0A2000F074F9D1E70000F7
:1048D000000000000040000808ED00E00000C842B1
:1048E0002DE9F04F8CB0074600200A904AA090E8CE
:1048F000004CC068CDE905BECDF810A007900FF2BE
:104900001C1ADAE9000ACDE9020A0FF2101ADAE9F4
:10491000000ACDE9000A44484068C0F381000B90CA
:104920000B9820B1012804D002283FD103E03F4A70
:104930003EE03E4A3CE03C48406800F4803CBCF528
:10494000803F12D13848C06A00F08048B8F1000FAB
:1049500001D1364B00E0364B3348406800F4003953
:10496000B9F5003F02D15B0800E0324B2E484068A9
:10497000C0F383412C48406800F0006008B141F06A
:1049800010012948406800F0804008B141F0200142
:104990000F2901D2891C06E00F2903D33E2901D833
:1049A000491C00E03F2103FB01F201E01F4A00BF68
:1049B00000BF1D484068C0F3031504A8465D22FAF5
:1049C00006F419484068C0F3022502A8465D24FA9F
:1049D00006F0099014484068C0F3C2251DF8056030
:1049E00024FA06F0089037B1012F06D0022F06D026
:1049F000032F0AD106E00A9208E00A9406E009981B
:104A00000A9003E008980A9000E000BF00BF0A98EF
:104A10000CB0BDE8F08F00000000000000000000B6
:104A200001020304060708090010024000127A0080
:104A3000006CDC0200093D00064A02EB9011096897
:104A400000F01F0301229A401143024B03EB901226
:104A50001160704700100240064A02EB901109688D
:104A600000F01F0301229A409143024B03EB901286
:104A70001160704700100240064A02EB901109686D
:104A800000F01F0301229A401143024B03EB9012E6
:104A90001160704700100240002000213F4A126858
:104AA00042F480323D4B1A6000BF401C3B4A126802
:104AB00002F4003119B94FF6FF729042F5D1374A2E
:104AC000126802F400320AB900BFFEE7334AD26925
:104AD00042F08052314BDA61314A126842F440426E
:104AE0002F4B1A602D4A52682C4B5A601A46526856
:104AF0005A601A46526842F480625A601A465268F6
:104B000022F440325A601A46526842F440325A60E7
:104B10001A465268234B1A40204B5A601A46526874
:104B2000214B1A431D4B5A601A46126842F080729C
:104B30001A6000BF194A126802F00072002AF9D008
:104B4000174A126842F48032154B1A6000BF144AAB
:104B5000526802F48032002AF9D0114A126842F4F5
:104B600000320F4B1A6000BF0D4A526802F4003247
:104B7000002AF9D0094A526822F00302074B5A6012
:104B80001A46526842F002025A6000BF034A526855
:104B900002F00802002AF9D070470000001002401D
:104BA00000700040FFFFC3B70000340810B5FFF7E6
:104BB00073FF10BD10B5034600F014F8014600F075
:104BC00011F80246002400BF00F00CF802468A42A9
:104BD00001D3501A02E0C1F1FF30104404469C4258
:104BE000F2D310BD014800687047000000000020AB
:104BF00010B5124800684FF47A71B0FBF1F4601EF2
:104C0000B0F1807F01D301200FE0601E4FF0E02162
:104C100048610F214FF0FF30FFF7B6FB00204FF047
:104C2000E021886107200861002008B100BFFEE78D
:104C30000021481EFFF7A8FB10BD00000400002063
:104C40002DE9F04704460D460027B846B946002630
:104C50001D49601A8C421CD006DC1C48204470B1EF
:104C6000B0F5806F1FD10FE0B0F5806F16D0B0F5B2
:104C70006C4F18D10320FFF733FE074614E00220E3
:104C8000FFF72EFE07460FE00220FFF729FE07463A
:104C90000AE00220FFF724FE074605E00220FFF7A6
:104CA0001FFE074600E000BF00BF07EB5500B0FB4A
:104CB000F5F64FF6F07006EA000806F00F0948EA2C
:104CC0000900A060BDE8F087004C004000BCFFBFB9
:104CD00010B504462049601A8C4228D006DC1F48D3
:104CE000204490B1B0F5806F33D117E0B0F5806FFC
:104CF00026D0B0F56C4F2CD140F20E30FFF7BCFE41
:104D000040F20E30FFF7A8FE24E040F21140FFF71A
:104D1000B3FE40F21140FFF79FFE1BE040F212404D
:104D2000FFF7AAFE40F21240FFF796FE12E040F2B3
:104D30001340FFF7A1FE40F21340FFF78DFE09E09C
:104D400040F21440FFF798FE40F21440FFF784FE53
:104D500000E000BF00BF10BD004C004000BCFFBF22
:104D6000426922F040024261426901F040031A4365
:104D700042617047426922F080024261426901F05B
:104D800080031A4342617047C16841F40051C16019
:104D90007047000000B587B040F20460FFF74CFE9A
:104DA0004FF4A060FFF748FE40F21270FFF744FE98
:104DB0004FF4C060FFF740FE01214548FFF7F6FCC5
:104DC0004FF48063032218214248FFF791FC4FF40F
:104DD0000063032204213F48FFF78AFC3E48FFF7A7
:104DE00077FF4FF461213C48FFF72AFF04213A483E
:104DF00000F07AF80821384800F0C4F83648FFF788
:104E0000C3FF01213548FFF765FB6846FFF762FCE9
:104E100001208DF81A003248029001208DF8190007
:104E200000200390202004902B48001D00900020BB
:104E30008DF8180001904FF4405005906A4601210A
:104E40002648FFF78BFB02212448FFF743FB684607
:104E5000FFF740FC00208DF81A0022480290012044
:104E60008DF8190000200390202004901A48001D9E
:104E7000009000208DF8180001904FF440500590EC
:104E80006A4602211548FFF769FB01211348FFF725
:104E900008FB01211148FFF7F8FB02210F48FFF73B
:104EA00000FB02210D48FFF7F0FB40210A48FFF705
:104EB00057FF01210948FFF7DBFA80210648FFF779
:104EC00059FF02210548FFF7D3FA07B000BD0000E3
:104ED0001000140000100140004800400000024093
:104EE0002800002008000020C26822F00402C260EE
:104EF000C26801F004031A43C260704730B587B03E
:104F000005460C46202C34D2022201211A48FFF714
:104F100019FB01282DD1224629461848FFF778F9B8
:104F200001211548FFF7D6FA6846FFF7D3FB0120A9
:104F30008DF81A001148029001208DF81900002008
:104F4000039004940E48009000208DF81800019002
:104F50004FF4405005906A4601210748FFF7FEFADA
:104F600001210548FFF79DFA01210348FFF780FA68
:104F700000BF07B030BD0000000002402800002044
:104F800004480040C26822F00802C260C26801F012
:104F900008031A43C26070474FF04070E1EE100AF8
:104FA00070470000C44F0008000000200800000007
:104FB0006C410008CC4F000808000020A008000049
:0C4FC0008841000800000000000E2707D8
:04000005080041317D
:00000001FF
