:020000040800F2
:10400000A00B0020F1410008A54300089D430008D3
:10401000A1430008974300088D44000800000000F9
:10402000000000000000000000000000D343000872
:104030009B43000800000000D1430008D54300085E
:104040000B4200080B4200080B4200080B4200081C
:104050000B4200080B4200080B4200080B4200080C
:104060000B4200080B4200080B4200080B420008FC
:104070000B4200080B4200080B4200080B420008EC
:104080000B4200080B4200080B4200080B420008DC
:104090000B4200080B4200080B4200080B420008CC
:1040A0000B4200080B4200080B4200080B420008BC
:1040B0000B4200080B4200080B4200080B420008AC
:1040C0000B4200080B4200080B4200080B4200089C
:1040D0000B4200080B4200080B4200080B4200088C
:1040E0000B4200080B4200080B4200080B4200087C
:1040F0000B4200080B4200080B4200080B4200086C
:104100000B4200080B4200080B4200080B4200085B
:104110000B4200080B4200080B4200080B4200084B
:104120000B4200080B4200080B4200080B4200083B
:1041300000F002F800F04CF80AA090E8000C82446D
:104140008344AAF10107DA4501D100F041F8AFF24A
:10415000090EBAE80F0013F0010F18BFFB1A43F065
:1041600001031847DC190000FC1900000A4410F88C
:10417000014B14F00F0508BF10F8015B240908BFBC
:1041800010F8014B6D1E05D010F8013B6D1E01F8B3
:10419000013BF9D1641E03D0641E01F8015BFBD121
:1041A0009142E4D37047000000230024002500263C
:1041B000103A28BF78C1FBD8520728BF30C148BF8A
:1041C0000B6070471FB501F0B0FC1FBD10B510BDEE
:1041D00000F0A8F81146FFF7F5FF00F0ABFD00F086
:1041E000C6F803B4FFF7F2FF03BC00F0CDF80000FF
:1041F0000948804709480047FEE7FEE7FEE7FEE77B
:10420000FEE7FEE7FEE7FEE7FEE7FEE704480549B6
:10421000054A064B70470000E5430008314100089D
:10422000A0030020A00B0020A0070020A007002072
:10423000032A40F2308010F0030C00F0158011F8D2
:10424000013BBCF1020F624498BF11F801CB00F8AA
:10425000013B38BF11F8013BA2F1040298BF00F8FE
:1042600001CB38BF00F8013B11F0030300F02880B8
:10427000083AC0F0088051F8043B083A51F804CBE2
:10428000A0E80810F5E7121D5CBF51F8043B40F8A8
:10429000043BAFF30080D20724BF11F8013B11F8B3
:1042A00001CB48BF11F8012B24BF00F8013B00F8F7
:1042B00001CB48BF00F8012B70477047704770472B
:1042C00010B5203AC0F00B80B1E81850203AA0E8B1
:1042D0001850B1E81850A0E81850BFF4F5AF5FEAE5
:1042E000027C24BFB1E81850A0E8185044BF18C998
:1042F00018C0BDE810405FEA827C24BF51F8043B3F
:1043000040F8043B08BF7047D20728BF31F8023B92
:1043100048BF11F8012B28BF20F8023B48BF00F826
:10432000012B7047754600F02BF8AE460500694634
:10433000534620F00700854618B020B5FFF766FF0A
:10434000BDE820404FF000064FF000074FF0000896
:104350004FF0000B21F00701AC46ACE8C009ACE817
:10436000C009ACE8C009ACE8C0098D46704710B57B
:104370000446AFF300802046BDE81040FFF731BF90
:10438000004870473C03002001491820ABBEFEE7FF
:1043900026000200704700BFFEE7704700BFFEE73F
:1043A00000BFFEE77047000010B5002807DA0A07D3
:1043B000140E054A00F00F031B1FD45403E00A0734
:1043C000130E024A135410BD18ED00E000E400E0A3
:1043D0007047704702480068401C014908607047F8
:1043E0000C00002008B52648006840F470002449FD
:1043F00008602448006840F001002249086000BFBE
:104400002048006800F002000028F9D000BF1D48D5
:10441000406840F080001B4948600020009002E0A6
:104420000098401C009000985028F9D31548406827
:1044300040F09000134948600020009002E000988E
:10444000401C009000985028F9D300BF0D484068E8
:1044500020F003000B494860084600680A490840FC
:10446000084908604FF41F0088600846006820F47F
:104470008020086000204860C86200F071FE08BD1E
:1044800088ED00E000100240FFFFF6FE00BFFEE7EF
:1044900010B540F2026000F0A9FD40F2046000F0A7
:1044A000A5FD802304220021184800F02EFB1023D4
:1044B00004220021164800F028FB40F20A6000F0B8
:1044C00095FD002000F0B0FC002000F0EBF800218A
:1044D000104800F059F8012211460E4800F031F85A
:1044E0004FF4602201210B4800F081F801221146AF
:1044F000084800F05DF8074800F051F8012000F08E
:1045000033FE044800F008F810BD00000008014028
:104510000010014000280140816841F008018160DD
:1045200000BF816801F008010029FAD1816841F0DB
:104530000401816000BF816801F004010029FAD103
:10454000704730B5012902D002291AD10CE0C36AA4
:1045500023F47003C362C36A541E4FF4700505EA66
:1045600004542343C3620DE0836B23F4401383633D
:10457000836B541E4FF4401505EA045423438363B0
:1045800000E000BF00BF30BD21B1826842F400628C
:10459000826003E0826822F4006282607047816872
:1045A00001F0010119B9816841F001018160704792
:1045B00072B101F001031BB1836843F4801383607F
:1045C00001F0020393B1836843F4004383600DE07C
:1045D00001F001031BB1836823F48013836001F0B1
:1045E00002031BB1836823F40043836070470129F1
:1045F00002D0022910D107E0836823F4602383608E
:1046000083681343836008E0836823F4E043836096
:1046100083681343836000E000BF00BF7047CA4354
:10462000026070470246002013680B4003B101206E
:104630007047000010B50123072200210A4800F04E
:104640003FF80121084800F095F800BF0221064814
:10465000FFF7E8FF0028F9D002210348FFF7DFFF4A
:10466000014800F083F810BD0028014010B5012377
:104670000E2200210A4800F023F80121084800F02A
:1046800079F800BF02210648FFF7CCFF0028F9D0D7
:1046900002210348FFF7C3FF014800F067F810BD8F
:1046A000002801400549096821F47021034A11607E
:1046B000114609680143116070470000042401405D
:1046C000F0B51D4606290CD2436B01EB81071F266E
:1046D000BE40B34301EB810602FA06F6334343635F
:1046E00022E00C290ED2036B8E1F06EB86071F26D5
:1046F000BE40B3438E1F06EB860602FA06F633432E
:10470000036311E010290FD2C36AA1F10C0606EB76
:1047100086071F26BE40B343A1F10C0606EB8606B2
:1047200002FA06F63343C3620A2A0CD2046902EB8A
:1047300042070726BE40B44302EB420605FA06F6DE
:104740003443046111E0122A0FD2C468A2F10A06B0
:1047500006EB46070726BE40B443A2F10A0606EB65
:10476000460605FA06F63443C460F0BD0146C86C3F
:1047700080B2704701F001021AB1826842F48002EF
:10478000826001F002021AB1826842F40012826073
:104790007047000030B501460020AF231EE0C4186A
:1047A00004EBD4756A10354C04EB8204B4F9024072
:1047B0008C4201DA531E10E0304C04EB8204B4F951
:1047C00002408C4201DD501C07E02C4C34F92240A1
:1047D00000EE104AB8EEC00A30BD00BF9842DEDDE0
:1047E00038B9264AB2F9002000EE102AB8EEC00A05
:1047F000F2E7AF2B07D1214AB2F9BC2200EE102A12
:10480000B8EEC00AE8E7421E1C4C34F9222000EE44
:10481000102AB8EEC00AF0EE400A421E04EB8202F3
:10482000B2F9022000EE102AB8EEC00AB0EE401A2B
:10483000224632F9202000EE102AB8EEC00AF0EE2F
:10484000401A224602EB8002B2F9022000EE102A42
:10485000B8EEC00AB0EE402A71EEE02A00EE101A5F
:10486000B8EE400A30EE410A22EE800A32EE413ABA
:10487000C0EE032A32EEA00AAEE7000028000020B6
:1048800070B505460C462146284600F01FF908B9C8
:1048900000BFFEE704EB8400810005F108004058EA
:1048A00040F0010104EB8400820005F10800815012
:1048B00070BD70B505460C462146284600F006F945
:1048C00008B900BFFEE704EB8400810005F1080091
:1048D000405820F0200104EB8400820005F108001C
:1048E000815070BD70B504460D462946204600F043
:1048F000EDF808B900BFFEE705EB8500810004F183
:104900000800405820F0010105EB8500820004F109
:1049100008008150002105EB8500820004F10800A9
:10492000815005EB8500820004F10C00815005EBFD
:104930008500820004F11000815005EB85008200A3
:1049400004F1140081506068AA000F2191400843CF
:10495000606070BD30B503461C688D0002FA05F535
:104960002C400CB1012000E0002030BD2DE9F041C9
:1049700004460D4616462946204600F0A7F808B919
:1049800000BFFEE705EB8500820004F110003168EE
:10499000815005EB8500820004F11400B16881505C
:1049A000308A81B205EB8500820004F10C00815051
:1049B00005EB8500810004F10800475827F47C5777
:1049C000F1687068084371690843074305EB850087
:1049D000810004F108004750307E01280ED105EB1C
:1049E0008500810004F10800405840F0400105EBCB
:1049F0008500820004F1080081500DE005EB850080
:104A0000810004F10800405820F0400105EB8500CA
:104A1000820004F108008150707E01280ED105EB60
:104A20008500810004F10800405840F0800105EB4A
:104A30008500820004F1080081500DE005EB85003F
:104A4000810004F10800405820F0800105EB85004A
:104A5000820004F108008150B07E70B905EB85003A
:104A6000810004F10800405820F0100105EB85009A
:104A7000820004F1080081500DE005EB8500810003
:104A800004F10800405840F0100105EB8500820059
:104A900004F108008150BDE8F08170B505460C4670
:104AA0002146284600F012F808B900BFFEE704EBE3
:104AB0008400810005F10800405820F4804104EB97
:104AC0008400820005F10800815070BD024601207B
:104AD000034B9A4202D1042900DD002070470000F8
:104AE0000004024008B900BFFEE7002101604160F8
:104AF00001768160C16041760161817641617047D4
:104B00000AB1016100E041617047F0B50446164604
:104B10000025002201F00F0501F0100747B1042E17
:104B200005D145F00305E76B1F43E76300E035431C
:104B300000201EE0012787401F40C7B122684FEACE
:104B4000800C0F2707FA0CF7BA43870005FA07F71E
:104B50003A43282904D1012787401F40676105E0B7
:104B6000482903D1012787401F4027612260471C45
:104B7000B8B20828DED3082022E0012787401F4072
:104B8000E7B16268A0F108074FEA870C0F2707FA20
:104B90000CF7BA43A0F10807BF0005FA07F73A433C
:104BA000282904D1012787401F40676105E0482973
:104BB00003D1012787401F4027616260471CB8B2BC
:104BC0001028DAD3F0BD0246D068084008B10120B1
:104BD00070470020FCE70000F0B50A4600230024DF
:104BE0000021002500F00046B6F1004F02D11D4E15
:104BF000F16901E01B4E7168C0F3034583B200F414
:104C00004016B6F5401F08D121F0E061154E7668D8
:104C100026F0E066134F7E6012E000F48016B6F5D1
:104C2000801F06D1032606FA05F4A14341F0E06196
:104C300006E0460D360103FA06F6B14341F0E061A5
:104C400022B1460D360103FA06F6314300F0004664
:104C5000B6F1004F02D1034EF16101E0014E7160E7
:104C6000F0BD00000000014010B540F2056000F00A
:104C7000BDF940F2046000F0B9F940F2026000F0C2
:104C8000B5F94FF4C06000F0B1F901211848FFF701
:104C9000A3FF18490B681849032208681021FFF781
:104CA00034FF14494B681449032248681021FFF768
:104CB0002CFF10498B681049032288681021FFF7E8
:104CC00024FF0C4A11680C4A10680122FFF718FFF4
:104CD000084A5168084A50680122FFF711FF054A47
:104CE0009168054A90680122FFF70AFF10BD000095
:104CF000000230001C0000201000002070B50446A7
:104D00000A4A52F824100A4A52F82400FFF75BFFBF
:104D1000C0F10100C5B2054A52F82410044A52F805
:104D200024002A46FFF7ECFE70BD00001C000020A6
:104D3000100000202DED088B2E482F49086062B628
:104D400000F030FAFFF790FF00F0FEFAFFF7A0FB4B
:104D50004FE0FFF76FFC2949088008460088FFF7FD
:104D600019FD274880ED000AFFF780FC25490880DF
:104D70000846008800EE100AB8EE400A10EE100A4D
:104D800000F062FE41EC1B0B9FED1F0B53EC102B50
:104D900000F05CFD41EC1A0B9FED1D0B53EC102B4A
:104DA00000F0FCFB41EC190B9FED1B0B53EC102B9F
:104DB00000F04CFD41EC180B00F0BEFB18490860F8
:104DC00018480F49096801601549096841600020C9
:104DD000144908734873802088737F20C87310219A
:104DE000104800F05BFB0120FFF788FF642000F013
:104DF000BBF9AEE70040000808ED00E0020000202B
:104E000004000020000000206666666666660A40B0
:104E1000000000000000B0400000000000003A4028
:104E200008000020EC020020184B5968184B19406C
:104E3000164BDA6A22F000520C2820D2DFE800F08C
:104E4000060708091F0C1F0D1516171800BF00BF15
:104E500000BF41EA803113E000BF20F004004FF0B2
:104E6000805343EA803319430AE000BF00BF00BF0C
:104E700020F00C0041EA803142F0005200E000BF17
:104E800000BF024B5960DA62704700000010024018
:104E9000FF3FFFEF2DE9F04F8CB0074600200A904E
:104EA0004AA090E8004CC068CDE905BECDF810A03E
:104EB00007900FF21C1ADAE9000ACDE9020A0FF294
:104EC000101ADAE9000ACDE9000A44484068C0F344
:104ED00081000B900B9820B1012804D002283FD10B
:104EE00003E03F4A3EE03E4A3CE03C48406800F474
:104EF000803CBCF5803F12D13848C06A00F0804841
:104F0000B8F1000F01D1364B00E0364B3348406812
:104F100000F40039B9F5003F02D15B0800E0324BE4
:104F20002E484068C0F383412C48406800F0006080
:104F300008B141F010012948406800F0804008B1F4
:104F400041F020010F2901D2891C06E00F2903D36B
:104F50003E2901D8491C00E03F2103FB01F201E09A
:104F60001F4A00BF00BF1D484068C0F3031504A8D6
:104F7000465D22FA06F419484068C0F3022502A8EB
:104F8000465D24FA06F0099014484068C0F3C22533
:104F90001DF8056024FA06F0089037B1012F06D0FD
:104FA000022F06D0032F0AD106E00A9208E00A94E5
:104FB00006E009980A9003E008980A9000E000BF14
:104FC00000BF0A980CB0BDE8F08F000000000000A0
:104FD0000000000001020304060708090010024057
:104FE00000127A00006CDC0200093D00064A02EB68
:104FF0009011096800F01F0301229A401143024BEF
:1050000003EB90121160704700100240064A02EB59
:105010009011096800F01F0301229A409143024B4E
:1050200003EB90121160704700100240064A02EB39
:105030009011096800F01F0301229A401143024BAE
:1050400003EB901211607047001002400020002115
:105050003F4A126842F480323D4B1A6000BF401C48
:105060003B4A126802F4003119B94FF6FF729042C0
:10507000F5D1374A126802F400320AB900BFFEE7E0
:10508000334AD26942F08052314BDA61314A1268B8
:1050900042F440422F4B1A602D4A52682C4B5A6002
:1050A0001A4652685A601A46526842F480625A6040
:1050B0001A46526822F440325A601A46526842F444
:1050C00040325A601A465268234B1A40204B5A60AD
:1050D0001A465268214B1A431D4B5A601A461268F1
:1050E00042F080721A6000BF194A126802F0007222
:1050F000002AF9D0174A126842F48032154B1A6020
:1051000000BF144A526802F48032002AF9D0114AD2
:10511000126842F400320F4B1A6000BF0D4A526809
:1051200002F40032002AF9D0094A526822F0030240
:10513000074B5A601A46526842F002025A6000BF9A
:10514000034A526802F00802002AF9D070470000B2
:105150000010024000700040FFFFC3B70000340899
:1051600010B5FFF773FF10BD10B5034600F014F83B
:10517000014600F011F80246002400BF00F00CF8D0
:1051800002468A4201D3501A02E0C1F1FF301044B6
:1051900004469C42F2D310BD0148006870470000ED
:1051A0000C00002010B5124800684FF47A71B0FB73
:1051B000F1F4601EB0F1807F01D301200FE0601E8A
:1051C0004FF0E02148610F214FF0FF30FFF7ECF87E
:1051D00000204FF0E021886107200861002008B11D
:1051E00000BFFEE70021481EFFF7DEF810BD0000FB
:1051F000E80200202DE9F04704460D460027B84696
:10520000B94600261D49601A8C421CD006DC1C4899
:10521000204470B1B0F5806F1FD10FE0B0F5806F02
:1052200016D0B0F56C4F18D10320FFF733FE0746B8
:1052300014E00220FFF72EFE07460FE00220FFF7E2
:1052400029FE07460AE00220FFF724FE074605E094
:105250000220FFF71FFE074600E000BF00BF07EB7C
:105260005500B0FBF5F64FF6F07006EA000806F0C0
:105270000F0948EA0900A060BDE8F087004C004033
:1052800000BCFFBF10B504462049601A8C4228D0EC
:1052900006DC1F48204490B1B0F5806F33D117E091
:1052A000B0F5806F26D0B0F56C4F2CD140F20E30A7
:1052B000FFF7BCFE40F20E30FFF7A8FE24E040F2FC
:1052C0001140FFF7B3FE40F21140FFF79FFE1BE0D5
:1052D00040F21240FFF7AAFE40F21240FFF796FE9E
:1052E00012E040F21340FFF7A1FE40F21340FFF737
:1052F0008DFE09E040F21440FFF798FE40F21440A2
:10530000FFF784FE00E000BF00BF10BD004C00406E
:1053100000BCFFBF426922F040024261426901F0D5
:1053200040031A4342617047426922F080024261A1
:10533000426901F080031A4342617047C16841F439
:105340000051C1607047000000B587B040F20460B2
:10535000FFF74CFE40F20150FFF748FE40F2137099
:10536000FFF744FE4FF48063032218214148FFF702
:10537000CCFB4FF40063032204213E48FFF7C5FB3A
:105380003D48FFF77FFF4FF461213B48FFF732FFB5
:105390000421394800F078F80821374800F0C2F8B5
:1053A0003548FFF7CBFF04213448FFF79BFA6846E6
:1053B000FFF798FB01208DF81A0031480290012078
:1053C0008DF8190000200390202004902A48001D29
:1053D000009000208DF8180001904FF44050059087
:1053E0006A4604212548FFF7C1FA02212348FFF746
:1053F00079FA6846FFF776FB00208DF81A002148FD
:10540000029001208DF819000020039020200490C4
:105410001948001D009000208DF8180001904FF4ED
:10542000405005906A4602211448FFF79FFA042174
:105430001248FFF73EFA04211048FFF72EFB022125
:105440000E48FFF736FA02210C48FFF726FB4021F1
:105450000948FFF75FFF04210848FFF711FA802190
:105460000548FFF761FF02210448FFF709FA07B07A
:1054700000BD000000100140004C0040000402404C
:105480001C030020FC020020C26822F00402C2605B
:10549000C26801F004031A43C260704730B587B098
:1054A00005460C46202C34D2022204211A48FFF76C
:1054B00051FA01282DD1224629461848FEF7B8FE98
:1054C00004211548FFF70EFA6846FFF70BFB012091
:1054D0008DF81A001148029001208DF81900002063
:1054E000039004940E48009000208DF8180001905D
:1054F0004FF4405005906A4604210748FFF736FAFA
:1055000004210548FFF7D5F904210348FFF7B8F94E
:1055100000BF07B030BD0000000402401C030020A3
:10552000044C0040C26822F00802C260C26801F068
:1055300008031A43C260704721F00042A2F1605292
:10554000B2F5801F01F0004328BFD2F17F6C0BD968
:105550005FEA001C43EAC20242EB507018BF70477A
:1055600028BF20F001007047B2F5801FBCBF18466D
:1055700070474FEA410C1CF5001F02D2084600F0AC
:10558000D9BA70B500F00CFA00000089FFF7F6BF39
:105590004FF00040A0F58000704700002DE9C041A9
:1055A00030B4DFF8A0C23CEA111418BF3CEA13146F
:1055B00000F0EC8081EA03051CEA111444EAD5747A
:1055C00018BF1CEA131500F0C780A4EB05044FF0C8
:1055D000004545EAC12145EAC32341EA505143EA67
:1055E000525304F17F74994204F500344FEAC0200D
:1055F0004FEAC22208BF904200F09C804FEA136538
:105600000FF24016765D4FEA134506FB05F7C7F12A
:10561000807706FB07F74FEAD737A7FB0368764288
:10562000C8F58038A7FB06CE38BFA8F1010807FBF4
:1056300008E64FF0000EA6FB028CE6FB03CEDCF181
:10564000000CCEF1004E38BFAEF1010EA6FB0C5897
:105650004FF000074FF00005E6FB0E87A1FB08C6E0
:10566000A0FB07CE16EB0E0645F10005E1FB076532
:1056700015F1E04E7EBFA4F580345FEA46066D4129
:1056800016F1800745F100054FEA17274FEA066635
:1056900047EA0567A6F1DE46B6F1805F4FEA1525B9
:1056A0001FD9384624F0010C05EBC471BCF1FE6F24
:1056B00001EB0C1102D8F0BCBDE8008124425CBFB4
:1056C00001F5801E9EEAC47F02D4F0BCBDE80081D3
:1056D000244238D4F0BCA1F1C041BDE8004100F043
:1056E000ADB94FEAD22242EA43524FEAD323A7FB95
:1056F00002864FEAD02040EA415007FB03661EEACB
:105700000E0F4FEAD12105FB026658BFA6EB0056EB
:10571000B6EB00564FEA520E4EEAC37E18EB0E0E61
:1057200056EB530EBDD518EB02085E417F1C55F1B8
:105730000005B6E74FF480154FF000074FF0000664
:105740004FF00008ADE7F0BC4FF0000001F1C041A0
:1057500001F00041BDE8008111EA0C1F0CEA1315AD
:1057600000D00CE013EA0C1F00F025804FF0000081
:10577000F0BC81EA030101F00041BDE80081F0BC0A
:10578000BDE8004181EA030100F058B9F0BCBDE872
:10579000004170B500F004F9097EFC3E00F007B846
:1057A00081EA03014FF0000001F00041704781EAF7
:1057B000030100F043B9F0BCBDE800414FF0000028
:1057C00021497047FFFDFBF9F7F5F4F2F0EEEDEB40
:1057D000E9E8E6E4E3E1E0DEDDDBDAD8D7D5D4D3EF
:1057E000D1D0CFCDCCCBCAC8C7C6C5C4C2C1C0BF3B
:1057F000BEBDBCBBBAB9B8B7B6B5B4B3B2B1B0AF41
:10580000AEADACABAAA9A8A8A7A6A5A4A3A3A2A124
:10581000A09F9F9E9D9C9C9B9A99999897979695DF
:1058200095949393929191908F8F8E8E8D8C8C8B7B
:105830008B8A898988888787868585848483838203
:10584000828181800000FF070000F87FDFF848C1F7
:1058500070B51CEA111E1EBF1CEA13159EEA0C0F40
:1058600095EA0C0F00F06F8081EA030423EA4C13E1
:105870004EEAD47E21EA4C1141F4801143F48013A6
:10588000AE44A1FB024CA0FB0365AEF17F7E36194E
:1058900055EB0C05A1FB034C4CF10003A0FB021CD3
:1058A00016EB0C06654153F10003094218BF46F0A0
:1058B000010613F4007F0BD14FEA03314FEA0530A4
:1058C000340341EA155140EA16506FF003020AE032
:1058D0004FEAC3214FEAC520F40241EA555140EA9C
:1058E00056506FF0020202EB2E4201EB025585EAA0
:1058F000CE710AD05FEA440C18BF24F0004450F186
:10590000000041F1000120EAD47040F2FE7C6245C3
:1059100000D270BDA84214BF4FF080444FF0404405
:10592000002E08BF0024BEF1806FA8BFA1F1C041C6
:10593000BDE8704080F282804FF0000001F1C0416C
:1059400001F0004170479EEA0C0F0CEA131518BFD6
:1059500095EA0C0F06D04FF0000081EA030E0EF01E
:10596000004170BD00F01CF88900013E00F007B84E
:1059700000F009B84FEA430C5FEA5C5C08D081EAAA
:10598000030100F05BB84FEA410C5FEA5C5CF6D1C2
:105990004FF00000014970470000FF070000F87F4A
:1059A0000EF1020E2EF0030E5EF8046B364205D4A3
:1059B000012A43EB030515F5001F12D8012841EB1E
:1059C000010C1CF5001F0CD80ED14FEAD17C15F547
:1059D000001F0CEB4C0C0CF1020C08BF4CEBD37C01
:1059E00004E04FF0080C01E04FEAD37C0CEB4C05CF
:1059F00026FA05F606F00706B6F1040C06D20EEB01
:105A0000860CBDE870404CF0010C6047DFE80CF0FC
:105A1000090B02024FF000414FF00000A1F50021F8
:105A200070BD19461046012851EB010418BFD4F58A
:105A3000001484BF002001F0004170BD0808A0F5EB
:105A400000114FEA3101704743004FEAD30C4FEA8F
:105A50003C0C43401FBF40070CF1605113F0FE4F58
:105A600070471CF0006F03D100200CF0004170471C
:105A70000CF0004343EA507010B540EACC0000F04F
:105A80000EF800BF000000924FEA0001FFF7D6BFFA
:105A90004FF000414FF00000A1F5002170470EF1DA
:105AA000020E2EF0030E5EF8044B244204D44FEA9B
:105AB0004102B2F17F4F11D84FEA4003B3F17F4F5B
:105AC0000CD80ED14FEAD07CB2F17F4F0CEB4C0CCE
:105AD0000CF1020C08BF4CEBD17C04E04FF0080C39
:105AE00001E04FEAD17C0CEB4C0324FA03F404F000
:105AF0000704B4F1040C06D20EEB840CBDE8104090
:105B00004CF0010C6047DFE80CF0070802024FF090
:105B10000040A0F5800010BD0846420018BFD2F139
:105B2000807288BF00F0004010BD4FF04070E1EE81
:105B3000100A7047FF2141EAD050C00570470000AD
:105B4000605B000800000020EC0200006C410008CF
:105B5000385E0008EC020020B4080000A8410008EC
:105B600001125D1401400010014000080140044290
:105B700010328030C9CEFFC60FCFFFC10FD0FFBD9E
:105B80000FD1FFB80FD2FFB30FD3FFAD0FD4FFA7D4
:105B90000FD5FFA10FD6FF9B0FD7FF940FD8FF8C17
:105BA0000FD9FF840FDAFF7C0FDBFF730FDCFF6A76
:105BB0000FDDFF600FDEFF560FDFFF4B0FE0FF40F2
:105BC0000FE1FF340FE2FF280FE3FF1A0FE4FF0D90
:105BD0000FE5FFFE0EE6FFEF0EE7FFDF0EE8FFCE5C
:105BE0000EE9FFBD0EEAFFAB0EEBFF980EECFF8453
:105BF0000EEDFF700EEEFF5A0EEFFF440EF0FF2D7C
:105C00000EF1FF150EF2FFFC0DF3FFE20DF4FFC8DD
:105C10000DF5FFAC0DF6FF900DF7FF720DF8FF5478
:105C20000DF9FF350DFAFF150DFBFFF40CFCFFD24B
:105C30000CFDFFAF0CFEFF8C0CFFFF670C2C420C21
:105C400001001C0C0200F50B032CCE0B0400A60B6C
:105C500005007D0B062C530B0700290B0800FF0ADB
:105C6000092CD30A0A00A80A0B007C0A0C2C4F0A44
:105C70000D00230A0E00F6090F2CC80910009B091D
:105C800011006D09122C3F09130011091400E408DA
:105C9000152CB6081600880817005B0818342D0864
:105CA000192F081A00D3071B00A7071C007A071D2D
:105CB0002C4E071E0023071F00F806202CCD0621BE
:105CC00000A30622007A06232C510624002906256B
:105CD000000106262CDA052700B30528008D0529CA
:105CE0002C68052A0044052B0020052C2CFD042DD2
:105CF00000DB042E00B9042F2C9804300078043106
:105D0000005804322C3A0433001C043400FE0335DE
:105D10002CE2033600C6033700AA03382C9003395F
:105D20000076033A005D033B2C44033C002C033D0A
:105D30000015033E2CFE023F00E8024000D3024162
:105D40002CBE024200AA0243009602442C83024564
:105D500000700246005E02472C4D0248003C02499A
:105D6000002B024A2C1B024B000C024C00FD014D83
:105D70002CEE014E00E0014F00D201502CC5015124
:105D800000B8015200AB01532C9F01540093015500
:105D9000008801562C7D0157007201580068015996
:105DA0002C5D015A0054015B004A015C2C41015DED
:105DB0000038015E002F015F2C270160001F016188
:105DC00000170162380F0163000801642F016500AC
:105DD000F9006600F3006700EC00682EE600690039
:105DE000DF006A00D9006B00D42E6C00CE006D007D
:105DF000C8006E00C3006F2EBE007000B9007100B5
:105E0000B4007200AF2E7300AB007400A6007500E2
:105E1000A200762E9E0077009A0078009600790006
:105E2000922E7A008E007B008B007C0087007D32F2
:085E300084140E270700000096
:04000005080041317D
:00000001FF
