:020000040800F2
:104000005850002005420008054D000813460008DE
:10401000014D000851440008814E000800000000D6
:104020000000000000000000000000004541000802
:104030001146000800000000A1410008154D0008CD
:104040001F4200081F4200081F4200081F420008CC
:104050001F4200081F4200081F4200081F420008BC
:104060001F4200081F4200081F4200081F420008AC
:104070001F4200081F4200081F4200081F4200089C
:104080001F4200081F420008E94300081F420008C1
:10409000694E00081F4200081F4200081F42000826
:1040A000F14D00081F4200081F4200081F4200088F
:1040B0001F4200081F420008254E00081F4200084A
:1040C0001F4200081F4200081F4200081F4200084C
:1040D0001F4200081F4200081F4200081F4200083C
:1040E0001F4200081F4200081F4200081F4200082C
:1040F0001F4200081F4200081F4200081F4200081C
:104100001F4200081F4200081F4200081F4200080B
:104110001F4200081F4200081F4200081F420008FB
:104120001F4200081F4200081F4200081F420008EB
:10413000DFF80CD000F01AF900480047E9660008E3
:10414000585000202C4B19680868B0E8F04F80F3F5
:104150000988BFF36F8F4FF0000080F3118870471C
:104160000000000008480068006880F308884FF0ED
:10417000000080F3148862B661B6BFF34F8FBFF3BF
:104180006F8F00DF00BF00BF08ED00E0DFF80C001C
:10419000016841F470010160704700BF88ED00E0E4
:1041A000EFF30980BFF36F8F134B1A681EF0100FE7
:1041B00008BF20ED108A20E9F04F106009B44FF0DD
:1041C000100080F31188BFF34F8FBFF36F8F06F09D
:1041D00031FA4FF0000080F3118809BC19680868B3
:1041E000B0E8F04F1EF0100F08BFB0EC108A80F35B
:1041F0000988BFF36F8F7047F8020020EFF3058046
:10420000704700000648804706480047FEE7FEE783
:10421000FEE7FEE7FEE7FEE7FEE7FEE7FEE7FEE776
:10422000494D0008314100089FED1A1AF5EE000AC9
:1042300040EE010ABDEEE00AF5EEC00A10EE100AEB
:10424000F1EE10FA38BF401E00EE100A1349F7EEE7
:10425000001AB8EEC00A30EEC00ADFED0F0A20EEF9
:10426000200AFCEEC00A10EE900AC0F3080000EE2F
:10427000900A01EB8000F8EE600A90ED011A70EEF2
:10428000600A90ED000A71EEE01A21EE800A00EE5D
:10429000810A704783F9223E00000044D8E80008F4
:1042A000DFED1D0AB5EEC00A60EE200ABDEEE01A91
:1042B00011EE100AF1EE10FA38BF401E00EE100A9F
:1042C000B8EEC00A30EEC00ADFED140A20EE200A74
:1042D000B4EEE00AF1EE10FAA8BF30EE600AFCEE90
:1042E000C00A0F49F7EE001A10EE900AC0F308005A
:1042F00000EE900A01EB8000F8EE600A90ED011AE2
:1043000070EE600A90ED000A71EEE01A21EE800A6C
:1043100000EE810A7047000083F9223E000000444D
:10432000D8E8000840EA01039B0703D009E008C968
:10433000121F08C0042AFAD203E011F8013B00F86A
:10434000013B521EF9D27047D2B201E000F8012BB6
:10435000491EFBD270470022F6E710B513460A4605
:1043600004461946FFF7F0FF204610BD064C074DE6
:1043700006E0E06840F0010394E807009847103435
:10438000AC42F6D3FFF7D8FEDCF00008FCF00008E2
:1043900070B58C1810F8015B15F0070301D110F807
:1043A000013B2A1106D110F8012B03E010F8016B34
:1043B00001F8016B5B1EF9D12B0705D40023521EB7
:1043C0000DD401F8013BFAE710F8013BCB1A921C1F
:1043D00003E013F8015B01F8015B521EF9D5A1421D
:1043E000D8D3002070BD000008B50421144800F0A7
:1043F0003AFF0021124800F009FF1249088001210C
:104400000F4800F003FF0F49488002210C4800F0DC
:10441000FDFE0C498880002000906A4600210A4871
:10442000006805F091FF00BF009838B14FF0805050
:1044300006490860BFF34F8FBFF36F8F00BF08BD01
:104440000024014038040020E802002004ED00E0D0
:1044500000BFFEE710B501221146022000F0ACF8C3
:1044600010BD10B503464FF6FF7404EAC3304FF495
:10447000F04404EAC1242043C2F30A04204310BDDF
:1044800010B500224FF48061034801F063FE012063
:1044900004F0A2FE10BD0000000C014010B5012286
:1044A0009102034801F056FE012004F095FE10BD74
:1044B000000C014010B5002440F2026004F086FBBD
:1044C00040F2036004F082FB40F2036004F07EFBE4
:1044D00004F0C0FB1023032219461F4801F03FFEE1
:1044E0004FF48063032210211C4801F038FE04239E
:1044F00003221021194801F032FE00224FF480619E
:10450000164801F027FE01221021134801F022FE77
:1045100001220421114801F01DFE022004F05CFE7E
:10452000002204210D4801F015FEFFF7A9FFFFF757
:10453000B5FFFFF78FFF032000F022F804460120AB
:1045400000F016F8012000F00BF840F2FF30844232
:1045500001D000BFFEE710BD00080140000C014083
:1045600010B50446A201C021062000F025F810BDB8
:1045700010B5044622460F21052000F01DF810BD9D
:1045800070B504460025002221460120FFF769FF8F
:10459000064600221021074801F0DCFD304604F0F9
:1045A0008DFB054601221021024801F0D3FDC5F321
:1045B0000A0070BD000801402DE9F04107460D4694
:1045C00016463846FFF7DCFF0446AC433443214629
:1045D000384600F003F8BDE8F081000070B50446ED
:1045E0000D462A4621460020FFF73BFF06460022E3
:1045F0001021064801F0AEFD304604F05FFB0122B9
:104600001021024801F0A6FD70BD00000008014025
:10461000704700BFFEE7000010B50121034801F01C
:10462000FCFD08B9002010BD0120FCE7001001408E
:104630002DE9F04104460D4616461F462A2000F09B
:1046400039FB04F1280188B200F025FB06F12801AE
:1046500088B200F020FB2B2000F02CFB05F1350187
:1046600088B200F018FB07F1350188B200F013FBA7
:104670002C2000F01FFBBDE8F08170B504460D460C
:1046800016462B46224629462046FFF7D1FF3046E4
:1046900000F001FB70BD2DE9F04706460F461446B9
:1046A0001D46DDF820A0681E83B2601E82B2394626
:1046B0003046FFF7BDFFB8460EE0B14606E0504673
:1046C00000F0E9FA09F101001FFA80F9A145F6DBD3
:1046D00008F101001FFA80F8A845EEDBBDE8F0877D
:1046E00010B540F2046004F071FA40F2036004F087
:1046F0006DFA4FF4005303221021164801F02FFDEC
:1047000001225103134801F025FD4FF48043032299
:104710001021104801F023FD012291030D4801F002
:1047200019FD4FF40043032210210A4801F017FD40
:104730000122D103074801F00DFD022303221021BD
:10474000044801F00CFD01220221024801F002FDA3
:1047500010BD00000010014010B5FFF7C1FF04F0CC
:10476000C7FA00224FF40041664801F0F3FC6420D0
:1047700004F032FD0122D103624801F0EBFC642019
:1047800004F02AFD012251035E4801F0E3FC64209D
:1047900004F022FD112000F08DFA782004F01CFDB9
:1047A000362000F087FA702000F07EFA3A2000F000
:1047B00081FA052000F078FAB22000F07BFA0C2094
:1047C00000F072FA0C2000F06FFA002000F06CFA92
:1047D000332000F069FA332000F066FAB72000F0C9
:1047E00069FA352000F060FABB2000F063FA192066
:1047F00000F05AFAC02000F05DFA2C2000F054FAC4
:10480000C22000F057FA012000F04EFAC32000F059
:1048100051FA122000F048FAC42000F04BFA202090
:1048200000F042FAC62000F045FA0F2000F03CFAF2
:10483000D02000F03FFAA42000F036FAA12000F0CA
:1048400033FAE02000F036FAD02000F02DFA0420F0
:1048500000F02AFA0D2000F027FA112000F024FAC7
:10486000132000F021FA2B2000F01EFA3F2000F068
:104870001BFA542000F018FA4C2000F015FA18200A
:1048800000F012FA0D2000F00FFA0B2000F00CFAE5
:104890001F2000F009FA232000F006FAE12000F0C2
:1048A00009FAD02000F000FA042000F0FDF90C20F5
:1048B00000F0FAF9112000F0F7F9132000F0F4F9F4
:1048C0002C2000F0F1F93F2000F0EEF9442000F038
:1048D000EBF9512000F0E8F92F2000F0E5F91F2056
:1048E00000F0E2F91F2000F0DFF9202000F0DCF9F1
:1048F000232000F0D9F9212000F0DCF9292000F074
:10490000D9F910BD001001402DE9FF5F80468A46AD
:1049100017469B460F9D00200290CDF80080284648
:1049200005EBD071C1F347042046E21704EB527245
:10493000D2102146E31704EB5373DB10A4EBC3033F
:104940000BB1012300E000231A446A4392B20192A2
:10495000A7F12000C7B20AEB0500401E83B208EBA6
:104960000400401E82B251464046FFF761FE002619
:1049700069E00C2D07D107EB4700354901EB8000BA
:10498000805D03901BE0102D05D1324800EB07102D
:10499000805D039013E0182D07D107EB47002E49E7
:1049A00001EB0010805D039009E0202D05D12B481C
:1049B00000EB8710805D039001E0BDE8FF9F4FF0A2
:1049C00000093AE01098C8B9012000FA09F00399EB
:1049D000084018B1584600F05EF902E00E9800F069
:1049E0005AF90298401CC0B20290029890FBF4F170
:1049F00004FB1100E8B90020029021E0012000FA38
:104A000009F00399084020B15A4651464046FFF745
:104A100034FE08F101001FFA80F80098A8EB0000AE
:104A2000A04206D1DDF800800AF101001FFA80FAE9
:104A300006E009F1010000F0FF09B9F1080FC1DB40
:104A400000BF701C86B20198864292DB00BFB4E7BB
:104A5000E4B4000858B9000848BF000818D100089D
:104A60002DE9FF4F2DED020B2DED028B83B0B0EE43
:104A7000408A1546DDE91476079800F0FF0A3046B3
:104A800006EBD071C1F3470BB5EEC08AF1EE10FA18
:104A90001AD2B1EE480AF2EE040A20EE200ABCEE69
:104AA000C00A10EE100A1FFA80F90020CDE9007646
:104AB00002902D220A9BDDE90701FFF725FF0AEB93
:104AC0000B0000F0FF0A09E0B2EE040A28EE000A2B
:104AD000BCEEC00A10EE100A1FFA80F9002453E061
:104AE000281B401EC1B20A2002F002FCB9FBF0F004
:104AF0000A21B0FBF1F201FB1208681EA0422BD183
:104B00000020CDE9007602902E2250460A9B08999B
:104B1000FFF7FAFE0AEB0B0000F0FF0A601CC4B2BC
:104B2000681CC5B2281B401EC1B20A2002F0E0FB7F
:104B3000B9FBF0F00A21B0FBF1F201FB12080020F2
:104B4000CDE90076029008F13000C2B250460A9BCF
:104B50000899FFF7D9FE19E0A81EA04202D0B8F1CB
:104B6000000F0FD00020CDE90076029008F1300050
:104B7000C2B250460A9B0899FFF7C6FE0AEB0B002B
:104B800000F0FF0A601CC4B2AC42A9DB00BF03B056
:104B9000BDEC028B06B0BDE8F08F2DE9FF4F87B06A
:104BA000814692461D46DDE915B600200690304646
:104BB00006EBD071C1F34701059109F0FF08002011
:104BC000049000242CE0281B401EC1B20A2002F0F1
:104BD0008FFBBAFBF0F00A21B0FBF1F201FB1207E8
:104BE000069850B9681EA04207DD27B90498401CFA
:104BF000C0B2049012E0012006900020CDE900B67A
:104C0000029007F13000C2B24046149B0899FFF7AA
:104C10007BFE0598404400F0FF0800BF601CC4B252
:104C2000AC42D0DB00240FE00020CDE900B60290BA
:104C300020224046149B0899FFF766FE05984044E1
:104C400000F0FF08601CC4B204988442ECDB0BB097
:104C5000BDE8F08F2DE9FE4F06460F4614469846F4
:104C6000DDE90D5ADDF8309010E0CDE9015ACDF8BC
:104C700000902278434639463046FFF745FE2846E5
:104C800005EBD07106EB61018EB2641C2078002820
:104C9000EBD1BDE8FE8F10B50446201200F01EF8DF
:104CA000E0B200F01BF810BD10B50446204600F03D
:104CB00015F810BD10B5044600224FF48041064897
:104CC00001F048FA204600F009F801229103024859
:104CD00001F040FA10BD00000010014010B504467C
:104CE00000220221054801F035FA204604F032F88E
:104CF00001220221014801F02DFA10BD00100140EF
:104D000000BFFEE7704710B50446022001F0D0FC5A
:104D100010BD000010B500BF102080F31188BFF354
:104D20004F8FBFF36F8F00BF06F084F818B14FF0BC
:104D300080500449086000BF002080F3118800BF44
:104D400010BD000004ED00E008B52648006840F4FE
:104D50007000244908602448006840F0010022499E
:104D6000086000BF2048006800F002000028F9D069
:104D700000BF1D48406840F080001B49486000208B
:104D8000009002E00098401C009000985028F9D351
:104D90001548406840F0900013494860002000909A
:104DA00002E00098401C009000985028F9D300BF02
:104DB0000D48406820F003000B4948600846006831
:104DC0000A490840084908604FF41F0088600846F7
:104DD000006820F48020086000204860C86204F069
:104DE000F7F908BD88ED00E000100240FFFFF6FE75
:104DF00010B5202200210A4804F008FC20220121DD
:104E0000074804F003FC20220221054804F0FEFBC1
:104E10008021034804F017FE022001F03DFC10BD84
:104E2000002C014010B5002440210D4804F00EFE76
:104E3000012814D140210A4804F005FE084804F076
:104E400080FC04B20021064804F07FFC002C03DD46
:104E500001200449087002E002200249087010BDD8
:104E600000080040DC02002000B585B06A46002141
:104E7000024800F01EFE05B000BD000000640040C6
:104E800000BFFEE702E008C8121F08C1002AFAD1DD
:104E900070477047002001E001C1121F002AFBD1BA
:104EA0007047000010B540F2096003F08FFE01204A
:104EB00003F0AAFD002000F0D9F9012211022248D6
:104EC00000F067FA002202211F4800F062FA002178
:104ED0001D4800F0DBF8032202211B4800F0B3F864
:104EE00000230E221946184800F056F900230F221D
:104EF0000121154800F050F9002308220221124830
:104F000000F04AF94FF4805202210F4800F0F1F806
:104F1000012202210C4800F0CDF802210A4800F0DD
:104F2000A2F90421084800F09EF90421064800F087
:104F300084F9054800F0B5F8022004F04DF9024864
:104F400000F06CF810BD00000024014010B500F026
:104F5000F3F8FFF7A7FF10BD10B540F2046003F0AF
:104F600035FE40F2046003F031FE40F2026003F0CF
:104F70002DFE082304220021234801F0F0F8042329
:104F80001A460021204801F0EAF8082304220021F3
:104F90001E4801F0E4F840F20A6003F017FE00201A
:104FA00003F032FD002000F061F90021184800F004
:104FB0006DF801221146164800F045F84FF46022C2
:104FC0000121134800F095F801221146104800F025
:104FD00071F80F4800F065F8022004F0FDF80C4865
:104FE00000F01CF8022004F0F7F80A480A49097892
:104FF000425C01230021064800F062F901210448C7
:1050000000F0B8F910BD0000001001400008014098
:10501000002801400100002000000020816841F0CC
:105020000801816000BF816801F008010029FAD100
:10503000816841F00401816000BF816801F00401D2
:105040000029FAD1704730B5012902D002291AD1BE
:105050000CE0C36A23F47003C362C36A541E4FF4A6
:10506000700505EA04542343C3620DE0836B23F407
:1050700040138363836B541E4FF4401505EA0454B8
:105080002343836300E000BF00BF30BD21B18268CD
:1050900042F40062826003E0826822F4006282606F
:1050A0007047816801F0010119B9816841F001017F
:1050B0008160704772B101F001031BB1836843F452
:1050C0008013836001F0020393B1836843F40043CB
:1050D00083600DE001F001031BB1836823F48013AA
:1050E000836001F002031BB1836823F400438360F3
:1050F0007047012902D0022910D107E0836823F408
:105100006023836083681343836008E0836823F42B
:10511000E043836083681343836000E000BF00BF07
:105120007047CA43026070470246002013680B4074
:1051300003B101207047000010B540F2046003F095
:1051400045FD40F2046003F041FD40F2036003F0CE
:105150003DFD40F2026003F039FD102304220021DE
:105160000A4800F0FCFF202304220021074800F039
:10517000F6FF012304220021054800F0F0FF082378
:1051800004220021034800F0EAFF10BD0010014096
:10519000000C014000080140F0B50C46876BC7F3D6
:1051A0000156856BE71CBF1B07EB870C1F2707FA0F
:1051B0000CF7BD43E71CBF1B07EB870702FA07F795
:1051C0003D4385630A2A0DD2016902EB420C072791
:1051D00007FA0CF7B94302EB420703FA07F7394322
:1051E000016112E0122A10D2C168A2F10A0707EB8E
:1051F000470C072707FA0CF7B943A2F10A0707EB98
:10520000470703FA07F73943C160F0BD02460B4672
:1052100033B1012B06D0022B06D0032B08D105E0B9
:10522000D16B07E0116C05E0516C03E0916C01E07B
:10523000002100BF00BF88B2704701F001021AB11F
:10524000426842F04002426001F002021AB1426834
:1052500042F02002426001F004021AB1426842F0BA
:10526000800242607047CA4302607047054909687E
:1052700021F47021034A116011460968014311604D
:10528000704700000424014010B5014600230022AD
:10529000032911DA00BF0AE001EB0110074C04EB0F
:1052A0004000801C30F812000344501C82B2102AC7
:1052B000F2DBC3F30F1010BD0020FCE780030020D9
:1052C000F0B51D4606290CD2436B01EB81071F2662
:1052D000BE40B34301EB810602FA06F63343436353
:1052E00022E00C290ED2036B8E1F06EB86071F26C9
:1052F000BE40B3438E1F06EB860602FA06F6334322
:10530000036311E010290FD2C36AA1F10C0606EB6A
:1053100086071F26BE40B343A1F10C0606EB8606A6
:1053200002FA06F63343C3620A2A0CD2046902EB7E
:1053300042070726BE40B44302EB420605FA06F6D2
:105340003443046111E0122A0FD2C468A2F10A06A4
:1053500006EB46070726BE40B443A2F10A0606EB59
:10536000460605FA06F63443C460F0BD0146C86C33
:1053700080B2704701F001021AB1826842F48002E3
:10538000826001F002021AB1826842F40012826067
:105390007047AAB101F480731BB1436843F4807372
:1053A000436001F480631BB1436843F4806343604E
:1053B00001F00203CBB1836843F00203836014E081
:1053C00001F480731BB1436823F48073436001F4DC
:1053D00080631BB1436823F48063436001F00203E0
:1053E0001BB1836823F002038360704710B502216C
:1053F0002A48FFF799FE01284ED102212748FFF7DE
:1054000090FE2648FFF7B2FF2549097801EB01110C
:10541000244A02EB4101891C214A127802EB021254
:10542000204B33F8122021F812001D48007800EBC1
:105430000010194631F81000401C1949097801EB99
:1054400001111A4622F811001548007800EB0010EF
:10545000114631F81000102806DB002010490978A9
:1054600001EB011122F811000D480078401C0C4995
:10547000087008460078032801DB002008700A48FD
:1054800007490978425C012300210448FFF718FF0F
:1054900001210248FFF76EFF10BD00000028014007
:1054A000000000208003002001000020D0ED061A3B
:1054B00090ED072A71EEC21AF0EE610AC0ED090AFA
:1054C000D0ED001A90ED012A42EE201AB0EE610AEA
:1054D000D0ED041AF4EEC01AF1EE10FA04D2D0EDB9
:1054E000041AC0ED081A0DE0D0ED051AF4EEC01A4A
:1054F000F1EE10FA04DDD0ED051AC0ED081A01E056
:1055000080ED080AD0ED081A30EE611AD0ED001ACD
:1055100090ED022A42EE201A90ED032A42EE411A43
:10552000C0ED001A704700004C480078E0B34B48CB
:10553000808843F67F61884205D248488088401CB5
:105540004649888022E0454890ED020ADFED440A92
:10555000B4EEE00AF1EE10FA08D290ED020ADFEDA7
:10556000410A30EE200A80ED020A0FE03E4890ED3D
:10557000000A3E48D0ED060A30EE600A3C4880ED55
:10558000000A01203549887000200870364890EDE7
:10559000000A3248D0ED020A30EE200A324880ED8F
:1055A000000A90ED000A00E00FE0DFED320AB4EEF1
:1055B000E00AF1EE10FA50DD90ED000ADFED2D0A61
:1055C00030EE600A80ED000A47E0284890ED060AB8
:1055D0002748D0ED000A30EE200A234880ED000A6B
:1055E000234890ED000AB0EEC00ADFED230AB4EEC6
:1055F000E00AF1EE10FA19DD90ED000AB5EEC00AEE
:10560000F1EE10FA08D290ED000ADFED1B0A30EE41
:10561000200A80ED000A0EE0154890ED000ADFED4B
:10562000160A30EE600A80ED000A04E09FED130ACE
:105630000F4880ED000A0D4890ED190ADFED100AC1
:10564000B4EEE00AF1EE10FA07DD90ED190ADFED95
:105650000C0A30EE600A80ED190A70479C4B00205E
:105660005177563C009D5B35D04A0020D04B00203E
:1056700074030020DB0FC940CDCC4C3D000000007E
:105680006D11C93830B501460020AF231EE0C418A3
:1056900004EBD4756A10354C04EB8204B4F9024073
:1056A0008C4201DA531E10E0304C04EB8204B4F952
:1056B00002408C4201DD501C07E02C4C34F92240A2
:1056C00000EE104AB8EEC00A30BD00BF9842DEDDE1
:1056D00038B9264AB2F9002000EE102AB8EEC00A06
:1056E000F2E7AF2B07D1214AB2F9BC2200EE102A13
:1056F000B8EEC00AE8E7421E1C4C34F9222000EE46
:10570000102AB8EEC00AF0EE400A421E04EB8202F4
:10571000B2F9022000EE102AB8EEC00AB0EE401A2C
:10572000224632F9202000EE102AB8EEC00AF0EE30
:10573000401A224602EB8002B2F9022000EE102A43
:10574000B8EEC00AB0EE402A71EEE02A00EE101A60
:10575000B8EE400A30EE410A22EE800A32EE413ABB
:10576000C0EE032A32EEA00AAEE700001C000020C3
:1057700010B500F0F3F800F0B7FA00F007F80221D6
:10578000014800F092F910BD0064004000B589B0F6
:1057900006A9002000F0AFFA01A9012000F0ABFA41
:1057A00040F2197003F012FA1F4800F03FF8002091
:1057B0008DF81C0001208DF81D0000208DF81E00C2
:1057C00001208DF81F0000208DF820008DF82100A9
:1057D0008DF818008DF8190006208DF81A000120A8
:1057E0008DF81B000C20ADF8220006A90E4800F031
:1057F000CBF80020ADF80E00ADF810000120ADF898
:1058000012000020ADF80400ADF80600ADF8080065
:10581000ADF80A00ADF80C0001208DF8140001A8C5
:1058200000F014F809B000BD0064004010B5044653
:105830000548844207D140F2194003F0E7F940F2ED
:10584000194003F0D3F910BD0064004010B50021E9
:10585000837A012202FA03F13E4A126842F0010201
:105860003C4B1A603B4A1C3212688A43394B1C334A
:105870001A60C289DAB9374A0C3212688A43354B4A
:105880000C331A60C288344B03EA024243881A433D
:105890004389304C403444F8332082882E4B03EA4D
:1058A000024203881A43438904EBC3035A60C28946
:1058B000012A1BD1274A0C3212680A43254B0C33AC
:1058C0001A600288244B03EA024243881A43438940
:1058D000204C403444F8332082881F4B03EA0242B4
:1058E000C3881A43438904EBC3035A6082893AB9D7
:1058F000184A121D12688A43164B1B1D1A6006E0D7
:10590000144A121D12680A43124B1B1D1A600289A9
:105910003AB9104A143212688A430E4B14331A6093
:1059200006E00C4A143212680A430A4B14331A6018
:10593000027C012A06D1074A1C3212680A43054B31
:105940001C331A60034A126822F00102014B1A60EC
:1059500010BD0000006600400000FFFF10B540F2DF
:10596000026003F033F94FF4006303224821054835
:1059700000F0F5FB4FF4805303221821014800F09A
:10598000EEFB10BD0008014070B502464FF6FF73F4
:105990000020146824F002041460146844F0010428
:1059A000146000E05B1E546804F001040CB9002B85
:1059B000F8D1546804F001040CB9002074E00C78AC
:1059C0004FF0404505EA84744D784FF0407606EA82
:1059D00005652C438D784FF4702606EA05452C4367
:1059E000CD784FF4E00606EA05552C434D896D1E2F
:1059F000C5F309052C43D4610C79012C04D114683A
:105A000044F08004146003E0146824F080041460FF
:105A10004C79012C04D1146844F04004146003E074
:105A2000146824F0400414608C79012C04D11468AB
:105A300044F02004146003E0146824F0200414608F
:105A4000CC79012C04D1146824F01004146003E014
:105A5000146844F0100414600C7A012C04D114680A
:105A600024F00804146003E0146844F0080414608F
:105A70004C7A012C04D1146844F00404146003E04F
:105A8000146824F004041460146824F00104146001
:105A90004FF6FF7300E05B1E546804F001040CB184
:105AA000002BF8D103B1012070BD42690A43426165
:105AB000704710B500F5D87303EB01131B6803F0B2
:105AC00004031372137A3BB900F5D87303EB011387
:105AD0001B685B0D136006E000F5D87303EB011340
:105AE0001B68DB08536000F5D87303EB01131B68D8
:105AF00003F00203537200F5DA7303EB01131B6822
:105B00001B0AD37400F5DA7303EB01131B6803F06F
:105B10000F03937200F5DC7303EB01131B68D37260
:105B200000F5DC7303EB01131B681C0A147300F50A
:105B3000DC7303EB01131B681C0C547300F5DC735E
:105B400003EB01131B681C0E947300F5DE7303EB6B
:105B500001131B68D37300F5DE7303EB01131B689D
:105B60001C0A147400F5DE7303EB01131B681C0C94
:105B7000547400F5DE7303EB01131B681C0E947460
:105B800021B9C36843F02003C36003E0036943F015
:105B90002003036110BD000030B502460B46002112
:105BA000906800F08060B0F1806F00D110E09068E4
:105BB00000F00060B0F1006F01D1012108E09068B1
:105BC00000F08050B0F1805F01D1022100E003219C
:105BD000032901D1032030BD02F5C07000EB011094
:105BE000006800F0010402F5C07000EB01100460D1
:105BF000187A88B918883B4C04EA40505C7A2043F4
:105C000002F5C07404EB01142468204302F5C0744B
:105C100004EB0114206013E06FF00704586804EAF5
:105C2000C0001C7A20435C7A204302F5C07404EB68
:105C300001142468204302F5C07404EB01142060B1
:105C400002F5C27000EB0110006820F00F0402F5AD
:105C5000C27000EB0110046002F5C27000EB01108D
:105C600000689C7A204302F5C27404EB01142060A2
:105C7000987B4FF07F4404EA00605C7B4FF47F0523
:105C800005EA044420431C7B2D1205EA042420432A
:105C9000DC7A204302F5C47404EB01142060987C84
:105CA0002C0404EA00605C7C2D0205EA04442043D5
:105CB0001C7C2D1205EA04242043DC7B204302F5E2
:105CC000C67404EB0114206002F5C07000EB0110F3
:105CD000006840F0010402F5C07000EB01100460A0
:105CE000084678E70000E0FF10B5002204211420E8
:105CF00001F00AFB10BD10B5024609B900BFFEE76E
:105D000032B1012A16D0022A20D0032A41D12EE036
:105D100000234B71CB718B7140F2FF334B81002319
:105D20000B724B7002238B700023CB700B714B7284
:105D30000B7030E00123CB8100230B740B810B80AF
:105D40004B808B80CB808B814B8124E0002005E051
:105D5000002401F10B031C54431CD8B20828F7D3CC
:105D600000238B724B600B724B720B6013E00020B0
:105D700005E0002401F10B031C54431CD8B2082891
:105D8000F7D300238B724B600B72CB744B720B609A
:105D900001E000BFFEE700BF10BD000090ED030A68
:105DA00080ED060A90ED030ADFED080A20EE200AD6
:105DB000D0ED040AB0EE001A60EE810A9FED031ADE
:105DC00000EE810A80ED070A704700003ACD133FCC
:105DD00070B505460C462146284600F01FF908B963
:105DE00000BFFEE704EB8400810005F10800405885
:105DF00040F0010104EB8400820005F108008150AD
:105E000070BD70B505460C462146284600F006F9DF
:105E100008B900BFFEE704EB8400810005F108002B
:105E2000405820F0200104EB8400820005F10800B6
:105E3000815070BD70B504460D462946204600F0DD
:105E4000EDF808B900BFFEE705EB8500810004F11D
:105E50000800405820F0010105EB8500820004F1A4
:105E600008008150002105EB8500820004F1080044
:105E7000815005EB8500820004F10C00815005EB98
:105E80008500820004F11000815005EB850082003E
:105E900004F1140081506068AA000F21914008436A
:105EA000606070BD30B503461C688D0002FA05F5D0
:105EB0002C400CB1012000E0002030BD2DE9F04164
:105EC00004460D4616462946204600F0A7F808B9B4
:105ED00000BFFEE705EB8500820004F11000316889
:105EE000815005EB8500820004F11400B1688150F7
:105EF000308A81B205EB8500820004F10C008150EC
:105F000005EB8500810004F10800475827F47C5711
:105F1000F1687068084371690843074305EB850021
:105F2000810004F108004750307E01280ED105EBB6
:105F30008500810004F10800405840F0400105EB65
:105F40008500820004F1080081500DE005EB85001A
:105F5000810004F10800405820F0400105EB850065
:105F6000820004F108008150707E01280ED105EBFB
:105F70008500810004F10800405840F0800105EBE5
:105F80008500820004F1080081500DE005EB8500DA
:105F9000810004F10800405820F0800105EB8500E5
:105FA000820004F108008150B07E70B905EB8500D5
:105FB000810004F10800405820F0100105EB850035
:105FC000820004F1080081500DE005EB850081009E
:105FD00004F10800405840F0100105EB85008200F4
:105FE00004F108008150BDE8F08170B505460C460B
:105FF0002146284600F012F808B900BFFEE704EB7E
:106000008400810005F10800405820F4804104EB31
:106010008400820005F10800815070BD0246012015
:10602000034B9A4202D1042900DD00207047000092
:106030000004024008B900BFFEE700210160416092
:1060400001768160C160417601618176416170476E
:10605000024908780021014A11707047DC020020D3
:1060600010B540F2036002F0B1FD40F2036002F0AF
:10607000ADFD40F2046002F0A9FD4023032204219B
:10608000074800F06CF8802303220421044800F044
:1060900066F8012303220421024800F060F810BDD5
:1060A000000C01400010014010B5012211461E20D5
:1060B00001F02AF9FFF7D4FF00F004F800F072FABB
:1060C00010BD000000B587B040F2027002F07EFD06
:1060D0001F4803F03DFB0020ADF80400ADF80600BA
:1060E000ADF808004FF6FF7003900020ADF80A00ED
:1060F0008DF8100001A9164803F0AAFB0020ADF8A6
:1061000014000120ADF816000020ADF81800102092
:10611000ADF81A0005AA00210D4803F0E5FB05AA19
:1061200001210B4803F0E0FB5021094803F07FFCFC
:1061300000231A460321064803F0A0FC402104482E
:1061400003F07DFC024803F071FB07B000BD0000C6
:10615000000800400AB1016100E041617047F0B5FC
:10616000044616460025002201F00F0501F0100735
:1061700047B1042E05D145F00305E76B1F43E763E4
:1061800000E0354300201EE0012787401F40C7B1D3
:1061900022684FEA800C0F2707FA0CF7BA438700F2
:1061A00005FA07F73A43282904D1012787401F4001
:1061B000676105E0482903D1012787401F40276117
:1061C0002260471CB8B20828DED3082022E001274D
:1061D00087401F40E7B16268A0F108074FEA870CCB
:1061E0000F2707FA0CF7BA43A0F10807BF0005FA1A
:1061F00007F73A43282904D1012787401F406761E8
:1062000005E0482903D1012787401F4027616260CC
:10621000471CB8B21028DAD3F0BD02469068084097
:1062200008B1012070470020FCE70246D068084012
:1062300008B1012070470020FCE70000F0B50A46D5
:10624000002300240021002500F00046B6F1004F95
:1062500002D11D4EF16901E01B4E7168C0F3034588
:1062600083B200F44016B6F5401F08D121F0E0617A
:10627000154E766826F0E066134F7E6012E000F45B
:106280008016B6F5801F06D1032606FA05F4A14351
:1062900041F0E06106E0460D360103FA06F6B1432F
:1062A00041F0E06122B1460D360103FA06F63143B2
:1062B00000F00046B6F1004F02D1034EF16101E05B
:1062C000014E7160F0BD00000000014010B540F2C9
:1062D000046002F07BFC40F2046002F077FC40F2C4
:1062E000046002F073FC4FF4C06002F06FFC012107
:1062F0000C48FFF7A3FF4023032204210A48FFF7BD
:106300002EFF8023032204210748FFF728FF4FF4C4
:106310008073032204210448FFF721FF00F006F8F0
:1063200010BD0000000C1A000010014000B587B03D
:1063300040F2017002F04AFC314803F009FA77207C
:10634000ADF804000020ADF80600ADF808004FF6E7
:10635000FF7003900020ADF80A008DF8100001A92D
:10636000274803F075FA0020ADF814000320ADF8BB
:1063700016000020ADF81800ADF81A0005AA00219B
:106380001F4803F0B1FA0020ADF814000320ADF867
:1063900016000020ADF81800ADF81A0005AA01217A
:1063A000174803F0A1FA0020ADF814000320ADF85F
:1063B00016000020ADF81800ADF81A0005AA022159
:1063C0000F4803F091FA40210D4803F030FB0421FF
:1063D0000B4803F073FB0021094803F02CFA08482E
:1063E00002F0BAFF0221064803F02DFB0221044807
:1063F00003F025FB024803F019FA07B000BD0000C6
:10640000000400409FED040A80ED000A9FED020A9F
:1064100080ED080A704700000000000090ED0A0AB5
:10642000D0ED020A20EE200AD0ED0B0A90ED011A01
:1064300000EEC10A80ED0C0A90ED0A0AD0ED010AC7
:1064400020EE200AD0ED0B0A90ED021A00EE810A30
:1064500080ED0D0A7047000070B50546344800EB2A
:10646000051420688047002840D12079052802DAE9
:10647000052020715AE020790A2803DA2079401C8F
:10648000207153E0A07A38B90120A07205EB4501D4
:10649000491CC8B200F068F82089002846DDE08871
:1064A000218988420FDAE088401CE080E088218959
:1064B00088423BDB05EB4501C91CC8B200F054F82B
:1064C0000120607332E0E07A00282FDD207B401C41
:1064D0002073207BE17A884228DB0020207305EBC3
:1064E0004501491CC8B200F03FF81FE0207905289B
:1064F00002DD0520207116E02079002803DD2079D7
:10650000401E20710FE0A07A01280CD10020A0725B
:10651000607B10B10020607305E005EB4501891C2C
:10652000C8B200F021F80020E080207370BD0000A8
:10653000280400200B4880780A4AD278904201D182
:1065400000207047074882788078401C054B98707F
:106550001846815C8078022802DB00201A46907081
:106560000846EEE7DD0200200749CA78C978491CD1
:10657000054BD97019468854C978022902DB0021DD
:106580001A46D17070470000DD02002010B50024CB
:1065900000BF04E02046FFF75FFF601CC4B2012C7F
:1065A000F8DB10BD00200021134A9170D17000BFAC
:1065B0001CE06421114A02EB0012118102210F4AF2
:1065C00002EB0012117100210C4A02EB00129172D1
:1065D0000A4A02EB0012D172084A02EB0012117350
:1065E000064A02EB00125173411CC8B20128E0DBDD
:1065F0000349024A11607047DD0200202804002090
:106600001946000810B540F2056002F0DFFA40F2CA
:10661000046002F0DBFA40F2026002F0D7FA4FF4B5
:10662000C06002F0D3FA01211848FFF707FE1849AD
:106630000B681849032208681021FFF790FD1449E0
:106640004B681449032248681021FFF788FD104960
:106650008B681049032288681021FFF780FD0C4ADF
:1066600011680C4A10680122FFF774FD084A51684E
:10667000084A50680122FFF76DFD054A9168054AF6
:1066800090680122FFF766FD10BD00000002300097
:106690001000002004000020034951F82010034A94
:1066A00052F82020516170471000002004000020A3
:1066B00070B504460A4A52F824100A4A52F82400D7
:1066C000FFF7B3FDC0F10100C5B2054A52F824102E
:1066D000044A52F824002A46FFF73CFD70BD000032
:1066E00010000020040000201CB513481349086066
:1066F0004FF4407000F06AFE0020042103468A0136
:10670000CDE900100EA1124804F042FB0446012C12
:1067100000D100E0002050B900BF102080F31188A4
:10672000BFF34F8FBFF36F8F00BF00BFFEE703F0D3
:106730003BFF00201CBD00000040000808ED00E009
:10674000706D736D5F696E69745F74736B000000C8
:10675000F97700089FED180A184880ED1B0A9FED95
:10676000180A80ED1A0A9FED170A80ED1D0A9FEDA9
:10677000160A80ED1E0A9FED150A80ED1F0A9FED97
:10678000140A80ED200A9FED130A80ED210A9FED87
:10679000120A80ED070A9FED110A80ED140A9FEDA1
:1067A000100A80ED160A9FED0F0A80ED050A9FED95
:1067B0000E0A80ED190A7047D8CE7740D04B0020E2
:1067C0009A99193F3806603B15459243B28B2138A0
:1067D00063141D44D2537B42000000009001483CEA
:1067E00076013B3C6F128338DB0F493F10B52DED2E
:1067F000028B88B0044694ED150AB5EEC00AF1EE9E
:1068000010FA06D294ED150AFFEE000A20EE208A57
:1068100001E094ED158A94ED000AD4ED080A30EEFB
:10682000600A84ED0A0A94ED1B0AD4ED0A0A20EEF0
:10683000200A84ED100A94ED010AD4ED090A30EE25
:10684000600A84ED0B0A94ED1B0AD4ED0B0A20EECE
:10685000200A84ED110A94ED000A84ED080A94EDF3
:10686000010A84ED090A94ED170AD4ED1A0A94ED91
:10687000001A00EEC10AD4ED100A30EE600A8DED68
:10688000040A84ED0C0A94ED180AD4ED1A0A94ED6A
:10689000011A00EEC10AD4ED110A30EE600A8DED46
:1068A000050A84ED0D0A94ED040AD4ED020A20EEE7
:1068B000200A84ED170A94ED040AD4ED030A20EEB1
:1068C000200A84ED180A94ED060AD4ED190A30EE78
:1068D000200A8DED010ADDED010AB0EE600AFDF738
:1068E000A3FC8DED030ADDED010AB0EE600AFDF7B1
:1068F000D7FC8DED020A06AA01A904A800F0AEF8A3
:106900009DED060A84ED0E0A9DED070A84ED0F0A3F
:1069100094ED0E0AD4ED120A70EE600A94ED141A8A
:1069200094ED120A00EE810A84ED120A94ED0F0A2A
:10693000D4ED130A70EE600A94ED141A94ED130A64
:1069400000EE810A84ED130A94ED1E0A84ED1C0A00
:1069500094ED210AB4EEC80AF1EE10FA20D294EDBB
:10696000130AB5EEC00AF1EE10FA0CDD94ED130A2D
:10697000D4ED120A30EE600AD4ED1C0A20EE200A93
:1069800084ED070A2CE094ED130AD4ED120A30EEE0
:10699000200AD4ED1C0A20EE200A84ED070A1FE02D
:1069A00094ED150AB5EEC00AF1EE10FA0CDD94ED87
:1069B000130AD4ED120A30EE600AD4ED1C0A20EE60
:1069C000200A84ED070A0BE094ED130AD4ED120AB5
:1069D00030EE200AD4ED1C0A20EE200A84ED070ACE
:1069E00094ED060AD4ED070A94ED051A00EE810A2B
:1069F00084ED060A94ED060ADFED170AB4EEE00A0C
:106A0000F1EE10FA07DB94ED060ADFED130A30EE23
:106A1000600A84ED060A94ED060AB5EEC00AF1EEAE
:106A200010FA07D894ED060ADFED0B0A30EE200AC3
:106A300084ED060A94ED070AD4ED150A70EE600A9B
:106A400094ED161A94ED150A00EE810A84ED150AEC
:106A500008B0BDEC028B10BDDB0FC94090ED000A01
:106A6000D1ED020A20EE200AD0ED010A91ED011AC3
:106A700000EE810A82ED000A90ED000AB1EE400AB4
:106A8000D1ED010A20EE200AD0ED010A91ED021AA3
:106A900000EE810A82ED010A7047000000B587B060
:106AA0009FED7D0A8DED060A9FED7B0A8DED050AAF
:106AB0009FED790A8DED040A00200090019002906C
:106AC0000390764890F82A0006287DD2DFE800F08F
:106AD0000308445758DF0120704981F82A00D8E0A4
:106AE0006E48C068B0F5806F1AD26C48C068401C10
:106AF0006A49C860084600886949096808446849C5
:106B00000860664840886749096808446549086024
:106B100062488088644909680844634908601AE04B
:106B20005E48C0685E490968B1FBF0F05B49C88007
:106B30000846C0685B490968B1FBF0F05749088115
:106B40000846C06858490968B1FBF0F053494881CC
:106B5000022081F82A009CE05048006947F6FF4176
:106B6000884205D24D480069401C4C49086105E047
:106B700004204A4981F82A0000F03EF989E088E0C3
:106B80004648008800EE100AF8EE400A4348C088E4
:106B900000EE100AB8EE400A30EEC00ADFED430AFC
:106BA00020EE200A424880ED030A3C48408800EE6F
:106BB000100AF8EE400A3948008900EE100AB8EED3
:106BC000400A30EEC00A00E062E0DFED380A20EE55
:106BD000200A374880ED040A3048808800EE100A09
:106BE000F8EE400A2D48408900EE100AB8EE400A3F
:106BF00030EEC00ADFED2D0A20EE200A2C4880ED91
:106C0000050A264890ED080ADFED2A0A20EE200A40
:106C1000294880ED030A00F089FD254890ED030A1C
:106C20008DED060A06980090214890ED040A8DED3E
:106C3000050A059801901E4890ED050A8DED040A9D
:106C40000498029080208DF80E007F208DF80F00B0
:106C50001021684603F0FEF8154B93ED2F0ABCEEA9
:106C6000C00A10EE103A9AB2114B93ED2E0ABCEE08
:106C7000C00A10EE103A99B20D4B93ED2D0ABCEEFE
:106C8000C00A10EE103A98B200F0D8F801E000E027
:106C900000BF00BF07B000BD0000000038040020A6
:106CA000EC020020F0020020F40200200000843CEE
:106CB000D04A00203ACD133F9C4B002010B5002451
:106CC0002A4890ED070ADFED2A0AB4EEE00AF1EE59
:106CD00010FA00D20BE0254890ED070ADFED250AF7
:106CE00030EE200ABCEEC00A10EE100AC4B22248F0
:106CF000C4721E4890ED090AF2EE040A20EE200A42
:106D0000BCEEC00A10EE100AC1B21B48017317484E
:106D100090ED080AF1EE080A20EE200ABCEEC00A47
:106D200010EE100AC1B214484173144890ED090ADC
:106D3000F2EE040A20EE200ABCEEC00A10EE100AA1
:106D4000C1B20D488173094890F828100A48C173F0
:106D50000648008D011208480174002141748174B5
:106D600001460748FEF718FF10BD00003804002058
:106D7000000020C20000204264040020D04A00200D
:106D80000064004010B501F031FD01F073FD00F02A
:106D900011F8FFF79BFAFEF7D9F810BD10B50022E5
:106DA0000221182000F0B0FA00220321122000F086
:106DB000ABFA10BD10B5002202210E4802F093FC80
:106DC000002201210B4802F08EFC002211460948E6
:106DD00002F089FC00220221064802F0D1FA0022CA
:106DE0000121044802F0CCFA00221146014802F0C9
:106DF000C7FA10BD002C014010B5012202210E4837
:106E000002F071FC012211460B4802F06CFC0122D9
:106E10000021094802F067FC04220221064802F022
:106E2000AFFA04220121044802F0AAFA0422002148
:106E3000014802F0A5FA10BD002C014070B50446CF
:106E40000D46164622460221064802F00CFC2A4650
:106E50000121044802F007FC32460021014802F0FB
:106E600002FC70BD002C01400EB5002018214FF629
:106E7000FF720346CDE9002102908CA20146FDF786
:106E8000E9FE18204FF6FF711F22CDE90021029084
:106E9000884890ED040ABCEEC00A10EE100A82B2D7
:106EA000052300213420FDF778FE002018214FF63D
:106EB000FF720346CDE9002102907FA201467820AF
:106EC000FDF7C8FE18204FF6FF711F22CDE9002103
:106ED0000290784890ED070ABCEEC00A10EE100A46
:106EE00082B205230021AF20FDF757FE00201821B4
:106EF0004FF6FF720346CDE90021029070A2FDF724
:106F0000A9FE18204FF6FF71CDE900106948D0EDB9
:106F1000090AB0EE600A1F23032218213420FDF76E
:106F20009FFD002018214FF6FF720346CDE9002196
:106F3000029065A27820FDF78DFE18204FF6FF71B4
:106F4000CDE900106248D0ED090AB0EE600A1F23B7
:106F500003221821AF20FDF783FD002018214FF6F2
:106F6000FF720346CDE9002102905AA23021FDF7BD
:106F700071FE18204FF6FF71CDE900104D48D0ED9D
:106F8000080AB0EE600A1F23032230213420FDF7E7
:106F900067FD002018214FF6FF720346CDE900215E
:106FA00002904EA230217820FDF754FE18204FF6B3
:106FB000FF71CDE900104648D0ED080AB0EE600A36
:106FC0001F2303223021AF20FDF74AFD00201821A6
:106FD0004FF6FF720346CDE90021029041A24821FD
:106FE000FDF738FE18204FF6FF71CDE900103E483E
:106FF000D0ED080AB0EE600A1F2303224821342096
:10700000FDF72EFD002018214FF6FF720346CDE953
:107010000021029035A248217820FDF71BFE1820A0
:107020004FF6FF71CDE900102F48D0ED090AB0EE00
:10703000600A1F2303224821AF20FDF711FD002025
:1070400018214FF6FF720346CDE90021029028A2D5
:107050006021FDF7FFFD18204FF6FF71CDE900100C
:107060002148D0ED070AB0EE600A1F2304226021F8
:107070003420FDF7F5FC002018214FF6FF7203467F
:10708000CDE9002102901CA260217820FDF7E2FDED
:10709000002018214FF6FF720346CDE9002102902F
:1070A00016A26021AF20FDF7D5FD0EBD74537064AC
:1070B000000000009C4B0020615370640000000041
:1070C0007152656600000000714D656100000000AE
:1070D000D04A00206452656600000000644D65617E
:1070E0000000000056646300380400204964630017
:1070F00054656D700000000053544100494E4954DE
:10710000000000000EB518204FF6FF711F22CDE9D8
:10711000002102906A4890ED040ADFED6A0A20EE31
:10712000200ABCEEC00A10EE100A82B2052300212C
:107130003420FDF732FD18204FF6FF711F22CDE9F4
:10714000002102906048028D05230021AF20FDF749
:1071500024FD18204FF6FF71CDE900105848D0EDFE
:10716000090AB0EE600A1F23032218213420FDF71C
:1071700077FC18204FF6FF71CDE900105348D0ED91
:10718000090AB0EE600A1F2303221821AF20FDF781
:1071900067FC18204FF6FF71CDE900104848D0ED8C
:1071A000080AB0EE600A1F23032230213420FDF7C5
:1071B00057FC18204FF6FF71CDE900104348D0ED81
:1071C000080AB0EE600A1F2303223021AF20FDF72A
:1071D00047FC18204FF6FF71CDE900103A48D0ED7A
:1071E000080AB0EE600A1F23032248213420FDF76D
:1071F00037FC18204FF6FF71CDE900103248D0ED72
:10720000090AB0EE600A1F2303224821AF20FDF7D0
:1072100027FC18204FF6FF71CDE900102A48D0ED69
:10722000070AB0EE600A1F23042260213420FDF714
:1072300017FC254890F82A0004280DD100201821B9
:107240004FF6FF721F23CDE90021029020A260219A
:10725000AF20FDF7FFFC32E01B4890F82A0003281E
:107260000DD1002018214FF6FF721F23CDE9002118
:10727000029019A26021AF20FDF7ECFC1FE012483C
:1072800090F82A0005280DD1002018214FF6FF7232
:107290001F23CDE90021029011A26021AF20FDF74C
:1072A000D9FC0CE0002018214FF6FF721F23CDE916
:1072B000002102900CA26021AF20FDF7CBFC0EBD97
:1072C0009C4B0020EBC9984038040020D04A002095
:1072D00052554E202000000053544F500000000033
:1072E000464C5420200000004E4F4E450000000048
:1072F00010B50246012000E050430B1EA1F101042D
:10730000E1B2F9D110BD00002DE9F04103460D4670
:10731000164600240027A0462A48006800F4E060D2
:10732000B0F5E06F03D100BF4FF0040830E025480E
:10733000006800F4E060B0F5C06F03D101274FF0A2
:10734000030825E01F48006800F4E060B0F5A06F76
:1073500002D10227B8461BE01A48006800F4E0603A
:10736000B0F5806F03D103274FF0010810E01548F6
:10737000006800F4E060B0F5407F03D104274FF0CF
:10738000000805E04FF4A06000F020F80227B8469E
:10739000C7F1040005FA00F4C8F104010F20C84049
:1073A0003040044324010848C45403F01F01012065
:1073B00088405911890001F1E021C1F80001BDE8C0
:1073C000F08100000CED00E000E400E00249014320
:1073D000024A1160704700000000FA050CED00E061
:1073E00090ED060AD0ED020A20EE200AD0ED070A41
:1073F00090ED011A00EE810A80ED080A90ED070A6F
:10740000D0ED020A20EE200AD0ED060A90ED011A16
:1074100000EEC10A80ED090A7047000010B52DED9D
:10742000028B7C480078A8B37A48807838B1002075
:10743000784988709FED780A084680ED080AB0EE1A
:10744000000A744880ED090A744890ED090A80ED3D
:107450001F0A704890ED090A704880ED1E0A6030DE
:10746000FEF724F86D4890ED200A80ED0B0A90EDB0
:10747000080A80ED150A674890ED080A674880ED14
:10748000140A3830FEF712F8644890ED160A80EDC1
:107490000A0ABCE0FFE79FED600AF0EE408A9FED2C
:1074A0005E0AB0EE408A5B48807890B1002059496E
:1074B00088709FED5B0A084680ED050A9FED560A2D
:1074C00080ED080AB0EE000A544880ED220A0A2036
:1074D000C862504890ED040AD0ED050A30EE600A0B
:1074E00080ED060A90ED060ADFED4E0AB4EEE00AE2
:1074F000F1EE10FA08DB90ED050ADFED4B0A30EEF5
:10750000200A80ED050A17E0424890ED060ADFEDFB
:10751000470AB4EEE00AF1EE10FA08D890ED050A39
:10752000DFED410A30EE600A80ED050A04E03948DB
:1075300090ED040A80ED050A3648C16AC06A401C15
:10754000344AD0620A2917D300201146C86238484D
:1075500090ED150A314880ED290A084690ED050A9C
:107560002E4880ED280A8830FDF7A0FF2B4890EDCB
:107570002A0A284880ED090A284890ED080A80ED7B
:10758000150A244890ED080A244880ED140A383082
:10759000FDF78CFF214890ED160A80ED0A0A90ED68
:1075A0000A0A20EE000AF0EE408A9FED220A30EE31
:1075B000680AB0EE408AB0EE480A7030B5EEC00AF4
:1075C000F1EE10FA04DBF1EEC00AC0ED000A04E0AF
:1075D000DFED110AC0ED000A00BF104890ED1C0A53
:1075E000B1EE400A80ED1D0A90ED090A80ED1F0AF8
:1075F000084890ED090A094880ED1E0A6030FDF741
:1076000055FF064890ED200A80ED0B0A00BFBDEC47
:10761000028B10BD9C4B002000000000D04A0020CF
:1076200084705143DB0F493E7CD9203DDB0F49BEBE
:10763000D04B0020A4707D3F10B500F019F8012058
:107640000849487008708870002088809FED060AFD
:10765000084680ED020A9FED050A80ED040AFFF757
:1076600079F810BD9C4B00200000000063141D44FD
:1076700010B59FED270A274880ED0F0A9FED260AD7
:1076800080ED100AB6EE000A80ED110A9FED230A84
:1076900080ED120A90ED120AB1EE400A80ED130A55
:1076A0003830FEF7AFFE9FED1A0A1A4880ED190A2E
:1076B0009FED190A80ED1A0AB6EE000A80ED1B0A4A
:1076C0009FED160A80ED1C0A90ED1C0AB1EE400AEF
:1076D00080ED1D0A6030FEF795FE9FED110A0D4802
:1076E00080ED230A9FED0F0A80ED240A9FED0E0A1C
:1076F00080ED250AB2EE040A80ED260A90ED260AF6
:10770000B1EE400A80ED270A8830FEF77BFE10BDFF
:107710000AD7A33CD04A002017B7513958FF7F3F02
:107720000AD7233CBD37863577BE7F3F10B52E483C
:107730004078C8B32D48FEF731FB2C48FFF750FEC8
:107740002A4890ED060A2A4880ED000A274890ED65
:10775000070A274880ED010A244890ED0C0A2448C6
:1077600080ED020A214890ED0D0A214880ED030AC0
:107770001D4890ED030A1E4880ED040AFFF736F815
:107780001B4890ED150A184880ED070AFDF7CCFE5E
:10779000FFF744FE154801F049FA1448FEF73EFE93
:1077A000124801F01FFB1EE0FFE7002202211148F2
:1077B00001F099FF002201210E4801F094FF002200
:1077C00011460C4801F08FFF00220221094801F008
:1077D000D7FD00220121074801F0D2FD0022114609
:1077E000044801F0CDFD10BD9C4B0020D04A002084
:1077F000D04B0020002C01407CB50646FEF702FF6E
:1078000002F074FAFDF7A8FBFDF7B2FFFEF74CFC9F
:10781000FCF7A2FF4FF6FF708723F02200210090B3
:107820000846FCF738FFFCF745FEFFF7ABFA9FED83
:10783000540A544880ED2C0AFFF7FEFE00205249FE
:1078400081F82A0040F2AB7050490860002048607F
:107850004872087208208872FFF706FB4C48042122
:1078600000238022CDE900104AA14E4803F090FA8F
:107870000446012C00D100E0002050B900BF1020C8
:1078800080F31188BFF34F8FBFF36F8F00BF00BF2E
:10789000FEE7FFF783FA4448002301224FF4FA7110
:1078A000009042A003F07EFD44490860084600684D
:1078B00008B1012000E0002050B900BF102080F383
:1078C0001188BFF34F8FBFF36F8F00BF00BFFEE77C
:1078D00003F0AAFA0546002003462A46012100903B
:1078E0003648006803F0B6FD0446012C00D100E0E4
:1078F000002050B900BF102080F31188BFF34F8FD4
:10790000BFF36F8F00BF00BFFEE7002002210346D8
:107910008022CDE900102AA12D4803F039FA04464F
:10792000012C00D100E0002050B900BF102080F3EE
:107930001188BFF34F8FBFF36F8F00BF00BFFEE70B
:107940000020022103464A02CDE9001021A123486C
:1079500003F01EFA0446012C00D100E0002050B9CB
:1079600000BF102080F31188BFF34F8FBFF36F8FDC
:1079700000BF00BFFEE7002002F074FC7CBD0000E9
:10798000CD985E45D04A00203804002064040020D1
:10799000E8020020706D736D5F73746174655F74CD
:1079A000736B0000E1790008074D000850657269AB
:1079B0006F646963616C54696D657200E402002054
:1079C000706D736D5F6D61696E5F74736B00000045
:1079D000E59100086775695F74736B00499300084F
:1079E00007E04FF0FF320121002002F06FF8FFF7AF
:1079F00055F8F6E72DE9F04705460E462348076897
:107A00002348D0F800802348D0F80090224800682E
:107A1000001D02F06DFA681CE0B9DEB100BF1F491D
:107A200048681D49096888601B4982680968CA60FE
:107A300019490968091D8268516017490968091DBB
:107A40008160164A144909684A6111460968491C4F
:107A5000116018E07C19104800684460BC4206D2EE
:107A60000D480168091D484602F083FA0BE00A48F8
:107A70000168091D404602F07CFA0948006884420A
:107A800001D207480460BDE8F08700000C03002025
:107A9000FC02002000030020F80200202C0500203A
:107AA0002803002010B5044602F08AFA3348006823
:107AB000401C324908603248006840B930480460D0
:107AC0000846006801280DD100F00AFB0AE02D48A5
:107AD000006838B92A480068C06AE16A884201D85B
:107AE0002748046028480068401C2749086000BFF8
:107AF00000BF2649E06A0968884202D92349E06A42
:107B0000086000BF00BFE16A01EB8101204A02EB7F
:107B100081014868A0608268E260211D826851602E
:107B20008160E16A01EB8101194A02EB8102626125
:107B3000E16A01EB8101164A52F82110491CE26A00
:107B400002EB8202124B43F8221000BF00BF02F08A
:107B500061FA0C48006878B100BF09480068C06A43
:107B6000E16A884207D24FF080500A490860BFF3AB
:107B70004F8FBFF36F8F00BF10BD000008030020C0
:107B8000F80200201403002024030020100300202A
:107B90007804002004ED00E008B502F011FA0E4868
:107BA0000068A8B90D4802F0D4F90D4802F0D1F9E7
:107BB0000A480C4908600A480B49086000200B4B32
:107BC0000B4A0C2100900A2002F056FE0249086080
:107BD00002F020FA08BD000040030020E809002060
:107BE000FC090020380300203C030020100A00207C
:107BF000580A002010B516E002F0E2F90C48C068FF
:107C0000C468201D02F074F90A480068401E094942
:107C1000086009480068401E0749086002F0FAF948
:107C2000204600F02EF9044800680028E4D110BD79
:107C300018050020080300200403002070B5044646
:107C40000D46206C70B1216CE0680144E160D4E91C
:107C50000210884201D32168E1602846226CE16865
:107C6000FCF760FB70BD2DE9F04104460F46154658
:107C70004FF00008A66B206C48B9206800282CD172
:107C8000A06803F0B1F980460020A06025E07DB92E
:107C90003946226C6068FCF745FB216C606808443B
:107CA0006060D4E90101884217D32068606014E065
:107CB0003946226CE068FCF735FB216CE068411A1C
:107CC000E1602168E068884203D2216CA068411A13
:107CD000E160022D01D106B1761E701CA063404602
:107CE000BDE8F081F0B58BB001260027002508E043
:107CF0001AA0405D07A9485507A8405D00B902E0F9
:107D00006D1C102DF4DB00BF002421E0154F002076
:107D10000690059004AA05A906A802F0FDF8002225
:107D2000DDE905101346CDE90021029007A9384688
:107D3000049A03F049F80C4941F82400084650F829
:107D4000240008B1012600E0002606B902E0641C08
:107D5000012CDBDB00BF30460BB0F0BD49444C4585
:107D600000000000697F00082C0300202DE9FF4F70
:107D700085B0074688469146DDE9144BDDE912A639
:107D80000EB1012000E0002050B900BF102080F3A8
:107D90001188BFF34F8FBFF36F8F00BF00BFFEE7A7
:107DA0000CB1012000E0002050B900BF102080F38A
:107DB0001188BFF34F8FBFF36F8F00BF00BFFEE787
:107DC000542004900498542801D1012000E00020A0
:107DD00050B900BF102080F31188BFF34F8FBFF35D
:107DE0006F8F00BF00BFFEE700BFB4B1AEB1254644
:107DF00054212846FCF7AFFA2C462E63022085F862
:107E000051000020CDE900ABCDE902504A46414681
:107E10003846089B00F0D1F800E00025284609B05C
:107E2000BDE8F08F2DE9FF5F074688461646994664
:107E3000DDE90EABB00000F0DDFB054675B1542066
:107E400000F0D8FB04462CB154212046FCF783FAFD
:107E5000256304E0284602F0FBF800E0002464B14A
:107E6000002084F851004B4632464146CDE900AB34
:107E7000CDE90240384600F0A0F8204604B0BDE845
:107E8000F09F10B5044694F8510030B9206B02F011
:107E9000DFF8204602F0DCF81AE094F851000128DF
:107EA00003D1204602F0D4F812E094F851000228E1
:107EB00001D1012000E0002050B900BF102080F364
:107EC0001188BFF34F8FBFF36F8F00BF00BFFEE776
:107ED00010BD00000146084A126812680AB9012262
:107EE00000E000220A600A6822B9034A1268D268D8
:107EF000106800E0002070473803002030B54FF4D0
:107F00008043144800F007042CB1C01D20F0070086
:107F1000104C041B1B1B104C206000240E4D6C6089
:107F2000C218083A22F007020C4C226000240B4DC4
:107F30002D686C60094D2D682C600146541A4C6008
:107F4000064C24680C60064D4C682C60054D4C684E
:107F50002C6030BDD00A00204C03002054030020C8
:107F60005C0300205803002000BFFFF743FE0748D2
:107F70000068012807D94FF0805005490860BFF319
:107F80004F8FBFF36F8F01F0DFFFEEE77804002023
:107F900004ED00E02DE9F04106460D4617469846EF
:107FA000069C0DB9246000E02760E663256401218A
:107FB000204602F0AFFCBDE8F0812DE9F05F82467B
:107FC0000F4690469B460A9E0C9C4FEA8801A522CC
:107FD000206BFCF7B9F9A8F10100216B01EB8009D6
:107FE00029F0070909F0070008B9012000E0002086
:107FF00050B900BF102080F31188BFF34F8FBFF33B
:108000006F8F00BF00BFFEE77FB1002507E0795DFD
:1080100004F134004155785D00B902E06D1C102D6B
:10802000F5D300BF002143200155052E01D20120C8
:1080300000E0002050B900BF102080F31188BFF38A
:108040004F8FBFF36F8F00BF00BFFEE7052E00D339
:108050000426E6626664201D01F088FF04F1180022
:1080600001F084FF2461C6F10500A06164625A46F4
:108070005146484600F0B2FC20600B9808B10B98BE
:108080000460BDE8F09F2DE9F04706460D4617460F
:108090009846DDE908940DB1012000E0002050B9B8
:1080A00000BF102080F31188BFF34F8FBFF36F8F95
:1080B00000BF00BFFEE7FFF76FFD2660A561C4F8B3
:1080C0001C80C4F82090201D01F050FF2FB194F8BF
:1080D000240040F0040084F82400BDE8F08700008C
:1080E00010B5002407E004EB84010F4A02EB810085
:1080F00001F02FFF641C052CF5D30C4801F029FF7B
:108100000B4801F026FF0B4801F023FF0A4801F05D
:1081100020FF0A4801F01DFF04480949086004488F
:108120000849086010BD000078040020DC0400202D
:10813000F004002004050020180500202C05002074
:10814000FC0200200003002010B50146224800E098
:10815000006803688B42FBD31F4B984214D01F4B1F
:10816000984204D31E4B984201D8012300E000231B
:1081700053B900BF102383F31188BFF34F8FBFF3B0
:108180006F8F00BF00BFFEE70246436813448B4277
:1081900004D143684C682344436001460A464B6857
:1081A00013440468A34211D10E4C03682468A3420F
:1081B00008D04B680468646823444B6003681B68FC
:1081C0000B6005E0074B1B680B6001E003680B6068
:1081D000884200D0016010BD4C030020D00A00206E
:1081E000CF4A0020540300202DE9F04104460D46FB
:1081F00016461F464FF0000865602461B5420CD852
:10820000F01BA169884202D34FF0010811E0211D43
:108210000948006801F0ADFE0BE0BE4204D2BD4249
:1082200002D34FF0010804E0211D0448006801F06A
:10823000A0FE4046BDE8F0813C030020380300204A
:1082400070B5054601F0BCFEA86B08B9012400E03A
:10825000002401F0DFFE204670BD70B5054601F038
:10826000AFFEA86BE96B884201D1012400E0002435
:1082700001F0D0FE204670BD70B505460E460E4892
:108280000068C068C468201D01F032FE94F8240024
:1082900000F0040028B132462946204600F0DAF802
:1082A00005E094F8240000F0FE0084F82400204645
:1082B000216A884770BD0000380300207FB5002088
:1082C0000190029003907FE0019800287CDB039CE2
:1082D000606908B9012000E0002010B9201D01F0FC
:1082E00007FE684600F0E2F8054601980A2869D2C0
:1082F000DFE800F06805072E365806082F3700BF64
:1083000000BF00BF94F8240040F0010084F824006E
:108310000298A269811803462A462046FFF764FFA7
:10832000A8B194F8240000F0040038B10298A269C2
:1083300081182A46204600F08DF805E094F82400C4
:1083400000F0FE0084F824002046216A88473AE0C5
:1083500000BF94F8240000F0FE0084F8240032E00E
:1083600000BF94F8240040F0010084F82400029833
:10837000A061A06908B1012000E0002050B900BF51
:10838000102080F31188BFF34F8FBFF36F8F00BFB2
:1083900000BFFEE7A06941192B462A462046FFF799
:1083A00023FF10E094F8240000F0020018B92046E2
:1083B00001F04EFE05E094F8240000F0FE0084F881
:1083C000240000E000BF00BF002201A903480068AC
:1083D00002F0E2FB00287FF477AF7FBD400300206E
:1083E000F8B505460C4602F01DF9684600F05EF847
:1083F0000646009820BB44B9B54206D802F000FFFB
:1084000031462846FFF738FF1CE03CB10E480068B3
:10841000006808B9012000E000200446A91B22469C
:108420000A48006801F0CAFE02F0EAFE50B94FF0B7
:10843000805007490860BFF34F8FBFF36F8F01E093
:1084400002F0DEFEF8BD00003C03002040030020E7
:1084500004ED00E070B504460D46164604E0A06940
:1084600005442046216A8847A06941192B463246B7
:108470002046FFF7B9FE0028F1D170BD0948006819
:10848000006808B9012000E0002020B14FF0FF3063
:108490000549086005E003480068C06800680249B3
:1084A00008607047FC0200202803002070B50446D5
:1084B00002F0BAFC054607480068854204D200F085
:1084C0000BF80120206001E00020206001480560D9
:1084D000284670BD4803002070B508E00D480068CC
:1084E000C06804684FF0FF312046FFF7C5FE094819
:1084F0000068006808B9012000E000200028EDD0E5
:10850000044805680448006802490860024805609C
:1085100070BD0000380300203C0300200E480068B6
:10852000401C08B9012000E0002050B900BF102015
:1085300080F31188BFF34F8FBFF36F8F00BF00BF71
:10854000FEE700BF102080F31188BFF34F8FBFF309
:108550006F8F00BF00BFFEE76803002008B500BFB3
:108560006846FFF7B7FC044620460099FFF738FF3E
:10857000FFF7A4FEF4E770B5044601F021FD94F97D
:10858000455010E0606A08B9012000E0002038B9C9
:1085900004F1240002F09AFD18B101F0AFFF00E0F1
:1085A00003E0681E45B2002DECDC00BFFF2084F81C
:1085B000450001F02FFD01F003FD94F9445010E057
:1085C000206908B9012000E0002048B904F110003A
:1085D00002F07CFD08B101F091FF681E45B200E099
:1085E00001E0002DECDC00BFFF2084F8440001F026
:1085F00011FD70BD2DE9F04705464FF00008DDB1D3
:1086000015F1090F01D9012000E0002098B90835C3
:1086100005F0070080B105F00700C0F10809C9F1B5
:10862000FF30A84201D2012000E0002008B94D44EB
:1086300002E0002500E0002501F0F4FF6448006836
:1086400008B9FFF75BFC012000EBE570002877D04C
:10865000002DFCD05F480068854271D85E4E3046E0
:1086600004685E48844204D35D48844201D80120F6
:1086700000E0002050B900BF102080F31188BFF344
:108680004F8FBFF36F8F00BF00BFFEE716E0264697
:1086900024685248844204D35148844201D80120BE
:1086A00000E0002050B900BF102080F31188BFF314
:1086B0004F8FBFF36F8F00BF00BFFEE76068A84217
:1086C00002D220680028E2D141480068844267D085
:1086D000306800F108084148804504D3404880458F
:1086E00001D8012000E0002050B900BF102080F325
:1086F0001188BFF34F8FBFF36F8F00BF00BFFEE73E
:10870000206830606068A84201D2012000E00020AB
:1087100080F0010050B900BF102080F31188BFF332
:108720004F8FBFF36F8F00BF00BFFEE76068401B35
:1087300010281AD9671907F0070010B9012001E0C5
:108740002EE0002050B900BF102080F31188BFF345
:108750004F8FBFF36F8F00BF00BFFEE76068401B05
:10876000786065603068386037601A496068096809
:10877000081A18490860084600681A4909688842BA
:1087800003D21448006817490860606840F0004050
:1087900060600020206014480068401C1249086096
:1087A00002F02EFD08F0070008B9012000E00020CB
:1087B00050B900BF102080F31188BFF34F8FBFF373
:1087C0006F8F00BF00BFFEE74046BDE8F0870000A6
:1087D00054030020580300204C030020D00A00203E
:1087E000CF4A00205C0300206003002010B540F257
:1087F000026000F0EBF940F2036000F0E7F94FF49B
:10880000C06000F0E3F94FF4806303221821174899
:10881000FDF7A5FC4FF40073032218211348FDF760
:108820009EFC4FF48073032218211048FDF797FC3B
:108830004FF40043032218210D48FDF790FC4FF43C
:108840008043032218210A48FDF789FC4FF40053A6
:10885000032218210648FDF782FC4FF480530322BF
:1088600004210348FDF77BFC10BD00000008014017
:10887000000C014000B58BB040F20B6000F0A6F98F
:10888000554800F065FF0020ADF810004020ADF81D
:1088900012000020ADF8140040F6A56006900020FC
:1088A000ADF816008DF81C0004A94B4800F0D0FF6D
:1088B0000120ADF820000420ADF822000020ADF822
:1088C0002400ADF82600ADF82800ADF82A0008AA6B
:1088D0000021414800F0A4FD08AA01213E4800F013
:1088E0009FFD08AA02213C4800F09AFD08AA032136
:1088F000394800F095FD4FF47A720021364800F0B7
:10890000B2FE60220021344800F080FE08220021DF
:10891000314800F0BBFE4FF47A7201212E4800F07E
:10892000A2FE602201212C4800F070FE08220121E5
:10893000294800F0ABFE4FF47A720221264800F07D
:1089400092FE60220221244800F060FE08220221EB
:10895000214800F09BFE0698421E03211E4800F0AD
:1089600082FE602203211C4800F050FE00220321F9
:10897000194800F08BFE4FF40060ADF80000401085
:10898000ADF80200B820ADF804000020ADF80600F4
:108990004FF48040ADF808000020ADF80A004FF415
:1089A0008050ADF80C0069460B4800F0DAFC01215C
:1089B000094801F057F80121074801F040F88021EB
:1089C000054801F03CF81021034801F038F802484E
:1089D00000F02CFF0BB000BD002C0140001F4FF039
:1089E00080730360001F21F001030360001F054B2B
:1089F000036014380260001F6FF002030360203828
:108A0000704700001D850008184B5968184B194025
:108A1000164BDA6A22F000520C2820D2DFE800F070
:108A2000060708091F0C1F0D1516171800BF00BFF9
:108A300000BF41EA803113E000BF20F004004FF096
:108A4000805343EA803319430AE000BF00BF00BFF0
:108A500020F00C0041EA803142F0005200E000BFFB
:108A600000BF024B5960DA627047000000100240FC
:108A7000FF3FFFEF2DE9F04F8CB0074600200A9032
:108A80004AA090E8004CC068CDE905BECDF810A022
:108A900007900FF21C1ADAE9000ACDE9020A0FF278
:108AA000101ADAE9000ACDE9000A44484068C0F328
:108AB00081000B900B9820B1012804D002283FD1EF
:108AC00003E03F4A3EE03E4A3CE03C48406800F458
:108AD000803CBCF5803F12D13848C06A00F0804825
:108AE000B8F1000F01D1364B00E0364B33484068F7
:108AF00000F40039B9F5003F02D15B0800E0324BC9
:108B00002E484068C0F383412C48406800F0006064
:108B100008B141F010012948406800F0804008B1D8
:108B200041F020010F2901D2891C06E00F2903D34F
:108B30003E2901D8491C00E03F2103FB01F201E07E
:108B40001F4A00BF00BF1D484068C0F3031504A8BA
:108B5000465D22FA06F419484068C0F3022502A8CF
:108B6000465D24FA06F0099014484068C0F3C22517
:108B70001DF8056024FA06F0089037B1012F06D0E1
:108B8000022F06D0032F0AD106E00A9208E00A94C9
:108B900006E009980A9003E008980A9000E000BFF8
:108BA00000BF0A980CB0BDE8F08F00000000000084
:108BB000000000000102030406070809001002403B
:108BC00000127A00006CDC0200093D00064A02EB4C
:108BD0009011096800F01F0301229A401143024BD3
:108BE00003EB90121160704700100240064A02EB3E
:108BF0009011096800F01F0301229A409143024B33
:108C000003EB90121160704700100240064A02EB1D
:108C10009011096800F01F0301229A401143024B92
:108C200003EB9012116070470010024010B504462B
:108C3000D4ED000AB0EE600AFBF732FB84ED010AC6
:108C4000D4ED000AB0EE600AFBF7EEFA84ED020AFA
:108C500010BD000000B587B040F20260FFF7B6FF1C
:108C600040F20C60FFF7B2FFA02303221821114845
:108C7000FDF775FA4023032204210E48FDF76FFA31
:108C8000002001904FF4827000904FF40060029039
:108C900001200590400203902820069000200490B7
:108CA0006946054800F085F8034800F06FF807B002
:108CB00000BD0000000801400030014010B504462E
:108CC00000BF0221094800F06CF80028F9D02146C5
:108CD000064800F064F800BF0121044800F061F884
:108CE0000028F9D0014800F056F810BD00300140CE
:108CF00000B587B040F20360FFF768FF40F20F70E5
:108D0000FFF764FF01211048FDF798FA282303229A
:108D100018210E48FDF723FA002001904FF48270CD
:108D200000900020029005904FF400700390002006
:108D3000069004906946064800F03BF8044800F0AD
:108D400025F807B000BD000000023000000C014013
:108D5000003C004010B5044600BF02210A4800F064
:108D600020F80028F9D02146074800F018F800BF85
:108D70000121054800F015F80028F9D0024800F05C
:108D80000AF8C0B210BD0000003C0040016841F08C
:108D90004001016070470146C86880B27047C160F9
:108DA000704702469068084008B1012070470020D3
:108DB000FCE702460020106800F441500B6818439D
:108DC0004B6818438B681843CB6818430B691843EA
:108DD0004B6918438B6918431060D36923F400630F
:108DE000D36170479FEDB34AB0EE442A9FEDB14A7C
:108DF000F0EE442A9FEDAF4AF0EE443A9FEDAD4AC3
:108E0000B0EE440A9FEDAB4AF0EE440A9FEDA94A4A
:108E1000B0EE441A9FEDA74AF0EE441A9FEDA54A22
:108E2000B0EE443A90ED0D4AB0EE442A90ED0D4A72
:108E3000F1EE444AB0EE005A84EE854AD0ED0C4A79
:108E40009FED9D5A05EE244AF0EE442A90ED0D4A1E
:108E5000F1EE444AB0EE005A84EE854AD0ED0C4A59
:108E60009FED955A05EE644AF0EE443AF5EEC03AAD
:108E7000F1EE10FA7DDDF5EEC02AF1EE10FA29DDF3
:108E8000052180F8C01090ED2C4A24EE224AB0EE65
:108E9000440A90ED2C4A24EE234AF0EE440A90ED69
:108EA0002C4A34EE404A34EE604AF0EE004A84EE3A
:108EB000245AB0EE451A31EE004AF0EE441A31EE73
:108EC000A04AB0EE443AC0ED2D1A80ED2E1A80ED86
:108ED0002F3AEDE0B5EEC02AF1EE10FA29DD0321BC
:108EE00080F8C01090ED2C4A24EE234AB0EE440ADC
:108EF00090ED2C4A24EE024AF0EE440A90ED2C4A02
:108F000034EE404A34EE604AF0EE004A84EE245AD1
:108F1000B0EE451A31EE004AF0EE441A31EEA04AA6
:108F2000B0EE443A80ED2D1A80ED2E3AC0ED2F1AA6
:108F3000BEE0042180F8C01090ED2C4AF1EE624AA8
:108F400024EE244AB0EE440A90ED2C4AF1EE424A57
:108F500024EE244AF0EE440A90ED2C4A34EE404AC6
:108F600034EE604AF0EE004A84EE245AB0EE451A20
:108F700000E00EE031EE004AF0EE441A31EEA04A75
:108F8000B0EE443A80ED2D1AC0ED2E1A80ED2F3A46
:108F90008EE0F5EEC02AF1EE10FA5CDDB5EEC02AE7
:108FA000F1EE10FA29DD012180F8C01090ED2C4A75
:108FB00024EE024AB0EE440A90ED2C4A24EE224AF6
:108FC000F0EE440A90ED2C4A34EE404A34EE604A0A
:108FD000F0EE004A84EE245AB0EE451A31EE004A13
:108FE000F0EE441A31EEA04AB0EE443A80ED2D3A4C
:108FF000C0ED2E1A80ED2F1A5AE0062180F8C0101D
:1090000090ED2C4AF1EE424A24EE244AB0EE440A96
:1090100090ED2C4AF1EE634A24EE244AF0EE440A25
:1090200090ED2C4A34EE404A34EE604AF0EE004AAD
:1090300084EE245AB0EE451A31EE004AF0EE441A9E
:1090400031EEA04AB0EE443A80ED2D3A80ED2E1A72
:10905000C0ED2F1A2CE0022180F8C01090ED2C4AB0
:10906000F1EE634A24EE244AB0EE440A90ED2C4A15
:10907000F1EE624A24EE244AF0EE440A90ED2C4AC6
:1090800034EE404A34EE604AF0EE004A84EE245A50
:10909000B0EE451A31EE004AF0EE441A31EEA04A25
:1090A000B0EE443AC0ED2D1A80ED2E3A80ED2F1A25
:1090B0007047000000000000D7B35D3F0020002192
:1090C0003F4A126842F480323D4B1A6000BF401C98
:1090D0003B4A126802F4003119B94FF6FF72904210
:1090E000F5D1374A126802F400320AB900BFFEE730
:1090F000334AD26942F08052314BDA61314A126808
:1091000042F440422F4B1A602D4A52682C4B5A6051
:109110001A4652685A601A46526842F480625A608F
:109120001A46526822F440325A601A46526842F493
:1091300040325A601A465268234B1A40204B5A60FC
:109140001A465268214B1A431D4B5A601A46126840
:1091500042F080721A6000BF194A126802F0007271
:10916000002AF9D0174A126842F48032154B1A606F
:1091700000BF144A526802F48032002AF9D0114A22
:10918000126842F400320F4B1A6000BF0D4A526859
:1091900002F40032002AF9D0094A526822F0030290
:1091A000074B5A601A46526842F002025A6000BFEA
:1091B000034A526802F00802002AF9D07047000002
:1091C0000010024000700040FFFFC3B700003408E9
:1091D00010B5FFF773FF10BD10B50446204601F02F
:1091E00013F810BD002400259DE00020FCF74CF88A
:1091F0004D4988820120FCF747F84B49C88202207C
:10920000FCF742F848490883888AFCF73BFA46484D
:1092100080ED070AC08A00EE100AB8EE400ADFEDC2
:10922000430A20EE200A404880ED080A008BB0F582
:10923000006F0FDD3C48008BA0F5006000EE100AC7
:10924000B8EEC00ADFED3A0A20EE200A364880ED7B
:10925000090A04E09FED370A334880ED090AFCF75C
:10926000F7FE0446FDF792F9FDF764F9054632482A
:109270004078012835D1304890ED070ADFED2F0AFC
:1092800020EE200ABCEEC00A10EE100A264908851E
:10929000012C12D1284890ED040ADFED290AB4EE22
:1092A000E00AF1EE10FA1CD290ED040AF7EE000A83
:1092B00030EE200A80ED040A13E0022C11D11E4882
:1092C00090ED040ADFED1F0AB4EEE00AF1EE10FAA9
:1092D00007DD90ED040AF7EE000A30EE600A80ED3B
:1092E000040A022D19D1104890F82A00042806D14A
:1092F000FDF760FD03200C4981F82A000EE00A48C2
:1093000090F82A00032809D1FDF776FDFEF794F9BD
:109310000420054981F82A0000E000BFFDF7CEFCDB
:109320000A2000F071FF60E7380400200303883C46
:109330000000843C000000009C4B0020EBC99840DA
:1093400063141D448470514305E0FDF7DBFE4FF4C8
:109350007A7000F059FFF8E7016841F08001016080
:1093600070470A884B881A438B881A43CB881A4364
:109370000B891A434B891A438B891A4342647047FD
:1093800021B101290AD002291AD110E0036A23F081
:1093900004030362036A1343036212E0036A23F0C7
:1093A00040030362036A43EA0213036209E0036AAB
:1093B00023F480630362036A43EA0223036200E04A
:1093C00000BF00BF704731B101290CD0022913D072
:1093D000032922D118E0836923F00C038361836998
:1093E000134383611AE0836923F4406383618369D3
:1093F00043EA0223836111E0C36923F00C03C361D4
:10940000C3691343C36109E0C36923F44063C361C3
:10941000C36943EA0223C36100E000BF00BF704795
:1094200010B531B101293FD002297DD003297CD16B
:10943000BFE0036A23F001030362836923F003039F
:109440008361036A148823430362036A23F00203DF
:109450000362036A9488234303626A4B984202D0F2
:10946000694B98421FD1036A23F004030362036A25
:10947000548823430362036A23F008030362036AE8
:10948000D48823430362436823F4807343604368B2
:10949000148923434360436823F4007343604368A3
:1094A000548923434360ABE0036A23F01003036253
:1094B000836923F440738361036A148843EA0413C5
:1094C0000362036A23F020030362036A948843EA79
:1094D000041303624B4B984202D04B4B984226D167
:1094E000036A23F040030362036A548843EA0413C7
:1094F0000362036A23F080030362036AD48843EAA9
:1095000004130362436823F480634360436814894F
:1095100043EA84034360436823F400634360436881
:10952000548943EA840301E002E068E0436067E0B5
:10953000036A23F480730362C36923F00303C361E6
:10954000036A148843EA04230362036A23F4007362
:109550000362036A948843EA04230362294B984216
:1095600002D0294B984223D1036A23F4806303621B
:10957000036A548843EA04230362036A23F4006302
:109580000362036AD48843EA04230362436823F432
:10959000805343604368148943EA0413436043687B
:1095A00023F4005343604368548943EA041343603F
:1095B00026E0036A23F480530362C36923F44073F3
:1095C000C361036A148843EA04330362036A23F421
:1095D00000530362036A948843EA04330362094B2D
:1095E000984202D0084B984208D1436823F4804344
:1095F00043604368148943EA8413436000E000BF7A
:1096000000BF10BD002C01400034014031B10129E0
:109610000CD0022913D0032922D118E0836923F04A
:10962000700383618369134383611AE0836923F4C0
:10963000E0438361836943EA0223836111E0C369E4
:1096400023F07003C361C3691343C36109E0C369B5
:1096500023F4E043C361C36943EA0223C36100E02A
:1096600000BF00BF704731B1012906D0022906D0E2
:10967000032908D105E0426306E0826304E0C26387
:1096800002E0026400E000BF00BF704731B1012971
:109690000CD0022913D0032922D118E0836923F0CA
:1096A000080383618369134383611AE0836923F4A8
:1096B00000638361836943EA0223836111E0C36924
:1096C00023F00803C361C3691343C36109E0C3699D
:1096D00023F40063C361C36943EA0223C36100E06A
:1096E00000BF00BF704731B101290CD0022913D04F
:1096F000032923D119E0036A23F001030362036AFB
:10970000134303621BE0036A23F010030362036A3E
:1097100043EA0213036212E0036A23F480730362D4
:10972000036A43EA0223036209E0036A23F48053D5
:109730000362036A43EA0233036200E000BF00BF32
:10974000704701460020486A704741627047000038
:1097500010B504463349601A8C4244D00CDCB4F195
:10976000804F1CD03048204410B3B0F5806F28D013
:10977000B0F5006F52D12DE0B0F5806F3CD0B0F560
:109780008E3F03D0B0F5923F48D13EE040F20B301F
:10979000FFF73CFA40F20B30FFF728FA3FE04FF4B6
:1097A0008060FFF733FA4FF48060FFF71FFA36E06E
:1097B00040F20140FFF72AFA40F20140FFF716FAA3
:1097C0002DE040F20240FFF721FA40F20240FFF79D
:1097D0000DFA24E040F20340FFF718FA40F203408C
:1097E000FFF704FA1BE040F20440FFF70FFA40F2E3
:1097F0000440FFF7FBF912E040F20540FFF706FADC
:1098000040F20540FFF7F2F909E040F20D30FFF7B2
:10981000FDF940F20D30FFF7E9F900E000BF00BFAD
:1098200010BD00000010004000FCFFBF016841F0C7
:1098300001010160704721B9426842F08002426034
:1098400005E0012903D1426822F08002426070479E
:109850000A8882621D4A90420ED0B0F1804F0BD030
:109860001B4A904208D01B4A904205D01A4A9042A7
:1098700002D01A4A90420BD1026822F070020260B4
:1098800002684B881A43026002688B881A430260A0
:109890008A68C262124A90420AD0124A904207D0A5
:1098A000026822F4407202600268CB881A430260A8
:1098B000064A904202D0094A904201D10A7B0263D3
:1098C000426942F00102426170470000002C0140F1
:1098D0000004004000080040000C0040003401403B
:1098E000001000400014004070B504460E461546B6
:1098F00036B1012E26D0022E48D0032E7DD168E04D
:10990000206A20F001002062206A20F00A00206214
:10991000206A298808432062A06920F00300A06122
:10992000A06969880843A061A06920F0F000A061E7
:10993000A069E98840EA0110A061206A40F00100B6
:1099400020626DE0206A20F010002062206A20F082
:10995000A0002062206A298840EA01102062A069E4
:1099600020F44070A061A069698840EA0120A061EC
:10997000A06920F47040A061A069E98840EA013044
:10998000A061206A40F01000206249E0206A20F4C3
:1099900080702062206A20F420602062206A29887A
:1099A00040EA01202062E06920F00300E061E06904
:1099B00069880843E061E06920F0F000E061E06957
:1099C000E98840EA0110E061206A40F4807020627A
:1099D00026E0206A20F480502062206A20F40050A3
:1099E0002062206A298840EA01302062E06920F480
:1099F0004070E061E069698800E010E040EA012021
:109A0000E061E06920F47040E061E069E98840EAE3
:109A10000130E061206A40F48050206200E000BF25
:109A200000BFAA8831462046FFF7CDFC70BD826892
:109A300022F07002826082680A4382607047C268C6
:109A40000A43C2607047CA43026170470246D06849
:109A500000EA01031069084010B10BB10120704702
:109A60000020FCE7012904D1426C42F40042426428
:109A700003E0426C22F400424264704730B58468CF
:109A800024F00704846084680C438460846940F295
:109A90000335AC438461846940F201152C43846131
:109AA000046A24F00A040462046A24F0A004046234
:109AB000046A42EA03152C43046230BD826822F036
:109AC0000702826082680A43826070472DE9F0478E
:109AD0000446884616464FF000090CB9012000E004
