:020000040800F2
:10400000A0050020454100085B4500085345000815
:10401000574500084D4500084547000800000000CE
:1040200000000000000000000000000087450008BC
:10403000514500080000000085450008894500083A
:104040005F4100085F4100085F4100085F410008D0
:104050005F4100085F4100085F4100085F410008C0
:104060005F4100085F4100085F4100085F410008B0
:104070005F4100085F4100085F4100085F410008A0
:104080005F4100085F410008AD4200085F41000841
:104090005F4100085F4100085F4100085F41000880
:1040A000414600085F4100085F4100085F41000889
:1040B0005F410008754600085F4100085F41000845
:1040C0005F4100085F4100085F4100085F41000850
:1040D0005F4100085F4100085F4100085F41000840
:1040E0005F4100085F4100085F4100085F41000830
:1040F0005F4100085F4100085F4100085F41000820
:104100005F4100085F4100085F4100085F4100080F
:104110005F4100085F4100085F4100085F410008FF
:104120005F4100085F4100085F4100085F410008EF
:10413000DFF80CD000F0A8F800480047E55300086D
:10414000A00500200648804706480047FEE7FEE736
:10415000FEE7FEE7FEE7FEE7FEE7FEE7FEE7FEE737
:1041600099450008314100089FED1A1AF5EE000A42
:1041700040EE010ABDEEE00AF5EEC00A10EE100AAC
:10418000F1EE10FA38BF401E00EE100A1349F7EEA8
:10419000001AB8EEC00A30EEC00ADFED0F0A20EEBA
:1041A000200AFCEEC00A10EE900AC0F3080000EEF0
:1041B000900A01EB8000F8EE600A90ED011A70EEB3
:1041C000600A90ED000A71EEE01A21EE800A00EE1E
:1041D000810A704783F9223E00000044546B0008B6
:1041E000DFED1D0AB5EEC00A60EE200ABDEEE01A52
:1041F00011EE100AF1EE10FA38BF401E00EE100A60
:10420000B8EEC00A30EEC00ADFED140A20EE200A34
:10421000B4EEE00AF1EE10FAA8BF30EE600AFCEE50
:10422000C00A0F49F7EE001A10EE900AC0F308001A
:1042300000EE900A01EB8000F8EE600A90ED011AA2
:1042400070EE600A90ED000A71EEE01A21EE800A2D
:1042500000EE810A7047000083F9223E000000440E
:10426000546B000840EA01039B0703D009E008C92A
:10427000121F08C0042AFAD203E011F8013B00F82B
:10428000013B521EF9D27047064C074D06E0E0682C
:1042900040F0010394E8070098471034AC42F6D38D
:1042A000FFF74AFF587300087873000800B587B01D
:1042B0009FED940A8DED060A9FED920A8DED050A99
:1042C0009FED900A8DED040A00200090019002906D
:1042D000039004218C4800F0A0FB8C480078002853
:1042E0004FD18B480088401C8949088003218648AB
:1042F00000F066FB874908800221834800F060FBDC
:1043000085490880854800688249098808448349AE
:10431000086083480068804909880844804908602B
:104320007B480088B0F5805F2ADB01207749087060
:104330007A480068000B7949086079480068000BEA
:104340007749086000F0ECFE76490870084600786E
:10435000002812DD0846007806280EDC08460078A2
:10436000401E714901EB800090ED000ADFED6F0AFD
:1043700030EE200A6E4880ED000A00206D4908707A
:10438000BEE06B4890ED000A6B48D0ED000A30EEBD
:10439000200A674880ED000A90ED000AB5EEC00AD9
:1043A000F1EE10FA08D290ED000ADFED640A30EE6B
:1043B000200A80ED000A11E05D4890ED000ADFED73
:1043C0005F0AB4EEE00AF1EE10FA07DD90ED000AA4
:1043D000DFED5A0A30EE600A80ED000A03214A48F8
:1043E00000F0EEFA4B4908800221474800F0E8FA55
:1043F00049490880494890ED000AF8EE400A4548CE
:10440000008800EE100AB8EE400A30EEC00ADFED78
:104410004C0A20EE200A8DED060A414890ED000A74
:10442000F8EE400A0846008800EE100AB8EE400A8E
:1044300030EEC00ADFED420A20EE200A8DED050ABB
:104440009DED060A3F4880ED030A9DED050A80EDCB
:10445000040A90ED030ADFED2B0A30EEC00AD0ED1E
:10446000040A30EE600A80ED050A314890ED000A3A
:10447000344880ED000A01F0F3F92D4890ED000A70
:104480008DED060A069800902648007800EE100A86
:10449000B8EE400A8DED050A05980190294890ED87
:1044A000000A8DED040A0498029080208DF80E0019
:1044B0007F208DF80F001021684602F0FDFA214898
:1044C00090ED2D0ABCEEC00A10EE102A02211E4803
:1044D00001F0B5FF1B4890ED2E0ABCEEC00A10EEAD
:1044E000102A0121184801F0AAFF164890ED2F0A62
:1044F000BCEEC00A10EE102A0021134801F09FFF05
:1045000007B000BD000000000024014000000020B2
:10451000400000200C0000200E00002004000020BD
:10452000080000202000002028000020DB0FC93FE9
:10453000140000207001002018000020DB0FC9408B
:104540000000A53CA4000020002C014000BFFEE7B5
:10455000704700BFFEE700BFFEE7704710B50028B8
:1045600007DA0A07140E054A00F00F031B1FD45484
:1045700003E00A07130E024A135410BD18ED00E0C1
:1045800000E400E07047704702480068401C0149A1
:10459000086070475C00002008B52648006840F4B9
:1045A0007000244908602448006840F00100224956
:1045B000086000BF2048006800F002000028F9D021
:1045C00000BF1D48406840F080001B494860002043
:1045D000009002E00098401C009000985028F9D309
:1045E0001548406840F09000134948600020009052
:1045F00002E00098401C009000985028F9D300BFBA
:104600000D48406820F003000B49486008460068E8
:104610000A490840084908604FF41F0088600846AE
:10462000006820F48020086000204860C86201F023
:1046300043FD08BD88ED00E000100240FFFFF6FEDC
:1046400010B5202200210A4801F0CCFE20220121D1
:10465000074801F0C7FE20220221054801F0C2FEF2
:104660008021034802F0A7F8022000F093FE10BD5D
:10467000002C014010B50221274802F09FF80128C4
:1046800049D10221244802F096F80021224801F085
:1046900071FD401C21490860084690ED000AB8EE03
:1046A000400A9FED1F1AC0EE010A9FED1E1A81EE0F
:1046B000200ADFED1D0A80EE201A1C4880ED001A4A
:1046C000084690ED000AF8EE400A9FED151A80EEBC
:1046D000810ADFED140A80EE801A154880ED001A79
:1046E00000F01EFD1349087008460078002812DD0E
:1046F0000846007806280EDC08460078401E0E4961
:1047000001EB800090ED000ADFED0C0A30EE200A8C
:104710000B4880ED000A10BD00040040100000208E
:1047200000247449920A863F00007A46180000204F
:104730001C0000202000002028000020DB0FC93FC3
:104740001400002000BFFEE702E008C8121F08C1E5
:10475000002AFAD170477047002001E001C1121F02
:10476000002AFBD17047000010B540F2096001F04B
:1047700069FA012001F084F9002000F051F90122CA
:104780001102254800F05AF900220221224800F0C7
:1047900055F90021204800F07FF8042202211E482C
:1047A00000F057F800231A4619461B4800F0CEF8CF
:1047B000002301221146184800F0C8F80023022205
:1047C0001146154800F0C2F8002303221146124892
:1047D00000F0BCF84FF4805202210F4800F08FF82F
:1047E000012202210C4800F06BF802210A4800F077
:1047F00014F90421084800F010F90421064800F0DB
:10480000F6F8054800F053F8012001F059FC024881
:1048100000F00AF810BD00000024014010B500F0BF
:1048200087F8FFF7A1FF10BD816841F008018160A2
:1048300000BF816801F008010029FAD1816841F0C8
:104840000401816000BF816801F004010029FAD1F0
:10485000704730B5012902D002291AD10CE0C36A91
:1048600023F47003C362C36A541E4FF4700505EA53
:1048700004542343C3620DE0836B23F4401383632A
:10488000836B541E4FF4401505EA0454234383639D
:1048900000E000BF00BF30BD21B1826842F4006279
:1048A000826003E0826822F400628260704781685F
:1048B00001F0010119B9816841F00101816070477F
:1048C00072B101F001031BB1836843F4801383606C
:1048D00001F0020393B1836843F4004383600DE069
:1048E00001F001031BB1836823F48013836001F09E
:1048F00002031BB1836823F40043836070470129DE
:1049000002D0022910D107E0836823F4602383607A
:1049100083681343836008E0836823F4E043836083
:1049200083681343836000E000BF00BF704700004E
:1049300010B540F2026001F085F90F230422002136
:10494000014800F036FB10BD00080140F0B50C46F0
:10495000876BC7F30156856BE71CBF1B07EB870C02
:104960001F2707FA0CF7BD43E71CBF1B07EB8707A0
:1049700002FA07F73D4385630A2A0DD2016902EB6B
:10498000420C072707FA0CF7B94302EB420703FA78
:1049900007F73943016112E0122A10D2C168A2F16F
:1049A0000A0707EB470C072707FA0CF7B943A2F1F0
:1049B0000A0707EB470703FA07F73943C160F0BD61
:1049C00002460B4633B1012B06D0022B06D0032B37
:1049D00008D105E0D16B07E0116C05E0516C03E0F4
:1049E000916C01E0002100BF00BF88B2704701F068
:1049F00001021AB1426842F04002426001F0020234
:104A00001AB1426842F02002426001F004021AB179
:104A1000426842F0800242607047CA4302607047B9
:104A20000549096821F47021034A1160114609689B
:104A3000014311607047000004240140AAB101F451
:104A400080731BB1436843F48073436001F4806357
:104A50001BB1436843F48063436001F00203CBB1B0
:104A6000836843F00203836014E001F480731BB198
:104A7000436823F48073436001F480631BB143688F
:104A800023F48063436001F002031BB1836823F0C9
:104A9000020383607047D0ED061A90ED072A71EE8D
:104AA000C21AF0EE610AC0ED090AD0ED001A90EDCD
:104AB000012A42EE201AB0EE610AD0ED041AF4EE9B
:104AC000C01AF1EE10FA04D2D0ED041AC0ED081AA3
:104AD0000DE0D0ED051AF4EEC01AF1EE10FA04DD87
:104AE000D0ED051AC0ED081A01E080ED080AD0EDFE
:104AF000081A30EE611AD0ED001A90ED022A42EE4B
:104B0000201A90ED032A42EE411AC0ED001A7047B8
:104B100022480078E8B321488088B0F5C86F05D2F4
:104B20001E488088401C1D49888017E01B4890ED76
:104B3000020ADFED1B0AB4EEE00AF1EE10FA08D229
:104B400090ED020ADFED170A30EE200A80ED020A2E
:104B500004E001201149887000200870124890ED8F
:104B6000000A0E48D0ED020A30EE200A0E4880ED11
:104B7000000A90ED000ADFED0D0AB4EEE00AF1EE56
:104B800010FA09DD90ED000ADFED080A30EE600A48
:104B900000E001E080ED000A704700007001002095
:104BA0005177D63CAB681235A4000020DB0FC9401A
:104BB00090ED030A80ED060A90ED030ADFED080A86
:104BC00020EE200AD0ED040AB0EE001A60EE810A51
:104BD0009FED031A00EE810A80ED070A704700007E
:104BE0003ACD133F10B540F2026001F02BF840F2CD
:104BF0001D7001F027F82023032200210B4800F04C
:104C0000D8F900F041F84021012000F073F84FF48A
:104C10002061012000F054F8012000F03FF84FF42B
:104C20003E620021012000F003F810BD00080140A1
:104C300090B921B1012905D002290BD106E0114B11
:104C40001A6008E00F4B1B1D1A6004E00D4B08337F
:104C50001A6000E000BF13E021B1012906D002294B
:104C60000CD107E0074B0C331A6008E0054B1033FA
:104C70001A6004E0034B14331A6000E000BF00BF69
:104C8000704700000874004010B540F21D4000F06D
:104C9000F9FF40F21D4000F0E5FF10BD30B90749B3
:104CA000096841F00101054A116005E003490968FE
:104CB00041F48031014A11607047000000740040E7
:104CC00050B90B4A126822F47062094B1A601A46F6
:104CD00012680A431A600AE0054A126822F07062FC
:104CE000034B1A601A46126842EA01421A60704782
:104CF0000074004050B90B4A126822F0C002094B00
:104D00001A601A4612680A431A600AE0054A1268D5
:104D100022F44002034B1A601A46126842EA01422A
:104D20001A6070470074004070B505460C46214675
:104D3000284600F01FF908B900BFFEE704EB840025
:104D4000810005F10800405840F0010104EB8400A7
:104D5000820005F10800815070BD70B505460C4613
:104D60002146284600F006F908B900BFFEE704EB2B
:104D70008400810005F10800405820F0200104EB78
:104D80008400820005F10800815070BD70B50446B2
:104D90000D462946204600F0EDF808B900BFFEE7B1
:104DA00005EB8500810004F10800405820F0010166
:104DB00005EB8500820004F108008150002105EB1D
:104DC0008500820004F10800815005EB8500820017
:104DD00004F10C00815005EB8500820004F1100005
:104DE000815005EB8500820004F114008150606859
:104DF000AA000F2191400843606070BD30B50346A2
:104E00001C688D0002FA05F52C400CB1012000E071
:104E1000002030BD2DE9F04104460D4616462946D6
:104E2000204600F0A7F808B900BFFEE705EB8500B3
:104E3000820004F110003168815005EB850082008A
:104E400004F11400B1688150308A81B205EB85000D
:104E5000820004F10C00815005EB8500810004F113
:104E60000800475827F47C57F16870680843716957
:104E70000843074305EB8500810004F10800475013
:104E8000307E01280ED105EB8500810004F1080079
:104E9000405840F0400105EB8500820004F1080015
:104EA00081500DE005EB8500810004F108004058B9
:104EB00020F0400105EB8500820004F108008150DC
:104EC000707E01280ED105EB8500810004F10800F9
:104ED000405840F0800105EB8500820004F1080095
:104EE00081500DE005EB8500810004F10800405879
:104EF00020F0800105EB8500820004F1080081505C
:104F0000B07E70B905EB8500810004F108004058BF
:104F100020F0100105EB8500820004F108008150AB
:104F20000DE005EB8500810004F10800405840F0D9
:104F3000100105EB8500820004F108008150BDE8F6
:104F4000F08170B505460C462146284600F012F85F
:104F500008B900BFFEE704EB8400810005F10800FA
:104F6000405820F4804104EB8400820005F10800E1
:104F7000815070BD02460120034B9A4202D10429A0
:104F800000DD0020704700000004024008B900BFA7
:104F9000FEE700210160416001768160C1604176D9
:104FA00001618176416170470AB1016100E04161B0
:104FB0007047F0B5044616460025002201F00F05A3
:104FC00001F0100747B1042E05D145F00305E76B4A
:104FD0001F43E76300E0354300201EE001278740C0
:104FE0001F40C7B122684FEA800C0F2707FA0CF761
:104FF000BA43870005FA07F73A43282904D1012765
:1050000087401F40676105E0482903D10127874099
:105010001F4027612260471CB8B20828DED3082051
:1050200022E0012787401F40E7B16268A0F108072E
:105030004FEA870C0F2707FA0CF7BA43A0F10807CD
:10504000BF0005FA07F73A43282904D10127874012
:105050001F40676105E0482903D1012787401F40B1
:1050600027616260471CB8B21028DAD3F0BD02464F
:105070009068084008B1012070470020FCE7024614
:10508000D068084008B1012070470020FCE700000C
:10509000F0B50A46002300240021002500F0004658
:1050A000B6F1004F02D11D4EF16901E01B4E71684F
:1050B000C0F3034583B200F44016B6F5401F08D193
:1050C00021F0E061154E766826F0E066134F7E60B1
:1050D00012E000F48016B6F5801F06D1032606FA0A
:1050E00005F4A14341F0E06106E0460D360103FA04
:1050F00006F6B14341F0E06122B1460D360103FAF4
:1051000006F6314300F00046B6F1004F02D1034EDF
:10511000F16101E0014E7160F0BD0000000001404E
:1051200010B5002440210A48FFF7A1FF0443802165
:105130000748FFF79CFF44EA4000C4B24FF4807177
:105140000348FFF794FF44EA8000C4B2204610BD34
:105150000010014010B540F2046000F073FD40F211
:10516000046000F06FFD40F2046000F06BFD4FF44E
:10517000C06000F067FD01210C48FFF789FF402364
:10518000032204210A48FFF714FF8023032204218D
:105190000748FFF70EFF4FF48073032204210448F1
:1051A000FFF707FF00F006F810BD0000000C1A0022
:1051B0000010014000B587B040F2017000F042FDE0
:1051C000314801F07DF97720ADF804000020ADF8FA
:1051D0000600ADF808004FF6FF7003900020ADF810
:1051E0000A008DF8100001A9274801F0E9F9002014
:1051F000ADF814000320ADF816000020ADF818003B
:10520000ADF81A0005AA00211F4801F025FA002078
:10521000ADF814000320ADF816000020ADF818001A
:10522000ADF81A0005AA0121174801F015FA00206F
:10523000ADF814000320ADF816000020ADF81800FA
:10524000ADF81A0005AA02210F4801F005FA402125
:105250000D4801F0A4FA04210B4801F0C7FA00211F
:10526000094801F0A0F9084800F070FF0221064843
:1052700001F0A1FA0221044801F099FA024801F074
:105280008DF907B000BD0000000400409FED040A46
:1052900080ED000A9FED020A80ED080A70470000C9
:1052A0000000000010B500221146182000F0D2F8CE
:1052B00002220021122000F0CDF8012211461D200B
:1052C00000F0C8F810BD90ED0A0AD0ED020A20EEF9
:1052D000200AD0ED0B0A90ED011A00EEC10A80ED14
:1052E0000C0A90ED0A0AD0ED010A20EE200AD0ED5A
:1052F0000B0A90ED021A00EE810A80ED0D0A70474C
:1053000010B540F2056000F09DFC40F2046000F032
:1053100099FC40F2026000F095FC4FF4C06000F090
:1053200091FC01211848FFF7B3FE18490B68184992
:10533000032208681021FFF73CFE14494B6814490A
:10534000032248681021FFF734FE10498B6810498A
:10535000032288681021FFF72CFE0C4A11680C4AC2
:1053600010680122FFF720FE084A5168084A506879
:105370000122FFF719FE054A9168054A906801224B
:10538000FFF712FE10BD00000002300050000020A8
:1053900044000020034951F82010034A52F820200D
:1053A00051617047500000204400002070B5044651
:1053B0000A4A52F824100A4A52F82400FFF75FFE06
:1053C000C0F10100C5B2054A52F82410044A52F84F
:1053D00024002A46FFF7E8FD70BD000050000020C1
:1053E0004400002010481149086062B600F086FEB3
:1053F000FFF786FF01F0ACFA00F01EF89FED0C0AF3
:105400000C4880ED2C0A00F0B5F90BE00020FFF706
:10541000CDFF642000F054FE0120FFF7C7FF642099
:1054200000F04EFEF2E700000040000808ED00E04A
:10543000A4F06045A400002010B5FFF7D3FBFFF7F0
:1054400031FF00F025FA00F067FAFFF783FEFFF75F
:10545000E5F910BD2DE9F04103460D46164600243E
:105460000027A0462A48006800F4E060B0F5E06F2D
:1054700003D100BF4FF0040830E02548006800F475
:10548000E060B0F5C06F03D101274FF0030825E0BD
:105490001F48006800F4E060B0F5A06F02D1022759
:1054A000B8461BE01A48006800F4E060B0F5806F71
:1054B00003D103274FF0010810E01548006800F4FD
:1054C000E060B0F5407F03D104274FF0000805E00D
:1054D0004FF4A06000F020F80227B846C7F104009E
:1054E00005FA00F4C8F104010F20C840304004431D
:1054F00024010848C45403F01F01012088405911B9
:10550000890001F1E021C1F80001BDE8F08100004F
:105510000CED00E000E400E002490143024A1160A2
:10552000704700000000FA050CED00E090ED060A5F
:10553000D0ED020A20EE200AD0ED070A90ED011A04
:1055400000EE810A80ED080A90ED070AD0ED020A0C
:1055500020EE200AD0ED060A90ED011A00EEC10AF5
:1055600080ED090A7047000010B52DED028B7948D7
:105570000078A8B37748807838B1002075498870E2
:105580009FED750A084680ED060AB0EE000A7148E4
:1055900080ED070A714890ED090A80ED1F0A6D48F9
:1055A00090ED070A6D4880ED1E0A6030FFF773FA30
:1055B0006A4890ED200A80ED0B0A90ED080A80ED14
:1055C000150A644890ED060A644880ED140A3830E4
:1055D000FFF761FA614890ED160A80ED0A0AB6E01D
:1055E000FFE79FED5D0AF0EE408A9FED5B0AB0EEAB
:1055F000408A5848807890B10020564988709FEDC5
:10560000580A084680ED040A9FED530A80ED060A09
:10561000B0EE000A514880ED220A0A2048624D4847
:1056200090ED030AD0ED040A30EE600A80ED050A21
:1056300090ED050ADFED4B0AB4EEE00AF1EE10FA48
:1056400008DB90ED040ADFED480A30EE200A80ED19
:10565000040A17E03F4890ED050ADFED440AB4EE76
:10566000E00AF1EE10FA08D890ED040ADFED3E0AE8
:1056700030EE600A80ED040A04E0364890ED030A3B
:1056800080ED040A3348416A406A401C314A506246
:105690000A2917D3002011464862084690ED080AEF
:1056A0002E4880ED290A084690ED040A2B4880ED2B
:1056B000280A8830FFF7EFF9284890ED2A0A254894
:1056C00080ED070A254890ED080A80ED150A21486B
:1056D00090ED060A214880ED140A3830FFF7DBF917
:1056E0001E4890ED160A80ED0A0A90ED0A0A20EE97
:1056F000000AF0EE408A9FED1E0A30EE680AB0EE16
:10570000408AB0EE480A7030B5EEC00AF1EE10FAE9
:1057100004DBF1EEC00AC0ED000A04E0DFED0E0A82
:10572000C0ED000A00BF0D4890ED090A80ED1F0A88
:10573000084890ED070A094880ED1E0A6030FFF71F
:10574000AAF9064890ED200A80ED0B0A00BFBDECD7
:10575000028B10BD7001002000000000A40000209A
:105760008470D143DB0F493E7CD9203DDB0F49BE1D
:1057700048E17A3F10B500F017F80120074948705A
:1057800008708870002088809FED050A084680ED2B
:10579000020A9FED040A80ED030A10BD700100208B
:1057A0000000000063149D4410B59FED270A2748B0
:1057B00080ED0F0A9FED260A80ED100AB6EE000A72
:1057C00080ED110A9FED230A80ED120A90ED120A76
:1057D000B1EE400A80ED130A3830FFF757FD9FED18
:1057E0001A0A1A4880ED190A9FED190A80ED1A0A63
:1057F000B6EE000A80ED1B0A9FED160A80ED1C0A2A
:1058000090ED120AB1EE400A80ED1D0A6030FFF7FC
:105810003DFD9FED110A0D4880ED230A9FED0F0A13
:1058200080ED240AB6EE000A80ED250AB2EE040AE5
:1058300080ED260A90ED120AB1EE400A80ED270AAB
:105840008830FFF723FD10BD0AD7233CA4000020B9
:1058500017B7D13858FF7F3F0AD7A33CBD3706366C
:1058600010B50A48FFF7A4F90848FFF75FFEFFF7F5
:105870004FF9FFF779FE054800F014FA0348FFF7E7
:1058800022FD024800F022FA10BD0000A400002012
:1058900010B540F2026000F0D5F940F2036000F06C
:1058A000D1F94FF4C06000F0CDF94FF480730322BA
:1058B00018211748FFF77DFB4FF4007303221821CE
:1058C0001348FFF776FB4FF480630322182110483A
:1058D000FFF76FFB4FF40053032218210D48FFF729
:1058E00068FB4FF48043032218210A48FFF761FB4D
:1058F0004FF40043032218210648FFF75AFB4FF4E8
:105900008053032204210348FFF753FB10BD00001E
:1059100000080140000C014000B58BB040F20B6064
:1059200000F090F9554800F0CBFD0020ADF81000D4
:105930004020ADF812000020ADF8140040F6A5603C
:1059400006900020ADF816008DF81C0004A94B4805
:1059500000F036FE0120ADF820000420ADF8220052
:105960000020ADF82400ADF82600ADF82800ADF811
:105970002A0008AA0021414800F03EFC08AA0121A3
:105980003E4800F039FC08AA02213C4800F034FCF3
:1059900008AA0321394800F02FFC4FF47A72002145
:1059A000364800F04CFD60220021344800F01AFD1A
:1059B00008220021314800F055FD4FF47A72012190
:1059C0002E4800F03CFD602201212C4800F00AFD29
:1059D00008220121294800F045FD4FF47A72022186
:1059E000264800F02CFD60220221244800F0FAFC39
:1059F00008220221214800F035FD0698421E0321AD
:105A00001E4800F01CFD602203211C4800F0EAFC47
:105A100000220321194800F025FD4FF40060ADF885
:105A200000004010ADF802008820ADF804004FF4EB
:105A30000050ADF806004000ADF808000020ADF8B9
:105A40000A004FF48050ADF80C0069460B4800F096
:105A500082FB0121094800F0BDFE0121074800F04A
:105A6000A6FE8021054800F0A2FE1021034800F0A8
:105A70009EFE024800F092FD0BB000BD002C0140DC
:105A8000184B5968184B1940164BDA6A22F000522D
:105A90000C2820D2DFE800F0060708091F0C1F0DB4
:105AA0001516171800BF00BF00BF41EA803113E090
:105AB00000BF20F004004FF0805343EA80331943C5
:105AC0000AE000BF00BF00BF20F00C0041EA8031B7
:105AD00042F0005200E000BF00BF024B5960DA62A2
:105AE0007047000000100240FF3FFFEF2DE9F04F2C
:105AF0008CB0074600200A904AA090E8004CC0688D
:105B0000CDE905BECDF810A007900FF21C1ADAE916
:105B1000000ACDE9020A0FF2101ADAE9000ACDE90B
:105B2000000A44484068C0F381000B900B9820B1F4
:105B3000012804D002283FD103E03F4A3EE03E4A1C
:105B40003CE03C48406800F4803CBCF5803F12D10A
:105B50003848C06A00F08048B8F1000F01D1364BD8
:105B600000E0364B3348406800F40039B9F5003F97
:105B700002D15B0800E0324B2E484068C0F38341FD
:105B80002C48406800F0006008B141F0100129483D
:105B9000406800F0804008B141F020010F2901D297
:105BA000891C06E00F2903D33E2901D8491C00E0D7
:105BB0003F2103FB01F201E01F4A00BF00BF1D4867
:105BC0004068C0F3031504A8465D22FA06F419489C
:105BD0004068C0F3022502A8465D24FA06F0099049
:105BE00014484068C0F3C2251DF8056024FA06F089
:105BF000089037B1012F06D0022F06D0032F0AD10B
:105C000006E00A9208E00A9406E009980A9003E088
:105C100008980A9000E000BF00BF0A980CB0BDE8E9
:105C2000F08F0000000000000000000001020304EB
:105C3000060708090010024000127A00006CDC021E
:105C400000093D00064A02EB9011096800F01F03AD
:105C500001229A401143024B03EB901211607047EE
:105C600000100240064A02EB9011096800F01F0381
:105C700001229A409143024B03EB9012116070474E
:105C800000100240064A02EB9011096800F01F0361
:105C900001229A401143024B03EB901211607047AE
:105CA0000010024010B50446D4ED000AB0EE600AC0
:105CB000FEF796FA84ED010AD4ED000AB0EE600A10
:105CC000FEF752FA84ED020A10BD00009FEDB34AC0
:105CD000B0EE442A9FEDB14AF0EE442A9FEDAF4A60
:105CE000F0EE443A9FEDAD4AB0EE440A9FEDAB4A68
:105CF000F0EE440A9FEDA94AB0EE441A9FEDA74A80
:105D0000F0EE441A9FEDA54AB0EE443A90ED0D4AEC
:105D1000B0EE442A90ED0D4AF1EE444AB0EE005A3E
:105D200084EE854AD0ED0C4A9FED9D5A05EE244A3B
:105D3000F0EE442A90ED0D4AF1EE444AB0EE005ADE
:105D400084EE854AD0ED0C4A9FED955A05EE644AE3
:105D5000F0EE443AF5EEC03AF1EE10FA7DDDF5EEE4
:105D6000C02AF1EE10FA29DD052180F8C01090ED6F
:105D70002C4A24EE224AB0EE440A90ED2C4A24EE3E
:105D8000234AF0EE440A90ED2C4A34EE404A34EEB9
:105D9000604AF0EE004A84EE245AB0EE451A31EE25
:105DA000004AF0EE441A31EEA04AB0EE443AC0ED9B
:105DB0002D1A80ED2E1A80ED2F3AEDE0B5EEC02AB7
:105DC000F1EE10FA29DD032180F8C01090ED2C4A85
:105DD00024EE234AB0EE440A90ED2C4A24EE024A07
:105DE000F0EE440A90ED2C4A34EE404A34EE604A1C
:105DF000F0EE004A84EE245AB0EE451A31EE004A25
:105E0000F0EE441A31EEA04AB0EE443A80ED2D1A7D
:105E100080ED2E3AC0ED2F1ABEE0042180F8C010AC
:105E200090ED2C4AF1EE624A24EE244AB0EE440A88
:105E300090ED2C4AF1EE424A24EE244AF0EE440A58
:105E400090ED2C4A34EE404A34EE604AF0EE004ABF
:105E500084EE245AB0EE451A00E00EE031EE004A1E
:105E6000F0EE441A31EEA04AB0EE443A80ED2D1A1D
:105E7000C0ED2E1A80ED2F3A8EE0F5EEC02AF1EE3D
:105E800010FA5CDDB5EEC02AF1EE10FA29DD012131
:105E900080F8C01090ED2C4A24EE024AB0EE440A7D
:105EA00090ED2C4A24EE224AF0EE440A90ED2C4A62
:105EB00034EE404A34EE604AF0EE004A84EE245A52
:105EC000B0EE451A31EE004AF0EE441A31EEA04A27
:105ED000B0EE443A80ED2D3AC0ED2E1A80ED2F1A27
:105EE0005AE0062180F8C01090ED2C4AF1EE424AAB
:105EF00024EE244AB0EE440A90ED2C4AF1EE634AB7
:105F000024EE244AF0EE440A90ED2C4A34EE404A46
:105F100034EE604AF0EE004A84EE245AB0EE451AA0
:105F200031EE004AF0EE441A31EEA04AB0EE443AA7
:105F300080ED2D3A80ED2E1AC0ED2F1A2CE00221B3
:105F400080F8C01090ED2C4AF1EE634A24EE244A0A
:105F5000B0EE440A90ED2C4AF1EE624A24EE244A57
:105F6000F0EE440A90ED2C4A34EE404A34EE604A9A
:105F7000F0EE004A84EE245AB0EE451A31EE004AA3
:105F8000F0EE441A31EEA04AB0EE443AC0ED2D1ABC
:105F900080ED2E3A80ED2F1A7047000000000000BF
:105FA000D7B35D3F002000213F4A126842F480329F
:105FB0003D4B1A6000BF401C3B4A126802F400319E
:105FC00019B94FF6FF729042F5D1374A126802F4C0
:105FD00000320AB900BFFEE7334AD26942F080526C
:105FE000314BDA61314A126842F440422F4B1A6059
:105FF0002D4A52682C4B5A601A4652685A601A460B
:10600000526842F480625A601A46526822F4403262
:106010005A601A46526842F440325A601A46526830
:10602000234B1A40204B5A601A465268214B1A43A0
:106030001D4B5A601A46126842F080721A6000BF07
:10604000194A126802F00072002AF9D0174A126841
:1060500042F48032154B1A6000BF144A526802F4B1
:106060008032002AF9D0114A126842F400320F4BF4
:106070001A6000BF0D4A526802F40032002AF9D0BB
:10608000094A526822F00302074B5A601A465268C6
:1060900042F002025A6000BF034A526802F008024E
:1060A000002AF9D070470000001002400070004044
:1060B000FFFFC3B70000340810B5FFF773FF10BD32
:1060C00010B5034600F014F8014600F011F802463E
:1060D000002400BF00F00CF802468A4201D3501A97
:1060E00002E0C1F1FF30104404469C42F2D310BDDF
:1060F00001480068704700005C00002010B512489D
:1061000000684FF47A71B0FBF1F4601EB0F1807F4B
:1061100001D301200FE0601E4FF0E02148610F2104
:106120004FF0FF30FEF71AFA00204FF0E0218861AF
:1061300007200861002008B100BFFEE70021481ECB
:10614000FEF70CFA10BD000060000020016841F06D
:106150008001016070470A884B881A438B881A4374
:10616000CB881A430B891A434B891A438B891A43EC
:10617000426470470246002031B1012906D002294D
:1061800006D0032908D105E0506B06E0906B04E0CF
:10619000D06B02E0106C00E000BF00BF704731B16F
:1061A00001290CD0022913D0032922D118E08369D8
:1061B00023F00C0383618369134383611AE08369CD
:1061C00023F440638361836943EA0223836111E01E
:1061D000C36923F00C03C361C3691343C36109E0BE
:1061E000C36923F44063C361C36943EA0223C36103
:1061F00000E000BF00BF704710B531B101293FD0AA
:1062000002297DD003297CD1BFE0036A23F001037A
:106210000362836923F003038361036A14882343C1
:106220000362036A23F002030362036A9488234330
:1062300003626A4B984202D0694B98421FD1036AAD
:1062400023F004030362036A548823430362036A4E
:1062500023F008030362036AD4882343036243687C
:1062600023F4807343604368148923434360436885
:1062700023F4007343604368548923434360ABE0D5
:10628000036A23F010030362836923F4407383617C
:10629000036A148843EA04130362036A23F02003A9
:1062A0000362036A948843EA041303624B4B9842E7
:1062B00002D04B4B984226D1036A23F0400303627D
:1062C000036A548843EA04130362036A23F08003D9
:1062D0000362036AD48843EA04130362436823F425
:1062E000806343604368148943EA840343604368DE
:1062F00023F4006343604368548943EA840301E064
:1063000002E068E0436067E0036A23F4807303629D
:10631000C36923F00303C361036A148843EA0423B7
:106320000362036A23F400730362036A948843EAF6
:1063300004230362294B984202D0294B984223D16F
:10634000036A23F480630362036A548843EA0423E4
:106350000362036A23F400630362036AD48843EA96
:1063600004230362436823F4805343604368148921
:1063700043EA04134360436823F4005343604368D3
:10638000548943EA0413436026E0036A23F48053EC
:106390000362C36923F44073C361036A148843EA48
:1063A00004330362036A23F400530362036A94888C
:1063B00043EA04330362094B984202D0084B9842E7
:1063C00008D1436823F4804343604368148943EA57
:1063D0008413436000E000BF00BF10BD002C0140EB
:1063E0000034014031B101290CD0022913D0032916
:1063F00022D118E0836923F070038361836913431A
:1064000083611AE0836923F4E0438361836943EA8B
:106410000223836111E0C36923F07003C361C36980
:106420001343C36109E0C36923F4E043C361C36953
:1064300043EA0223C36100E000BF00BF704731B1EF
:10644000012906D0022906D0032908D105E04263BC
:1064500006E0826304E0C26302E0026400E000BF81
:1064600000BF704731B101290CD0022913D0032994
:1064700022D118E0836923F0080383618369134301
:1064800083611AE0836923F400638361836943EACB
:106490000223836111E0C36923F00803C361C36968
:1064A0001343C36109E0C36923F40063C361C36993
:1064B00043EA0223C36100E000BF00BF7047000051
:1064C00010B504463349601A8C4244D00CDCB4F158
:1064D000804F1CD03048204410B3B0F5806F28D0D6
:1064E000B0F5006F52D12DE0B0F5806F3CD0B0F523
:1064F0008E3F03D0B0F5923F48D13EE040F20B30E2
:10650000FFF7C0FB40F20B30FFF7ACFB3FE04FF46E
:106510008060FFF7B7FB4FF48060FFF7A3FB36E026
:1065200040F20140FFF7AEFB40F20140FFF79AFB5B
:106530002DE040F20240FFF7A5FB40F20240FFF7DA
:1065400091FB24E040F20340FFF79CFB40F2034044
:10655000FFF788FB1BE040F20440FFF793FB40F29B
:106560000440FFF77FFB12E040F20540FFF78AFB93
:1065700040F20540FFF776FB09E040F20D30FFF7EF
:1065800081FB40F20D30FFF76DFB00E000BF00BF64
:1065900010BD00000010004000FCFFBF016841F08A
:1065A00001010160704721B9426842F080024260F7
:1065B00005E0012903D1426822F080024260704761
:1065C0000A8882621D4A90420ED0B0F1804F0BD0F3
:1065D0001B4A904208D01B4A904205D01A4A90426A
:1065E00002D01A4A90420BD1026822F07002026077
:1065F00002684B881A43026002688B881A43026063
:106600008A68C262124A90420AD0124A904207D067
:10661000026822F4407202600268CB881A4302606A
:10662000064A904202D0094A904201D10A7B026395
:10663000426942F00102426170470000002C0140B3
:106640000004004000080040000C004000340140FD
:10665000001000400014004070B504460E46154678
:1066600036B1012E26D0022E48D0032E7DD168E00F
:10667000206A20F001002062206A20F00A002062D7
:10668000206A298808432062A06920F00300A061E5
:10669000A06969880843A061A06920F0F000A061AA
:1066A000A069E98840EA0110A061206A40F0010079
:1066B00020626DE0206A20F010002062206A20F045
:1066C000A0002062206A298840EA01102062A069A7
:1066D00020F44070A061A069698840EA0120A061AF
:1066E000A06920F47040A061A069E98840EA013007
:1066F000A061206A40F01000206249E0206A20F486
:1067000080702062206A20F420602062206A29883C
:1067100040EA01202062E06920F00300E061E069C6
:1067200069880843E061E06920F0F000E061E06919
:10673000E98840EA0110E061206A40F4807020623C
:1067400026E0206A20F480502062206A20F4005065
:106750002062206A298840EA01302062E06920F442
:106760004070E061E069698800E010E040EA0120E3
:10677000E061E06920F47040E061E069E98840EAA6
:106780000130E061206A40F48050206200E000BFE8
:1067900000BFAA8831462046FFF701FD70BD826820
:1067A00022F07002826082680A4382607047C26889
:1067B0000A43C2607047CA43026170470246D0680C
:1067C00000EA01031069084010B10BB101207047C5
:1067D0000020FCE7012904D1426C42F400424264EB
:1067E00003E0426C22F4004242647047826822F067
:1067F0000702826082680A43826070472DE9F04791
:1068000004460D460027B846B94600261D49601AC1
:106810008C421CD006DC1C48204470B1B0F5806F5F
:106820001FD10FE0B0F5806F16D0B0F56C4F18D1C6
:106830000320FFF75BF9074614E00220FFF756F943
:1068400007460FE00220FFF751F907460AE0022051
:10685000FFF74CF9074605E00220FFF747F9074626
:1068600000E000BF00BF07EB5500B0FBF5F64FF6A8
:10687000F07006EA000806F00F0948EA0900A06077
:10688000BDE8F087004C004000BCFFBF10B50446D7
:106890002049601A8C4228D006DC1F48204490B161
:1068A000B0F5806F33D117E0B0F5806F26D0B0F52A
:1068B0006C4F2CD140F20E30FFF7E4F940F20E306D
:1068C000FFF7D0F924E040F21140FFF7DBF940F286
:1068D0001140FFF7C7F91BE040F21240FFF7D2F971
:1068E00040F21240FFF7BEF912E040F21340FFF70A
:1068F000C9F940F21340FFF7B5F909E040F214403E
:10690000FFF7C0F940F21440FFF7ACF900E000BF18
:1069100000BF10BD004C004000BCFFBF426922F028
:1069200040024261426901F040031A4342617047EC
:10693000426922F080024261426901F080031A43F9
:1069400042617047C16841F40051C1607047000066
:1069500000B587B040F20460FFF774F94FF4A0600F
:10696000FFF770F940F21270FFF76CF94FF4C06056
:10697000FFF768F901214548FEF78AFB4FF4806371
:10698000032218214248FEF714FB4FF40063032250
:1069900004213F48FEF70DFB3E48FFF777FF4FF419
:1069A00061213C48FFF72AFF04213A4800F07AF8B9
:1069B0000821384800F0C4F83648FFF7C3FF01212A
:1069C0003548FEF7E3F96846FEF7E0FA01208DF856
:1069D0001A003248029001208DF81900002003901F
:1069E000202004902B48001D009000208DF81800F6
:1069F00001904FF4405005906A4601212648FEF769
:106A000009FA02212448FEF7C1F96846FEF7BEFAEA
:106A100000208DF81A002248029001208DF81900FC
:106A200000200390202004901A48001D00900020B0
:106A30008DF8180001904FF4405005906A460221ED
:106A40001548FEF7E7F901211348FEF786F9012101
:106A50001148FEF776FA02210F48FEF77EF902216F
:106A60000D48FEF76EFA40210A48FFF757FF012153
:106A70000948FEF759F980210648FFF759FF02211E
:106A80000548FEF751F907B000BD000010001400E2
:106A90000010014000480040000002408400002037
:106AA00064000020C26822F00402C260C26801F0E3
:106AB00004031A43C260704730B587B005460C46E0
:106AC000202C34D2022201211A48FEF797F901281E
:106AD0002DD1224629461848FDF7C4FB012115484F
:106AE000FEF754F96846FEF751FA01208DF81A00B6
:106AF0001148029001208DF81900002003900494A1
:106B00000E48009000208DF8180001904FF440507E
:106B100005906A4601210748FEF77CF901210548E6
:106B2000FEF71BF901210348FEF7FEF800BF07B08E
:106B300030BD0000000002408400002004480040F6
:106B4000C26822F00802C260C26801F008031A435A
:106B5000C260704700000000920E493CB10AC93C77
:106B60002BC3163D2EFB483D752B7B3D04A9963D5E
:106B700080B6AF3D36BDC83D2FBCE13D73B2FA3D96
:106B800087CF093E8340163EB5AB223EA2102F3E72
:106B9000CF6E3B3EC2C5473E0115543E135C603E7E
:106BA0007F9A6C3ECCCF783EC07D823E938E883EED
:106BB000229A8E3E32A0943E86A09A3EE59AA03E4E
:106BC000128FA63ED47CAC3EEF63B23E2A44B83E60
:106BD000491DBE3E15EFC33E53B9C93ECA7BCF3EE9
:106BE0004136D53E80E8DA3E4F92E03E7533E63ED0
:106BF000BBCBEB3EEA5AF13ECBE0F63E275DFC3ED6
:106C0000E4E7003F3D9C033F824B063F9BF5083F76
:106C10006B9A0B3FDA390E3FCDD3103F2A68133FF2
:106C2000D9F6153FC07F183FC6021B3FD17F1D3FDD
:106C3000CBF61F3F9967223F25D2243F5636273F88
:106C40001594293F4AEB2B3FDE3B2E3FBB85303F5F
:106C5000C9C8323FF304353F233A373F4268393FD2
:106C60003B8F3B3FF9AE3D3F67C73F3F70D8413F49
:106C700001E2433F03E4453F65DE473F12D1493F10
:106C8000F8BB4B3F029F4D3F207A4F3F3D4D513F58
:106C90004918533F31DB543FE595563F5348583F21
:106CA0006AF2593F1A945B3F532D5D3F05BE5E3F2C
:106CB0002146603F97C5613F5A3C633F59AA643FF4
:106CC000880F663FD86B673F3CBF683FA7096A3FA4
:106CD0000C4B6B3F5E836C3F93B26D3F9ED86E3F13
:106CE00073F56F3F0809713F5213723F4714733FAA
:106CF000DD0B743F0BFA743FC6DE753F07BA763F73
:106D0000C58B773FF853783F9812793F9DC7793FFD
:106D100002737A3FBE147B3FCDAC7B3F283B7C3F68
:106D2000C9BF7C3FAC3A7D3FCCAB7D3F23137E3F58
:106D3000B0707E3F6DC47E3F580E7F3F6D4E7F3FEB
:106D4000AB847F3F0FB17F3F97D37F3F43EC7F3FC3
:106D500011FB7F3F0000803F11FB7F3F43EC7F3FF3
:106D600097D37F3F0FB17F3FAB847F3F6D4E7F3F17
:106D7000580E7F3F6DC47E3FB0707E3F23137E3F31
:106D8000CCAB7D3FAC3A7D3FC9BF7C3F283B7C3FCD
:106D9000CDAC7B3FBE147B3F02737A3F9DC7793FEA
:106DA0009812793FF853783FC58B773F07BA763F03
:106DB000C6DE753F0BFA743FDD0B743F4714733F1B
:106DC0005213723F0809713F73F56F3F9ED86E3FB3
:106DD00093B26D3F5E836C3F0C4B6B3FA7096A3FDC
:106DE0003CBF683FD86B673F880F663F59AA643F36
:106DF0005A3C633F97C5613F2146603F05BE5E3FF9
:106E0000532D5D3F1A945B3F6AF2593F5348583FF8
:106E1000E595563F31DB543F4918533F3D4D513FB7
:106E2000207A4F3F029F4D3FF8BB4B3F12D1493F65
:106E300065DE473F03E4453F01E2433F70D8413FF1
:106E400067C73F3FF9AE3D3F3B8F3B3F4268393F0D
:106E5000233A373FF304353FC9C8323FBB85303F43
:106E6000DE3B2E3F4AEB2B3F1594293F5636273FFA
:106E700025D2243F9967223FCBF61F3FD17F1D3F8C
:106E8000C6021B3FC07F183FD9F6153F2A68133F43
:106E9000CDD3103FDA390E3F6B9A0B3F9BF5083F7D
:106EA000824B063F3D9C033FE4E7003F275DFC3EED
:106EB000CBE0F63EEA5AF13EBBCBEB3E7533E63E05
:106EC0004F92E03E80E8DA3E4136D53ECA7BCF3E67
:106ED00053B9C93E15EFC33E491DBE3E2A44B83ED4
:106EE000EF63B23ED47CAC3E128FA63EE59AA03E44
:106EF00086A09A3E32A0943E229A8E3E938E883E81
:106F0000C07D823ECCCF783E7F9A6C3E135C603E63
:106F10000115543EC2C5473ECF6E3B3EA2102F3EE8
:106F2000B5AB223E8340163E87CF093E73B2FA3D91
:106F30002FBCE13D36BDC83D80B6AF3D04A9963DAE
:106F4000752B7B3D2EFB483D2BC3163DB10AC93C3A
:106F5000920E493C00000000920E49BCB10AC9BC27
:106F60002BC316BD2EFB48BD752B7BBD04A996BD5A
:106F700080B6AFBD36BDC8BD2FBCE1BD73B2FABD92
:106F800087CF09BE834016BEB5AB22BEA2102FBE6E
:106F9000CF6E3BBEC2C547BE011554BE135C60BE7A
:106FA0007F9A6CBECCCF78BEC07D82BE938E88BEE9
:106FB000229A8EBE32A094BE86A09ABEE59AA0BE4A
:106FC000128FA6BED47CACBEEF63B2BE2A44B8BE5C
:106FD000491DBEBE15EFC3BE53B9C9BECA7BCFBEE5
:106FE0004136D5BE80E8DABE4F92E0BE7533E6BECC
:106FF000BBCBEBBEEA5AF1BECBE0F6BE275DFCBED2
:10700000E4E700BF3D9C03BF824B06BF9BF508BF72
:107010006B9A0BBFDA390EBFCDD310BF2A6813BFEE
:10702000D9F615BFC07F18BFC6021BBFD17F1DBFD9
:10703000CBF61FBF996722BF25D224BF563627BF84
:10704000159429BF4AEB2BBFDE3B2EBFBB8530BF5B
:10705000C9C832BFF30435BF233A37BF426839BFCE
:107060003B8F3BBFF9AE3DBF67C73FBF70D841BF45
:1070700001E243BF03E445BF65DE47BF12D149BF0C
:10708000F8BB4BBF029F4DBF207A4FBF3D4D51BF54
:10709000491853BF31DB54BFE59556BF534858BF1D
:1070A0006AF259BF1A945BBF532D5DBF05BE5EBF28
:1070B000214660BF97C561BF5A3C63BF59AA64BFF0
:1070C000880F66BFD86B67BF3CBF68BFA7096ABFA0
:1070D0000C4B6BBF5E836CBF93B26DBF9ED86EBF0F
:1070E00073F56FBF080971BF521372BF471473BFA6
:1070F000DD0B74BF0BFA74BFC6DE75BF07BA76BF6F
:10710000C58B77BFF85378BF981279BF9DC779BFF9
:1071100002737ABFBE147BBFCDAC7BBF283B7CBF64
:10712000C9BF7CBFAC3A7DBFCCAB7DBF23137EBF54
:10713000B0707EBF6DC47EBF580E7FBF6D4E7FBFE7
:10714000AB847FBF0FB17FBF97D37FBF43EC7FBFBF
:1071500011FB7FBF000080BF11FB7FBF43EC7FBFEF
:1071600097D37FBF0FB17FBFAB847FBF6D4E7FBF13
:10717000580E7FBF6DC47EBFB0707EBF23137EBF2D
:10718000CCAB7DBFAC3A7DBFC9BF7CBF283B7CBFC9
:10719000CDAC7BBFBE147BBF02737ABF9DC779BFE6
:1071A000981279BFF85378BFC58B77BF07BA76BFFF
:1071B000C6DE75BF0BFA74BFDD0B74BF471473BF17
:1071C000521372BF080971BF73F56FBF9ED86EBFAF
:1071D00093B26DBF5E836CBF0C4B6BBFA7096ABFD8
:1071E0003CBF68BFD86B67BF880F66BF59AA64BF32
:1071F0005A3C63BF97C561BF214660BF05BE5EBFF5
:10720000532D5DBF1A945BBF6AF259BF534858BFF4
:10721000E59556BF31DB54BF491853BF3D4D51BFB3
:10722000207A4FBF029F4DBFF8BB4BBF12D149BF61
:1072300065DE47BF03E445BF01E243BF70D841BFED
:1072400067C73FBFF9AE3DBF3B8F3BBF426839BF09
:10725000233A37BFF30435BFC9C832BFBB8530BF3F
:10726000DE3B2EBF4AEB2BBF159429BF563627BFF6
:1072700025D224BF996722BFCBF61FBFD17F1DBF88
:10728000C6021BBFC07F18BFD9F615BF2A6813BF3F
:10729000CDD310BFDA390EBF6B9A0BBF9BF508BF79
:1072A000824B06BF3D9C03BFE4E700BF275DFCBEE9
:1072B000CBE0F6BEEA5AF1BEBBCBEBBE7533E6BE01
:1072C0004F92E0BE80E8DABE4136D5BECA7BCFBE63
:1072D00053B9C9BE15EFC3BE491DBEBE2A44B8BED0
:1072E000EF63B2BED47CACBE128FA6BEE59AA0BE40
:1072F00086A09ABE32A094BE229A8EBE938E88BE7D
:10730000C07D82BECCCF78BE7F9A6CBE135C60BE5F
:10731000011554BEC2C547BECF6E3BBEA2102FBEE4
:10732000B5AB22BE834016BE87CF09BE73B2FABD8D
:107330002FBCE1BD36BDC8BD80B6AFBD04A996BDAA
:10734000752B7BBD2EFB48BD2BC316BDB10AC9BC36
:10735000920E49BC000000807873000800000020F5
:107360006400000048470008DC7300086400002047
:107370003C05000058470008000000000000000025
:1073800000000000000000000000000000000000FD
:1073900000000000000000000000000000000000ED
:1073A00000000000920A0640920A863F920A864038
:1073B000378DA740DB0F494000000000001401405A
:1073C000001001400008014004000000001000000F
:0C73D0000080000000000000000E2707F5
:04000005080041317D
:00000001FF
