:020000040800F2
:104000004009002045410008B14B0008BF440008AA
:10401000AD4B0008FD420008F94D0008000000000B
:10402000000000000000000000000000DF4B00085E
:10403000BD44000800000000DD4B0008E14B000813
:104040005F4100085F4100085F4100085F410008D0
:104050005F4100085F4100085F4100085F410008C0
:104060005F4100085F4100085F4100085F410008B0
:104070005F4100085F4100085F4100085F410008A0
:104080005F4100085F410008E94200085F41000805
:10409000E14D00085F4100085F4100085F410008F2
:1040A000994C00085F4100085F4100085F4100082B
:1040B0005F410008CD4C00089D4D00085F4100089D
:1040C0005F4100085F4100085F4100085F41000850
:1040D0005F4100085F4100085F4100085F41000840
:1040E0005F4100085F4100085F4100085F41000830
:1040F0005F4100085F4100085F4100085F41000820
:104100005F4100085F4100085F4100085F4100080F
:104110005F4100085F4100085F4100085F410008FF
:104120005F4100085F4100085F4100085F410008EF
:10413000DFF80CD000F0A8F800480047356500080B
:10414000400900200648804706480047FEE7FEE792
:10415000FEE7FEE7FEE7FEE7FEE7FEE7FEE7FEE737
:10416000F14B0008314100089FED1A1AF5EE000AE4
:1041700040EE010ABDEEE00AF5EEC00A10EE100AAC
:10418000F1EE10FA38BF401E00EE100A1349F7EEA8
:10419000001AB8EEC00A30EEC00ADFED0F0A20EEBA
:1041A000200AFCEEC00A10EE900AC0F3080000EEF0
:1041B000900A01EB8000F8EE600A90ED011A70EEB3
:1041C000600A90ED000A71EEE01A21EE800A00EE1E
:1041D000810A704783F9223E0000004418C000089D
:1041E000DFED1D0AB5EEC00A60EE200ABDEEE01A52
:1041F00011EE100AF1EE10FA38BF401E00EE100A60
:10420000B8EEC00A30EEC00ADFED140A20EE200A34
:10421000B4EEE00AF1EE10FAA8BF30EE600AFCEE50
:10422000C00A0F49F7EE001A10EE900AC0F308001A
:1042300000EE900A01EB8000F8EE600A90ED011AA2
:1042400070EE600A90ED000A71EEE01A21EE800A2D
:1042500000EE810A7047000083F9223E000000440E
:1042600018C0000840EA01039B0703D009E008C911
:10427000121F08C0042AFAD203E011F8013B00F82B
:10428000013B521EF9D27047064C074D06E0E0682C
:1042900040F0010394E8070098471034AC42F6D38D
:1042A000FFF74AFF1CC800083CC8000830B58C184E
:1042B00010F8012B12F00F0301D110F8013B120985
:1042C00006D110F8012B03E010F8015B01F8015B47
:1042D0005B1EF9D101E001F8013B521EFBD1A14266
:1042E000E6D3002030BD000010B50421024800F0E4
:1042F00076FF02F081F910BD0024014000BFFEE707
:1043000010B501221146022000F0ACF810BD10B526
:1043100003464FF6FF7404EAC3304FF4F04404EA56
:10432000C1242043C2F30A04204310BD10B500226B
:104330004FF48061034801F009FE012003F018FEEC
:1043400010BD0000000C014010B50122910203488D
:1043500001F0FCFD012003F00BFE10BD000C01403C
:1043600010B5002440F2026003F0E4FA40F203606A
:1043700003F0E0FA40F2036003F0DCFA03F036FBEE
:104380001023032219461F4801F0E5FD4FF4806316
:10439000032210211C4801F0DEFD0423032210211A
:1043A000194801F0D8FD00224FF48061164801F051
:1043B000CDFD01221021134801F0C8FD0122042186
:1043C000114801F0C3FD022003F0D2FD00220421B8
:1043D0000D4801F0BBFDFFF7A9FFFFF7B5FFFFF7A1
:1043E0008FFF032000F022F80446012000F016F8A9
:1043F000012000F00BF840F2FF30844201D000BFF2
:10440000FEE710BD00080140000C014010B5044655
:10441000A201C021062000F025F810BD10B5044609
:1044200022460F21052000F01DF810BD70B504468E
:104430000025002221460120FFF769FF06460022E1
:104440001021074801F082FD304603F003FB0546CA
:1044500001221021024801F079FDC5F30A0070BD68
:10446000000801402DE9F04107460D461646384642
:10447000FFF7DCFF0446AC4334432146384600F0E6
:1044800003F8BDE8F081000070B504460D462A46E9
:1044900021460020FFF73BFF064600221021064878
:1044A00001F054FD304603F0D5FA012210210248F4
:1044B00001F04CFD70BD000000080140704700BFD6
:1044C000FEE7000010B50121034801F0A2FD08B984
:1044D000002010BD0120FCE7001001402DE9F04153
:1044E00004460D4616461F462A2000F039FB04F10B
:1044F000280188B200F025FB06F1280188B200F0FF
:1045000020FB2B2000F02CFB05F1350188B200F0D8
:1045100018FB07F1350188B200F013FB2C2000F0E6
:104520001FFBBDE8F08170B504460D4616462B46CC
:10453000224629462046FFF7D1FF304600F001FB16
:1045400070BD2DE9F04706460F4614461D46DDF8BE
:1045500020A0681E83B2601E82B239463046FFF743
:10456000BDFFB8460EE0B14606E0504600F0E9FA5D
:1045700009F101001FFA80F9A145F6DB08F10100FD
:104580001FFA80F8A845EEDBBDE8F08710B540F2D1
:10459000046003F0CFF940F2036003F0CBF94FF46D
:1045A000005303221021164801F0D5FC01225103CB
:1045B000134801F0CBFC4FF4804303221021104834
:1045C00001F0C9FC012291030D4801F0BFFC4FF43A
:1045D0000043032210210A4801F0BDFC0122D1034F
:1045E000074801F0B3FC022303221021044801F024
:1045F000B2FC01220221024801F0A8FC10BD00001B
:104600000010014010B5FFF7C1FF03F03DFA002292
:104610004FF40041664801F099FC642003F0A8FCC7
:104620000122D103624801F091FC642003F0A0FC58
:10463000012251035E4801F089FC642003F098FCDC
:10464000112000F08DFA782003F092FC362000F063
:1046500087FA702000F07EFA3A2000F081FA0520F7
:1046600000F078FAB22000F07BFA0C2000F072FA29
:104670000C2000F06FFA002000F06CFA332000F0FC
:1046800069FA332000F066FAB72000F069FA3520A5
:1046900000F060FABB2000F063FA192000F05AFA2B
:1046A000C02000F05DFA2C2000F054FAC22000F087
:1046B00057FA012000F04EFAC32000F051FA122000
:1046C00000F048FAC42000F04BFA202000F042FA33
:1046D000C62000F045FA0F2000F03CFAD02000F090
:1046E0003FFAA42000F036FAA12000F033FAE020CF
:1046F00000F036FAD02000F02DFA042000F02AFA5B
:104700000D2000F027FA112000F024FA132000F009
:1047100021FA2B2000F01EFA3F2000F01BFA542053
:1047200000F018FA4C2000F015FA182000F012FAE8
:104730000D2000F00FFA0B2000F00CFA1F2000F003
:1047400009FA232000F006FAE12000F009FAD0204F
:1047500000F000FA042000F0FDF90C2000F0FAF956
:10476000112000F0F7F9132000F0F4F92C2000F0EC
:10477000F1F93F2000F0EEF9442000F0EBF9512070
:1047800000F0E8F92F2000F0E5F91F2000F0E2F931
:104790001F2000F0DFF9202000F0DCF9232000F0DA
:1047A000D9F9212000F0DCF9292000F0D9F910BD59
:1047B000001001402DE9FF5F80468A4617469B4660
:1047C0000F9D00200290CDF80080284605EBD071A7
:1047D000C1F347042046E21704EB5272D21021467F
:1047E000E31704EB5373DB10A4EBC3030BB10123FA
:1047F00000E000231A446A4392B20192A7F120001C
:10480000C7B20AEB0500401E83B208EB0400401E4D
:1048100082B251464046FFF761FE002669E00C2D4A
:1048200007D107EB4700354901EB8000805D03901D
:104830001BE0102D05D1324800EB0710805D03907E
:1048400013E0182D07D107EB47002E4901EB0010AC
:10485000805D039009E0202D05D12B4800EB8710E7
:10486000805D039001E0BDE8FF9F4FF000093AE052
:104870001098C8B9012000FA09F00399084018B14E
:10488000584600F05EF902E00E9800F05AF90298DE
:10489000401CC0B20290029890FBF4F104FB11009E
:1048A000E8B90020029021E0012000FA09F0039904
:1048B000084020B15A4651464046FFF734FE08F101
:1048C00001001FFA80F80098A8EB0000A04206D172
:1048D000DDF800800AF101001FFA80FA06E009F114
:1048E000010000F0FF09B9F1080FC1DB00BF701C27
:1048F00086B20198864292DB00BFB4E7248C0008A0
:10490000989000088896000858A800082DE9FF4FE5
:104910002DED020B2DED028B83B0B0EE408A1546D3
:10492000DDE91476079800F0FF0A304606EBD071F7
:10493000C1F3470BB5EEC08AF1EE10FA1AD2B1EE10
:10494000480AF2EE040A20EE200ABCEEC00A10EE7D
:10495000100A1FFA80F90020CDE9007602902D227E
:104960000A9BDDE90701FFF725FF0AEB0B0000F0CA
:10497000FF0A09E0B2EE040A28EE000ABCEEC00A03
:1049800010EE100A1FFA80F9002453E0281B401E85
:10499000C1B20A2002F0CAFBB9FBF0F00A21B0FB59
:1049A000F1F201FB1208681EA0422BD10020CDE9D4
:1049B000007602902E2250460A9B0899FFF7FAFED5
:1049C0000AEB0B0000F0FF0A601CC4B2681CC5B201
:1049D000281B401EC1B20A2002F0A8FBB9FBF0F070
:1049E0000A21B0FBF1F201FB12080020CDE90076AC
:1049F000029008F13000C2B250460A9B0899FFF7B6
:104A0000D9FE19E0A81EA04202D0B8F1000F0FD0C5
:104A10000020CDE90076029008F13000C2B2504685
:104A20000A9B0899FFF7C6FE0AEB0B0000F0FF0A8D
:104A3000601CC4B2AC42A9DB00BF03B0BDEC028B6A
:104A400006B0BDE8F08F2DE9FF4F87B08146924652
:104A50001D46DDE915B600200690304606EBD07104
:104A6000C1F34701059109F0FF08002004900024DC
:104A70002CE0281B401EC1B20A2002F057FBBAFBF3
:104A8000F0F00A21B0FBF1F201FB1207069850B9D1
:104A9000681EA04207DD27B90498401CC0B20490EC
:104AA00012E0012006900020CDE900B6029007F147
:104AB0003000C2B24046149B0899FFF77BFE059870
:104AC000404400F0FF0800BF601CC4B2AC42D0DB21
:104AD00000240FE00020CDE900B6029020224046DD
:104AE000149B0899FFF766FE0598404400F0FF0804
:104AF000601CC4B204988442ECDB0BB0BDE8F08FBC
:104B00002DE9FE4F06460F4614469846DDE90D5A3C
:104B1000DDF8309010E0CDE9015ACDF80090227810
:104B2000434639463046FFF745FE284605EBD0712F
:104B300006EB61018EB2641C20780028EBD1BDE841
:104B4000FE8F10B50446201200F01EF8E0B200F00F
:104B50001BF810BD10B50446204600F015F810BD36
:104B600010B5044600224FF48041064801F0EEF9EA
:104B7000204600F009F801229103024801F0E6F90D
:104B800010BD00000010014010B5044600220221B3
:104B9000054801F0DBF9204602F0A8FF01220221BE
:104BA000014801F0D3F910BD0010014000BFFEE73D
:104BB0007047000010B5002807DA0A07140E054AEE
:104BC00000F00F031B1FD45403E00A07130E024A20
:104BD000135410BD18ED00E000E400E0704770478A
:104BE00002480068401C014908607047100300201B
:104BF00008B52648006840F470002449086024483D
:104C0000006840F001002249086000BF20480068A9
:104C100000F002000028F9D000BF1D48406840F0B5
:104C200080001B4948600020009002E00098401C72
:104C3000009000985028F9D31548406840F0900043
:104C4000134948600020009002E00098401C00904A
:104C500000985028F9D300BF0D48406820F00300A9
:104C60000B494860084600680A490840084908603E
:104C70004FF41F0088600846006820F48020086018
:104C800000204860C86203F06FF908BD88ED00E0BD
:104C900000100240FFFFF6FE10B5202200210A4856
:104CA00003F0B4FB20220121074803F0AFFB2022D0
:104CB0000221054803F0AAFB8021034803F0C3FD4D
:104CC000022001F00FFC10BD002C014010B50221A4
:104CD000274803F0BBFD012849D10221244803F0F5
:104CE000B2FD0021224803F035FA401C214908603A
:104CF000084690ED000AB8EE400A9FED1F1AC0EE7C
:104D0000010A9FED1E1A81EE200ADFED1D0A80EEDA
:104D1000201A1C4880ED001A084690ED000AF8EEB3
:104D2000400A9FED151A80EE810ADFED140A80EE2D
:104D3000801A154880ED001A01F0C4F91349087073
:104D400008460078002812DD0846007806280EDCA8
:104D500008460078401E0E4901EB800090ED000AE5
:104D6000DFED0C0A30EE200A0B4880ED000A10BD82
:104D7000000400400000002000247449920A863F8D
:104D800000007A46080000200C00002010000020DF
:104D900018000020DB0FC93F0400002010B50024DC
:104DA00040210D4803F052FD012814D140210A484A
:104DB00003F049FD084803F0C4FB04B20021064893
:104DC00003F0C3FB002C03DD01200449087002E05E
:104DD00002200249087010BD0008004014030020A2
:104DE00010B50021034800F08FFC0121014800F0BC
:104DF0008BFC10BD0064004000BFFEE702E008C865
:104E0000121F08C1002AFAD170477047002001E044
:104E100001C1121F002AFBD17047000010B540F2FB
:104E2000096002F087FD012002F0A2FC002000F0E2
:104E3000D9F901221102224800F067FA002202216A
:104E40001F4800F062FA00211D4800F0DBF8032241
:104E500002211B4800F0B3F800230E22194618481F
:104E600000F056F900230F220121154800F050F9F7
:104E7000002308220221124800F04AF94FF4805220
:104E800002210F4800F0F1F8012202210C4800F045
:104E9000CDF802210A4800F0A2F90421084800F0E8
:104EA0009EF90421064800F084F9054800F0B5F8A1
:104EB000012003F05DF8024800F06CF810BD00001E
:104EC0000024014010B500F0F3F8FFF7A7FF10BD74
:104ED00010B540F2046002F02DFD40F2046002F0D3
:104EE00029FD40F2026002F025FD08230422002182
:104EF000234801F030F804231A460021204801F02D
:104F00002AF80823042200211E4801F024F840F268
:104F10000A6002F00FFD002002F02AFC002000F0E1
:104F200061F90021184800F06DF801221146164879
:104F300000F045F84FF460220121134800F095F885
:104F400001221146104800F071F80F4800F065F892
:104F5000012003F00DF80C4800F01CF8012003F0CC
:104F600007F80A480A490978425C012300210648EB
:104F700000F062F90121044800F0B8F910BD00000A
:104F800000100140000801400028014032000020CC
:104F900031000020816841F00801816000BF816814
:104FA00001F008010029FAD1816841F00401816013
:104FB00000BF816801F004010029FAD1704730B5C3
:104FC000012902D002291AD10CE0C36A23F470032C
:104FD000C362C36A541E4FF4700505EA04542343A8
:104FE000C3620DE0836B23F440138363836B541E11
:104FF0004FF4401505EA04542343836300E000BFE7
:1050000000BF30BD21B1826842F40062826003E0DB
:10501000826822F4006282607047816801F00101B9
:1050200019B9816841F001018160704772B101F0E6
:1050300001031BB1836843F48013836001F0020312
:1050400093B1836843F4004383600DE001F00103F2
:105050001BB1836823F48013836001F002031BB14A
:10506000836823F4004383607047012902D002293A
:1050700010D107E0836823F46023836083681343BF
:10508000836008E0836823F4E0438360836813430C
:10509000836000E000BF00BF7047CA4302607047F2
:1050A0000246002013680B4003B101207047000046
:1050B00010B540F2046002F03DFC40F2046002F0E2
:1050C00039FC40F2036002F035FC40F2026002F06D
:1050D00031FC1023042200210A4800F03CFF202369
:1050E00004220021074800F036FF0123042200219A
:1050F000054800F030FF082304220021034800F097
:105100002AFF10BD00100140000C014000080140C2
:10511000F0B50C46876BC7F30156856BE71CBF1BC8
:1051200007EB870C1F2707FA0CF7BD43E71CBF1BD3
:1051300007EB870702FA07F73D4385630A2A0DD27A
:10514000016902EB420C072707FA0CF7B94302EB9F
:10515000420703FA07F73943016112E0122A10D21D
:10516000C168A2F10A0707EB470C072707FA0CF7FB
:10517000B943A2F10A0707EB470703FA07F73943D8
:10518000C160F0BD02460B4633B1012B06D0022BA5
:1051900006D0032B08D105E0D16B07E0116C05E0C8
:1051A000516C03E0916C01E0002100BF00BF88B2A8
:1051B000704701F001021AB1426842F040024260B9
:1051C00001F002021AB1426842F02002426001F08E
:1051D00004021AB1426842F0800242607047CA433A
:1051E000026070470549096821F47021034A116083
:1051F0001146096801431160704700000424014012
:1052000010B5014600230022032911DA00BF0AE08D
:1052100001EB0110074C04EB4000801C30F8120039
:105220000344501C82B2102AF2DBC3F30F1010BDEE
:105230000020FCE744030020F0B51D4606290CD2EF
:10524000436B01EB81071F26BE40B34301EB810690
:1052500002FA06F63343436322E00C290ED2036BB5
:105260008E1F06EB86071F26BE40B3438E1F06EB3C
:10527000860602FA06F63343036311E010290FD2C3
:10528000C36AA1F10C0606EB86071F26BE40B34396
:10529000A1F10C0606EB860602FA06F63343C3625A
:1052A0000A2A0CD2046902EB42070726BE40B44327
:1052B00002EB420605FA06F63443046111E0122AB5
:1052C0000FD2C468A2F10A0606EB46070726BE40C5
:1052D000B443A2F10A0606EB460605FA06F6344385
:1052E000C460F0BD0146C86C80B2704701F0010295
:1052F0001AB1826842F48002826001F002021AB19F
:10530000826842F4001282607047AAB101F480738F
:105310001BB1436843F48073436001F480631BB1A5
:10532000436843F48063436001F00203CBB18368B8
:1053300043F00203836014E001F480731BB14368FF
:1053400023F48073436001F480631BB1436823F44A
:105350008063436001F002031BB1836823F0020302
:105360008360704710B502212A48FFF799FE012893
:105370004ED102212748FFF790FE2648FFF7B2FFE3
:105380002549097801EB0111244A02EB4101891CEE
:10539000214A127802EB0212204B33F8122021F836
:1053A00012001D48007800EB0010194631F810007B
:1053B000401C1949097801EB01111A4622F8110025
:1053C0001548007800EB0010114631F81000102845
:1053D00006DB00201049097801EB011122F81100C9
:1053E0000D480078401C0C490870084600780328D6
:1053F00001DB002008700A4807490978425C012354
:1054000000210448FFF718FF01210248FFF76EFF53
:1054100010BD00000028014031000020440300209E
:1054200032000020D0ED061A90ED072A71EEC21A64
:10543000F0EE610AC0ED090AD0ED001A90ED012AE4
:1054400042EE201AB0EE610AD0ED041AF4EEC01A52
:10545000F1EE10FA04D2D0ED041AC0ED081A0DE0F6
:10546000D0ED051AF4EEC01AF1EE10FA04DDD0ED1D
:10547000051AC0ED081A01E080ED080AD0ED081AFF
:1054800030EE611AD0ED001A90ED022A42EE201A99
:1054900090ED032A42EE411AC0ED001A7047000059
:1054A00022480078E8B321488088B0F5C86F05D25B
:1054B0001E488088401C1D49888017E01B4890EDDD
:1054C000020ADFED1B0AB4EEE00AF1EE10FA08D290
:1054D00090ED020ADFED170A30EE200A80ED020A95
:1054E00004E001201149887000200870124890EDF6
:1054F000000A0E48D0ED020A30EE200A0E4880ED78
:10550000000A90ED000ADFED0D0AB4EEE00AF1EEBC
:1055100010FA09DD90ED000ADFED080A30EE600AAE
:1055200000E001E080ED000A70470000080500205F
:105530005177D63B009DDB343C040020DB0FC94093
:1055400030B501460020AF231EE0C41804EBD4752B
:105550006A10354C04EB8204B4F902408C4201DA43
:10556000531E10E0304C04EB8204B4F902408C422C
:1055700001DD501C07E02C4C34F9224000EE104AAB
:10558000B8EEC00A30BD00BF9842DEDD38B9264A09
:10559000B2F9002000EE102AB8EEC00AF2E7AF2BF5
:1055A00007D1214AB2F9BC2200EE102AB8EEC00A97
:1055B000E8E7421E1C4C34F9222000EE102AB8EE17
:1055C000C00AF0EE400A421E04EB8202B2F9022049
:1055D00000EE102AB8EEC00AB0EE401A224632F9A8
:1055E000202000EE102AB8EEC00AF0EE401A224643
:1055F00002EB8002B2F9022000EE102AB8EEC00AD7
:10560000B0EE402A71EEE02A00EE101AB8EE400A21
:1056100030EE410A22EE800A32EE413AC0EE032A11
:1056200032EEA00AAEE700005000002010B500F0F6
:1056300003F900F055FA00F007F80221014800F0E4
:10564000A2F910BD0064004000B589B006A9002091
:1056500000F04DFA01A9012000F049FA40F219705A
:1056600002F068F91F4800F03FF800208DF81C0098
:1056700001208DF81D0000208DF81E0001208DF8FE
:105680001F0000208DF820008DF821008DF81800F3
:105690008DF8190006208DF81A0001208DF81B00E6
:1056A0000C20ADF8220006A90E4800F0DBF800201F
:1056B000ADF80E00ADF810000120ADF8120000208A
:1056C000ADF80400ADF80600ADF80800ADF80A002A
:1056D000ADF80C0001208DF8140001A800F024F8AA
:1056E00009B000BD0064004010B50446054884427E
:1056F00007D140F2194002F03DF940F2194002F0A2
:1057000029F910BD0064004021B9C26842F02002AE
:10571000C26008E0012904D1026942F0200202615E
:1057200001E000BFFEE7704710B50021837A012237
:1057300002FA03F13E4A126842F001023C4B1A6041
:105740003B4A1C3212688A43394B1C331A60C289A7
:10575000DAB9374A0C3212688A43354B0C331A6077
:10576000C288344B03EA024243881A434389304CCF
:10577000403444F8332082882E4B03EA02420388E7
:105780001A43438904EBC3035A60C289012A1BD11F
:10579000274A0C3212680A43254B0C331A600288E0
:1057A000244B03EA024243881A434389204C403485
:1057B00044F8332082881F4B03EA0242C3881A430D
:1057C000438904EBC3035A6082893AB9184A121D0F
:1057D00012688A43164B1B1D1A6006E0144A121DFC
:1057E00012680A43124B1B1D1A6002893AB9104A0B
:1057F000143212688A430E4B14331A6006E00C4AC6
:10580000143212680A430A4B14331A60027C012ACC
:1058100006D1074A1C3212680A43054B1C331A6032
:10582000034A126822F00102014B1A6010BD000009
:10583000006600400000FFFF10B540F2026002F079
:1058400079F84FF4006303224821054800F083FBF8
:105850004FF4805303221821014800F07CFB10BD57
:105860000008014070B502464FF6FF73002014682F
:1058700024F002041460146844F00104146000E091
:105880005B1E546804F001040CB9002BF8D1546875
:1058900004F001040CB9002074E00C784FF040458E
:1058A00005EA84744D784FF0407606EA05652C438E
:1058B0008D784FF4702606EA05452C43CD784FF4D9
:1058C000E00606EA05552C434D896D1EC5F3090512
:1058D0002C43D4610C79012C04D1146844F0800469
:1058E000146003E0146824F0800414604C79012CE7
:1058F00004D1146844F04004146003E0146824F0F8
:10590000400414608C79012C04D1146844F0200404
:10591000146003E0146824F020041460CC79012C96
:1059200004D1146824F01004146003E0146844F0F7
:10593000100414600C7A012C04D1146824F00804BB
:10594000146003E0146844F0080414604C7A012CDD
:1059500004D1146844F00404146003E0146824F0D3
:1059600004041460146824F0010414604FF6FF73FB
:1059700000E05B1E546804F001040CB1002BF8D168
:1059800003B1012070BD42690A43426170470000C3
:1059900030B502460B460021906800F08060B0F1FF
:1059A000806F00D110E0906800F00060B0F1006FEF
:1059B00001D1012108E0906800F08050B0F1805FD3
:1059C00001D1022100E00321032901D1032030BDD0
:1059D00002F5C07000EB0110006800F0010402F550
:1059E000C07000EB01100460187A88B918883B4C2D
:1059F00004EA40505C7A204302F5C07404EB0114C1
:105A00002468204302F5C07404EB0114206013E005
:105A10006FF00704586804EAC0001C7A20435C7ADF
:105A2000204302F5C07404EB01142468204302F5FE
:105A3000C07404EB0114206002F5C27000EB011089
:105A4000006820F00F0402F5C27000EB0110046042
:105A500002F5C27000EB011000689C7A204302F549
:105A6000C27404EB01142060987B4FF07F4404EA79
:105A700000605C7B4FF47F0505EA044420431C7BF7
:105A80002D1205EA04242043DC7A204302F5C47475
:105A900004EB01142060987C2C0404EA00605C7C18
:105AA0002D0205EA044420431C7C2D1205EA04243F
:105AB0002043DC7B204302F5C67404EB0114206014
:105AC00002F5C07000EB0110006840F0010402F51F
:105AD000C07000EB01100460084678E70000E0FFAA
:105AE00010B501221146142001F02CFB10BD10B599
:105AF000024609B900BFFEE732B1012A16D0022AD8
:105B000020D0032A41D12EE000234B71CB718B7141
:105B100040F2FF334B8100230B724B7002238B70DA
:105B20000023CB700B714B720B7030E00123CB81E3
:105B300000230B740B810B804B808B80CB808B817F
:105B40004B8124E0002005E0002401F10B031C54EC
:105B5000431CD8B20828F7D300238B724B600B721A
:105B60004B720B6013E0002005E0002401F10B03F1
:105B70001C54431CD8B20828F7D300238B724B6007
:105B80000B72CB744B720B6001E000BFFEE700BFED
:105B900010BD000090ED030A80ED060A90ED030AA7
:105BA000DFED080A20EE200AD0ED040AB0EE001A5C
:105BB00060EE810A9FED031A00EE810A80ED070A6C
:105BC000704700003ACD133F70B505460C4621469C
:105BD000284600F01FF908B900BFFEE704EB840077
:105BE000810005F10800405840F0010104EB8400F9
:105BF000820005F10800815070BD70B505460C4665
:105C00002146284600F006F908B900BFFEE704EB7C
:105C10008400810005F10800405820F0200104EBC9
:105C20008400820005F10800815070BD70B5044603
:105C30000D462946204600F0EDF808B900BFFEE702
:105C400005EB8500810004F10800405820F00101B7
:105C500005EB8500820004F108008150002105EB6E
:105C60008500820004F10800815005EB8500820068
:105C700004F10C00815005EB8500820004F1100056
:105C8000815005EB8500820004F1140081506068AA
:105C9000AA000F2191400843606070BD30B50346F3
:105CA0001C688D0002FA05F52C400CB1012000E0C3
:105CB000002030BD2DE9F04104460D461646294628
:105CC000204600F0A7F808B900BFFEE705EB850005
:105CD000820004F110003168815005EB85008200DC
:105CE00004F11400B1688150308A81B205EB85005F
:105CF000820004F10C00815005EB8500810004F165
:105D00000800475827F47C57F168706808437169A8
:105D10000843074305EB8500810004F10800475064
:105D2000307E01280ED105EB8500810004F10800CA
:105D3000405840F0400105EB8500820004F1080066
:105D400081500DE005EB8500810004F1080040580A
:105D500020F0400105EB8500820004F1080081502D
:105D6000707E01280ED105EB8500810004F108004A
:105D7000405840F0800105EB8500820004F10800E6
:105D800081500DE005EB8500810004F108004058CA
:105D900020F0800105EB8500820004F108008150AD
:105DA000B07E70B905EB8500810004F10800405811
:105DB00020F0100105EB8500820004F108008150FD
:105DC0000DE005EB8500810004F10800405840F02B
:105DD000100105EB8500820004F108008150BDE848
:105DE000F08170B505460C462146284600F012F8B1
:105DF00008B900BFFEE704EB8400810005F108004C
:105E0000405820F4804104EB8400820005F1080032
:105E1000815070BD02460120034B9A4202D10429F1
:105E200000DD0020704700000004024008B900BFF8
:105E3000FEE700210160416001768160C16041762A
:105E40000161817641617047024908780021014A69
:105E5000117070471403002010B540F2036001F088
:105E600069FD40F2036001F065FD40F2046001F05D
:105E700061FD402303220421074800F06CF88023D1
:105E800003220421044800F066F8012303220421C0
:105E9000024800F060F810BD000C01400010014005
:105EA00010B5012211461E2001F04CF9FFF7D4FF76
:105EB00000F004F800F09CFA10BD000000B587B0B7
:105EC00040F2027001F036FD1F4802F041FB002055
:105ED000ADF80400ADF80600ADF808004FF6FF700D
:105EE00003900020ADF80A008DF8100001A91648B3
:105EF00002F0AEFB0020ADF814000120ADF8160052
:105F00000020ADF818001020ADF81A0005AA0021F5
:105F10000D4802F0E9FB05AA01210B4802F0E4FB61
:105F20005021094802F083FC00231A460321064849
:105F300002F0A4FC4021044802F081FC024802F077
:105F400075FB07B000BD0000000800400AB1016108
:105F500000E041617047F0B5044616460025002276
:105F600001F00F0501F0100747B1042E05D145F0EF
:105F70000305E76B1F43E76300E0354300201EE0A5
:105F8000012787401F40C7B122684FEA800C0F27C6
:105F900007FA0CF7BA43870005FA07F73A432829AE
:105FA00004D1012787401F40676105E0482903D1DC
:105FB000012787401F4027612260471CB8B208288C
:105FC000DED3082022E0012787401F40E7B1626846
:105FD000A0F108074FEA870C0F2707FA0CF7BA431E
:105FE000A0F10807BF0005FA07F73A43282904D1B2
:105FF000012787401F40676105E0482903D1012739
:1060000087401F4027616260471CB8B21028DAD36E
:10601000F0BD02469068084008B10120704700209A
:10602000FCE70246D068084008B101207047002014
:10603000FCE70000F0B50A460023002400210025FB
:1060400000F00046B6F1004F02D11D4EF16901E0AB
:106050001B4E7168C0F3034583B200F44016B6F5D9
:10606000401F08D121F0E061154E766826F0E06609
:10607000134F7E6012E000F48016B6F5801F06D143
:10608000032606FA05F4A14341F0E06106E0460D5F
:10609000360103FA06F6B14341F0E06122B1460D44
:1060A000360103FA06F6314300F00046B6F1004F20
:1060B00002D1034EF16101E0014E7160F0BD0000BC
:1060C0000000014010B5002440210A48FFF7A1FF5D
:1060D000044380210748FFF79CFF44EA4000C4B214
:1060E0004FF480710348FFF794FF44EA8000C4B284
:1060F000204610BD0010014010B540F2046001F0D0
:1061000019FC40F2046001F015FC40F2046001F05B
:1061100011FC4FF4C06001F00DFC01210C48FFF7A9
:1061200089FF4023032204210A48FFF714FF80233C
:10613000032204210748FFF70EFF4FF48073032268
:1061400004210448FFF707FF00F006F810BD000027
:10615000000C1A000010014000B587B040F2017039
:1061600001F0E8FB314802F0F3F97720ADF80400C4
:106170000020ADF80600ADF808004FF6FF70039060
:106180000020ADF80A008DF8100001A9274802F0A0
:106190005FFA0020ADF814000320ADF816000020CF
:1061A000ADF81800ADF81A0005AA00211F4802F04A
:1061B0009BFA0020ADF814000320ADF81600002073
:1061C000ADF81800ADF81A0005AA0121174802F031
:1061D0008BFA0020ADF814000320ADF81600002063
:1061E000ADF81800ADF81A0005AA02210F4802F018
:1061F0007BFA40210D4802F01AFB04210B4802F003
:106200005DFB0021094802F016FA084801F08EFFF4
:106210000221064802F017FB0221044802F00FFB9E
:10622000024802F003FA07B000BD0000000400407D
:106230009FED040A80ED000A9FED020A80ED080A36
:10624000704700000000000010B500221146182021
:1062500000F078FF02220021122000F073FF0122DB
:1062600011461D2000F06EFF10BD90ED0A0AD0ED22
:10627000020A20EE200AD0ED0B0A90ED011A00EE82
:10628000C10A80ED0C0A90ED0A0AD0ED010A20EE59
:10629000200AD0ED0B0A90ED021A00EE810A80ED83
:1062A0000D0A704770B50546344800EB05142068A8
:1062B0008047002840D12079052802DA0520207186
:1062C0005AE020790A2803DA2079401C207153E033
:1062D000A07A38B90120A07205EB4501491CC8B26B
:1062E00000F068F82089002846DDE088218988428E
:1062F0000FDAE088401CE080E088218988423BDB9F
:1063000005EB4501C91CC8B200F054F801206073C8
:1063100032E0E07A00282FDD207B401C2073207BB8
:10632000E17A884228DB0020207305EB4501491CF7
:10633000C8B200F03FF81FE02079052802DD0520F3
:10634000207116E02079002803DD2079401E20719D
:106350000FE0A07A01280CD10020A072607B10B160
:106360000020607305E005EB4501891CC8B200F010
:1063700021F80020E080207370BD0000EC030020B5
:106380000B4880780A4AD278904201D100207047A9
:10639000074882788078401C054B98701846815CCD
:1063A0008078022802DB00201A4690700846EEE74B
:1063B000150300200749CA78C978491C054BD970D4
:1063C00019468854C978022902DB00211A46D17087
:1063D000704700001503002010B5002400BF04E042
:1063E0002046FFF75FFF601CC4B2012CF8DB10BD34
:1063F00000200021134A9170D17000BF1CE064217D
:10640000114A02EB0012118102210F4A02EB001225
:10641000117100210C4A02EB001291720A4A02EB40
:106420000012D172084A02EB00121173064A02EB05
:1064300000125173411CC8B20128E0DB0349024A33
:106440001160704715030020EC030020C5440008CC
:1064500010B540F2056001F06DFA40F2046001F001
:1064600069FA40F2026001F065FA4FF4C06001F091
:1064700061FA01211848FFF7DDFD18490B6818493A
:10648000032208681021FFF766FD14494B68144980
:10649000032248681021FFF75EFD10498B68104900
:1064A000032288681021FFF756FD0C4A11680C4A38
:1064B00010680122FFF74AFD084A5168084A5068EF
:1064C0000122FFF743FD054A9168054A90680122C1
:1064D000FFF73CFD10BD000000023000440000202A
:1064E00038000020034951F82010034A52F82020B8
:1064F00051617047440000203800002070B5044608
:106500000A4A52F824100A4A52F82400FFF789FD7B
:10651000C0F10100C5B2054A52F82410044A52F8ED
:1065200024002A46FFF712FD70BD00004400002041
:106530003800002008B516481649086062B601F018
:1065400035FDFFF785FF02F06BFAFEF7C1FCFFF7A0
:106550006DF8FFF7A5FCFEF755F84FF6FF7087239F
:10656000F022002100900846FDF7EBFFFDF7F8FE52
:1065700001F044FD00F02EFB9FED070A074880ED77
:106580002C0A00F06FFF01E001F03CFDFCE7000089
:106590000040000808ED00E0CD985E453C04002076
:1065A00010B5FEF7DFFE10BD10B50020104981F8D0
:1065B0002A0040F2AB700F49086000204860487222
:1065C0000872082088720020C872A121094801734E
:1065D000A2214173A3218173A421C173A521017458
:1065E000A6214174A721817400F05CFB10BD00005E
:1065F000FC0300202804002000B587B09FEDC00AEE
:106600008DED060A9FEDBE0A8DED050A9FEDBC0AD1
:106610008DED040A00200090019002900390B9488B
:1066200090F82A0006287CD2DFE800F00308568B99
:106630008CFE0120B34981F82A005DE1B148C068B1
:10664000B0F5806F2CD2AF48C068401CAD49C8601F
:106650000021AD48FEF796FDAA4908800121AA480D
:10666000FEF790FDA74948800221A748FEF78AFD62
:10667000A449888008460088A44909680844A349B9
:106680000860A0484088A24909680844A0490860F9
:106690009C4880889F49096808449E4908601AE020
:1066A0009848C06899490968B1FBF0F09549C880DD
:1066B0000846C06896490968B1FBF0F09149088125
:1066C0000846C06893490968B1FBF0F08D494881DC
:1066D000022081F82A000FE18A48006947F6FF414D
:1066E000884205D287480069401C8649086127E036
:1066F0000420844981F82A00FFF7E4FC86490870E9
:1067000008460078002814DD08460078062810DCCA
:1067100008460078401E814901EB800090ED000A98
:1067200000E0E8E0DFED7E0A30EE200A7D4880EDF3
:10673000000A9FED730A7C4880ED000A00F07AFAA7
:10674000DAE0D9E000217048FEF71CFD6D490880B1
:1067500001216D48FEF716FD6A49488002216A480A
:10676000FEF710FD674988800846008800EE100A91
:10677000F8EE400A0846C08800EE100AB8EE400A5B
:1067800030EEC00ADFED690A20EE200A684880ED8D
:10679000030A0846408800EE100AF8EE400A084650
:1067A000008900EE100AB8EE400A30EEC00ADFEDB4
:1067B0005F0A20EE200A5E4880ED040A08468088C1
:1067C00000EE100AF8EE400A0846408900EE100A72
:1067D000B8EE400A30EEC00ADFED540A20EE200A7F
:1067E000534880ED050A084690ED080ADFED510A8E
:1067F00020EE200A504880ED0A0A00204E49087019
:106800004E4890ED000A084680ED090A454890ED93
:10681000000A4548D0ED000A30EE200A414880EDDC
:10682000000A90ED000A00E064E0B5EEC00AF1EE67
:1068300010FA08D290ED000ADFED410A30EE200A8E
:1068400080ED000A11E0374890ED000ADFED3C0AC8
:10685000B4EEE00AF1EE10FA07DD90ED000ADFED8C
:10686000380A30EE600A80ED000A2E4890ED000AEA
:106870002F4880ED000A00F06BFE2D4890ED000AD5
:106880008DED060A069800902348007800EE100A65
:10689000B8EE400A8DED050A05980190264890ED66
:1068A000090A8DED040A0498029080208DF80E00EC
:1068B0007F208DF80F001021684602F065F91C4B0F
:1068C00093ED2F0ABCEEC00A10EE103A9AB2184BA4
:1068D00093ED2E0ABCEEC00A10EE103A99B2144B9A
:1068E00093ED2D0ABCEEC00A10EE103A98B200F0FB
:1068F000C3F901E000E000BF00BF07B000BD000029
:1069000000000000FC030020002401401C030020C4
:106910002003002024030020100000201800002085
:10692000DB0FC93F04000020080000200000843C69
:106930003C0400203ACD133F080500200C00002045
:10694000DB0FC9407047000070B50024002500200F
:10695000FEF756FC5D4988820120FEF751FC5B4939
:10696000C8820220FEF74CFC58490883888AFEF74B
:10697000E7FD564880ED070AC08A00EE100AB8EE1F
:10698000400ADFED530A20EE200A504880ED080A45
:10699000008BB0F5006F0FDD4C48008BA0F5006058
:1069A00000EE100AB8EEC00ADFED4A0A20EE200A17
:1069B000464880ED090A04E09FED470A434880ED10
:1069C000090AFFF741FA0446FFF706FDFFF7D8FC76
:1069D000054642484078012835D1404890ED090AE3
:1069E000DFED3F0A20EE200ABCEEC00A10EE100ACE
:1069F00036490885012C12D1384890ED030ADFEDA5
:106A0000390AB4EEE00AF1EE10FA1CD290ED030A56
:106A1000F7EE000A30EE200A80ED030A13E0022CA4
:106A200011D12E4890ED030ADFED2F0AB4EEE00AF3
:106A3000F1EE10FA07DD90ED030AF7EE000A30EEF2
:106A4000600A80ED030A022D3CD1204890F82A000C
:106A5000042806D100F0CCF803201C4981F82A0054
:106A600031E01A4890F82A0003282CD100F0E2F80F
:106A700000F0F8FCFFF726FB1C4908700846007878
:106A8000002812DD0846007806280EDC084600784B
:106A9000401E174901EB800090ED000ADFED150A5A
:106AA00030EE200A144880ED000A9FED0B0A1348CF
:106AB00080ED000A0020094908700420034981F88C
:106AC0002A0000E000BF00F021F870BDFC030020A8
:106AD0000303883C0000843C0000000008050020FF
:106AE000EBC9984063141D448470D142100000200B
:106AF00018000020DB0FC93F040000200800002020
:106B000010B500F01DFA10BD7047000010B500244C
:106B10002A4890ED070ADFED2A0AB4EEE00AF1EE0A
:106B200010FA00D20BE0254890ED070ADFED250AA8
:106B300030EE200ABCEEC00A10EE100AC4B22248A1
:106B4000C4721E4890ED090AF2EE040A20EE200AF3
:106B5000BCEEC00A10EE100AC1B21B480173174800
:106B600090ED080AF1EE080A20EE200ABCEEC00AF9
:106B700010EE100AC1B214484173144890ED090A8E
:106B8000F2EE040A20EE200ABCEEC00A10EE100A53
:106B9000C1B20D488173094890F828100A48C173A2
:106BA0000648008D01120848017400214174817467
:106BB00001460748FEF7ECFE10BD0000FC03002074
:106BC000000020C200002042280400203C040020D5
:106BD0000064004010B5FFF737FB00F0D1FC00F077
:106BE00013FD00F005F8FFF787FAFEF76BF910BD0B
:106BF00010B5002202210E4801F075FC002201218F
:106C00000B4801F070FC00221146094801F06BFCB2
:106C100000220221064801F0B2FA002201210448B4
:106C200001F0ADFA00221146014801F0A8FA10BDAA
:106C3000002C014010B5012202210E4801F053FC46
:106C4000012211460B4801F04EFC012200210948A7
:106C500001F049FC04220221064801F090FA0422C6
:106C60000121044801F08BFA04220021014801F0BF
:106C700086FA10BD002C014070B504460D4616463C
:106C800022460221064801F0EEFB2A460121044873
:106C900001F0E9FB32460021014801F0E4FB70BD40
:106CA000002C01400EB5002018214FF6FF7203465C
:106CB000CDE9002102908CA20146FDF721FF1820AA
:106CC0004FF6FF711F22CDE900210290884890ED18
:106CD000030ABCEEC00A10EE100A82B2052300219E
:106CE0003420FDF7B0FE002018214FF6FF72034656
:106CF000CDE9002102907FA201467820FDF700FF38
:106D000018204FF6FF711F22CDE90021029078482C
:106D100090ED090ABCEEC00A10EE100A82B20523FB
:106D20000021AF20FDF78FFE002018214FF6FF72E3
:106D30000346CDE90021029070A2FDF7E1FE182084
:106D40004FF6FF71CDE900106948D0ED080AB0EEAA
:106D5000600A1F23032218213420FDF7D7FD0020ED
:106D600018214FF6FF720346CDE90021029065A27B
:106D70007820FDF7C5FE18204FF6FF71CDE9001011
:106D80006248D0ED090AB0EE600A1F2303221821E1
:106D9000AF20FDF7BBFD002018214FF6FF72034620
:106DA000CDE9002102905AA23021FDF7A9FE18205A
:106DB0004FF6FF71CDE900104D48D0ED070AB0EE57
:106DC000600A1F23032230213420FDF79FFD00209D
:106DD00018214FF6FF720346CDE9002102904EA222
:106DE00030217820FDF78CFE18204FF6FF71CDE999
:106DF00000104648D0ED080AB0EE600A1F230322B7
:106E00003021AF20FDF782FD002018214FF6FF72E0
:106E10000346CDE90021029041A24821FDF770FE12
:106E200018204FF6FF71CDE900103E48D0ED080A5A
:106E3000B0EE600A1F23032248213420FDF766FDCF
:106E4000002018214FF6FF720346CDE90021029081
:106E500035A248217820FDF753FE18204FF6FF7128
:106E6000CDE900102F48D0ED090AB0EE600A1F23CB
:106E700003224821AF20FDF749FD002018214FF6DD
:106E8000FF720346CDE90021029028A26021FDF7A0
:106E900037FE18204FF6FF71CDE900102148D0EDE4
:106EA000070AB0EE600A1F23042260213420FDF798
:106EB0002DFD002018214FF6FF720346CDE9002179
:106EC00002901CA260217820FDF71AFE00201821F4
:106ED0004FF6FF720346CDE90021029016A2602111
:106EE000AF20FDF70DFE0EBD74537064000000006E
:106EF000080500206153706400000000715265664F
:106F000000000000714D6561000000003C0400209D
:106F10006452656600000000644D65610000000079
:106F200056646300FC0300204964630054656D707F
:106F30000000000053544100494E49540000000035
:106F40000EB518204FF6FF711F22CDE900210290E7
:106F50006A4890ED030ADFED6A0A20EE200ABCEED3
:106F6000C00A10EE100A82B2052300213420FDF77A
:106F70006AFD18204FF6FF711F22CDE90021029013
:106F80006048028D05230021AF20FDF75CFD18202D
:106F90004FF6FF71CDE900105848D0ED080AB0EE69
:106FA000600A1F23032218213420FDF7AFFC1820AC
:106FB0004FF6FF71CDE900105348D0ED090AB0EE4D
:106FC000600A1F2303221821AF20FDF79FFC182021
:106FD0004FF6FF71CDE900104848D0ED070AB0EE3A
:106FE000600A1F23032230213420FDF78FFC182074
:106FF0004FF6FF71CDE900104348D0ED080AB0EE1E
:10700000600A1F2303223021AF20FDF77FFC1820E8
:107010004FF6FF71CDE900103A48D0ED080AB0EE06
:10702000600A1F23032248213420FDF76FFC18203B
:107030004FF6FF71CDE900103248D0ED090AB0EEED
:10704000600A1F2303224821AF20FDF75FFC1820B0
:107050004FF6FF71CDE900102A48D0ED070AB0EED7
:10706000600A1F23042260213420FDF74FFC2548CD
:1070700090F82A0004280DD1002018214FF6FF7245
:107080001F23CDE90021029020A26021AF20FDF74F
:1070900037FD32E01B4890F82A0003280DD100206C
:1070A00018214FF6FF721F23CDE90021029019A28B
:1070B0006021AF20FDF724FD1FE0124890F82A0060
:1070C00005280DD1002018214FF6FF721F23CDE9AE
:1070D0000021029011A26021AF20FDF711FD0CE00C
:1070E000002018214FF6FF721F23CDE900210290E6
:1070F0000CA26021AF20FDF703FD0EBD08050020A6
:10710000EBC99840FC0300203C04002052554E205F
:107110002000000053544F5000000000464C542003
:10712000200000004E4F4E450000000010B5024602
:10713000012000E050430B1EA1F10104E1B2F9D19E
:1071400010BD00002DE9F04103460D46164600240F
:107150000027A0462A48006800F4E060B0F5E06F20
:1071600003D100BF4FF0040830E02548006800F468
:10717000E060B0F5C06F03D101274FF0030825E0B0
:107180001F48006800F4E060B0F5A06F02D102274C
:10719000B8461BE01A48006800F4E060B0F5806F64
:1071A00003D103274FF0010810E01548006800F4F0
:1071B000E060B0F5407F03D104274FF0000805E000
:1071C0004FF4A06000F020F80227B846C7F1040091
:1071D00005FA00F4C8F104010F20C8403040044310
:1071E00024010848C45403F01F01012088405911AC
:1071F000890001F1E021C1F80001BDE8F081000043
:107200000CED00E000E400E002490143024A116095
:10721000704700000000FA050CED00E090ED060A52
:10722000D0ED020A20EE200AD0ED070A90ED011AF7
:1072300000EE810A80ED080A90ED070AD0ED020AFF
:1072400020EE200AD0ED060A90ED011A00EEC10AE8
:1072500080ED090A7047000010B52DED028B7948CA
:107260000078A8B37748807838B1002075498870D5
:107270009FED750A084680ED070AB0EE000A7148D6
:1072800080ED080A714890ED090A80ED1F0A6D48EB
:1072900090ED080A6D4880ED1E0A6030FEF7C2F8D6
:1072A0006A4890ED200A80ED0B0A90ED080A80ED07
:1072B000150A644890ED070A644880ED140A3830D6
:1072C000FEF7B0F8614890ED160A80ED0A0AB6E0C4
:1072D000FFE79FED5D0AF0EE408A9FED5B0AB0EE9E
:1072E000408A5848807890B10020564988709FEDB8
:1072F000580A084680ED040A9FED530A80ED070AFC
:10730000B0EE000A514880ED220A0A20C8624D48BA
:1073100090ED030AD0ED040A30EE600A80ED050A14
:1073200090ED050ADFED4B0AB4EEE00AF1EE10FA3B
:1073300008DB90ED040ADFED480A30EE200A80ED0C
:10734000040A17E03F4890ED050ADFED440AB4EE69
:10735000E00AF1EE10FA08D890ED040ADFED3E0ADB
:1073600030EE600A80ED040A04E0364890ED030A2E
:1073700080ED040A3348C16AC06A401C314AD062B9
:107380000A2917D300201146C862084690ED090A61
:107390002E4880ED290A084690ED040A2B4880ED1E
:1073A000280A8830FEF73EF8284890ED2A0A25483A
:1073B00080ED080A254890ED080A80ED150A21485D
:1073C00090ED070A214880ED140A3830FEF72AF8BC
:1073D0001E4890ED160A80ED0A0A90ED0A0A20EE8A
:1073E000000AF0EE408A9FED1E0A30EE680AB0EE09
:1073F000408AB0EE480A7030B5EEC00AF1EE10FADD
:1074000004DBF1EEC00AC0ED000A04E0DFED0E0A75
:10741000C0ED000A00BF0D4890ED090A80ED1F0A7B
:10742000084890ED080A094880ED1E0A6030FDF713
:10743000F9FF064890ED200A80ED0B0A00BFBDEC75
:10744000028B10BD08050020000000003C04002055
:107450008470D142930A063D5177D63B930A06BD0C
:1074600048E17A3F10B500F017F80120074948704D
:1074700008708870002088809FED050A084680ED1E
:10748000020A9FED040A80ED030A10BD08050020E2
:107490000000000063141D4410B59FED270A274823
:1074A00080ED0F0A9FED260A80ED100AB6EE000A65
:1074B00080ED110A9FED230A80ED120A90ED120A69
:1074C000B1EE400A80ED130A3830FEF7B1FE9FEDB1
:1074D0001A0A1A4880ED190A9FED190A80ED1A0A56
:1074E000B6EE000A80ED1B0A9FED160A80ED1C0A1D
:1074F00090ED120AB1EE400A80ED1D0A6030FEF7F1
:1075000097FE9FED110A0D4880ED230A9FED0F0AAB
:1075100080ED240AB6EE000A80ED250AB2EE040AD8
:1075200080ED260A90ED120AB1EE400A80ED270A9E
:107530008830FEF77DFE10BD0AD7233C3C040020B6
:1075400017B7D13858FF7F3F0AD7A33CBD3706365F
:1075500010B50A48FEF71EFB0848FFF75FFEFDF76F
:107560009FFFFFF779FE054800F02DFA0348FEF76C
:107570007CFE024800F002FB10BD00003C0400202D
:1075800010B540F2026000F0D5F940F2036000F05F
:10759000D1F94FF4C06000F0CDF94FF480630322BD
:1075A00018211748FEF7D7FC4FF400730322182167
:1075B0001348FEF7D0FC4FF48073032218211048C3
:1075C000FEF7C9FC4FF40043032218210D48FEF7D3
:1075D000C2FC4FF48043032218210A48FEF7BBFC8B
:1075E0004FF40053032218210648FEF7B4FC4FF471
:1075F0008053032204210348FEF7ADFC10BD0000B8
:1076000000080140000C014000B58BB040F20B6057
:1076100000F090F9554800F09BFF0020ADF81000F5
:107620004020ADF812000020ADF8140040F6A5602F
:1076300006900020ADF816008DF81C0004A94B48F8
:1076400001F006F80120ADF820000420ADF822007A
:107650000020ADF82400ADF82600ADF82800ADF804
:107660002A0008AA0021414800F0DAFD08AA0121F9
:107670003E4800F0D5FD08AA02213C4800F0D0FDAC
:1076800008AA0321394800F0CBFD4FF47A7200219B
:10769000364800F0E8FE60220021344800F0B6FED3
:1076A00008220021314800F0F1FE4FF47A720121E6
:1076B0002E4800F0D8FE602201212C4800F0A6FEE2
:1076C00008220121294800F0E1FE4FF47A720221DC
:1076D000264800F0C8FE60220221244800F096FEF1
:1076E00008220221214800F0D1FE0698421E032103
:1076F0001E4800F0B8FE602203211C4800F086FE00
:1077000000220321194800F0C1FE4FF40060ADF8DB
:1077100000004010ADF80200B820ADF804000020D1
:10772000ADF806004FF48040ADF808000020ADF839
:107730000A004FF48050ADF80C0069460B4800F089
:10774000FAFC0121094801F08DF80121074801F0F8
:1077500076F88021054801F072F81021034801F005
:107760006EF8024800F062FF0BB000BD002C014033
:10777000184B5968184B1940164BDA6A22F0005220
:107780000C2820D2DFE800F0060708091F0C1F0DA7
:107790001516171800BF00BF00BF41EA803113E083
:1077A00000BF20F004004FF0805343EA80331943B8
:1077B0000AE000BF00BF00BF20F00C0041EA8031AA
:1077C00042F0005200E000BF00BF024B5960DA6295
:1077D0007047000000100240FF3FFFEF2DE9F04F1F
:1077E0008CB0074600200A904AA090E8004CC06880
:1077F000CDE905BECDF810A007900FF21C1ADAE90A
:10780000000ACDE9020A0FF2101ADAE9000ACDE9FE
:10781000000A44484068C0F381000B900B9820B1E7
:10782000012804D002283FD103E03F4A3EE03E4A0F
:107830003CE03C48406800F4803CBCF5803F12D1FD
:107840003848C06A00F08048B8F1000F01D1364BCB
:1078500000E0364B3348406800F40039B9F5003F8A
:1078600002D15B0800E0324B2E484068C0F38341F0
:107870002C48406800F0006008B141F01001294830
:10788000406800F0804008B141F020010F2901D28A
:10789000891C06E00F2903D33E2901D8491C00E0CA
:1078A0003F2103FB01F201E01F4A00BF00BF1D485A
:1078B0004068C0F3031504A8465D22FA06F419488F
:1078C0004068C0F3022502A8465D24FA06F009903C
:1078D00014484068C0F3C2251DF8056024FA06F07C
:1078E000089037B1012F06D0022F06D0032F0AD1FE
:1078F00006E00A9208E00A9406E009980A9003E07C
:1079000008980A9000E000BF00BF0A980CB0BDE8DC
:10791000F08F0000000000000000000001020304DE
:10792000060708090010024000127A00006CDC0211
:1079300000093D00064A02EB9011096800F01F03A0
:1079400001229A401143024B03EB901211607047E1
:1079500000100240064A02EB9011096800F01F0374
:1079600001229A409143024B03EB90121160704741
:1079700000100240064A02EB9011096800F01F0354
:1079800001229A401143024B03EB901211607047A1
:107990000010024010B5FEF703FE10BD10B5FEF753
:1079A000D1FF10BD10B5FEF7CFFF10BD704710B569
:1079B000FFF7A6F810BD10B50020FEF79FFDFFF7FA
:1079C000A3F810BD704710B50446D4ED000AB0EE20
:1079D000600AFCF705FC84ED010AD4ED000AB0EE64
:1079E000600AFCF7C1FB84ED020A10BD00B587B048
:1079F00040F20260FFF79EFF40F20C60FFF79AFF33
:107A0000A023032218211148FEF7A5FA40230322E0
:107A100004210E48FEF79FFA002001904FF4827077
:107A200000904FF400600290012005904002039006
:107A300028200690002004906946054800F085F84B
:107A4000034800F06FF807B000BD000000080140D7
:107A50000030014010B5044600BF0221094800F083
:107A60006CF80028F9D02146064800F064F800BF01
:107A70000121044800F061F80028F9D0014800F025
:107A800056F810BD0030014000B587B040F20360E9
:107A9000FFF750FF40F20F70FFF74CFF0121104835
:107AA000FEF7C8FA2823032218210E48FEF753FADE
:107AB000002001904FF48270009000200290059009
:107AC0004FF4007003900020069004906946064829
:107AD00000F03BF8044800F025F807B000BD0000B6
:107AE00000023000000C0140003C004010B504468C
:107AF00000BF02210A4800F020F80028F9D02146F2
:107B0000074800F018F800BF0121054800F015F8FB
:107B10000028F9D0024800F00AF8C0B210BD0000F9
:107B2000003C0040016841F040010160704701469F
:107B3000C86880B27047C1607047024690680840CC
:107B400008B1012070470020FCE7024600201068C1
:107B500000F441500B6818434B6818438B68184376
:107B6000CB6818430B6918434B6918438B6918435A
:107B70001060D36923F40063D36170479FEDB34A6B
:107B8000B0EE442A9FEDB14AF0EE442A9FEDAF4A91
:107B9000F0EE443A9FEDAD4AB0EE440A9FEDAB4A99
:107BA000F0EE440A9FEDA94AB0EE441A9FEDA74AB1
:107BB000F0EE441A9FEDA54AB0EE443A90ED0D4A1E
:107BC000B0EE442A90ED0D4AF1EE444AB0EE005A70
:107BD00084EE854AD0ED0C4A9FED9D5A05EE244A6D
:107BE000F0EE442A90ED0D4AF1EE444AB0EE005A10
:107BF00084EE854AD0ED0C4A9FED955A05EE644A15
:107C0000F0EE443AF5EEC03AF1EE10FA7DDDF5EE15
:107C1000C02AF1EE10FA29DD052180F8C01090EDA0
:107C20002C4A24EE224AB0EE440A90ED2C4A24EE6F
:107C3000234AF0EE440A90ED2C4A34EE404A34EEEA
:107C4000604AF0EE004A84EE245AB0EE451A31EE56
:107C5000004AF0EE441A31EEA04AB0EE443AC0EDCC
:107C60002D1A80ED2E1A80ED2F3AEDE0B5EEC02AE8
:107C7000F1EE10FA29DD032180F8C01090ED2C4AB6
:107C800024EE234AB0EE440A90ED2C4A24EE024A38
:107C9000F0EE440A90ED2C4A34EE404A34EE604A4D
:107CA000F0EE004A84EE245AB0EE451A31EE004A56
:107CB000F0EE441A31EEA04AB0EE443A80ED2D1AAF
:107CC00080ED2E3AC0ED2F1ABEE0042180F8C010DE
:107CD00090ED2C4AF1EE624A24EE244AB0EE440ABA
:107CE00090ED2C4AF1EE424A24EE244AF0EE440A8A
:107CF00090ED2C4A34EE404A34EE604AF0EE004AF1
:107D000084EE245AB0EE451A00E00EE031EE004A4F
:107D1000F0EE441A31EEA04AB0EE443A80ED2D1A4E
:107D2000C0ED2E1A80ED2F3A8EE0F5EEC02AF1EE6E
:107D300010FA5CDDB5EEC02AF1EE10FA29DD012162
:107D400080F8C01090ED2C4A24EE024AB0EE440AAE
:107D500090ED2C4A24EE224AF0EE440A90ED2C4A93
:107D600034EE404A34EE604AF0EE004A84EE245A83
:107D7000B0EE451A31EE004AF0EE441A31EEA04A58
:107D8000B0EE443A80ED2D3AC0ED2E1A80ED2F1A58
:107D90005AE0062180F8C01090ED2C4AF1EE424ADC
:107DA00024EE244AB0EE440A90ED2C4AF1EE634AE8
:107DB00024EE244AF0EE440A90ED2C4A34EE404A78
:107DC00034EE604AF0EE004A84EE245AB0EE451AD2
:107DD00031EE004AF0EE441A31EEA04AB0EE443AD9
:107DE00080ED2D3A80ED2E1AC0ED2F1A2CE00221E5
:107DF00080F8C01090ED2C4AF1EE634A24EE244A3C
:107E0000B0EE440A90ED2C4AF1EE624A24EE244A88
:107E1000F0EE440A90ED2C4A34EE404A34EE604ACB
:107E2000F0EE004A84EE245AB0EE451A31EE004AD4
:107E3000F0EE441A31EEA04AB0EE443AC0ED2D1AED
:107E400080ED2E3A80ED2F1A7047000000000000F0
:107E5000D7B35D3F002000213F4A126842F48032D0
:107E60003D4B1A6000BF401C3B4A126802F40031CF
:107E700019B94FF6FF729042F5D1374A126802F4F1
:107E800000320AB900BFFEE7334AD26942F080529D
:107E9000314BDA61314A126842F440422F4B1A608A
:107EA0002D4A52682C4B5A601A4652685A601A463C
:107EB000526842F480625A601A46526822F4403294
:107EC0005A601A46526842F440325A601A46526862
:107ED000234B1A40204B5A601A465268214B1A43D2
:107EE0001D4B5A601A46126842F080721A6000BF39
:107EF000194A126802F00072002AF9D0174A126873
:107F000042F48032154B1A6000BF144A526802F4E2
:107F10008032002AF9D0114A126842F400320F4B25
:107F20001A6000BF0D4A526802F40032002AF9D0EC
:107F3000094A526822F00302074B5A601A465268F7
:107F400042F002025A6000BF034A526802F008027F
:107F5000002AF9D070470000001002400070004075
:107F6000FFFFC3B70000340810B5FFF773FF10BD63
:107F700010B5034600F014F8014600F011F802466F
:107F8000002400BF00F00CF802468A4201D3501AC8
:107F900002E0C1F1FF30104404469C42F2D310BD10
:107FA00001480068704700001003002010B5124817
:107FB00000684FF47A71B0FBF1F4601EB0F1807F7D
:107FC00001D301200FE0601E4FF0E02148610F2136
:107FD0004FF0FF30FCF7EEFD00204FF0E02188610C
:107FE00007200861002008B100BFFEE70021481EFD
:107FF000FCF7E0FD10BD00004003002010B5FEF7C7
:10800000D3FA10BD70B50126FFF7CAFF04464148F8
:108010000068844203D33F480068201A04E03D48CA
:108020000068C0F1FF302044054625B1394804609E
:10803000FFF7BCFC002638480068844203D336486A
:108040000068201A04E034480068C0F1FF30204482
:108050000546052D04D330480460FFF7B3FC002625
:108060002E480068844203D32C480068201A04E09C
:108070002A480068C0F1FF30204405460A2D04D389
:1080800026480460FFF78EFC0026254800688442DD
:1080900003D323480068201A04E021480068C0F197
:1080A000FF3020440546642D04D31D480460FFF7CB
:1080B00075FC00261B480068844203D319480068F9
:1080C000201A04E017480068C0F1FF30204405463C
:1080D000B5F5FA7F04D313480460FFF76CFC002663
:1080E00011480068844203D30F480068201A04E056
:1080F0000D480068C0F1FF3020440546B5F57A7F91
:1081000004D309480460FFF752FC00260EB1FFF7C4
:1081100041FC70BD280300202C0300203003002008
:1081200034030020380300203C030020016841F0A4
:108130008001016070470A884B881A438B881A4374
:10814000CB881A430B891A434B891A438B891A43EC
:10815000426470470246002031B1012906D002294D
:1081600006D0032908D105E0506B06E0906B04E0CF
:10817000D06B02E0106C00E000BF00BF704721B17F
:1081800001290AD002291AD110E0036A23F004035E
:108190000362036A1343036212E0036A23F040039D
:1081A0000362036A43EA0213036209E0036A23F4E9
:1081B00080630362036A43EA0223036200E000BFB4
:1081C00000BF704731B101290CD0022913D0032917
:1081D00022D118E0836923F00C0383618369134380
:1081E00083611AE0836923F440638361836943EA0E
:1081F0000223836111E0C36923F00C03C361C369E7
:108200001343C36109E0C36923F44063C361C369D5
:1082100043EA0223C36100E000BF00BF70470000D3
:1082200010B531B101293FD002297DD003297CD17D
:10823000BFE0036A23F001030362836923F00303B1
:108240008361036A148823430362036A23F00203F1
:108250000362036A9488234303626A4B984202D004
:10826000694B98421FD1036A23F004030362036A37
:10827000548823430362036A23F008030362036AFA
:10828000D48823430362436823F4807343604368C4
:10829000148923434360436823F4007343604368B5
:1082A000548923434360ABE0036A23F01003036265
:1082B000836923F440738361036A148843EA0413D7
:1082C0000362036A23F020030362036A948843EA8B
:1082D000041303624B4B984202D04B4B984226D179
:1082E000036A23F040030362036A548843EA0413D9
:1082F0000362036A23F080030362036AD48843EABB
:1083000004130362436823F4806343604368148961
:1083100043EA84034360436823F400634360436893
:10832000548943EA840301E002E068E0436067E0C7
:10833000036A23F480730362C36923F00303C361F8
:10834000036A148843EA04230362036A23F4007374
:108350000362036A948843EA04230362294B984228
:1083600002D0294B984223D1036A23F4806303622D
:10837000036A548843EA04230362036A23F4006314
:108380000362036AD48843EA04230362436823F444
:10839000805343604368148943EA0413436043688D
:1083A00023F4005343604368548943EA0413436051
:1083B00026E0036A23F480530362C36923F4407305
:1083C000C361036A148843EA04330362036A23F433
:1083D00000530362036A948843EA04330362094B3F
:1083E000984202D0084B984208D1436823F4804356
:1083F00043604368148943EA8413436000E000BF8C
:1084000000BF10BD002C01400034014031B10129F2
:108410000CD0022913D0032922D118E0836923F05C
:10842000700383618369134383611AE0836923F4D2
:10843000E0438361836943EA0223836111E0C369F6
:1084400023F07003C361C3691343C36109E0C369C7
:1084500023F4E043C361C36943EA0223C36100E03C
:1084600000BF00BF704731B1012906D0022906D0F4
:10847000032908D105E0426306E0826304E0C26399
:1084800002E0026400E000BF00BF704731B1012983
:108490000CD0022913D0032922D118E0836923F0DC
:1084A000080383618369134383611AE0836923F4BA
:1084B00000638361836943EA0223836111E0C36936
:1084C00023F00803C361C3691343C36109E0C369AF
:1084D00023F40063C361C36943EA0223C36100E07C
:1084E00000BF00BF704731B101290CD0022913D061
:1084F000032923D119E0036A23F001030362036A0D
:10850000134303621BE0036A23F010030362036A50
:1085100043EA0213036212E0036A23F480730362E6
:10852000036A43EA0223036209E0036A23F48053E7
:108530000362036A43EA0233036200E000BF00BF44
:10854000704701460020486A70474162704700004A
:1085500010B504463349601A8C4244D00CDCB4F1A7
:10856000804F1CD03048204410B3B0F5806F28D025
:10857000B0F5006F52D12DE0B0F5806F3CD0B0F572
:108580008E3F03D0B0F5923F48D13EE040F20B3031
:10859000FFF7F0F940F20B30FFF7DCF93FE04FF462
:1085A0008060FFF7E7F94FF48060FFF7D3F936E01A
:1085B00040F20140FFF7DEF940F20140FFF7CAF94F
:1085C0002DE040F20240FFF7D5F940F20240FFF7FC
:1085D000C1F924E040F20340FFF7CCF940F2034038
:1085E000FFF7B8F91BE040F20440FFF7C3F940F28F
:1085F0000440FFF7AFF912E040F20540FFF7BAF987
:1086000040F20540FFF7A6F909E040F20D30FFF710
:10861000B1F940F20D30FFF79DF900E000BF00BF57
:1086200010BD00000010004000FCFFBF016841F0D9
:1086300001010160704721B9426842F08002426046
:1086400005E0012903D1426822F0800242607047B0
:108650000A8882621D4A90420ED0B0F1804F0BD042
:108660001B4A904208D01B4A904205D01A4A9042B9
:1086700002D01A4A90420BD1026822F070020260C6
:1086800002684B881A43026002688B881A430260B2
:108690008A68C262124A90420AD0124A904207D0B7
:1086A000026822F4407202600268CB881A430260BA
:1086B000064A904202D0094A904201D10A7B0263E5
:1086C000426942F00102426170470000002C014003
:1086D0000004004000080040000C0040003401404D
:1086E000001000400014004070B504460E461546C8
:1086F00036B1012E26D0022E48D0032E7DD168E05F
:10870000206A20F001002062206A20F00A00206226
:10871000206A298808432062A06920F00300A06134
:10872000A06969880843A061A06920F0F000A061F9
:10873000A069E98840EA0110A061206A40F00100C8
:1087400020626DE0206A20F010002062206A20F094
:10875000A0002062206A298840EA01102062A069F6
:1087600020F44070A061A069698840EA0120A061FE
:10877000A06920F47040A061A069E98840EA013056
:10878000A061206A40F01000206249E0206A20F4D5
:1087900080702062206A20F420602062206A29888C
:1087A00040EA01202062E06920F00300E061E06916
:1087B00069880843E061E06920F0F000E061E06969
:1087C000E98840EA0110E061206A40F4807020628C
:1087D00026E0206A20F480502062206A20F40050B5
:1087E0002062206A298840EA01302062E06920F492
:1087F0004070E061E069698800E010E040EA012033
:10880000E061E06920F47040E061E069E98840EAF5
:108810000130E061206A40F48050206200E000BF37
:1088200000BFAA8831462046FFF7CCFC70BD8268A5
:1088300022F07002826082680A4382607047C268D8
:108840000A43C2607047CA43026170470246D0685B
:1088500000EA01031069084010B10BB10120704714
:108860000020FCE7012904D1426C42F4004242643A
:1088700003E0426C22F400424264704730B58468E1
:1088800024F00704846084680C438460846940F2A7
:108890000335AC438461846940F201152C43846143
:1088A000046A24F00A040462046A24F0A004046246
:1088B000046A42EA03152C43046230BD826822F048
:1088C0000702826082680A43826070472DE9F047A0
:1088D00004460D460027B846B94600261D49601AD1
:1088E0008C421CD006DC1C48204470B1B0F5806F6F
:1088F0001FD10FE0B0F5806F16D0B0F56C4F18D1D6
:108900000320FEF76BFF074614E00220FEF766FF28
:1089100007460FE00220FEF761FF07460AE002204B
:10892000FEF75CFF074605E00220FEF757FF07460B
:1089300000E000BF00BF07EB5500B0FBF5F64FF6B7
:10894000F07006EA000806F00F0948EA0900A06086
:10895000BDE8F087004C004000BCFFBF10B50446E6
:108960002049601A8C4228D006DC1F48204490B170
:10897000B0F5806F33D117E0B0F5806F26D0B0F539
:108980006C4F2CD140F20E30FEF7F4FF40F20E3067
:10899000FEF7E0FF24E040F21140FEF7EBFF40F26B
:1089A0001140FEF7D7FF1BE040F21240FEF7E2FF56
:1089B00040F21240FEF7CEFF12E040F21340FEF705
:1089C000D9FF40F21340FEF7C5FF09E040F2144022
:1089D000FEF7D0FF40F21440FEF7BCFF00E000BFFE
:1089E00000BF10BD004C004000BCFFBF426922F038
:1089F00040024261426901F040031A4342617047FC
:108A0000426922F080024261426901F080031A4308
:108A100042617047C16841F40051C1607047000075
:108A200000B587B040F20460FEF784FF4FF4A06009
:108A3000FEF780FF40F21270FEF77CFF4FF4C0603B
:108A4000FEF778FF01214548FDF7F4FA4FF4806303
:108A5000032218214248FDF77EFA4FF400630322F7
:108A600004213F48FDF777FA3E48FFF777FF4FF4C0
:108A700061213C48FFF72AFF04213A4800F07AF8C8
:108A80000821384800F0C4F83648FFF7C3FF012139
:108A90003548FDF7CBF86846FDF7C8F901208DF899
:108AA0001A003248029001208DF81900002003902E
:108AB000202004902B48001D009000208DF8180005
:108AC00001904FF4405005906A4601212648FDF779
:108AD000F1F802212448FDF7A9F86846FDF7A6F948
:108AE00000208DF81A002248029001208DF819000C
:108AF00000200390202004901A48001D00900020C0
:108B00008DF8180001904FF4405005906A460221FC
:108B10001548FDF7CFF801211348FDF76EF8012144
:108B20001148FDF75EF902210F48FDF766F80221B2
:108B30000D48FDF756F940210A48FFF757FF01217C
:108B40000948FDF741F880210648FFF759FF022147
:108B50000548FDF739F807B000BD0000100014000B
:108B6000001001400048004000000240CA030020FD
:108B7000AA030020C26822F00402C260C26801F0A9
:108B800004031A43C260704730B587B005460C46EF
:108B9000202C34D2022201211A48FDF77FF8012847
:108BA0002DD1224629461848FBF75CFB01211548C8
:108BB000FDF73CF86846FDF739F901208DF81A00F9
:108BC0001148029001208DF81900002003900494B0
:108BD0000E48009000208DF8180001904FF440508E
:108BE00005906A4601210748FDF764F80121054810
:108BF000FDF703F801210348FCF7E6FF00BF07B0CB
:108C000030BD000000000240CA03002004480040BC
:108C1000C26822F00802C260C26801F008031A4369
:108C2000C26070470000000000000000000000006B
:108C300000000404040404000004000014140A00EA
:108C4000000000000000000000000A0A1F0A0A1FBE
:108C50000A0A000000040E1505060C14150E040087
:108C6000000012150D152E2C2A1200000000040A17
:108C70000A36151529160000020201000000000046
:108C80000000000010080804040404040808100090
:108C90000204040808080808040402000000000494
:108CA000150E0E150400000000000008083E08081C
:108CB00000000000000000000000000002020100AF
:108CC00000000000003F0000000000000000000065
:108CD000000000000002000000201010080804043A
:108CE0000202010000000E1111111111110E0000FD
:108CF0000000040604040404040E000000000E1129
:108D000011080402011F000000000E11100C1010C9
:108D1000110E00000000080C0C0A091F081C0000BE
:108D200000001F01010F1110110E000000000C12B5
:108D3000010D1311110E000000001E10080804049C
:108D40000404000000000E11110E1111110E00009C
:108D500000000E1111191610090600000000000095
:108D600004000000000400000000000000040000F7
:108D700000040400000010080402020408100000AF
:108D8000000000003F003F0000000000000002045F
:108D9000081010080402000000000E11110804045D
:108DA0000004000000001C22292D2D1D221C0000A3
:108DB000000004040C0A0A1E1233000000000F1207
:108DC000120E1212120F000000001E11010101010B
:108DD000110E000000000F1212121212120F0000EA
:108DE00000001F120A0E0A02121F000000001F12CC
:108DF0000A0E0A020207000000001C1201013911CC
:108E0000120C000000003312121E12121233000066
:108E100000001F0404040404041F000000003E08B6
:108E20000808080808080907000037120A060A128D
:108E3000123700000000070202020202223F000077
:108E400000003B1B1B1B15151535000000003B12D5
:108E500016161A1A1217000000000E111111111126
:108E6000110E000000000F12120E02020207000095
:108E700000000E1111111117190E180000000F1229
:108E8000120E0A121237000000001E11010608100F
:108E9000110F000000001F1504040404040E00005C
:108EA0000000331212121212120C000000003312D2
:108EB000120A0A0C040400000000151515150E0A0C
:108EC0000A0A000000001B0A0A04040A0A1B000028
:108ED00000001B0A0A0A0404040E000000001F0917
:108EE00008040402121F00001C0404040404040407
:108EF00004041C0000020204040408080810100006
:108F00000E0808080808080808080E00040A0000EF
:108F10000000000000000000000000000000000051
:108F20000000003F020400000000000000000000FC
:108F300000000000000C121C123C000000030202A2
:108F4000020E1212120E000000000000001C12029D
:108F5000120C000000181010101C1212123C00001D
:108F600000000000000C121E021C00000018240467
:108F7000041E0404041E000000000000003C120C4B
:108F8000021C221C00030202020E12121237000001
:108F90000004040000060404040E00000008080099
:108FA000000C08080808080700030202021A0A0653
:108FB0000A1300000007040404040404041F000052
:108FC00000000000000F151515150000000000003E
:108FD000000F12121237000000000000000C1212E5
:108FE000120C000000000000000F1212120E020707
:108FF00000000000001C1212121C103800000000BB
:10900000001B06020207000000000000001E020C08
:10901000101E000000000004041E0404041C0000D4
:1090200000000000001B1212123C000000000000B3
:10903000001B0A0A04040000000000000015150EC1
:109040000A0A000000000000001B0A040A1B0000BE
:1090500000000000003312120C080403000000009E
:10906000001E0804041E000018080808080C080860
:109070000808180008080808080808080808080868
:10908000060404040408040404040600160900008D
:1090900000000000000000000000000000000000D0
:1090A0000000000000000000000000080808080898
:1090B000080800001818000000486C241200000086
:1090C00000000000000000000000002424247F12A3
:1090D00012127F12121200000000081C2A2A0A0C29
:1090E0001828282A2A1C0808000000222515151512
:1090F0002A585454542200000000000C1212120A84
:1091000076252911916E0000000606040300000078
:1091100000000000000000000040201010080808B7
:109120000808081010204000000204080810101061
:1091300010101008080402000000000008086B1C52
:109140001C6B080800000000000000000808080868
:109150007F08080808000000000000000000000070
:1091600000000000060604030000000000000000EC
:10917000FE000000000000000000000000000000F1
:109180000000000006060000000080404020201083
:1091900010080804040202000000001824424242A1
:1091A0004242424224180000000000080E0808084D
:1091B00008080808083E00000000003C4242422027
:1091C00020100804427E00000000003C42422018AB
:1091D00020404042221C00000000002030282424AF
:1091E00022227E20207800000000007E0202021A67
:1091F00026404042221C0000000000382402021ACF
:1092000026424242241800000000007E2222101054
:1092100008080808080800000000003C42424224F8
:1092200018244242423C00000000001824424242FE
:1092300064584040241C0000000000000000181882
:1092400000000000181800000000000000000008E6
:10925000000000000008080400000040201008047E
:1092600002040810204000000000000000007F0001
:1092700000007F0000000000000000020408102031
:1092800040201008040200000000003C424246401A
:1092900020101000181800000000001C225A55551C
:1092A00055552D42221C0000000000080818141417
:1092B000243C224242E700000000001F2222221E1E
:1092C00022424242221F00000000007C4242010173
:1092D00001010142221C00000000001F2242424204
:1092E00042424242221F00000000003F4212121E72
:1092F00012120242423F00000000003F4212121EC2
:1093000012120202020700000000003C22220101AA
:1093100001712122221C0000000000E7424242426B
:109320007E42424242E700000000003E0808080872
:1093300008080808083E00000000007C101010100B
:10934000101010101010110F0000007722120A0EDA
:109350000A12122222770000000000070202020215
:1093600002020202427F00000000007736363636E5
:109370002A2A2A2A2A6B0000000000E346464A4AAD
:1093800052525262624700000000001C22414141DB
:1093900041414141221C00000000003F4242424244
:1093A0003E020202020700000000001C224141416F
:1093B00041414D53321C60000000003F4242423E9A
:1093C0001212222242C700000000007C4242020426
:1093D00018204042423E00000000007F4908080873
:1093E00008080808081C0000000000E7424242424A
:1093F00042424242423C0000000000E74242222436
:1094000024141418080800000000006B4949494959
:109410005555362222220000000000E7422424187D
:109420001818242442E700000000007722221414B8
:1094300008080808081C00000000007E2120101009
:1094400008040442423F00000078080808080808A1
:109450000808080808087800000002020404080848
:109460000810102020204040001E10101010101076
:109470001010101010101E000038440000000000F2
:1094800000000000000000000000000000000000DC
:1094900000000000000000FF0006080000000000BF
:1094A0000000000000000000000000000000003C80
:1094B0004278444242FC0000000000030202021A0B
:1094C00026424242261A0000000000000000003838
:1094D000440202024438000000000060404040782E
:1094E0004442424264D80000000000000000003CFA
:1094F000427E0202423C0000000000F08808087E24
:1095000008080808083E0000000000000000007C79
:1095100022221C023C42423C000000030202023AAA
:109520004642424242E700000000000C0C00000EE0
:1095300008080808083E000000000030300000382D
:10954000202020202020221E0000000302020272A0
:10955000120A1612227700000000000E0808080800
:1095600008080808083E0000000000000000007F16
:109570009292929292B70000000000000000003B1F
:109580004642424242E70000000000000000003C6A
:1095900042424242423C0000000000000000001B2A
:1095A00026424242221E020700000000000000780E
:1095B00044424242447840E000000000000000774E
:1095C0004C040404041F0000000000000000007CA4
:1095D00042023C40423E0000000000000008083EFD
:1095E00008080808083000000000000000000063C0
:1095F0004242424262DC000000000000000000E73E
:10960000422424140808000000000000000000EBC1
:109610004949555522220000000000000000007654
:1096200024181818246E000000000000000000E755
:109630004224241418080807000000000000007EDF
:1096400022100808447E000000C0202020202010A6
:10965000202020202020C00010101010101010100A
:10966000101010101010101000060808080808103C
:1096700008080808080806000C32C20000000000B4
:1096800000000000000000000000000000000000DA
:1096900000000000000000000000000000000000CA
:1096A00000000000000000000000000000000000BA
:1096B00000000000000000000000000000000000AA
:1096C00060006000600060006000600060004000BA
:1096D000200020002000000000000000600060006A
:1096E000600000000000000000000000600660064E
:1096F00030039801880044000000000000000000D2
:109700000000000000000000000000000000000059
:109710000000000000000000000000000000000049
:109720001002100210021002FE07FE0708020801D4
:10973000080108010801FE07FE07040104010401F5
:1097400004010000000000000000000000004000D4
:109750004000F00158034C03CC034C00580070004B
:10976000E000C001C00140034C035C034C0348010E
:10977000F000400040000000000000000000000079
:109780000E010A01910091009100510051003A0030
:10979000AE03A00250045004480448044804840264
:1097A0008403000000000000000000000000000032
:1097B00038006C006C006C006C006C002C0098078A
:1097C0001C011A01330133016301E300C308C60918
:1097D0003C07000000000000000000000C001C001E
:1097E000100010000800040000000000000000004D
:1097F0000000000000000000000000000000000069
:109800000000000000000000000000000004000252
:109810000001800080004000400020002000200067
:109820002000200020002000400040008000800038
:10983000000100020004000000000000020004001B
:1098400008001000100020002000400040004000F0
:1098500040004000400040002000200010001000A8
:1098600008000400020000000000000000000000EA
:10987000000000004000C0004000460C4E0FD00128
:10988000F0015E0F460C4000400040000000000068
:1098900000000000000000000000000000000000C8
:1098A0000000000000004000400040004000400078
:1098B000FE0F40004000400040004000000000005B
:1098C0000000000000000000000000000000000098
:1098D0000000000000000000000000000000000088
:1098E0000000000000000000000000000C001C0050
:1098F000100010000800040000000000000000003C
:109900000000000000000000000000000000000057
:10991000FE07000000000000000000000000000042
:109920000000000000000000000000000000000037
:109930000000000000000000000000000000000027
:109940000000000000000000000000001C001C00DF
:109950001C000000000000000000000000040006E1
:109960000002000300010001800080004000400070
:1099700060002000200010001000080008000C000B
:1099800004000600020000000000000000000000CB
:109990000000F00098010C030C03060606060606FC
:1099A000060606060606060606060C030C039801C4
:1099B000F0000000000000000000000000000000B7
:1099C000000040007C0060006000600060006000FB
:1099D0006000600060006000600060006000600087
:1099E000FC03000000000000000000000000000078
:1099F0000000F800840102030603060300030001CF
:109A00008001C0006000200010000802040206026D
:109A1000FE03000000000000000000000000000045
:109A200000007800C6008601860180018001C00028
:109A30007000800100010003000306030603860195
:109A4000F80000000000000000000000000000001E
:109A5000000080018001C001A001A00190018801E7
:109A6000880184018201FE0F800180018001800154
:109A7000E0070000000000000000000000000000FF
:109A80000000FC0304000400040004000400F400CF
:109A90008C01040300030003060306038201840112
:109AA000F8000000000000000000000000000000BE
:109AB0000000E00118030C030C0004000600E6019E
:109AC00016030E0606060606060604060C02180312
:109AD000F000000000000000000000000000000096
