:020000040800F2
:1040000080080020D1410008834400087B44000858
:104010007F440008B94200089D45000800000000E8
:10402000000000000000000000000000AF44000895
:104030007944000800000000AD440008B1440008C5
:10404000EB410008EB410008EB410008EB410008A0
:10405000EB410008EB410008EB410008EB41000890
:10406000EB410008EB410008EB410008EB41000880
:10407000EB410008EB410008EB410008EB41000870
:10408000EB410008EB4100088D420008EB410008BD
:10409000EB410008EB410008EB410008EB41000850
:1040A00069450008EB410008EB410008EB410008BE
:1040B000EB410008EB410008EB410008EB41000830
:1040C000EB410008EB410008EB410008EB41000820
:1040D000EB410008EB410008EB410008EB41000810
:1040E000EB410008EB410008EB410008EB41000800
:1040F000EB410008EB410008EB410008EB410008F0
:10410000EB410008EB410008EB410008EB410008DF
:10411000EB410008EB410008EB410008EB410008CF
:10412000EB410008EB410008EB410008EB410008BF
:1041300000F002F800F03CF80AA090E8000C82447D
:104140008344AAF10107DA4501D100F031F8AFF25A
:10415000090EBAE80F0013F0010F18BFFB1A43F065
:10416000010318479C190000BC190000103A24BF35
:1041700078C878C1FAD8520724BF30C830C144BFCC
:1041800004680C607047000000230024002500260E
:10419000103A28BF78C1FBD8520728BF30C148BFAA
:1041A0000B6070471FB501F0A5FC1FBD10B510BD19
:1041B00000F031F81146FFF7F5FF00F061FD00F067
:1041C0004FF803B4FFF7F2FF03BC00F057F800000C
:1041D0000948804709480047FEE7FEE7FEE7FEE79B
:1041E000FEE7FEE7FEE7FEE7FEE7FEE704480549D7
:1041F000054A064B70470000C144000831410008E1
:10420000800000208008002080040020800400201E
:10421000704770477047754600F02CF8AE460500B1
:104220006946534620F00700854618B020B5FFF7D1
:10423000DDFFBDE820404FF000064FF000074FF0D3
:1042400000084FF0000B21F00701AC46ACE8C009B4
:10425000ACE8C009ACE8C009ACE8C0098D467047BD
:1042600010B50446AFF300802046BDE81040FFF7CC
:10427000A8BF000000487047200000200149182016
:10428000ABBEFEE7260002007047000010B54021DB
:10429000074800F085FBC0F10100C4B2224640216E
:1042A000034800F01AFB0421024800F0D7FA10BDC1
:1042B000000C01400024014000BFFEE710B50122C0
:1042C0001146022000F0ACF810BD10B503464FF6C1
:1042D000FF7404EAC3304FF4F04404EAC1242043DD
:1042E000C2F30A04204310BD10B500224FF48061D0
:1042F000034800F0F2FA012001F02EF810BD000092
:10430000000C014010B501229102034800F0E5FACB
:10431000012001F021F810BD000C014010B500246F
:1043200040F2026000F0E0FE40F2036000F0DCFECC
:1043300040F2036000F0D8FE00F006FF10230322D5
:1043400019461F4800F0CEFA4FF480630322102173
:104350001C4800F0C7FA042303221021194800F07A
:10436000C1FA00224FF48061164800F0B6FA01222B
:104370001021134800F0B1FA01220421114800F085
:10438000ACFA022000F0E8FF002204210D4800F002
:10439000A4FAFFF7A9FFFFF7B5FFFFF78FFF032090
:1043A00000F022F80446012000F016F8012000F089
:1043B0000BF840F2FF30844201D000BFFEE710BD91
:1043C00000080140000C014010B50446A201C021C4
:1043D000062000F025F810BD10B5044622460F2136
:1043E000052000F01DF810BD70B504460025002220
:1043F00021460120FFF769FF0646002210210748E9
:1044000000F06BFA304600F0D3FE05460122102181
:10441000024800F062FAC5F30A0070BD00080140CE
:104420002DE9F04107460D4616463846FFF7DCFFFA
:104430000446AC4334432146384600F003F8BDE857
:10444000F081000070B504460D462A462146002042
:10445000FFF73BFF064600221021064800F03DFA18
:10446000304600F0A5FE01221021024800F035FA86
:1044700070BD000000080140704700BFFEE700BFAC
:10448000FEE7704710B5002807DA0A07140E054A40
:1044900000F00F031B1FD45403E00A07130E024A57
:1044A000135410BD18ED00E000E400E070477047C1
:1044B00002480068401C0149086070470000002065
:1044C00008B52648006840F4700024490860244874
:1044D000006840F001002249086000BF20480068E1
:1044E00000F002000028F9D000BF1D48406840F0ED
:1044F00080001B4948600020009002E00098401CAA
:10450000009000985028F9D31548406840F090007A
:10451000134948600020009002E00098401C009081
:1045200000985028F9D300BF0D48406820F00300E0
:104530000B494860084600680A4908400849086075
:104540004FF41F0088600846006820F4802008604F
:1045500000204860C86200F0FBFE08BD88ED00E066
:1045600000100240FFFFF6FE10B5202200210A488D
:1045700001F092F820220121074801F08DF8202255
:104580000221054801F088F88021034801F09BFAD8
:10459000022000F04DFB10BD002C014000BFFEE7E3
:1045A00010B540F2096000F09FFD012000F066FDAB
:1045B000002000F057F901221102224800F060F9B2
:1045C000002202211F4800F05BF900211D4800F085
:1045D00079F8032202211B4800F051F800230E2233
:1045E0001946184800F0EAF800230F220121154867
:1045F00000F0E4F8002308220221124800F0DEF85F
:104600004FF4805202210F4800F08FF8012202215E
:104610000C4800F06BF802210A4800F01FF9042151
:10462000084800F01BF90421064800F001F905488C
:1046300000F053F8012000F08FFE024800F00AF865
:1046400010BD00000024014010B500F087F8FFF70E
:10465000A7FF10BD816841F00801816000BF81683B
:1046600001F008010029FAD1816841F0040181605C
:1046700000BF816801F004010029FAD1704730B50C
:10468000012902D002291AD10CE0C36A23F4700375
:10469000C362C36A541E4FF4700505EA04542343F1
:1046A000C3620DE0836B23F440138363836B541E5A
:1046B0004FF4401505EA04542343836300E000BF30
:1046C00000BF30BD21B1826842F40062826003E025
:1046D000826822F4006282607047816801F0010103
:1046E00019B9816841F001018160704772B101F030
:1046F00001031BB1836843F48013836001F002035C
:1047000093B1836843F4004383600DE001F001033B
:104710001BB1836823F48013836001F002031BB193
:10472000836823F4004383607047012902D0022983
:1047300010D107E0836823F4602383608368134308
:10474000836008E0836823F4E04383608368134355
:10475000836000E000BF00BF7047000010B540F26A
:10476000046000F0C1FC40F2046000F0BDFC40F2C7
:10477000036000F0B9FC40F2026000F0B5FC1023C9
:10478000042200210A4800F0ADF820230422002171
:10479000074800F0A7F8012304220021054800F093
:1047A000A1F8082304220021034800F09BF810BD63
:1047B00000100140000C014000080140F0B50C461B
:1047C000876BC7F30156856BE71CBF1B07EB870C94
:1047D0001F2707FA0CF7BD43E71CBF1B07EB870732
:1047E00002FA07F73D4385630A2A0DD2016902EBFD
:1047F000420C072707FA0CF7B94302EB420703FA0A
:1048000007F73943016112E0122A10D2C168A2F100
:104810000A0707EB470C072707FA0CF7B943A2F181
:104820000A0707EB470703FA07F73943C160F0BDF2
:1048300001F001021AB1426842F04002426001F008
:1048400002021AB1426842F02002426001F0040202
:104850001AB1426842F0800242607047CA43026067
:10486000704700000549096821F47021034A11606E
:10487000114609680143116070470000042401409B
:10488000AAB101F480731BB1436843F480734360A1
:1048900001F480631BB1436843F48063436001F01B
:1048A0000203CBB1836843F00203836014E001F498
:1048B00080731BB1436823F48073436001F4806309
:1048C0001BB1436823F48063436001F002031BB112
:1048D000836823F00203836070470AB1016100E03E
:1048E00041617047F0B5044616460025002201F0EC
:1048F0000F0501F0100747B1042E05D145F003055F
:10490000E76B1F43E76300E0354300201EE001270B
:1049100087401F40C7B122684FEA800C0F2707FA73
:104920000CF7BA43870005FA07F73A43282904D160
:10493000012787401F40676105E0482903D101270F
:1049400087401F4027612260471CB8B20828DED389
:10495000082022E0012787401F40E7B16268A0F1EC
:1049600008074FEA870C0F2707FA0CF7BA43A0F1A4
:104970000807BF0005FA07F73A43282904D10127A1
:1049800087401F40676105E0482903D10127874020
:104990001F4027616260471CB8B21028DAD3F0BD0F
:1049A0000246D068084008B1012070470020FCE7AB
:1049B000F0B50A46002300240021002500F000463F
:1049C000B6F1004F02D11D4EF16901E01B4E716836
:1049D000C0F3034583B200F44016B6F5401F08D17A
:1049E00021F0E061154E766826F0E066134F7E6098
:1049F00012E000F48016B6F5801F06D1032606FAF1
:104A000005F4A14341F0E06106E0460D360103FAEA
:104A100006F6B14341F0E06122B1460D360103FADA
:104A200006F6314300F00046B6F1004F02D1034EC6
:104A3000F16101E0014E7160F0BD00000000014035
:104A400010B540F2046000F04FFB40F2046000F04B
:104A50004BFB40F2046000F047FB4FF4C06000F0F5
:104A600043FB01210C48FFF7A3FF4023032204214D
:104A70000A48FFF737FF8023032204210748FFF786
:104A800031FF4FF48073032204210448FFF72AFF0B
:104A900000F006F810BD0000000C1A0000100140E4
:104AA00000B587B040F2017000F01EFB314800F005
:104AB0008FFE7720ADF804000020ADF80600ADF8B9
:104AC00008004FF6FF7003900020ADF80A008DF843
:104AD000100001A9274800F0FBFE0020ADF81400EB
:104AE0000320ADF816000020ADF81800ADF81A004C
:104AF00005AA00211F4800F037FF0020ADF8140080
:104B00000320ADF816000020ADF81800ADF81A002B
:104B100005AA0121174800F027FF0020ADF8140076
:104B20000320ADF816000020ADF81800ADF81A000B
:104B300005AA02210F4800F017FF40210D4800F0A0
:104B4000B6FF04210B4800F0CDFF0021094800F01A
:104B5000B2FE084800F046FC0221064800F0B3FF10
:104B60000221044800F0ABFF024800F09FFE07B0AE
:104B700000BD00000004004010B5002211461820BE
:104B800000F018F902220021122000F013F901228E
:104B900011461D2000F00EF910BD000010B540F2C6
:104BA000056000F0A1FA40F2046000F09DFA40F2C6
:104BB000026000F099FA4FF4C06000F095FA01210C
:104BC0001848FFF7F5FE18490B68184903220868D2
:104BD0001021FFF787FE14494B68144903224868E7
:104BE0001021FFF77FFE10498B6810490322886867
:104BF0001021FFF777FE0C4A11680C4A1068012259
:104C0000FFF76BFE084A5168084A50680122FFF717
:104C100064FE054A9168054A90680122FFF75DFE2F
:104C200010BD000000023000100000200400002031
:104C3000034951F82010034A52F82020516170476F
:104C4000100000200400002070B504460A4A52F803
:104C500024100A4A52F82400FFF7A2FEC0F1010016
:104C6000C5B2054A52F82410044A52F824002A46D4
:104C7000FFF733FE70BD000010000020040000208C
:104C800015481649086062B600F084FBFFF786FFFE
:104C9000FFF744FB40F2036000F026FA40230322B2
:104CA00010210F48FFF71EFE002240210C48FFF79D
:104CB00014FE00F017F800F045F840F6B732511036
:104CC000481000F061F805E00120FFF7BDFF642007
:104CD00000F042FBF8E700000040000808ED00E0AB
:104CE000000C014010B5FFF747FF00F0CFF800F0CF
:104CF00011F900F005F8FFF7A3FEFFF7A5FC10BDC2
:104D000010B5002202210E4800F033FD00220121DF
:104D10000B4800F02EFD00221146094800F029FD45
:104D200000220221064800F071FB00220121044804
:104D300000F06CFB00221146014800F067FB10BD3B
:104D4000002C014010B5012202210E4800F011FD97
:104D5000012211460B4800F00CFD012200210948F8
:104D600000F007FD04220221064800F04FFB042258
:104D70000121044800F04AFB04220021014800F010
:104D800045FB10BD002C014070B504460D4616468B
:104D900022460221064800F0ACFC2A4601210448C4
:104DA00000F0A7FC32460021014800F0A2FC70BDD3
:104DB000002C01402DE9F04103460D461646002423
:104DC0000027A0462A48006800F4E060B0F5E06FD4
:104DD00003D100BF4FF0040830E02548006800F41C
:104DE000E060B0F5C06F03D101274FF0030825E064
:104DF0001F48006800F4E060B0F5A06F02D1022700
:104E0000B8461BE01A48006800F4E060B0F5806F17
:104E100003D103274FF0010810E01548006800F4A3
:104E2000E060B0F5407F03D104274FF0000805E0B3
:104E30004FF4A06000F020F80227B846C7F1040044
:104E400005FA00F4C8F104010F20C84030400443C3
:104E500024010848C45403F01F010120884059115F
:104E6000890001F1E021C1F80001BDE8F0810000F6
:104E70000CED00E000E400E002490143024A116049
:104E8000704700000000FA050CED00E010B540F29C
:104E9000026000F029F940F2036000F025F94FF4B8
:104EA000C06000F021F94FF48063032218211748F5
:104EB000FFF718FD4FF40073032218211348FFF782
:104EC00011FD4FF48073032218211048FFF70AFDEB
:104ED0004FF40043032218210D48FFF703FD4FF460
:104EE0008043032218210A48FFF7FCFC4FF40053CB
:104EF000032218210648FFF7F5FC4FF480530322E4
:104F000004210348FFF7EEFC10BD0000000801403B
:104F1000000C014000B58BB040F20B6000F0E4F8EB
:104F2000554800F055FC0020ADF810004020ADF8C9
:104F300012000020ADF8140041F26F7006900020BE
:104F4000ADF816008DF81C0004A94B4800F0C0FC19
:104F50000120ADF820000420ADF822000020ADF8BB
:104F60002400ADF82600ADF82800ADF82A0008AA04
:104F70000021414800F09AFA08AA01213E4800F0B9
:104F800095FA08AA02213C4800F090FA08AA0321E9
:104F9000394800F08BFA4FF47A720021364800F05D
:104FA000A8FB60220021344800F076FB0822002193
:104FB000314800F0B1FB4FF47A7201212E4800F025
:104FC00098FB602201212C4800F066FB0822012199
:104FD000294800F0A1FB4FF47A720221264800F024
:104FE00088FB60220221244800F056FB082202219F
:104FF000214800F091FB0698421E03211E4800F054
:1050000078FB602203211C4800F046FB00220321AC
:10501000194800F081FB4FF40060ADF8000040102B
:10502000ADF80200B820ADF804000020ADF806008D
:105030004FF48040ADF808000020ADF80A004FF4AE
:105040008050ADF80C0069460B4800F0D0F9012102
:10505000094800F03BFD0121074800F030FD8021A8
:10506000054800F02CFD1021034800F028FD0248FF
:1050700000F01CFC0BB000BD002C0140184B59681F
:10508000184B1940164BDA6A22F000520C2820D235
:10509000DFE800F0060708091F0C1F0D151617188A
:1050A00000BF00BF00BF41EA803113E000BF20F025
:1050B00004004FF0805343EA803319430AE000BFF5
:1050C00000BF00BF20F00C0041EA803142F00052E6
:1050D00000E000BF00BF024B5960DA627047000079
:1050E00000100240FF3FFFEF064A02EB90110968F3
:1050F00000F01F0301229A401143024B03EB901270
:105100001160704700100240064A02EB90110968D6
:1051100000F01F0301229A409143024B03EB9012CF
:105120001160704700100240064A02EB90110968B6
:1051300000F01F0301229A401143024B03EB90122F
:10514000116070470010024000B587B040F2026065
:10515000FFF7CAFF40F20C60FFF7C6FFA02303224F
:1051600018211148FFF7BEFB4023032204210E48FB
:10517000FFF7B8FB002001904FF4827000904FF4CD
:1051800000600290012005904002039028200690C4
:10519000002004906946054800F037F8034800F005
:1051A00021F807B000BD00000008014000300140B8
:1051B00010B5044600BF0221094800F01EF800287F
:1051C000F9D02146064800F016F800BF0121044836
:1051D00000F013F80028F9D0014800F008F810BDDD
:1051E00000300140016841F0400101607047014614
:1051F000C86880B27047C160704702469068084036
:1052000008B1012070470020FCE70246002010682A
:1052100000F441500B6818434B6818438B681843DF
:10522000CB6818430B6918434B6918438B691843C3
:105230001060D36923F40063D3617047002000211C
:105240003F4A126842F480323D4B1A6000BF401C56
:105250003B4A126802F4003119B94FF6FF729042CE
:10526000F5D1374A126802F400320AB900BFFEE7EE
:10527000334AD26942F08052314BDA61314A1268C6
:1052800042F440422F4B1A602D4A52682C4B5A6010
:105290001A4652685A601A46526842F480625A604E
:1052A0001A46526822F440325A601A46526842F452
:1052B00040325A601A465268234B1A40204B5A60BB
:1052C0001A465268214B1A431D4B5A601A461268FF
:1052D00042F080721A6000BF194A126802F0007230
:1052E000002AF9D0174A126842F48032154B1A602E
:1052F00000BF144A526802F48032002AF9D0114AE1
:10530000126842F400320F4B1A6000BF0D4A526817
:1053100002F40032002AF9D0094A526822F003024E
:10532000074B5A601A46526842F002025A6000BFA8
:10533000034A526802F00802002AF9D070470000C0
:105340000010024000700040FFFFC3B700003408A7
:1053500010B5FFF773FF10BD10B5034600F014F849
:10536000014600F011F80246002400BF00F00CF8DE
:1053700002468A4201D3501A02E0C1F1FF301044C4
:1053800004469C42F2D310BD0148006870470000FB
:105390000000002010B5124800684FF47A71B0FB8D
:1053A000F1F4601EB0F1807F01D301200FE0601E98
:1053B0004FF0E02148610F214FF0FF30FFF762F816
:1053C00000204FF0E021886107200861002008B12B
:1053D00000BFFEE70021481EFFF754F810BD000093
:1053E0001C000020016841F08001016070470A88BC
:1053F0004B881A438B881A43CB881A430B891A436C
:105400004B891A438B891A434264704721B10129A1
:105410000AD002291AD110E0036A23F004030362C0
:10542000036A1343036212E0036A23F0400303623A
:10543000036A43EA0213036209E0036A23F4806308
:105440000362036A43EA0223036200E000BF00BF75
:10545000704731B101290CD0022913D0032922D180
:1054600018E0836923F00C0383618369134383612C
:105470001AE0836923F440638361836943EA02236A
:10548000836111E0C36923F00C03C361C369134353
:10549000C36109E0C36923F44063C361C36943EA9C
:1054A0000223C36100E000BF00BF704710B531B1F7
:1054B00001293FD002297DD003297CD1BFE0036AB6
:1054C00023F001030362836923F003038361036A0A
:1054D000148823430362036A23F002030362036A0E
:1054E0009488234303626A4B984202D0694B9842E6
:1054F0001FD1036A23F004030362036A5488234321
:105500000362036A23F008030362036AD488234317
:105510000362436823F48073436043681489234320
:105520004360436823F40073436043685489234312
:105530004360ABE0036A23F010030362836923F442
:1055400040738361036A148843EA04130362036AA5
:1055500023F020030362036A948843EA041303627E
:105560004B4B984202D04B4B984226D1036A23F012
:1055700040030362036A548843EA04130362036A24
:1055800023F080030362036AD48843EA04130362AE
:10559000436823F4806343604368148943EA8403C7
:1055A0004360436823F4006343604368548943EADB
:1055B000840301E002E068E0436067E0036A23F4EB
:1055C00080730362C36923F00303C361036A148811
:1055D00043EA04230362036A23F400730362036A49
:1055E000948843EA04230362294B984202D0294B52
:1055F000984223D1036A23F480630362036A5488C8
:1056000043EA04230362036A23F400630362036A28
:10561000D48843EA04230362436823F4805343603D
:105620004368148943EA04134360436823F4005336
:1056300043604368548943EA0413436026E0036AE5
:1056400023F480530362C36923F44073C361036A84
:10565000148843EA04330362036A23F400530362A9
:10566000036A948843EA04330362094B984202D0E8
:10567000084B984208D1436823F480434360436851
:10568000148943EA8413436000E000BF00BF10BDEB
:10569000002C01400034014031B101290CD0022915
:1056A00013D0032922D118E0836923F070038361AA
:1056B0008369134383611AE0836923F4E0438361C0
:1056C000836943EA0223836111E0C36923F0700315
:1056D000C361C3691343C36109E0C36923F4E043B1
:1056E000C361C36943EA0223C36100E000BF00BF96
:1056F000704731B1012906D0022906D0032908D10B
:1057000005E0426306E0826304E0C26302E00264F3
:1057100000E000BF00BF704731B101290CD0022961
:1057200013D0032922D118E0836923F00803836191
:105730008369134383611AE0836923F400638361FF
:10574000836943EA0223836111E0C36923F00803FC
:10575000C361C3691343C36109E0C36923F40063F0
:10576000C361C36943EA0223C36100E000BF00BF15
:10577000704731B101290CD0022913D0032923D15C
:1057800019E0036A23F001030362036A134303620F
:105790001BE0036A23F010030362036A43EA021367
:1057A000036212E0036A23F480730362036A43EA2C
:1057B0000223036209E0036A23F480530362036A4D
:1057C00043EA0233036200E000BF00BF70470000FD
:1057D00010B504463349601A8C4244D00CDCB4F155
:1057E000804F1CD03048204410B3B0F5806F28D0D3
:1057F000B0F5006F52D12DE0B0F5806F3CD0B0F520
:105800008E3F03D0B0F5923F48D13EE040F20B30DE
:10581000FFF78AFC40F20B30FFF776FC3FE04FF4D5
:105820008060FFF781FC4FF48060FFF76DFC36E08D
:1058300040F20140FFF778FC40F20140FFF764FCC2
:105840002DE040F20240FFF76FFC40F20240FFF70C
:105850005BFC24E040F20340FFF766FC40F20340AB
:10586000FFF752FC1BE040F20440FFF75DFC40F202
:105870000440FFF749FC12E040F20540FFF754FCFA
:1058800040F20540FFF740FC09E040F20D30FFF721
:105890004BFC40F20D30FFF737FC00E000BF00BFCB
:1058A00010BD00000010004000FCFFBF016841F087
:1058B00001010160704721B9426842F080024260F4
:1058C00005E0012903D1426822F08002426070475E
:1058D0000A8882621D4A90420ED0B0F1804F0BD0F0
:1058E0001B4A904208D01B4A904205D01A4A904267
:1058F00002D01A4A90420BD1026822F07002026074
:1059000002684B881A43026002688B881A4302605F
:105910008A68C262124A90420AD0124A904207D064
:10592000026822F4407202600268CB881A43026067
:10593000064A904202D0094A904201D10A7B026392
:10594000426942F00102426170470000002C0140B0
:105950000004004000080040000C004000340140FA
:10596000001000400014004070B504460E46154675
:1059700036B1012E26D0022E48D0032E7DD168E00C
:10598000206A20F001002062206A20F00A002062D4
:10599000206A298808432062A06920F00300A061E2
:1059A000A06969880843A061A06920F0F000A061A7
:1059B000A069E98840EA0110A061206A40F0010076
:1059C00020626DE0206A20F010002062206A20F042
:1059D000A0002062206A298840EA01102062A069A4
:1059E00020F44070A061A069698840EA0120A061AC
:1059F000A06920F47040A061A069E98840EA013004
:105A0000A061206A40F01000206249E0206A20F482
:105A100080702062206A20F420602062206A298839
:105A200040EA01202062E06920F00300E061E069C3
:105A300069880843E061E06920F0F000E061E06916
:105A4000E98840EA0110E061206A40F48070206239
:105A500026E0206A20F480502062206A20F4005062
:105A60002062206A298840EA01302062E06920F43F
:105A70004070E061E069698800E010E040EA0120E0
:105A8000E061E06920F47040E061E069E98840EAA3
:105A90000130E061206A40F48050206200E000BFE5
:105AA00000BFAA8831462046FFF7D3FC70BD82684C
:105AB00022F07002826082680A4382607047C26886
:105AC0000A43C2607047CA4302617047012904D18A
:105AD000426C42F40042426403E0426C22F4004211
:105AE00042647047826822F00702826082680A433B
:105AF000826070474FF04070E1EE100A704700007E
:105B0000205B000800000020200000006C4100081D
:105B1000405B000820000020600800008841000869
:105B20000000000000140140001001400008014086
:105B3000040000000010000000800000000E270795
:04000005080041317D
:00000001FF
