:020000040800F2
:10400000E8080020D1410008854300087D430008EE
:104010008143000877430008B14400080000000015
:10402000000000000000000000000000B343000892
:104030007B43000800000000B1430008B5430008BE
:10404000EB410008EB410008EB410008EB410008A0
:10405000EB410008EB410008EB410008EB41000890
:10406000EB410008EB410008EB410008EB41000880
:10407000EB410008EB410008EB410008EB41000870
:10408000EB410008EB410008EB410008EB41000860
:10409000EB410008EB410008EB410008EB41000850
:1040A000EB410008EB410008EB410008EB41000840
:1040B000EB410008EB4100086D440008EB410008AB
:1040C000EB410008EB410008EB410008EB41000820
:1040D000EB410008EB410008EB410008EB41000810
:1040E000EB410008EB410008EB410008EB41000800
:1040F000EB410008EB410008EB410008EB410008F0
:10410000EB410008EB410008EB410008EB410008DF
:10411000EB410008EB410008EB410008EB410008CF
:10412000EB410008EB410008EB410008EB410008BF
:1041300000F002F800F03CF80AA090E8000C82447D
:104140008344AAF10107DA4501D100F031F8AFF25A
:10415000090EBAE80F0013F0010F18BFFB1A43F065
:1041600001031847DC140000FC140000103A24BFBF
:1041700078C878C1FAD8520724BF30C830C144BFCC
:1041800004680C607047000000230024002500260E
:10419000103A28BF78C1FBD8520728BF30C148BFAA
:1041A0000B6070471FB501F045FA1FBD10B510BD7B
:1041B00000F0A8F81146FFF7F5FF00F049FC00F009
:1041C000C6F803B4FFF7F2FF03BC00F0CDF800001F
:1041D0000948804709480047FEE7FEE7FEE7FEE79B
:1041E000FEE7FEE7FEE7FEE7FEE7FEE704480549D7
:1041F000054A064B70470000C543000831410008DE
:10420000E8000020E8080020E8040020E80400207E
:10421000032A40F2308010F0030C00F0158011F8F2
:10422000013BBCF1020F624498BF11F801CB00F8CA
:10423000013B38BF11F8013BA2F1040298BF00F81E
:1042400001CB38BF00F8013B11F0030300F02880D8
:10425000083AC0F0088051F8043B083A51F804CB02
:10426000A0E80810F5E7121D5CBF51F8043B40F8C8
:10427000043BAFF30080D20724BF11F8013B11F8D3
:1042800001CB48BF11F8012B24BF00F8013B00F817
:1042900001CB48BF00F8012B70477047704770474B
:1042A00010B5203AC0F00B80B1E81850203AA0E8D1
:1042B0001850B1E81850A0E81850BFF4F5AF5FEA05
:1042C000027C24BFB1E81850A0E8185044BF18C9B8
:1042D00018C0BDE810405FEA827C24BF51F8043B5F
:1042E00040F8043B08BF7047D20728BF31F8023BB3
:1042F00048BF11F8012B28BF20F8023B48BF00F847
:10430000012B7047754600F02BF8AE460500694654
:10431000534620F00700854618B020B5FFF766FF2A
:10432000BDE820404FF000064FF000074FF00008B6
:104330004FF0000B21F00701AC46ACE8C009ACE837
:10434000C009ACE8C009ACE8C0098D46704710B59B
:104350000446AFF300802046BDE81040FFF731BFB0
:10436000004870478400002001491820ABBEFEE7DA
:1043700026000200704700BFFEE7704700BFFEE75F
:1043800000BFFEE77047000010B5002807DA0A07F3
:10439000140E054A00F00F031B1FD45403E00A0754
:1043A000130E024A135410BD18ED00E000E400E0C3
:1043B0007047704702480068401C01490860704718
:1043C0001000002008B52648006840F47000244919
:1043D00008602448006840F001002249086000BFDE
:1043E0002048006800F002000028F9D000BF1D48F6
:1043F000406840F080001B4948600020009002E0C7
:104400000098401C009000985028F9D31548406847
:1044100040F09000134948600020009002E00098AE
:10442000401C009000985028F9D300BF0D48406808
:1044300020F003000B494860084600680A4908401C
:10444000084908604FF41F0088600846006820F49F
:104450008020086000204860C86200F023FD08BD8D
:1044600088ED00E000100240FFFFF6FE10B50024CA
:1044700040210D4800F006FF012814D140210A48D0
:1044800000F0FDFE084800F084FD04B2002106485B
:1044900000F083FD002C03DD01200449087002E0D8
:1044A00002200249087010BD000800402C000020C6
:1044B00000BFFEE770B505460C462146284600F0D1
:1044C0001FF908B900BFFEE704EB8400810005F185
:1044D0000800405840F0010104EB8400820005F11F
:1044E0000800815070BD70B505460C46214628462F
:1044F00000F006F908B900BFFEE704EB8400810074
:1045000005F10800405820F0200104EB84008200EF
:1045100005F10800815070BD70B504460D4629466E
:10452000204600F0EDF808B900BFFEE705EB850076
:10453000810004F10800405820F0010105EB8500DE
:10454000820004F108008150002105EB8500820003
:1045500004F10800815005EB8500820004F10C0095
:10456000815005EB8500820004F11000815005EBBD
:104570008500820004F1140081506068AA000F21B8
:1045800091400843606070BD30B503461C688D00E3
:1045900002FA05F52C400CB1012000E0002030BDEE
:1045A0002DE9F04104460D4616462946204600F006
:1045B000A7F808B900BFFEE705EB8500820004F10B
:1045C00010003168815005EB8500820004F1140071
:1045D000B1688150308A81B205EB8500820004F118
:1045E0000C00815005EB8500810004F1080047585C
:1045F00027F47C57F16870680843716908430743E2
:1046000005EB8500810004F108004750307E012849
:104610000ED105EB8500810004F10800405840F000
:10462000400105EB8500820004F1080081500DE097
:1046300005EB8500810004F10800405820F040019E
:1046400005EB8500820004F108008150707E01288E
:104650000ED105EB8500810004F10800405840F0C0
:10466000800105EB8500820004F1080081500DE017
:1046700005EB8500810004F10800405820F080011E
:1046800005EB8500820004F108008150B07E70B90E
:1046900005EB8500810004F10800405820F010016E
:1046A00005EB8500820004F1080081500DE005EB68
:1046B0008500810004F10800405840F0100105EB2E
:1046C0008500820004F108008150BDE8F08170B5DA
:1046D00005460C462146284600F012F808B900BFEE
:1046E000FEE704EB8400810005F10800405820F447
:1046F000804104EB8400820005F10800815070BD08
:1047000002460120034B9A4202D1042900DD002019
:10471000704700000004024008B900BFFEE7002116
:104720000160416001768160C160417601618176FE
:1047300041617047024908780021014A11707047B1
:104740002C00002010B540F2036000F0F1FA40F2B6
:10475000036000F0EDFA402303220421044800F036
:1047600062F8802303220421014800F05CF810BDA8
:10477000000C014010B5012211461E2000F0C0F9C6
:10478000FFF7E0FF00F002F810BD000000B587B0B1
:1047900040F2027000F0CCFA1F4800F001FC00204B
:1047A000ADF80400ADF80600ADF808004FF6FF7054
:1047B00003900020ADF80A008DF8100001A91648FA
:1047C00000F062FC0020ADF814000120ADF81600E6
:1047D0000020ADF818001020ADF81A0005AA00213D
:1047E0000D4800F09DFC05AA01210B4800F098FC43
:1047F0005021094800F037FD00231A4603210648DE
:1048000000F04CFD4021044800F035FD024800F066
:1048100035FC07B000BD0000000800400AB101618E
:1048200000E041617047F0B50446164600250022BD
:1048300001F00F0501F0100747B1042E05D145F036
:104840000305E76B1F43E76300E0354300201EE0EC
:10485000012787401F40C7B122684FEA800C0F270D
:1048600007FA0CF7BA43870005FA07F73A432829F5
:1048700004D1012787401F40676105E0482903D123
:10488000012787401F4027612260471CB8B20828D3
:10489000DED3082022E0012787401F40E7B162688D
:1048A000A0F108074FEA870C0F2707FA0CF7BA4365
:1048B000A0F10807BF0005FA07F73A43282904D1F9
:1048C000012787401F40676105E0482903D1012780
:1048D00087401F4027616260471CB8B21028DAD3B6
:1048E000F0BD0246D068084008B1012070470020A2
:1048F000FCE70000F0B50A46002300240021002553
:1049000000F00046B6F1004F02D11D4EF16901E002
:104910001B4E7168C0F3034583B200F44016B6F530
:10492000401F08D121F0E061154E766826F0E06660
:10493000134F7E6012E000F48016B6F5801F06D19A
:10494000032606FA05F4A14341F0E06106E0460DB6
:10495000360103FA06F6B14341F0E06122B1460D9B
:10496000360103FA06F6314300F00046B6F1004F77
:1049700002D1034EF16101E0014E7160F0BD000013
:104980000000014010B540F2056000F0D1F940F29E
:10499000046000F0CDF940F2026000F0C9F94FF474
:1049A000C06000F0C5F901211848FFF7A3FF1849BE
:1049B0000B681849032208681021FFF734FF1449D7
:1049C0004B681449032248681021FFF72CFF104957
:1049D0008B681049032288681021FFF724FF0C4AD6
:1049E00011680C4A10680122FFF718FF084A516845
:1049F000084A50680122FFF711FF054A9168054AED
:104A000090680122FFF70AFF10BD0000000230008D
:104A1000200000201400002070B504460A4A52F815
:104A200024100A4A52F82400FFF75BFFC0F101008E
:104A3000C5B2054A52F82410044A52F824002A4606
:104A4000FFF7ECFE70BD00002000002014000020E5
:104A500024482549086062B600F046FAFFF792FF45
:104A600000F0E6FCFFF786FE3AE02048204909689E
:104A700001602049096841601F4909688160002080
:104A80001A4908734873802088737F20C873FFF722
:104A900051FE1A49087008460078012809D11448C7
:104AA00090ED000AF7EE000A30EE200A80ED000AD1
:104AB0000CE012480078022808D10D4890ED000A59
:104AC000F7EE000A30EE600A80ED000A1021074878
:104AD00000F062FD0120FFF79FFF642000F0E6F97F
:104AE000C3E700000040000808ED00E034000020AB
:104AF0000000002004000020080000200C0000201E
:104B00002DE9F04103460D46164600240027A04635
:104B10002A48006800F4E060B0F5E06F03D100BF00
:104B20004FF0040830E02548006800F4E060B0F57C
:104B3000C06F03D101274FF0030825E01F4800682C
:104B400000F4E060B0F5A06F02D10227B8461BE088
:104B50001A48006800F4E060B0F5806F03D10327C5
:104B60004FF0010810E01548006800F4E060B0F56F
:104B7000407F03D104274FF0000805E04FF4A06008
:104B800000F020F80227B846C7F1040005FA00F447
:104B9000C8F104010F20C8403040044324010848F4
:104BA000C45403F01F01012088405911890001F10C
:104BB000E021C1F80001BDE8F08100000CED00E04B
:104BC00000E400E002490143024A1160704700001E
:104BD0000000FA050CED00E02DE9F04F8CB007461F
:104BE00000200A904AA090E8004CC068CDE905BEBC
:104BF000CDF810A007900FF21C1ADAE9000ACDE9EF
:104C0000020A0FF2101ADAE9000ACDE9000A444854
:104C10004068C0F381000B900B9820B1012804D0AC
:104C200002283FD103E03F4A3EE03E4A3CE03C4898
:104C3000406800F4803CBCF5803F12D13848C06A1F
:104C400000F08048B8F1000F01D1364B00E0364B40
:104C50003348406800F40039B9F5003F02D15B08E1
:104C600000E0324B2E484068C0F383412C48406836
:104C700000F0006008B141F010012948406800F0E0
:104C8000804008B141F020010F2901D2891C06E0C3
:104C90000F2903D33E2901D8491C00E03F2103FB23
:104CA00001F201E01F4A00BF00BF1D484068C0F389
:104CB000031504A8465D22FA06F419484068C0F3BB
:104CC000022502A8465D24FA06F0099014484068BF
:104CD000C0F3C2251DF8056024FA06F0089037B12C
:104CE000012F06D0022F06D0032F0AD106E00A9228
:104CF00008E00A9406E009980A9003E008980A90F0
:104D000000E000BF00BF0A980CB0BDE8F08F0000C3
:104D1000000000000000000001020304060708096B
:104D20000010024000127A00006CDC0200093D0015
:104D3000064A02EB9011096800F01F0301229A4015
:104D40001143024B03EB90121160704700100240B8
:104D5000064A02EB9011096800F01F0301229A40F5
:104D60009143024B03EB9012116070470010024018
:104D7000064A02EB9011096800F01F0301229A40D5
:104D80001143024B03EB9012116070470010024078
:104D9000002000213F4A126842F480323D4B1A60E5
:104DA00000BF401C3B4A126802F4003119B94FF6AB
:104DB000FF729042F5D1374A126802F400320AB904
:104DC00000BFFEE7334AD26942F08052314BDA61CC
:104DD000314A126842F440422F4B1A602D4A526801
:104DE0002C4B5A601A4652685A601A46526842F46E
:104DF00080625A601A46526822F440325A601A465B
:104E0000526842F440325A601A465268234B1A40A4
:104E1000204B5A601A465268214B1A431D4B5A6068
:104E20001A46126842F080721A6000BF194A12686E
:104E300002F00072002AF9D0174A126842F4803258
:104E4000154B1A6000BF144A526802F48032002ADF
:104E5000F9D0114A126842F400320F4B1A6000BFB9
:104E60000D4A526802F40032002AF9D0094A526809
:104E700022F00302074B5A601A46526842F00202BF
:104E80005A6000BF034A526802F00802002AF9D0B3
:104E9000704700000010024000700040FFFFC3B7E1
:104EA0000000340810B5FFF773FF10BD10B50346BE
:104EB00000F014F8014600F011F80246002400BF8B
:104EC00000F00CF802468A4201D3501A02E0C1F108
:104ED000FF30104404469C42F2D310BD01480068E4
:104EE000704700001000002010B5124800684FF411
:104EF0007A71B0FBF1F4601EB0F1807F01D3012024
:104F00000FE0601E4FF0E02148610F214FF0FF30AD
:104F1000FFF73AFA00204FF0E0218861072008618E
:104F2000002008B100BFFEE70021481EFFF72CFA61
:104F300010BD00003000002031B101290CD0022941
:104F400013D0032922D118E0836923F00C03836175
:104F50008369134383611AE0836923F440638361A7
:104F6000836943EA0223836111E0C36923F00C03E0
:104F7000C361C3691343C36109E0C36923F4406398
:104F8000C361C36943EA0223C36100E000BF00BFFD
:104F9000704701460020486A704741627047000030
:104FA00010B504463349601A8C4244D00CDCB4F18D
:104FB000804F1CD03048204410B3B0F5806F28D00B
:104FC000B0F5006F52D12DE0B0F5806F3CD0B0F558
:104FD0008E3F03D0B0F5923F48D13EE040F20B3017
:104FE000FFF7C6FE40F20B30FFF7B2FE3FE04FF492
:104FF0008060FFF7BDFE4FF48060FFF7A9FE36E04A
:1050000040F20140FFF7B4FE40F20140FFF7A0FE7E
:105010002DE040F20240FFF7ABFE40F20240FFF706
:1050200097FE24E040F20340FFF7A2FE40F2034067
:10503000FFF78EFE1BE040F20440FFF799FE40F2BE
:105040000440FFF785FE12E040F20540FFF790FEB6
:1050500040F20540FFF77CFE09E040F20D30FFF71B
:1050600087FE40F20D30FFF773FE00E000BF00BF87
:1050700010BD00000010004000FCFFBF016841F0BF
:1050800001010160704700000A8882621D4A904257
:105090000ED0B0F1804F0BD01B4A904208D01B4A73
:1050A000904205D01A4A904202D01A4A90420BD13F
:1050B000026822F07002026002684B881A430260A4
:1050C00002688B881A4302608A68C262124A904260
:1050D0000AD0124A904207D0026822F4407202605D
:1050E0000268CB881A430260064A904202D0094AFD
:1050F000904201D10A7B0263426942F0010242619F
:1051000070470000002C01400004004000080040EF
:10511000000C00400034014000100040001400402A
:1051200070B504460E46154636B1012E26D0022E25
:1051300048D0032E7DD168E0206A20F00100206273
:10514000206A20F00A002062206A29880843206231
:10515000A06920F00300A061A06969880843A061EC
:10516000A06920F0F000A061A069E98840EA011080
:10517000A061206A40F0010020626DE0206A20F00A
:1051800010002062206A20F0A0002062206A298896
:1051900040EA01102062A06920F44070A061A0697B
:1051A000698840EA0120A061A06920F47040A061F4
:1051B000A069E98840EA0130A061206A40F010004F
:1051C000206249E0206A20F480702062206A20F486
:1051D00020602062206A298840EA01202062E0697C
:1051E00020F00300E061E06969880843E061E0695C
:1051F00020F0F000E061E069E98840EA0110E06138
:10520000206A40F48070206226E0206A20F48050FA
:105210002062206A20F400502062206A298840EA37
:1052200001302062E06920F44070E061E069698843
:1052300000E010E040EA0120E061E06920F4704005
:10524000E061E069E98840EA0130E061206A40F409
:105250008050206200E000BF00BFAA88314620468F
:10526000FFF76AFE70BD826822F070028260826879
:105270000A4382607047C2680A43C2607047CA43EB
:10528000026170470246D06800EA010310690840D5
:1052900010B10BB1012070470020FCE730B58468E5
:1052A00024F00704846084680C438460846940F2BD
:1052B0000335AC438461846940F201152C43846159
:1052C000046A24F00A040462046A24F0A00404625C
:1052D000046A42EA03152C43046230BD2DE9F0470D
:1052E00004460D460027B846B94600261D49601AF7
:1052F0008C421CD006DC1C48204470B1B0F5806F95
:105300001FD10FE0B0F5806F16D0B0F56C4F18D1FB
:105310000320FFF761FC074614E00220FFF75CFC66
:1053200007460FE00220FFF757FC07460AE002207D
:10533000FFF752FC074605E00220FFF74DFC074649
:1053400000E000BF00BF07EB5500B0FBF5F64FF6DD
:10535000F07006EA000806F00F0948EA0900A060AC
:10536000BDE8F087004C004000BCFFBF10B504460C
:105370002049601A8C4228D006DC1F48204490B196
:10538000B0F5806F33D117E0B0F5806F26D0B0F55F
:105390006C4F2CD140F20E30FFF7EAFC40F20E3099
:1053A000FFF7D6FC24E040F21140FFF7E1FC40F2A9
:1053B0001140FFF7CDFC1BE040F21240FFF7D8FC94
:1053C00040F21240FFF7C4FC12E040F21340FFF736
:1053D000CFFC40F21340FFF7BBFC09E040F2144061
:1053E000FFF7C6FC40F21440FFF7B2FC00E000BF3C
:1053F00000BF10BD004C004000BCFFBF426922F05E
:1054000040024261426901F040031A434261704721
:10541000426922F080024261426901F080031A432E
:1054200042617047C16841F40051C160704700009B
:1054300000B587B040F20460FFF77AFC4FF4A0603B
:10544000FFF776FC40F21270FFF772FC4FF4C06079
:10545000FFF76EFC01214548FFF74CFA4FF48063DB
:10546000032218214248FFF7DEF94FF400630322BC
:1054700004213F48FFF7D7F93E48FFF777FF4FF485
:1054800061213C48FFF72AFF04213A4800F07AF8EE
:105490000821384800F0C4F83648FFF7C3FF01215F
:1054A0003548FFF739F86846FFF736F901208DF8DF
:1054B0001A003248029001208DF819000020039054
:1054C000202004902B48001D009000208DF818002B
:1054D00001904FF4405005906A4601212648FFF79D
:1054E0005FF802212448FFF717F86846FFF714F920
:1054F00000208DF81A002248029001208DF8190032
:1055000000200390202004901A48001D00900020E5
:105510008DF8180001904FF4405005906A46022122
:105520001548FFF73DF801211348FEF7DCFF012184
:105530001148FFF7CCF802210F48FEF7D4FF0221F3
:105540000D48FFF7C4F840210A48FFF757FF012133
:105550000948FEF7AFFF80210648FFF759FF0221F7
:105560000548FEF7A7FF07B000BD000010001400BB
:10557000001001400048004000000240640000208C
:1055800044000020C26822F00402C260C26801F038
:1055900004031A43C260704730B587B005460C4615
:1055A000202C34D2022201211A48FEF7EDFF0128F7
:1055B0002DD1224629461848FEF72AFE012115481A
:1055C000FEF7AAFF6846FFF7A7F801208DF81A003A
:1055D0001148029001208DF81900002003900494D6
:1055E0000E48009000208DF8180001904FF44050B4
:1055F00005906A4601210748FEF7D2FF01210548C0
:10560000FEF771FF01210348FEF754FF00BF07B00A
:1056100030BD00000000024064000020044800404B
:10562000C26822F00802C260C26801F008031A438F
:10563000C26070474FF04070E1EE100A7047000002
:105640006056000800000020340000006C41000893
:105650009456000834000020B40800008841000877
:1056600000000000000000000000204100000000D9
:10567000000000000014014000100140000801403B
:105680000400000000100000008000000000000086
:04569000000E2707DA
:04000005080041317D
:00000001FF
