:020000040800F2
:10000000881C0020D1010008850300087D0300083A
:100010008103000877030008E104000800000000E5
:10002000000000000000000000000000B303000812
:100030007B03000800000000B1030008B5030008BE
:10004000EB010008EB010008EB010008EB010008E0
:10005000EB010008EB010008EB010008EB010008D0
:10006000EB010008EB010008EB010008EB010008C0
:10007000EB010008EB010008EB010008EB010008B0
:10008000EB010008EB010008EB010008EB010008A0
:10009000EB010008EB010008EB010008EB01000890
:1000A000EB010008EB010008EB010008EB01000880
:1000B000EB010008EB010008EB010008EB01000870
:1000C000EB010008EB010008EB010008EB01000860
:1000D000EB010008EB010008EB010008EB01000850
:1000E000EB010008EB010008EB010008EB01000840
:1000F000EB010008EB010008EB010008EB01000830
:10010000EB010008EB010008EB010008EB0100081F
:100110006D040008EB010008EB010008EB0100088A
:10012000EB010008EB010008EB010008EB010008FF
:1001300000F002F800F03CF80AA090E8000C8244BD
:100140008344AAF10107DA4501D100F031F8AFF29A
:10015000090EBAE80F0013F0010F18BFFB1A43F0A5
:1001600001031847CC150000EC150000103A24BF1D
:1001700078C878C1FAD8520724BF30C830C144BF0C
:1001800004680C607047000000230024002500264E
:10019000103A28BF78C1FBD8520728BF30C148BFEA
:1001A0000B6070471FB501F0BEFA1FBD10B510BD42
:1001B00000F0A8F81146FFF7F5FF00F077FE00F019
:1001C000C6F803B4FFF7F2FF03BC00F0CDF800005F
:1001D0000948804709480047FEE7FEE7FEE7FEE7DB
:1001E000FEE7FEE7FEE7FEE7FEE7FEE70448054917
:1001F000054A064B70470000C5030008310100089E
:1002000088140020881C00208818002088180020EE
:10021000032A40F2308010F0030C00F0158011F832
:10022000013BBCF1020F624498BF11F801CB00F80A
:10023000013B38BF11F8013BA2F1040298BF00F85E
:1002400001CB38BF00F8013B11F0030300F0288018
:10025000083AC0F0088051F8043B083A51F804CB42
:10026000A0E80810F5E7121D5CBF51F8043B40F808
:10027000043BAFF30080D20724BF11F8013B11F813
:1002800001CB48BF11F8012B24BF00F8013B00F857
:1002900001CB48BF00F8012B70477047704770478B
:1002A00010B5203AC0F00B80B1E81850203AA0E811
:1002B0001850B1E81850A0E81850BFF4F5AF5FEA45
:1002C000027C24BFB1E81850A0E8185044BF18C9F8
:1002D00018C0BDE810405FEA827C24BF51F8043B9F
:1002E00040F8043B08BF7047D20728BF31F8023BF3
:1002F00048BF11F8012B28BF20F8023B48BF00F887
:10030000012B7047754600F02BF8AE460500694694
:10031000534620F00700854618B020B5FFF766FF6A
:10032000BDE820404FF000064FF000074FF00008F6
:100330004FF0000B21F00701AC46ACE8C009ACE877
:10034000C009ACE8C009ACE8C0098D46704710B5DB
:100350000446AFF300802046BDE81040FFF731BFF0
:10036000004870472814002001491820ABBEFEE762
:1003700026000200704700BFFEE7704700BFFEE79F
:1003800000BFFEE77047000010B5002807DA0A0733
:10039000140E054A00F00F031B1FD45403E00A0794
:1003A000130E024A135410BD18ED00E000E400E003
:1003B0007047704702480068401C01490860704758
:1003C0000000002008B52648006840F47000244969
:1003D00008602448006840F001002249086000BF1E
:1003E0002048006800F002000028F9D000BF1D4836
:1003F000406840F080001B4948600020009002E007
:100400000098401C009000985028F9D31548406887
:1004100040F09000134948600020009002E00098EE
:10042000401C009000985028F9D300BF0D48406848
:1004300020F003000B494860084600680A4908405C
:10044000084908604FF41F0088600846006820F4DF
:100450008020086000204860C86200F043FF08BDAB
:1004600088ED00E000100240FFFFF6FE10B51649CF
:10047000164801F028F9B8B11349144801F01AF9E7
:100480001348007880B913480088B0F5006F0BD28C
:100490000E4801F097F8C1B20E4802880088401C4F
:1004A0000C4B18800C4881540C49084801F00BF99A
:1004B00048B1064801F086F80849044801F0FAF806
:1004C00001200349087010BD05030500004C0040E1
:1004D000060000200400002028000020040304007F
:1004E00000BFFEE72DE9F04105460E460024AF1996
:1004F00005E015F8011BA0B201F002F80446BD4268
:10050000F7D3A0B2002100F0FBFF044620460021F3
:1005100000F0F6FF04462046BDE8F08100B5034632
:10052000012200BF00F00CF802465B1E012A01D137
:10053000002BF7D1012A00D10422104600BD000093
:1005400000200A49C96801F0010109B101200CE04D
:100550000649C96801F0100109B1032005E003490B
:10056000C96801F0040101B1022070470020024077
:1005700000B50346012200BF00F00CF802465B1EE6
:10058000012A01D1002BF7D1012A00D10422104603
:1005900000BD000000200A49C96C01F0010109B149
:1005A00001200CE00649C96C01F0100109B10320DB
:1005B00005E00349C96C01F0040101B10220704754
:1005C0000020024070B504460E46254600F0E4F8CF
:1005D00040F2053000F022F84FF4417000F01EF8B0
:1005E00040F2023000F01AF8254610E0284600F0EC
:1005F0003BF840F2053000F011F84FF4417000F084
:100600000DF840F2023000F009F805F50065A01978
:10061000A842EBD800F012F870BD0000064A02EBC9
:100620009011096800F01F0301229A401143024B08
:1006300003EB9012116070470020024008480069E7
:1006400040F080000649086106480088B0F5007F48
:1006500004D90846006D40F080000865704700002E
:1006600000200240E0F7FF1F30B505463348008800
:10067000B0F5007F44D9324885421CD23148FFF79B
:100680004DFF0446002C56D12F48006940F002006F
:100690002D49086108464561006940F04000086145
:1006A0002848FFF73BFF04462748006920F0020076
:1006B000254908613FE02348FFF75AFF0446002C14
:1006C00039D12148006D40F002001F4908650846F5
:1006D0004565C06900F0020008B1084645611A4846
:1006E000006D40F04000184908651648FFF740FFCC
:1006F00004461548006D20F00200134908651AE011
:100700001048FFF70BFF0446ACB90F48006940F0F2
:1007100002000D49086108464561006940F040004B
:1007200008610848FFF7FAFE04460748006920F010
:10073000020005490861204630BD0000E0F7FF1FB8
:10074000FFFF07080000FF0F002002402DE9F041E5
:1007500004460E46174625464FF0000800F01CF8E8
:1007600013E057F82810284600F038F840F205301A
:10077000FFF754FF4FF44170FFF750FF40F2023093
:10078000FFF74CFF2D1D08F10108A019A842E8D879
:10079000FFF754FFBDE8F0810C48006900F08000CD
:1007A00020B10B48094948600A4848600A48008857
:1007B000B0F5007F09D90548006D00F0800020B138
:1007C00003480249486403484864704700200240D7
:1007D00023016745AB89EFCDE0F7FF1F70B50446F5
:1007E0000D46002627480088B0F5007F31D92648FD
:1007F000844217D22548FFF791FE0646002E3ED1CF
:100800002348006940F001002149086125601F4824
:10081000FFF784FE06461E48006920F001001C49CF
:1008200008612CE01948FFF7A3FE06463EBB1848B6
:10083000006D40F001001649086525601348FFF778
:1008400097FE06461248006D20F001001049086529
:1008500015E00E48FFF762FE064686B90C480069AF
:1008600040F001000A49086125600848FFF756FE7C
:1008700006460748006920F0010005490861304636
:1008800070BD0000E0F7FF1FFFFF07080000FF0F2B
:1008900000200240F0B5044616460025002201F073
:1008A0000F0501F0100747B1042E05D145F00305EF
:1008B000E76B1F43E76300E0354300201EE001279C
:1008C00087401F40C7B122684FEA800C0F2707FA04
:1008D0000CF7BA43870005FA07F73A43282904D1F1
:1008E000012787401F40676105E0482903D10127A0
:1008F00087401F4027612260471CB8B20828DED31A
:10090000082022E0012787401F40E7B16268A0F17C
:1009100008074FEA870C0F2707FA0CF7BA43A0F134
:100920000807BF0005FA07F73A43282904D1012731
:1009300087401F40676105E0482903D101278740B0
:100940001F4027616260471CB8B21028DAD3F0BD9F
:1009500002469068084008B1012070470020FCE77B
:1009600010B500F0F1FC0349086000F0EDFC02490D
:10097000086010BD14000020180000200025EDA024
:1009800000F0A8FDF4A000F0A5FD3BE24FF40061EB
:10099000F94800F021FDF9490880F9480078052858
:1009A0007ED2DFE800F0039BEFEEED00F548006833
:1009B00000F0F8FCB0F57A7F06D300F0C5FCF149F1
:1009C0000860432000F076FDEF48006800F0EAFC84
:1009D00043F69821884205D300F046FA00F0B4FCB3
:1009E000E9490860E5480088852876D1E248007822
:1009F000012872D1E048407800286ED1DE48807826
:100A0000FF286AD1DC484078E04908708021DA4844
:100A1000C01CFFF767FD0546D8480088401ED64930
:100A2000095CD6480088801ED34A105C41EA002049
:100A3000A84252D10324002623E0CF48005D10B91C
:100A40000126601C84B2D6B1CB48005D302811DB92
:100A5000C948005D39280DDCCD48006800EB8000F6
:100A60004000CB490860C448005D3038096808443C
:100A7000C7490860C048005D202800D106E0601C1E
:100A800084B2BE480088401FA042D6DC00BFC048E8
:100A90000068B0F5F02F1FD8062000F00BFD00E035
:100AA000AEE1BB480168BB48FFF78CFDB748007852
:100AB000401CB64908700120B1490870B548B649D4
:100AC0000860432000F0F6FC00F03EFCAD490860F1
:100AD00000F03AFCAC49086000BF92E1A7480088EA
:100AE000002877D0A4480078012875D1A348008851
:100AF000852803D00020A249087082E19E484078F2
:100B0000A2490978884203D000209D49087078E105
:100B10009E480078401C9D49087080219648C01C62
:100B2000FFF7E0FC054695480088401E9249095CA5
:100B300092480088801E904A105C41EA0020A8423A
:100B400003D000208E4908705BE193480068803034
:100B50009049401A8E490968884214D880228649F3
:100B6000C91C8E48FFF754FB8C4A80218A480068D4
:100B7000FFF7ECFD884800688030874908601EE078
:100B800032E10DE1B9E0844800884FF48041401A19
:100B90007F490988081A84B284B122467649C91C63
:100BA0007E48FFF735FB7D4A21467B480068FFF70A
:100BB000CDFD7948006820447749086000BF0620D1
:100BC00000F078FC00F0C0FB6E49086000F0BCFB50
:100BD0006D49086090E0FFE767480078022879D106
:100BE0006648008840F20541884203D000206449ED
:100BF000087006E16048407864490978884203D06B
:100C000000205F490870FCE060480078401C5F49A4
:100C100008704FF480615848C01CFFF763FC05461C
:100C200056480088401E5449095C54480088801E7C
:100C3000514A105C41EA0020A84203D000205049EC
:100C40000870DEE05448006800F580605149401AA1
:100C50004F490968884214D84FF480624649C91C3C
:100C60004E48FFF7D5FA4D4A4FF480614A48006874
:100C7000FFF76CFD4848006800F580604649086051
:100C80001BE0454800884FF48041401A40490988DC
:100C9000081A84B284B122463749C91C3F48FFF77D
:100CA000B7FA3E4A21463C480068FFF74FFD3A48F4
:100CB000006820443849086000BF062000F0FAFBB5
:100CC00000F042FB2F49086000F03EFB2E4908600F
:100CD00012E0FFE72848007804280DD1152000F025
:100CE000E9FB02202649087000F02EFB2549086028
:100CF00000F02AFB2449086083E020480088B8B14E
:100D00001D480078042813D1062000F0D3FB64208E
:100D100000F002FB432000F0CDFB032018490870CF
:100D200000F012FB1749086000F00EFB164908603E
:100D300067E000000D0A4D6F746F7220436F6E7490
:100D4000726F6C204744333220426F6F746C6F6156
:100D50006465720D0A000000506C65617365207354
:100D6000656E642066696C65207769746820594DEA
:100D70004F44454D0D0A00002808002008000020BF
:100D80001100002014000020180000201000002096
:100D90000C000020004000081C000020281000204B
:100DA00019480088852810D1062000F083FB042014
:100DB000164908704FF47A7000F0AEFA14A000F0F3
:100DC00089FB00F0C1FA1C4908601B48006800F06C
:100DD000E9FAB0F57A7F06D300F0B6FA1649086052
:100DE00004200A4908700CE014A000F073FB00F026
:100DF0003BF816A000F06EFB00200449087000E0EC
:100E000000BF00BFC2E50000080000201100002064
:100E10000D0A50726F6772616D6D696E6720436F66
:100E20006D706C6574656420537563636573736678
:100E3000756C6C79210D0A00140000204A756D70E4
:100E400020746F204150500D0A0000000D0A4A75B1
:100E50006D7020746F20415050204572726F722166
:100E600021210D0A0000000010B50D4800680D4951
:100E70000840B0F1005F11D100F038FA00F0A2FA9A
:100E800007484068084908600549086880F30888F1
:100E900000BF05480068804700BFFEE710BD0000A6
:100EA000004000080000FE2F20000020002400F079
:100EB00051FA00F0C1FAFFF753FD40F2036000F071
:100EC00057F940F2046000F053F940230322042153
:100ED0001348FFF7DFFC8023032204211048FFF7AB
:100EE000D9FC0123032204210E48FFF7D3FC402143
:100EF0000B48FFF72DFD044680210948FFF728FD28
:100F00002044C4B201210748FFF722FD2044C4B2A7
:100F10000CB1FFF7A9FF01E0FFF730FDFCE700008F
:100F2000000C01400010014000F01F02012191401F
:100F3000024A431142F823107047000080E100E0AC
:100F40002DE9F04103460D46164600240027A04631
:100F50002A48006800F4E060B0F5E06F03D100BFFC
:100F60004FF0040830E02548006800F4E060B0F578
:100F7000C06F03D101274FF0030825E01F48006828
:100F800000F4E060B0F5A06F02D10227B8461BE084
:100F90001A48006800F4E060B0F5806F03D10327C1
:100FA0004FF0010810E01548006800F4E060B0F56B
:100FB000407F03D104274FF0000805E04FF4A06004
:100FC00000F020F80227B846C7F1040005FA00F443
:100FD000C8F104010F20C8403040044324010848F0
:100FE000C45403F01F01012088405911890001F108
:100FF000E021C1F80001BDE8F08100000CED00E047
:1010000000E400E002490143024A11607047000019
:101010000000FA050CED00E02DE9F04F8CB007461A
:1010200000200A904AA090E8004CC068CDE905BEB7
:10103000CDF810A007900FF21C1ADAE9000ACDE9EA
:10104000020A0FF2101ADAE9000ACDE9000A444850
:101050004068C0F381000B900B9820B1012804D0A8
:1010600002283FD103E03F4A3EE03E4A3CE03C4894
:10107000406800F4803CBCF5803F12D13848C06A1B
:1010800000F08048B8F1000F01D1364B00E0364B3C
:101090003348406800F40039B9F5003F02D15B08DD
:1010A00000E0324B2E484068C0F383412C48406832
:1010B00000F0006008B141F010012948406800F0DC
:1010C000804008B141F020010F2901D2891C06E0BF
:1010D0000F2903D33E2901D8491C00E03F2103FB1F
:1010E00001F201E01F4A00BF00BF1D484068C0F385
:1010F000031504A8465D22FA06F419484068C0F3B7
:10110000022502A8465D24FA06F0099014484068BA
:10111000C0F3C2251DF8056024FA06F0089037B127
:10112000012F06D0022F06D0032F0AD106E00A9223
:1011300008E00A9406E009980A9003E008980A90EB
:1011400000E000BF00BF0A980CB0BDE8F08F0000BF
:101150000000000000000000010203040607080967
:101160000010024000127A00006CDC0200093D0011
:10117000064A02EB9011096800F01F0301229A4011
:101180001143024B03EB90121160704700100240B4
:10119000064A02EB9011096800F01F0301229A40F1
:1011A0009143024B03EB9012116070470010024014
:1011B000064A02EB9011096800F01F0301229A40D1
:1011C0001143024B03EB9012116070470010024074
:1011D000002000213F4A126842F480323D4B1A60E1
:1011E00000BF401C3B4A126802F4003119B94FF6A7
:1011F000FF729042F5D1374A126802F400320AB900
:1012000000BFFEE7334AD26942F08052314BDA61C7
:10121000314A126842F440422F4B1A602D4A5268FC
:101220002C4B5A601A4652685A601A46526842F469
:1012300080625A601A46526822F440325A601A4656
:10124000526842F440325A601A465268234B1A40A0
:10125000204B5A601A465268214B1A431D4B5A6064
:101260001A46126842F080721A6000BF194A12686A
:1012700002F00072002AF9D0174A126842F4803254
:10128000154B1A6000BF144A526802F48032002ADB
:10129000F9D0114A126842F400320F4B1A6000BFB5
:1012A0000D4A526802F40032002AF9D0094A526805
:1012B00022F00302074B5A601A46526842F00202BB
:1012C0005A6000BF034A526802F00802002AF9D0AF
:1012D000704700000010024000700040FFFFC3B7DD
:1012E0000000340810B5FFF773FF10BD4FF0FF305A
:1012F00000F01F0201219140064A430942F82310E1
:1013000000BF4FF0E020006920F001004FF0E02125
:101310000861704780E100E010B5034600F014F862
:10132000014600F011F80246002400BF00F00CF85E
:1013300002468A4201D3501A02E0C1F1FF30104444
:1013400004469C42F2D310BD01480068704700007B
:101350000000002010B5124800684FF47A71B0FB0D
:10136000F1F4601EB0F1807F01D301200FE0601E18
:101370004FF0E02148610F214FF0FF30FFF704F8F4
:1013800000204FF0E021886107200861002008B1AB
:1013900000BFFEE70021481EFEF7F6FF10BD00006B
:1013A0002400002000B501460023FFF7CDFF0246D0
:1013B0008A4201D3501A02E0C1F1FF3010440346C3
:1013C000184600BD10B53420FFF7AEFD014800F00F
:1013D0004BF910BD004C004070B506460C46002588
:1013E00012480078F8B100201049087010480088B1
:1013F00084420BD30E4805882A460E493046FEF734
:1014000007FF00200A490880284670BD254622466D
:1014100008493046FEF7FCFE05480088001B0449D9
:1014200008802846F1E70020EFE7000006000020D2
:10143000040000202800002010B540F20460FFF7EF
:1014400097FE40F21370FFF793FE4FF48063032280
:1014500018211648FFF71EFA4FF4006303220421F7
:101460001248FFF717FA012200213420FFF768FD28
:101470000F4800F0B1F84FF461210D4800F05AF820
:1014800004210B4800F03BF90821094800F041F91C
:1014900040F20531064800F000F94FF4417104486C
:1014A00000F0FBF8024800F0E4F810BD0010014025
:1014B000004C004010B5044600BF0721044800F06E
:1014C000DDF80028F9D02146014800F080F810BD71
:1014D000004C004070B5044600250BE000BF07211A
:1014E000064800F0CBF80028F9D0615D034800F011
:1014F0006EF86D1C605D0028F0D170BD004C00409E
:1015000010B503460C46194644F4807200BF4900EA
:10151000520002F4807000B1491C01F4803010B117
:1015200041F22100414002F480300028EFD088B21F
:1015300010BD00002DE9F04704460D460027B846CF
:10154000B94600261D49601A8C421CD006DC1C4896
:10155000204470B1B0F5806F1FD10FE0B0F5806FFF
:1015600016D0B0F56C4F18D10320FFF755FD074694
:1015700014E00220FFF750FD07460FE00220FFF7BE
:101580004BFD07460AE00220FFF746FD074605E04F
:101590000220FFF741FD074600E000BF00BF07EB58
:1015A0005500B0FBF5F64FF6F07006EA000806F0BD
:1015B0000F0948EA0900A060BDE8F087004C004030
:1015C00000BCFFBF01464868C0F308007047C1F384
:1015D000080242607047000010B504462049601AB6
:1015E0008C4228D006DC1F48204490B1B0F5806FB3
:1015F00033D117E0B0F5806F26D0B0F56C4F2CD109
:1016000040F20E30FFF7D4FD40F20E30FFF7C0FD80
:1016100024E040F21140FFF7CBFD40F21140FFF70C
:10162000B7FD1BE040F21240FFF7C2FD40F212404E
:10163000FFF7AEFD12E040F21340FFF7B9FD40F2B4
:101640001340FFF7A5FD09E040F21440FFF7B0FD9D
:1016500040F21440FFF79CFD00E000BF00BF10BD4A
:10166000004C004000BCFFBFC16821F40051C160C4
:101670007047C16841F40051C160704710B502461F
:1016800002EB9110006801F01F040123A3401840F1
:1016900008B1012010BD0020FCE710B500EB91124D
:1016A000126801F01F040123A3401A4300EB9113B9
:1016B0001A6010BDC1F3044301229A40D24300EBEB
:1016C00091531A60704770B5024600230024C1F39D
:1016D0008910105801F01F060125B54000EA0503E6
:1016E00002EB91500068C1F304460125B54000EAC1
:1016F000050414B10BB1012070BD0020FCE7C268E5
:1017000022F00402C260C26801F004031A43C260FE
:101710007047C26822F00802C260C26801F0080384
:101720001A43C26070474FF04070E1EE100A7047F4
:101730005017000800000020280000006C0100087D
:101740007817000828000020601C000088010008AD
:101750000000000000000000000000000000000089
:101760000000000000000000000000000000000079
:0817700000000000000E270735
:0400000508000131BD
:00000001FF
