:020000040800F2
:10400000A009002045410008A54800088348000891
:10401000A1480008B5460008214A00080000000039
:10402000000000000000000000000000D34800086D
:104030008148000800000000D1480008D548000869
:104040005F4100085F4100085F4100085F410008D0
:104050005F4100085F4100085F4100085F410008C0
:104060005F4100085F4100085F4100085F410008B0
:104070005F4100085F4100085F4100085F410008A0
:104080005F4100085F4100086D4600085F4100087D
:104090005F4100085F4100085F4100085F41000880
:1040A0008D4900085F4100085F4100085F4100083A
:1040B0005F410008C1490008DD4900085F41000870
:1040C0005F4100085F4100085F4100085F41000850
:1040D0005F4100085F4100085F4100085F41000840
:1040E0005F4100085F4100085F4100085F41000830
:1040F0005F4100085F4100085F4100085F41000820
:104100005F4100085F4100085F4100085F4100080F
:104110005F4100085F4100085F4100085F410008FF
:104120005F4100085F4100085F4100085F410008EF
:10413000DFF80CD000F04CFA004800470963000893
:10414000A00900200648804706480047FEE7FEE732
:10415000FEE7FEE7FEE7FEE7FEE7FEE7FEE7FEE737
:10416000E5480008314100089FED1A1AF5EE000AF3
:1041700040EE010ABDEEE00AF5EEC00A10EE100AAC
:10418000F1EE10FA38BF401E00EE100A1349F7EEA8
:10419000001AB8EEC00A30EEC00ADFED0F0A20EEBA
:1041A000200AFCEEC00A10EE900AC0F3080000EEF0
:1041B000900A01EB8000F8EE600A90ED011A70EEB3
:1041C000600A90ED000A71EEE01A21EE800A00EE1E
:1041D000810A704783F9223E000000448489000868
:1041E000DFED1D0AB5EEC00A60EE200ABDEEE01A52
:1041F00011EE100AF1EE10FA38BF401E00EE100A60
:10420000B8EEC00A30EEC00ADFED140A20EE200A34
:10421000B4EEE00AF1EE10FAA8BF30EE600AFCEE50
:10422000C00A0F49F7EE001A10EE900AC0F308001A
:1042300000EE900A01EB8000F8EE600A90ED011AA2
:1042400070EE600A90ED000A71EEE01A21EE800A2D
:1042500000EE810A7047000083F9223E000000440E
:104260008489000840EA01039B0703D009E008C9DC
:10427000121F08C0042AFAD203E011F8013B00F82B
:10428000013B521EF9D270472DE9FE4F81EA03042B
:1042900004F0004421F0004100944FF0000B23F0A3
:1042A000004350EA01045ED052EA03045BD0C3F33A
:1042B0000A54C1F30A552C44A4F2F3340194A0FB30
:1042C0000254C1F3130141F48011C3F3130343F407
:1042D000801301FB024400FB034E840A970A44EA60
:1042E000815447EA8357A4FB076802958D0A05FBB2
:1042F00007854FEA932C04FB0C542705029D4FEAD7
:10430000065847EA1637B5EB08056EEB070C870E23
:10431000920E47EA811742EA8312A7FB0201B6EB2D
:104320000B0164EB00042B0D43EA0C335E1844EBE5
:104330001C50DA465146E7FB0201C5F313044FEA6D
:104340000B3343EA14534FEA0432019C43EA060359
:10435000A4F10C040294009CCDE900B400F0EAF84A
:1043600003B0BDE8F08F00200146F9E72DE9F04DDC
:1043700081EA030404F0004B21F0004514464FF09D
:10438000000A23F0004150EA050220D054EA01025D
:104390001DD0C5F30A570246C5F31303C1F313003A
:1043A000C1F30A5640F4801543F48013A7EB0608C6
:1043B000101BD64608F2FD3873EB050002D308F156
:1043C000010801E092185B41B8F1000F03DA002008
:1043D0000146BDE8F08D00204FF48011064684466A
:1043E0000EE0171B73EB050705D3121B63EB0503E8
:1043F00006434CEA010C49084FEA300092185B4131
:1044000050EA0107EDD152EA030012D082EA04001B
:1044100083EA0501084305D0101BAB4106D20122F7
:10442000002306E000224FF0004302E06FF001029B
:1044300053101AEB06004CEB085110EB0A0041EB4D
:104440000B01BDE8F04D00F066B800F0004230F01E
:1044500000400AD0C10D01F56071C0F3160042EAB8
:104460000151C208400711437047002001467047C0
:1044700001F0004330B421F0004150EA010206D0BF
:104480000A0DA2F56072C1F31301002A02DC30BCF0
:1044900000207047440F44EAC104C100E01830BC5A
:1044A00000EBC250AFF300800029A8BF7047401C4A
:1044B000490008BF20F00100704710B4B0FA80FC3A
:1044C00000FA0CF050EA010404BF10BC704749B177
:1044D000CCF1200421FA04F411FA0CF118BF0121E7
:1044E00021430843A3EB0C01CB1D4FEA00614FEAC7
:1044F000102042BF002010BC704700EBC350104496
:104500000029A4BF10BC7047401C490008BF20F020
:10451000010010BC704710B5141E73F1000408DAD6
:10452000401C41F1000192185B411A4301D120F077
:10453000010010BD2DE9F04D92469B4611B1B1FA34
:1045400081F202E0B0FA80F22032904600F052F898
:1045500004460F4640EA0A0041EA0B0153465A4618
:10456000084313D0114653EA010019D0C8F14002A4
:10457000504600F04EF805460E4650465946424613
:1045800000F038F8084305D0012004E02046394601
:10459000BDE8F08D0020054346EAE0762C43374322
:1045A0000A986305E40AA0EB08000022FD0A44EA29
:1045B00047540A3002D500200146E9E701051019E9
:1045C0006941DDE9084500196941BDE8F04DA2E700
:1045D000064C074D06E0E06840F0010394E8070050
:1045E00098471034AC42F6D3FFF7A6FD8891000837
:1045F000A8910008202A04DB203A00FA02F10020EA
:1046000070479140C2F1200320FA03F31943904010
:104610007047202A04DB203A21FA02F0002170477B
:1046200021FA02F3D040C2F120029140084319461A
:10463000704730B58C1810F8012B12F00F0301D120
:1046400010F8013B120906D110F8012B03E010F815
:10465000015B01F8015B5B1EF9D101E001F8013B50
:10466000521EFBD1A142E6D3002030BD10B52DED86
:10467000048B84B09FED0D0AB0EE408A9FED0B0ACB
:10468000F0EE408A9FED090AB0EE409A00200090BB
:1046900001900290039000240421054800F0B9FB2A
:1046A00001F08CFE04B0BDEC048B10BD00000000D6
:1046B0000024014000BFFEE710B501221146022090
:1046C00000F0B2F810BD10B503464FF6FF7404EACF
:1046D000C3304FF4F04404EAC1242043C2F30A0477
:1046E000204310BD10B500224FF48061034801F053
:1046F00031FB012003F0DCFA10BD0000000C01408A
:1047000010B501229102034801F024FB012003F0BF
:10471000CFFA10BD000C01402DE9F0410025002624
:104720000024002740F2026002F0A4FF40F2036080
:1047300002F0A0FF40F2036002F09CFF02F0F6FFDF
:10474000102303221946204801F009FB4FF480632F
:10475000032210211D4801F002FB04230322102133
:104760001A4801F0FCFA00224FF48061174801F06A
:10477000F1FA01221021144801F0ECFA012204217F
:10478000124801F0E7FA022003F092FA0022042115
:104790000E4801F0DFFAFFF7A5FFFFF7B1FFFFF7C3
:1047A0008BFF032000F024F80446012000F018F8E5
:1047B000012000F00DF840F2FF30844201D000BF2C
:1047C000FEE7BDE8F081000000080140000C014058
:1047D00010B50446A201C021062000F025F810BD46
:1047E00010B5044622460F21052000F01DF810BD2B
:1047F00070B504460025002221460120FFF763FF23
:10480000064600221021074801F0A4FA304602F0C3
:10481000C1FF054601221021024801F09BFAC5F3B1
:104820000A0070BD000801402DE9F04107460D4621
:1048300016463846FFF7DCFF0446AC4334432146B6
:10484000384600F003F8BDE8F081000070B504467A
:104850000D462A4621460020FFF735FF0646002276
:104860001021064801F076FA304602F093FF01224B
:104870001021024801F06EFA70BD000000080140EE
:10488000704700BFFEE7000010B50121034801F0AA
:10489000C4FA08B9002010BD0120FCE70010014057
:1048A00000BFFEE77047000010B5002807DA0A07CE
:1048B000140E054A00F00F031B1FD45403E00A072F
:1048C000130E024A135410BD18ED00E000E400E09E
:1048D0007047704702480068401C014908607047F3
:1048E000DC02002008B52648006840F47000244926
:1048F00008602448006840F001002249086000BFB9
:104900002048006800F002000028F9D000BF1D48D0
:10491000406840F080001B4948600020009002E0A1
:104920000098401C009000985028F9D31548406822
:1049300040F09000134948600020009002E0009889
:10494000401C009000985028F9D300BF0D484068E3
:1049500020F003000B494860084600680A490840F7
:10496000084908604FF41F0088600846006820F47A
:104970008020086000204860C86203F095F908BDF7
:1049800088ED00E000100240FFFFF6FE10B5202287
:1049900000210A4803F0C4FB20220121074803F04C
:1049A000BFFB20220221054803F0BAFB8021034807
:1049B00003F0D3FD022001F07FFC10BD002C01406C
:1049C00010B50221044803F0CBFD012803D10221D8
:1049D000014803F0C2FD10BD0004004010B50024E2
:1049E00040210D4803F0BCFD012814D140210A48A4
:1049F00003F0B3FD084803F02EFC04B20021064882
:104A000003F02DFC002C03DD01200449087002E0B6
:104A100002200249087010BD00080040E00200209A
:104A200000BFFEE702E008C8121F08C1002AFAD141
:104A300070477047002001E001C1121F002AFBD11E
:104A40007047000010B540F2096002F013FE01202B
:104A500002F02EFD002000F0DFF9012211022548AE
:104A600000F06DFA00220221224800F068FA0021CD
:104A7000204800F0E1F8042202211E4800F0B9F8B5
:104A800000230E2219461B4800F05CF900230F2278
:104A90000121184800F056F9002308220221154888
:104AA00000F050F9002303221146124800F04AF9A1
:104AB0004FF4805202210F4800F0F1F80122022148
:104AC0000C4800F0CDF802210A4800F0A2F90421B8
:104AD000084800F09EF90421064800F084F90548D2
:104AE00000F0B5F8012003F0E3F8024800F06CF89C
:104AF00010BD00000024014010B500F0F3F8FFF7EE
:104B0000A1FF10BD10B540F2046002F0B3FD40F209
:104B1000046002F0AFFD40F2026002F0ABFD08233A
:104B200004220021234801F01AF904231A46002127
:104B3000204801F014F90823042200211E4801F046
:104B40000EF940F20A6002F095FD002002F0B0FC80
:104B5000002000F061F90021184800F06DF80122F2
:104B60001146164800F045F84FF460220121134821
:104B700000F095F801221146104800F071F80F4836
:104B800000F065F8012003F093F80C4800F01CF8E1
:104B9000012003F08DF80A480A490978425C012394
:104BA0000021064800F062F90121044800F0B8F93C
:104BB00010BD000000100140000801400028014025
:104BC0000100002000000020816841F008018160A0
:104BD00000BF816801F008010029FAD1816841F025
:104BE0000401816000BF816801F004010029FAD14D
:104BF000704730B5012902D002291AD10CE0C36AEE
:104C000023F47003C362C36A541E4FF4700505EAAF
:104C100004542343C3620DE0836B23F44013836386
:104C2000836B541E4FF4401505EA045423438363F9
:104C300000E000BF00BF30BD21B1826842F40062D5
:104C4000826003E0826822F40062826070478168BB
:104C500001F0010119B9816841F0010181607047DB
:104C600072B101F001031BB1836843F480138360C8
:104C700001F0020393B1836843F4004383600DE0C5
:104C800001F001031BB1836823F48013836001F0FA
:104C900002031BB1836823F400438360704701293A
:104CA00002D0022910D107E0836823F460238360D7
:104CB00083681343836008E0836823F4E0438360E0
:104CC00083681343836000E000BF00BF7047CA439E
:104CD000026070470246002013680B4003B10120B8
:104CE0007047000010B540F2046002F0C3FC40F2CF
:104CF000046002F0BFFC40F2036002F0BBFC40F233
:104D0000026002F0B7FC1023042200210A4801F0DF
:104D100026F8202304220021074801F020F801236F
:104D200004220021054801F01AF80823042200217A
:104D3000034801F014F810BD00100140000C0140C0
:104D400000080140F0B50C46876BC7F30156856B30
:104D5000E71CBF1B07EB870C1F2707FA0CF7BD43A7
:104D6000E71CBF1B07EB870702FA07F73D43856384
:104D70000A2A0DD2016902EB420C072707FA0CF749
:104D8000B94302EB420703FA07F73943016112E026
:104D9000122A10D2C168A2F10A0707EB470C0727B5
:104DA00007FA0CF7B943A2F10A0707EB470703FA22
:104DB00007F73943C160F0BD02460B4633B1012B02
:104DC00006D0022B06D0032B08D105E0D16B07E0FB
:104DD000116C05E0516C03E0916C01E0002100BF13
:104DE00000BF88B2704701F001021AB1426842F078
:104DF0004002426001F002021AB1426842F0200211
:104E0000426001F004021AB1426842F0800242603E
:104E10007047CA43026070470549096821F4702150
:104E2000034A116011460968014311607047000090
:104E30000424014010B5014600230022032911DAA1
:104E400000BF0AE001EB0110074C04EB4000801C9E
:104E500030F812000344501C82B2102AF2DBC3F374
:104E60000F1010BD0020FCE754030020F0B51D46D4
:104E700006290CD2436B01EB81071F26BE40B343CA
:104E800001EB810602FA06F63343436322E00C2964
:104E90000ED2036B8E1F06EB86071F26BE40B34360
:104EA0008E1F06EB860602FA06F63343036311E013
:104EB00010290FD2C36AA1F10C0606EB86071F2644
:104EC000BE40B343A1F10C0606EB860602FA06F6D5
:104ED0003343C3620A2A0CD2046902EB4207072655
:104EE000BE40B44302EB420605FA06F634430461C1
:104EF00011E0122A0FD2C468A2F10A0606EB460797
:104F00000726BE40B443A2F10A0606EB460605FAA0
:104F100006F63443C460F0BD0146C86C80B27047E9
:104F200001F001021AB1826842F48002826001F04D
:104F300002021AB1826842F4001282607047AAB17C
:104F400001F480731BB1436843F48073436001F440
:104F500080631BB1436843F48063436001F0020344
:104F6000CBB1836843F00203836014E001F48073E3
:104F70001BB1436823F48073436001F480631BB169
:104F8000436823F48063436001F002031BB183682C
:104F900023F002038360704710B502212A48FFF70F
:104FA00099FE01284ED102212748FFF790FE26489E
:104FB000FFF7B2FF2549097801EB0111244A02EB02
:104FC0004101891C214A127802EB0212204B33F86E
:104FD000122021F812001D48007800EB001019463D
:104FE00031F81000401C1949097801EB01111A46EB
:104FF00022F811001548007800EB0010114631F836
:105000001000102806DB00201049097801EB01117F
:1050100022F811000D480078401C0C490870084621
:105020000078032801DB002008700A480749097846
:10503000425C012300210448FFF718FF01210248C8
:10504000FFF76EFF10BD00000028014000000020A7
:10505000540300200100002010B52DED068BF0EE6A
:10506000408AB0EE680AFFF7BBF8B0EE409AB0EEA7
:10507000680AFFF779F8F0EE409A364890ED000A9A
:10508000FFF7AEF8F0EE40AA324890ED000AFFF7C5
:105090006BF8B0EE40AA29EE0A0A09EEEA0AB0EE71
:1050A000408A2D4890ED000A30EE080A80ED000A93
:1050B0009FED2A0A28EE000AD0ED000A9FED281A7B
:1050C00001EE200A274880ED000A224890ED000AF0
:1050D0002448D0ED000A9FED241A00EE810A1D48F5
:1050E00080ED000A90ED000ADFED200AB4EEE00A40
:1050F000F1EE10FA08DD90ED000ADFED1C0A30EE4B
:10510000600A80ED000A0FE0124890ED000AB5EE4B
:10511000C00AF1EE10FA07D290ED000ADFED130A93
:1051200030EE200A80ED000A0E4890ED000A10488B
:10513000D0ED000A70EE600A90ED000A9FED0D1AA6
:1051400001EE200A80ED000A90ED000ABDEC068B0E
:1051500010BD0000280300202C030020000096440E
:105160000100B441300300206F128338DB0FC940C7
:10517000340300200AD7A33BF0EE400A204890ED0C
:10518000000A30EEC00A1F4880ED000A1C48C0ED3E
:10519000000A1C4890ED000A9FED1B1AB4EEC10AEC
:1051A000F1EE10FA0DD290ED000A9FED181A30EED4
:1051B000010A80ED000A16480068401C1449086086
:1051C00016E0104890ED000A9FED121AB4EEC10AE5
:1051D000F1EE10FA0CDD90ED000A9FED0C1A30EEA6
:1051E000410A80ED000A0A480068401C084908602E
:1051F000044890ED000A9FED081A20EE010A70475E
:10520000F802002010030020DB0F49C0DB0FC9406B
:1052100024030020DB0F494000007A46D0ED061A37
:1052200090ED072A71EEC21AF0EE610AC0ED090A8C
:10523000D0ED001A90ED012A42EE201AB0EE610A7C
:10524000D0ED041AF4EEC01AF1EE10FA04D2D0ED4B
:10525000041AC0ED081A0DE0D0ED051AF4EEC01ADC
:10526000F1EE10FA04DDD0ED051AC0ED081A01E0E8
:1052700080ED080AD0ED081A30EE611AD0ED001A60
:1052800090ED022A42EE201A90ED032A42EE411AD6
:10529000C0ED001A704700001E480078C8B31D48D2
:1052A000808843F67F61884205D21A488088401C76
:1052B0001849888011E0174890ED020ADFED160AC0
:1052C000B4EEE00AF1EE10FA07D290ED020ADFED3B
:1052D000130A30EE200A80ED020A114890ED000A10
:1052E0000C48D0ED020A30EE200A0D4880ED000A8D
:1052F00090ED000ADFED0B0AB4EEE00AF1EE10FAD1
:1053000007DD90ED000ADFED070A30EE600A80ED60
:10531000000A70476C050020A692AB3ACBB0AF33C1
:10532000A0040020DB0FC94030B501460020AF23A8
:105330001EE0C41804EBD4756A10354C04EB8204EB
:10534000B4F902408C4201DA531E10E0304C04EBF9
:105350008204B4F902408C4201DD501C07E02C4C61
:1053600034F9224000EE104AB8EEC00A30BD00BF4A
:105370009842DEDD38B9264AB2F9002000EE102A44
:10538000B8EEC00AF2E7AF2B07D1214AB2F9BC222E
:1053900000EE102AB8EEC00AE8E7421E1C4C34F9B1
:1053A000222000EE102AB8EEC00AF0EE400A421E9B
:1053B00004EB8202B2F9022000EE102AB8EEC00A15
:1053C000B0EE401A224632F9202000EE102AB8EE44
:1053D000C00AF0EE401A224602EB8002B2F9022027
:1053E00000EE102AB8EEC00AB0EE402A71EEE02AB4
:1053F00000EE101AB8EE400A30EE410A22EE800AA2
:1054000032EE413AC0EE032A32EEA00AAEE70000C7
:105410001C00002010B500F0F3F800F045FA00F091
:1054200007F80221014800F092F910BD0064004025
:1054300000B589B006A9002000F03DFA01A90120BD
:1054400000F039FA40F2197002F014F91F4800F028
:105450003FF800208DF81C0001208DF81D00002071
:105460008DF81E0001208DF81F0000208DF820000F
:105470008DF821008DF818008DF8190006208DF8A0
:105480001A0001208DF81B000C20ADF8220006A99F
:105490000E4800F0CBF80020ADF80E00ADF810007B
:1054A0000120ADF812000020ADF80400ADF80600B0
:1054B000ADF80800ADF80A00ADF80C0001208DF839
:1054C000140001A800F014F809B000BD0064004009
:1054D00010B504460548844207D140F2194002F055
:1054E000E9F840F2194002F0D5F810BD0064004020
:1054F00010B50021837A012202FA03F13E4A1268B4
:1055000042F001023C4B1A603B4A1C3212688A434B
:10551000394B1C331A60C289DAB9374A0C32126827
:105520008A43354B0C331A60C288344B03EA02427B
:1055300043881A434389304C403444F833208288EE
:105540002E4B03EA024203881A43438904EBC30348
:105550005A60C289012A1BD1274A0C3212680A43B9
:10556000254B0C331A600288244B03EA024243881D
:105570001A434389204C403444F8332082881F4B1F
:1055800003EA0242C3881A43438904EBC3035A6007
:1055900082893AB9184A121D12688A43164B1B1D9C
:1055A0001A6006E0144A121D12680A43124B1B1DB2
:1055B0001A6002893AB9104A143212688A430E4BB3
:1055C00014331A6006E00C4A143212680A430A4B7C
:1055D00014331A60027C012A06D1074A1C32126871
:1055E0000A43054B1C331A60034A126822F0010279
:1055F000014B1A6010BD0000006600400000FFFF74
:1056000010B540F2026002F035F84FF40063032257
:105610004821054800F0A3FB4FF4805303221821D2
:10562000014800F09CFB10BD0008014070B5024627
:105630004FF6FF730020146824F00204146014680D
:1056400044F00104146000E05B1E546804F001049F
:105650000CB9002BF8D1546804F001040CB90020F7
:1056600074E00C784FF0404505EA84744D784FF0B3
:10567000407606EA05652C438D784FF4702606EADD
:1056800005452C43CD784FF4E00606EA05552C433A
:105690004D896D1EC5F309052C43D4610C79012C8D
:1056A00004D1146844F08004146003E0146824F00A
:1056B000800414604C79012C04D1146844F0400437
:1056C000146003E0146824F0400414608C79012C09
:1056D00004D1146844F02004146003E0146824F03A
:1056E00020041460CC79012C04D1146824F0100437
:1056F000146003E0146844F0100414600C7A012C68
:1057000004D1146824F00804146003E0146844F021
:10571000080414604C7A012C04D1146844F0040489
:10572000146003E0146824F004041460146824F086
:10573000010414604FF6FF7300E05B1E546804F030
:1057400001040CB1002BF8D103B1012070BD4269F6
:105750000A4342617047000030B502460B46002103
:10576000906800F08060B0F1806F00D110E0906828
:1057700000F00060B0F1006F01D1012108E09068F5
:1057800000F08050B0F1805F01D1022100E00321E0
:10579000032901D1032030BD02F5C07000EB0110D8
:1057A000006800F0010402F5C07000EB0110046015
:1057B000187A88B918883B4C04EA40505C7A204338
:1057C00002F5C07404EB01142468204302F5C07490
:1057D00004EB0114206013E06FF00704586804EA3A
:1057E000C0001C7A20435C7A204302F5C07404EBAD
:1057F00001142468204302F5C07404EB01142060F6
:1058000002F5C27000EB0110006820F00F0402F5F1
:10581000C27000EB0110046002F5C27000EB0110D1
:1058200000689C7A204302F5C27404EB01142060E6
:10583000987B4FF07F4404EA00605C7B4FF47F0567
:1058400005EA044420431C7B2D1205EA042420436E
:10585000DC7A204302F5C47404EB01142060987CC8
:105860002C0404EA00605C7C2D0205EA0444204319
:105870001C7C2D1205EA04242043DC7B204302F526
:10588000C67404EB0114206002F5C07000EB011037
:10589000006840F0010402F5C07000EB01100460E4
:1058A000084678E70000E0FF10B5012211461420F9
:1058B00001F0BEFA10BD10B5024609B900BFFEE7FF
:1058C00032B1012A16D0022A20D0032A41D12EE07B
:1058D00000234B71CB718B7140F2FF334B8100235E
:1058E0000B724B7002238B700023CB700B714B72C9
:1058F0000B7030E00123CB8100230B740B810B80F4
:105900004B808B80CB808B814B8124E0002005E095
:10591000002401F10B031C54431CD8B20828F7D310
:1059200000238B724B600B724B720B6013E00020F4
:1059300005E0002401F10B031C54431CD8B20828D5
:10594000F7D300238B724B600B72CB744B720B60DE
:1059500001E000BFFEE700BF10BD000090ED030AAC
:1059600080ED060A90ED030ADFED080A20EE200A1A
:10597000D0ED040AB0EE001A60EE810A9FED031A22
:1059800000EE810A80ED070A704700003ACD133F10
:1059900030B502460C46002112E012F8010B4140DE
:1059A00006230BE001F0200020B1032080EA410033
:1059B000C1B201E04806010E581EC3B2002BF1DC53
:1059C000201EA4F10105ECB2E7D101F03F0030BD8B
:1059D00070B505460C462146284600F01FF908B967
:1059E00000BFFEE704EB8400810005F10800405889
:1059F00040F0010104EB8400820005F108008150B1
:105A000070BD70B505460C462146284600F006F9E3
:105A100008B900BFFEE704EB8400810005F108002F
:105A2000405820F0200104EB8400820005F10800BA
:105A3000815070BD70B504460D462946204600F0E1
:105A4000EDF808B900BFFEE705EB8500810004F121
:105A50000800405820F0010105EB8500820004F1A8
:105A600008008150002105EB8500820004F1080048
:105A7000815005EB8500820004F10C00815005EB9C
:105A80008500820004F11000815005EB8500820042
:105A900004F1140081506068AA000F21914008436E
:105AA000606070BD30B503461C688D0002FA05F5D4
:105AB0002C400CB1012000E0002030BD2DE9F04168
:105AC00004460D4616462946204600F0A7F808B9B8
:105AD00000BFFEE705EB8500820004F1100031688D
:105AE000815005EB8500820004F11400B1688150FB
:105AF000308A81B205EB8500820004F10C008150F0
:105B000005EB8500810004F10800475827F47C5715
:105B1000F1687068084371690843074305EB850025
:105B2000810004F108004750307E01280ED105EBBA
:105B30008500810004F10800405840F0400105EB69
:105B40008500820004F1080081500DE005EB85001E
:105B5000810004F10800405820F0400105EB850069
:105B6000820004F108008150707E01280ED105EBFF
:105B70008500810004F10800405840F0800105EBE9
:105B80008500820004F1080081500DE005EB8500DE
:105B9000810004F10800405820F0800105EB8500E9
:105BA000820004F108008150B07E70B905EB8500D9
:105BB000810004F10800405820F0100105EB850039
:105BC000820004F1080081500DE005EB85008100A2
:105BD00004F10800405840F0100105EB85008200F8
:105BE00004F108008150BDE8F08170B505460C460F
:105BF0002146284600F012F808B900BFFEE704EB82
:105C00008400810005F10800405820F4804104EB35
:105C10008400820005F10800815070BD0246012019
:105C2000034B9A4202D1042900DD00207047000096
:105C30000004024008B900BFFEE700210160416096
:105C400001768160C1604176016181764161704772
:105C5000024908780021014A11707047E0020020D3
:105C600010B540F2036001F005FD40F2036001F061
:105C700001FD40F2046001F0FDFC402303220421F9
:105C8000074800F06CF8802303220421044800F048
:105C900066F8012303220421024800F060F810BDD9
:105CA000000C01400010014010B5012211461E20D9
:105CB00001F0BEF8FFF7D4FF00F004F800F082FA1C
:105CC00010BD000000B587B040F2027001F0D2FCB8
:105CD0001F4802F0C7FA0020ADF80400ADF8060036
:105CE000ADF808004FF6FF7003900020ADF80A00F1
:105CF0008DF8100001A9164802F034FB0020ADF821
:105D000014000120ADF816000020ADF81800102096
:105D1000ADF81A0005AA00210D4802F06FFB05AA94
:105D200001210B4802F06AFB5021094802F009FCEE
:105D300000231A460321064802F02AFC40210448A9
:105D400002F007FC024802F0FBFA07B000BD0000B9
:105D5000000800400AB1016100E041617047F0B500
:105D6000044616460025002201F00F0501F0100739
:105D700047B1042E05D145F00305E76B1F43E763E8
:105D800000E0354300201EE0012787401F40C7B1D7
:105D900022684FEA800C0F2707FA0CF7BA438700F6
:105DA00005FA07F73A43282904D1012787401F4005
:105DB000676105E0482903D1012787401F4027611B
:105DC0002260471CB8B20828DED3082022E0012751
:105DD00087401F40E7B16268A0F108074FEA870CCF
:105DE0000F2707FA0CF7BA43A0F10807BF0005FA1E
:105DF00007F73A43282904D1012787401F406761EC
:105E000005E0482903D1012787401F4027616260D0
:105E1000471CB8B21028DAD3F0BD0246906808409B
:105E200008B1012070470020FCE70246D068084016
:105E300008B1012070470020FCE70000F0B50A46D9
:105E4000002300240021002500F00046B6F1004F99
:105E500002D11D4EF16901E01B4E7168C0F303458C
:105E600083B200F44016B6F5401F08D121F0E0617E
:105E7000154E766826F0E066134F7E6012E000F45F
:105E80008016B6F5801F06D1032606FA05F4A14355
:105E900041F0E06106E0460D360103FA06F6B14333
:105EA00041F0E06122B1460D360103FA06F63143B6
:105EB00000F00046B6F1004F02D1034EF16101E05F
:105EC000014E7160F0BD00000000014010B540F2CD
:105ED000046001F0CFFB40F2046001F0CBFB40F224
:105EE000046001F0C7FB4FF4C06001F0C3FB012167
:105EF0000C48FFF7A3FF4023032204210A48FFF7C1
:105F00002EFF8023032204210748FFF728FF4FF4C8
:105F10008073032204210448FFF721FF00F006F8F4
:105F200010BD0000000C1A000010014000B587B041
:105F300040F2017001F09EFB314802F093F97720A6
:105F4000ADF804000020ADF80600ADF808004FF6EB
:105F5000FF7003900020ADF80A008DF8100001A931
:105F6000274802F0FFF90020ADF814000320ADF837
:105F700016000020ADF81800ADF81A0005AA00219F
:105F80001F4802F03BFA0020ADF814000320ADF8E2
:105F900016000020ADF81800ADF81A0005AA01217E
:105FA000174802F02BFA0020ADF814000320ADF8DA
:105FB00016000020ADF81800ADF81A0005AA02215D
:105FC0000F4802F01BFA40210D4802F0BAFA0421F2
:105FD0000B4802F0FDFA0021094802F0B6F9084822
:105FE00001F044FF0221064802F0B7FA02210448FA
:105FF00002F0AFFA024802F0A3F907B000BD0000BA
:10600000000400409FED040A80ED000A9FED020AA3
:1060100080ED080A704700000000000010B5002263
:106020001146182000F004FF02220021122000F087
:10603000FFFE012211461D2000F0FAFE10BD90ED7A
:106040000A0AD0ED020A20EE200AD0ED0B0A90EDEC
:10605000011A00EEC10A80ED0C0A90ED0A0AD0ED9B
:10606000010A20EE200AD0ED0B0A90ED021A00EE94
:10607000810A80ED0D0A704770B50546344800EB83
:10608000051420688047002840D12079052802DACD
:10609000052020715AE020790A2803DA2079401C73
:1060A000207153E0A07A38B90120A07205EB4501B8
:1060B000491CC8B200F068F82089002846DDE08855
:1060C000218988420FDAE088401CE080E08821893D
:1060D00088423BDB05EB4501C91CC8B200F054F80F
:1060E0000120607332E0E07A00282FDD207B401C25
:1060F0002073207BE17A884228DB0020207305EBA7
:106100004501491CC8B200F03FF81FE0207905287E
:1061100002DD0520207116E02079002803DD2079BA
:10612000401E20710FE0A07A01280CD10020A0723F
:10613000607B10B10020607305E005EB4501891C10
:10614000C8B200F021F80020E080207370BD00008C
:10615000FC0300200B4880780A4AD278904201D193
:1061600000207047074882788078401C054B987063
:106170001846815C8078022802DB00201A46907065
:106180000846EEE7E10200200749CA78C978491CB1
:10619000054BD97019468854C978022902DB0021C1
:1061A0001A46D17070470000E102002010B50024AB
:1061B00000BF04E02046FFF75FFF601CC4B2012C63
:1061C000F8DB10BD00200021134A9170D17000BF90
:1061D0001CE06421114A02EB0012118102210F4AD6
:1061E00002EB0012117100210C4A02EB00129172B5
:1061F0000A4A02EB0012D172084A02EB0012117334
:10620000064A02EB00125173411CC8B20128E0DBC0
:106210000349024A11607047E1020020FC0300209C
:106220008948000810B540F2056001F023FA40F2F9
:10623000046001F01FFA40F2026001F01BFA4FF413
:10624000C06001F017FA01211848FFF7F7FD18495F
:106250000B681849032208681021FFF780FD1449D4
:106260004B681449032248681021FFF778FD104954
:106270008B681049032288681021FFF770FD0C4AD3
:1062800011680C4A10680122FFF764FD084A516842
:10629000084A50680122FFF75DFD054A9168054AEA
:1062A00090680122FFF756FD10BD0000000230008B
:1062B0001000002004000020034951F82010034A78
:1062C00052F8202051617047100000200400002087
:1062D00070B504460A4A52F824100A4A52F82400BB
:1062E000FFF7A3FDC0F10100C5B2054A52F8241022
:1062F000044A52F824002A46FFF72CFD70BD000026
:10630000100000200400002011481249086062B605
:1063100001F0ECFCFFF786FF02F00CFAFEF7F2FB4F
:10632000FFF778F8FFF7C0FCFEF7F6F900F0FCFC89
:1063300001F004FD00F092FC9FED070A074880ED94
:106340002C0A00F013FF01E001F0FCFCFCE7000068
:106350000040000808ED00E0A4F06045A004002023
:1063600010B5FEF719FE10BD0020124981F82B0070
:10637000012081F82A00002081F82C0040F2AB7047
:106380000D49086000204860487208720820887231
:106390000020C872A12108480173A2214173A321E2
:1063A0008173A421C173A5210174A6214174A72181
:1063B000817470470C0400203C04002000B587B0B5
:1063C0009FEDFB0A8DED060A9FEDF90A8DED050A9A
:1063D0009FEDF70A8DED040A0020009001900290D5
:1063E0000390F44800F0B6FCF3480078012808D187
:1063F000F04890ED000ADFEDF10A30EEC00A80EDC2
:10640000000AEC4890ED000AFEF7B6FEEC4880ED7D
:10641000000AEC480078B8B1E648D0ED000AEA4836
:10642000007800EE100AB8EE400A20EE800AE74835
:1064300080ED000A02F080FAE44890ED000AFEF7D1
:106440000BFEE34880ED000ADE480078B8B1D94879
:10645000D0ED000ADC48007800EE100AB8EE400AE1
:1064600020EE800AD94880ED000A02F065FAD7488C
:1064700090ED000AFEF7F0FDD54880ED000AD54802
:1064800090F82B0007287BD2DFE800F00409576B57
:106490007BFDFC000120CF4981F82B00BAE2CD48FA
:1064A000C068B0F5806F2CD2CA48C068401CC9498A
:1064B000C8600021C848FEF77FFCC649088001215A
:1064C000C548FEF779FCC34948800221C248FEF75F
:1064D00073FCC049888008460088C04909680844A0
:1064E000BE490860BB484088BD4909680844BC49AA
:1064F0000860B8488088BB4909680844B949086001
:106500001AE0B448C068B5490968B1FBF0F0B14978
:10651000C8800846C068B2490968B1FBF0F0AD49CF
:1065200008810846C068AF490968B1FBF0F0A94985
:106530004881022081F82B006CE2A648006947F6EA
:10654000FF41884205D2A3480069401CA149086167
:1065500006E004209F4981F82B00012000F08AFB0F
:1065600058E29C4890F82A00012808D100F0FEFD6E
:10657000012000F07FFB0520964981F82B0049E2BD
:1065800047E200219448FEF717FC92490880012158
:106590009148FEF711FC8F49488002218E48FEF792
:1065A0000BFC8C4988800846008800EE100AF8EE43
:1065B000400A0846C08800EE100AB8EE400A30EEE5
:1065C000C00ADFED890A20EE200A884880ED030A20
:1065D0000846408800EE100AF8EE400A0846008996
:1065E00000EE100AB8EE400A30EEC00ADFED7E0A77
:1065F00020EE200A7D4880ED040A0846808800EEDF
:10660000100AF8EE400A0846408900EE100AB8EE7B
:10661000400A30EEC00ADFED740A20EE200A73480B
:1066200080ED050A084690F82C00062874D2DFE8B1
:1066300000F00316507BF2F76D480088401C6C494F
:106640000880084600884BF67F31884206D3012037
:10665000604981F82C00002066490880E2E0664825
:1066600090ED000A6548D0ED000A30EE200A62483D
:1066700080ED000A5F480088401C5E49088008469B
:10668000008801E0C4E110E1142821DB002008802B
:10669000594890ED000AB5EEC00AF1EE10FA03DD9C
:1066A00000205749087002E00120554908705448FD
:1066B0000078414908700220464981F82C004B4877
:1066C00090ED000A4F4880ED000A00204E49086016
:1066D000A8E04D48006803281FD3444890ED000A05
:1066E0004848D0ED000AB4EEE00AF1EE10FA04D208
:1066F00035480078401C344908703C4890ED000A49
:10670000404880ED000A4048006804280BD303206D
:10671000304981F82C0006E083E0344890ED000A0F
:10672000384880ED000A7DE02248D0ED000A264876
:10673000007800EE100AB8EE400A20EE800A2348E6
:1067400080ED000A02F0F8F8284890ED000A1F4892
:10675000D0ED000A30EE600A2C4880ED000A02F00D
:10676000EBF82B4890ED000A2848D0ED000A30EEF7
:10677000200A274880ED000A1E480088401C1D4959
:10678000088008460088142810DB214890ED000A94
:10679000F3EE040A80EE201A1C4880ED001A012056
:1067A0000849087004200B4981F82C003AE037E0D2
:1067B00000000000F402002004030020DB0FC940A9
:1067C0001C0300200703002005030020FC0200201A
:1067D000180300200C04002000240140E8020020DF
:1067E000EC020020F00200200000843CA004002005
:1067F0000E0300200C0300201403002010030020CF
:1068000006030020200300202403002000030020B2
:1068100008030020FFE70320804981F82B0001E0F6
:1068200000E000BF00BF01207D49087000F014FDAA
:106830007C4890ED000A8DED060A069800907A4893
:1068400090ED000A8DED050A0598019077480078D3
:1068500000EE100AB8EE400A8DED040A049802908A
:1068600080208DF80E007F208DF80F0010216846E3
:1068700002F014F86C4B93ED2F0ABCEEC00A10EE38
:10688000103A9AB2684B93ED2E0ABCEEC00A10EE95
:10689000103A99B2644B93ED2D0ABCEEC00A10EE8B
:1068A000103A98B200F02AFAB4E05C4890F82A0056
:1068B00038B9002000F0DEF90320584981F82B0098
:1068C000A8E000215A48FEF777FA544908800121D0
:1068D0005748FEF771FA5149488002215448FEF7A3
:1068E0006BFA4E4988800846008800EE100AF8EEE0
:1068F000400A0846C08800EE100AB8EE400A30EEA2
:10690000C00A5FED470A20EE200A474880ED030ADF
:106910000846408800EE100AF8EE400A0846008952
:1069200000EE100AB8EE400A30EEC00A5FED520ADF
:1069300020EE200A3C4880ED040A0846808800EEDC
:10694000100AF8EE400A0846408900EE100AB8EE38
:10695000400A30EEC00A5FED5C0A20EE200A3248A1
:1069600080ED050A00202E490870324890ED000A9B
:106970003148D0ED000A30EE200ADFED300A30EE6B
:10698000200A294880ED000A01F0D6FF2C4890ED3E
:10699000000A234880ED090A00F05EFC214890EDD2
:1069A000000A8DED060A069800901F4890ED000A37
:1069B0008DED050A05980190214890ED000A8DEDB6
:1069C000040A0498029080208DF80E007F208DF834
:1069D0000F001021684601F061FF134B93ED2F0A61
:1069E000BCEEC00A10EE103A9AB20F4B93ED2E0A8D
:1069F000BCEEC00A10EE103A99B20B4B93ED2D0A83
:106A0000BCEEC00A10EE103A98B200F077F901E03F
:106A100000E000BF00BF07B000BD00000C04002074
:106A20006C050020F4020020A004002005030020D3
:106A300000240140FC02002000030020C3F5C83FF1
:106A40001C0300207047000070B5002400250020C2
:106A5000FEF7F0F9464988820120FEF7EBF9444938
:106A6000C8820220FEF7E6F941490883888AFEF7CA
:106A70005BFC3F4880ED070AC08A00EE100AB8EEC2
:106A8000400ADFED3C0A20EE200A394880ED080A72
:106A9000008BB0F5006F0FDD3548008BA0F500606E
:106AA00000EE100AB8EEC00ADFED330A20EE200A2D
:106AB0002F4880ED090A04E09FED300A2C4880ED54
:106AC000090AFFF7C5F80446FFF770FBFFF742FB22
:106AD00005462B484078012835D1294890ED090A10
:106AE000DFED280A20EE200ABCEEC00A10EE100AE4
:106AF0001F490885012C12D1214890ED030ADFEDD2
:106B0000220AB4EEE00AF1EE10FA1CD290ED030A6C
:106B1000F7EE000A30EE200A80ED030A13E0022CA3
:106B200011D1174890ED030ADFED180AB4EEE00A20
:106B3000F1EE10FA07DD90ED030AF7EE000A30EEF1
:106B4000600A80ED030A022D0DD1094890F82A0051
:106B500020B10020064981F82A0005E001200449FF
:106B600081F82A0000E000BF00F014F870BD0000BA
:106B70000C0400200303883C0000843C000000005B
:106B80006C050020EBC9184163149D43368DA74165
:106B90007047704710B500242A4890ED070ADFEDD2
:106BA0002A0AB4EEE00AF1EE10FA00D20BE0254812
:106BB00090ED070ADFED250A30EE200ABCEEC00A90
:106BC00010EE100AC4B22248C4721E4890ED090AA1
:106BD000F2EE040A20EE200ABCEEC00A10EE100A03
:106BE000C1B21B480173174890ED080AF1EE080A7C
:106BF00020EE200ABCEEC00A10EE100AC1B2144802
:106C00004173144890ED090AF2EE040A20EE200ABE
:106C1000BCEEC00A10EE100AC1B20D4881730948DB
:106C200090F828100A48C1730648008D01120848E0
:106C3000017400214174817401460748FEF78CFD00
:106C400010BD00000C040020000020C20000204203
:106C50003C040020A00400200064004010B5FFF7B1
:106C6000DDF900F011FB00F053FBFFF72FF9FDF702
:106C700043FF10BD10B50446012C1ED10122022194
:106C80001D4801F0BAFA012211461B4801F0B5FA7D
:106C900001220021184801F0B0FA0422022116480E
:106CA00001F0F8F804220121134801F0F3F804225E
:106CB0000021114801F0EEF81DE0002202210E48EB
:106CC00001F09BFA002201210B4801F096FA002204
:106CD0001146094801F091FA00220221064801F00C
:106CE000D9F800220121044801F0D4F8002211460D
:106CF000014801F0CFF810BD002C014070B50446EA
:106D00000D46164622460221064801F036FA2A466A
:106D10000121044801F031FA32460021014801F016
:106D20002CFA70BD002C014010B500F04DFD40F272
:106D3000046000F09FFC0223032210210448FFF7A7
:106D40000EF8012202210248FFF704F810BD0000EE
:106D50000010014070B52DED088B82B0054600246F
:106D60000020019000269FED2C0AB0EE408A002200
:106D700002212A48FEF7EEFFFF2000F057FD44EA0B
:106D80000044FF2000F052FD44EA0024FF2000F000
:106D90004DFD0443012202212048FEF7DBFFA00C39
:106DA0008DF80400C4F307308DF80500C4F3871094
:106DB0008DF80600032101A8FEF7EAFD064604F05F
:106DC0003F00B04225D1A40A00EE104AB8EE400AB6
:106DD00010EE100AFDF739FB41EC1B0B9FED100B79
:106DE00053EC102BFDF750FA41EC1A0B9FED0E0BF4
:106DF00053EC102BFDF7BAFA41EC190BFDF738FBF9
:106E000008EE100A85ED008A012002B0BDEC088B67
:106E100070BD0020F9E700000000000000100140F4
:106E2000FCDEA63FFB211940000000000000D0401E
:106E30002DE9F04103460D46164600240027A046E2
:106E40002A48006800F4E060B0F5E06F03D100BFAD
:106E50004FF0040830E02548006800F4E060B0F529
:106E6000C06F03D101274FF0030825E01F480068D9
:106E700000F4E060B0F5A06F02D10227B8461BE035
:106E80001A48006800F4E060B0F5806F03D1032772
:106E90004FF0010810E01548006800F4E060B0F51C
:106EA000407F03D104274FF0000805E04FF4A060B5
:106EB00000F020F80227B846C7F1040005FA00F4F4
:106EC000C8F104010F20C8403040044324010848A1
:106ED000C45403F01F01012088405911890001F1B9
:106EE000E021C1F80001BDE8F08100000CED00E0F8
:106EF00000E400E002490143024A116070470000CB
:106F00000000FA050CED00E090ED060AD0ED020A53
:106F100020EE200AD0ED070A90ED011A00EE810A5A
:106F200080ED080A90ED070AD0ED020A20EE200A53
:106F3000D0ED060A90ED011A00EEC10A80ED090AB3
:106F40007047000010B52DED028B80480078A8B383
:106F50007E48807838B100207C4988709FED7C0A9B
:106F6000084680ED060AB6EE000A784880ED070A6A
:106F7000784890ED090A80ED1F0A744890ED070AE1
:106F8000744880ED1E0A6030FEF748F9714890EDB4
:106F9000200A80ED0B0A90ED080A80ED150A6B4877
:106FA00090ED060A6B4880ED140A3830FEF736F98A
:106FB000684890ED160A80ED0A0AC4E0FFE79FEDED
:106FC000640AF0EE408A9FED620AB0EE408A5F48A4
:106FD000807890B100205D4988709FED5F0A084677
:106FE00080ED040A9FED5A0A80ED060AB6EE000A0B
:106FF000584880ED220A0A208862544890ED030A1E
:10700000D0ED040A30EE600A80ED050A90ED050A25
:10701000DFED520AB4EEE00AF1EE10FA08DB90ED73
:10702000040ADFED4F0A30EE200A80ED040A17E073
:10703000464890ED050ADFED4B0AB4EEE00AF1EEAA
:1070400010FA08D890ED040ADFED450A30EE600A28
:1070500080ED040A04E03D4890ED030A80ED040A47
:107060003A4890ED030ADFED3C0AB4EEE00AF1EE97
:1070700010FA03D290ED030A80ED040A3348816AC6
:10708000806A401C314A90620A2917D300201146B9
:107090008862084690ED090A2E4880ED290A0846C4
:1070A00090ED040A2B4880ED280A8830FEF7B6F8E8
:1070B000284890ED2A0A254880ED070A254890EDDA
:1070C000080A80ED150A214890ED060A214880ED56
:1070D000140A3830FEF7A2F81E4890ED160A80ED2B
:1070E0000A0A90ED0A0A20EE000AF0EE408A9FEDAF
:1070F0001E0A30EE680AB0EE408AB0EE480A7030E0
:10710000B5EEC00AF1EE10FA04DBF1EEC00AC0EDF4
:10711000000A04E0DFED0E0AC0ED000A00BF0D48D2
:1071200090ED090A80ED1F0A084890ED070A09480A
:1071300080ED1E0A6030FEF771F8064890ED200AD7
:1071400080ED0B0A00BFBDEC028B10BD6C0500206A
:1071500000000000A0040020368DA741DB0FC93DD0
:107160007CD9A03CDB0FC9BD48E17A3F10B500F0E7
:1071700017F801200749487008708870002088803F
:107180009FED050A084680ED020A9FED040A80ED96
:10719000030A10BD6C0500200000000063149D432D
:1071A00010B59FED270A274880ED0F0A9FED260AAC
:1071B00080ED100AB6EE000A80ED110A9FED230A59
:1071C00080ED120A90ED120AB1EE400A80ED130A2A
:1071D0003830FEF717FF9FED1A0A1A4880ED190A9A
:1071E0009FED190A80ED1A0AB6EE000A80ED1B0A1F
:1071F0009FED160A80ED1C0A90ED120AB1EE400ACE
:1072000080ED1D0A6030FEF7FDFE9FED110A0D486E
:1072100080ED230A9FED0F0A80ED240AB6EE000AE6
:1072200080ED250AB0EE080A80ED260A90ED120ADC
:10723000B1EE400A80ED270A8830FEF7E3FE10BD6C
:107240000AD7233CA004002017B7D13858FF7F3F4E
:107250000AD7A33CBD37063610B50A48FEF77EFBB9
:107260000848FFF751FEFEF717F8FFF76BFE0548D9
:1072700000F049FA0348FEF7E2FE024800F01EFB68
:1072800010BD0000A004002010B540F2026000F024
:10729000F1F940F2036000F0EDF94FF4C06000F046
:1072A000E9F94FF48073032218211748FEF757FDC0
:1072B0004FF40073032218211348FEF750FD4FF4DA
:1072C0008063032218211048FEF749FD4FF4005354
:1072D000032218210D48FEF742FD4FF4804303229C
:1072E00018210A48FEF73BFD4FF400430322182102
:1072F0000648FEF734FD4FF480530322042103486F
:10730000FEF72DFD10BD000000080140000C0140FB
:1073100000B58BB040F20B6000F0ACF9634800F0B0
:10732000A1FF0020ADF810004020ADF812000020B1
:10733000ADF8140040F6A56006900020ADF81600E8
:107340008DF81C0004A9594801F00CF80120ADF893
:1073500020000420ADF822000020ADF82400ADF894
:107360002600ADF82800ADF82A0008AA00214F48F1
:1073700000F0E0FD08AA01214C4800F0DBFD08AA5E
:1073800002214A4800F0D6FD08AA0321474800F030
:10739000D1FD00221146454800F0EFFE6022002199
:1073A000424800F0BDFE08220021404800F0F8FEEF
:1073B000002201213D4800F0E0FE602201213B480F
:1073C00000F0AEFE08220121384800F0E9FE00225C
:1073D0000221364800F0D1FE60220221334800F03D
:1073E0009FFE08220221314800F0DAFE0698421E74
:1073F00003212E4800F0C1FE602203212B4800F03B
:107400008FFE00220321294800F0CAFE002202213B
:10741000264800F0F2FE00220221244800F03AFD46
:1074200000220121214800F0E8FE002201211F482E
:1074300000F030FD002211461C4800F0DEFE002264
:1074400011461A4800F026FD4FF40060ADF8000028
:107450004010ADF80200B820ADF804000020ADF8EF
:1074600006004FF48040ADF808000020ADF80A0097
:107470004FF48050ADF80C0069460C4800F0FBFC5E
:1074800001210A4801F078F80121084801F061F86B
:107490008021064801F05DF81021044801F059F8F8
:1074A000024800F04DFF0BB000BD0000002C014071
:1074B000184B5968184B1940164BDA6A22F00052E3
:1074C0000C2820D2DFE800F0060708091F0C1F0D6A
:1074D0001516171800BF00BF00BF41EA803113E046
:1074E00000BF20F004004FF0805343EA803319437B
:1074F0000AE000BF00BF00BF20F00C0041EA80316D
:1075000042F0005200E000BF00BF024B5960DA6257
:107510007047000000100240FF3FFFEF2DE9F04FE1
:107520008CB0074600200A904AA090E8004CC06842
:10753000CDE905BECDF810A007900FF21C1ADAE9CC
:10754000000ACDE9020A0FF2101ADAE9000ACDE9C1
:10755000000A44484068C0F381000B900B9820B1AA
:10756000012804D002283FD103E03F4A3EE03E4AD2
:107570003CE03C48406800F4803CBCF5803F12D1C0
:107580003848C06A00F08048B8F1000F01D1364B8E
:1075900000E0364B3348406800F40039B9F5003F4D
:1075A00002D15B0800E0324B2E484068C0F38341B3
:1075B0002C48406800F0006008B141F010012948F3
:1075C000406800F0804008B141F020010F2901D24D
:1075D000891C06E00F2903D33E2901D8491C00E08D
:1075E0003F2103FB01F201E01F4A00BF00BF1D481D
:1075F0004068C0F3031504A8465D22FA06F4194852
:107600004068C0F3022502A8465D24FA06F00990FE
:1076100014484068C0F3C2251DF8056024FA06F03E
:10762000089037B1012F06D0022F06D0032F0AD1C0
:1076300006E00A9208E00A9406E009980A9003E03E
:1076400008980A9000E000BF00BF0A980CB0BDE89F
:10765000F08F0000000000000000000001020304A1
:10766000060708090010024000127A00006CDC02D4
:1076700000093D00064A02EB9011096800F01F0363
:1076800001229A401143024B03EB901211607047A4
:1076900000100240064A02EB9011096800F01F0337
:1076A00001229A409143024B03EB90121160704704
:1076B00000100240064A02EB9011096800F01F0317
:1076C00001229A401143024B03EB90121160704764
:1076D0000010024010B5FEF743FE10BD10B5FFF7D5
:1076E000B1F910BD10B5FFF7AFF910BD704710B577
:1076F000FFF74EFA10BD10B50020FEF7E9FDFFF7C9
:1077000048FA10BD704710B50446D4ED000AB0EE3B
:10771000600AFCF765FD84ED010AD4ED000AB0EEC5
:10772000600AFCF721FD84ED020A10BD00B587B0A8
:1077300040F20260FFF79EFF40F20C60FFF79AFFF5
:10774000A023032218211148FEF709FB402303223E
:1077500004210E48FEF703FB002001904FF48270D5
:1077600000904FF4006002900120059040020390C9
:1077700028200690002004906946054800F085F80E
:10778000034800F06FF807B000BD0000000801409A
:107790000030014010B5044600BF0221094800F046
:1077A0006CF80028F9D02146064800F064F800BFC4
:1077B0000121044800F061F80028F9D0014800F0E8
:1077C00056F810BD0030014000B587B040F20360AC
:1077D000FFF750FF40F20F70FFF74CFF01211048F8
:1077E000FEF72CFB3823032218210E48FEF7B7FAC8
:1077F000002001904FF48270009000200290012040
:1078000005904002039008200690002004906946ED
:10781000054800F03AF8044800F024F807B000BD2D
:1078200000023000000C0140003C004010B504464E
:1078300000BF02210A4800F020F80028F9D02146B4
:10784000074800F018F800BF0121054800F015F8BE
:107850000028F9D0024800F00AF8C0B210BD0000BC
:10786000003C0040016841F0400101607047014662
:10787000C86880B27047C16070470246906808408F
:1078800008B1012070470020FCE702460020106884
:1078900000F441500B6818434B6818438B68184339
:1078A000CB6818430B6918434B6918438B6918431D
:1078B0001060D36923F40063D36170479FEDB34A2E
:1078C000B0EE442A9FEDB14AF0EE442A9FEDAF4A54
:1078D000F0EE443A9FEDAD4AB0EE440A9FEDAB4A5C
:1078E000F0EE440A9FEDA94AB0EE441A9FEDA74A74
:1078F000F0EE441A9FEDA54AB0EE443A90ED0D4AE1
:10790000B0EE442A90ED0D4AF1EE444AB0EE005A32
:1079100084EE854AD0ED0C4A9FED9D5A05EE244A2F
:10792000F0EE442A90ED0D4AF1EE444AB0EE005AD2
:1079300084EE854AD0ED0C4A9FED955A05EE644AD7
:10794000F0EE443AF5EEC03AF1EE10FA7DDDF5EED8
:10795000C02AF1EE10FA29DD052180F8C01090ED63
:107960002C4A24EE224AB0EE440A90ED2C4A24EE32
:10797000234AF0EE440A90ED2C4A34EE404A34EEAD
:10798000604AF0EE004A84EE245AB0EE451A31EE19
:10799000004AF0EE441A31EEA04AB0EE443AC0ED8F
:1079A0002D1A80ED2E1A80ED2F3AEDE0B5EEC02AAB
:1079B000F1EE10FA29DD032180F8C01090ED2C4A79
:1079C00024EE234AB0EE440A90ED2C4A24EE024AFB
:1079D000F0EE440A90ED2C4A34EE404A34EE604A10
:1079E000F0EE004A84EE245AB0EE451A31EE004A19
:1079F000F0EE441A31EEA04AB0EE443A80ED2D1A72
:107A000080ED2E3AC0ED2F1ABEE0042180F8C010A0
:107A100090ED2C4AF1EE624A24EE244AB0EE440A7C
:107A200090ED2C4AF1EE424A24EE244AF0EE440A4C
:107A300090ED2C4A34EE404A34EE604AF0EE004AB3
:107A400084EE245AB0EE451A00E00EE031EE004A12
:107A5000F0EE441A31EEA04AB0EE443A80ED2D1A11
:107A6000C0ED2E1A80ED2F3A8EE0F5EEC02AF1EE31
:107A700010FA5CDDB5EEC02AF1EE10FA29DD012125
:107A800080F8C01090ED2C4A24EE024AB0EE440A71
:107A900090ED2C4A24EE224AF0EE440A90ED2C4A56
:107AA00034EE404A34EE604AF0EE004A84EE245A46
:107AB000B0EE451A31EE004AF0EE441A31EEA04A1B
:107AC000B0EE443A80ED2D3AC0ED2E1A80ED2F1A1B
:107AD0005AE0062180F8C01090ED2C4AF1EE424A9F
:107AE00024EE244AB0EE440A90ED2C4AF1EE634AAB
:107AF00024EE244AF0EE440A90ED2C4A34EE404A3B
:107B000034EE604AF0EE004A84EE245AB0EE451A94
:107B100031EE004AF0EE441A31EEA04AB0EE443A9B
:107B200080ED2D3A80ED2E1AC0ED2F1A2CE00221A7
:107B300080F8C01090ED2C4AF1EE634A24EE244AFE
:107B4000B0EE440A90ED2C4AF1EE624A24EE244A4B
:107B5000F0EE440A90ED2C4A34EE404A34EE604A8E
:107B6000F0EE004A84EE245AB0EE451A31EE004A97
:107B7000F0EE441A31EEA04AB0EE443AC0ED2D1AB0
:107B800080ED2E3A80ED2F1A7047000000000000B3
:107B9000D7B35D3F002000213F4A126842F4803293
:107BA0003D4B1A6000BF401C3B4A126802F4003192
:107BB00019B94FF6FF729042F5D1374A126802F4B4
:107BC00000320AB900BFFEE7334AD26942F0805260
:107BD000314BDA61314A126842F440422F4B1A604D
:107BE0002D4A52682C4B5A601A4652685A601A46FF
:107BF000526842F480625A601A46526822F4403257
:107C00005A601A46526842F440325A601A46526824
:107C1000234B1A40204B5A601A465268214B1A4394
:107C20001D4B5A601A46126842F080721A6000BFFB
:107C3000194A126802F00072002AF9D0174A126835
:107C400042F48032154B1A6000BF144A526802F4A5
:107C50008032002AF9D0114A126842F400320F4BE8
:107C60001A6000BF0D4A526802F40032002AF9D0AF
:107C7000094A526822F00302074B5A601A465268BA
:107C800042F002025A6000BF034A526802F0080242
:107C9000002AF9D070470000001002400070004038
:107CA000FFFFC3B70000340810B5FFF773FF10BD26
:107CB00010B5034600F014F8014600F011F8024632
:107CC000002400BF00F00CF802468A4201D3501A8B
:107CD00002E0C1F1FF30104404469C42F2D310BDD3
:107CE0000148006870470000DC02002010B512480F
:107CF00000684FF47A71B0FBF1F4601EB0F1807F40
:107D000001D301200FE0601E4FF0E02148610F21F8
:107D10004FF0FF30FCF7C8FD00204FF0E0218861F4
:107D200007200861002008B100BFFEE70021481EBF
:107D3000FCF7BAFD10BD00005003002010B5FEF79F
:107D400013FB10BD70B50126FFF7CAFF044641487A
:107D50000068844203D33F480068201A04E03D488D
:107D60000068C0F1FF302044054625B13948046061
:107D7000FFF7BCFC002638480068844203D336482D
:107D80000068201A04E034480068C0F1FF30204445
:107D90000546052D04D330480460FFF7B3FC0026E8
:107DA0002E480068844203D32C480068201A04E05F
:107DB0002A480068C0F1FF30204405460A2D04D34C
:107DC00026480460FFF78EFC0026254800688442A0
:107DD00003D323480068201A04E021480068C0F15A
:107DE000FF3020440546642D04D31D480460FFF78E
:107DF00075FC00261B480068844203D319480068BC
:107E0000201A04E017480068C0F1FF3020440546FE
:107E1000B5F5FA7F04D313480460FFF76CFC002625
:107E200011480068844203D30F480068201A04E018
:107E30000D480068C0F1FF3020440546B5F57A7F53
:107E400004D309480460FFF752FC00260EB1FFF787
:107E500041FC70BD380300203C030020400300209B
:107E600044030020480300204C030020016841F037
:107E70008001016070470A884B881A438B881A4337
:107E8000CB881A430B891A434B891A438B891A43AF
:107E90004264704721B101290AD002291AD110E0A9
:107EA000036A23F004030362036A1343036212E0CC
:107EB000036A23F040030362036A43EA0213036286
:107EC00009E0036A23F480630362036A43EA02233E
:107ED000036200E000BF00BF704731B101290CD040
:107EE000022913D0032922D118E0836923F00C035F
:107EF00083618369134383611AE0836923F44063D8
:107F00008361836943EA0223836111E0C36923F03B
:107F10000C03C361C3691343C36109E0C36923F45C
:107F20004063C361C36943EA0223C36100E000BF49
:107F300000BF704710B531B101293FD002297DD073
:107F400003297CD1BFE0036A23F001030362836944
:107F500023F003038361036A148823430362036AE3
:107F600023F002030362036A9488234303626A4B8B
:107F7000984202D0694B98421FD1036A23F0040350
:107F80000362036A548823430362036A23F00803ED
:107F90000362036AD48823430362436823F4807333
:107FA00043604368148923434360436823F40073A8
:107FB00043604368548923434360ABE0036A23F082
:107FC00010030362836923F440738361036A148896
:107FD00043EA04130362036A23F020030362036A83
:107FE000948843EA041303624B4B984202D04B4BF4
:107FF000984226D1036A23F040030362036A54883F
:1080000043EA04130362036A23F080030362036AF2
:10801000D48843EA04130362436823F48063436013
:108020004368148943EA84034360436823F400638C
:1080300043604368548943EA840301E002E068E056
:10804000436067E0036A23F480730362C36923F02B
:108050000303C361036A148843EA04230362036AC7
:1080600023F400730362036A948843EA04230362DF
:10807000294B984202D0294B984223D1036A23F41A
:1080800080630362036A548843EA04230362036A39
:1080900023F400630362036AD48843EA042303627F
:1080A000436823F4805343604368148943EA04130C
:1080B0004360436823F4005343604368548943EAB0
:1080C0000413436026E0036A23F480530362C36908
:1080D00023F44073C361036A148843EA04330362E0
:1080E000036A23F400530362036A948843EA043367
:1080F0000362094B984202D0084B984208D143686A
:1081000023F4804343604368148943EA8413436043
:1081100000E000BF00BF10BD002C01400034014052
:1081200031B101290CD0022913D0032922D118E042
:10813000836923F0700383618369134383611AE0C9
:10814000836923F4E0438361836943EA0223836103
:1081500011E0C36923F07003C361C3691343C361B2
:1081600009E0C36923F4E043C361C36943EA02231E
:10817000C36100E000BF00BF704731B1012906D0E4
:10818000022906D0032908D105E0426306E0826394
:1081900004E0C26302E0026400E000BF00BF704779
:1081A00031B101290CD0022913D0032922D118E0C2
:1081B000836923F0080383618369134383611AE0B1
:1081C000836923F400638361836943EA0223836143
:1081D00011E0C36923F00803C361C3691343C3619A
:1081E00009E0C36923F40063C361C36943EA02235E
:1081F000C36100E000BF00BF704731B101290CD05E
:10820000022913D0032923D119E0036A23F00103C3
:108210000362036A134303621BE0036A23F0100343
:108220000362036A43EA0213036212E0036A23F45F
:1082300080730362036A43EA0223036209E0036A6C
:1082400023F480530362036A43EA0233036200E0CB
:1082500000BF00BF704701460020486A7047416276
:108260007047000010B504463349601A8C4244D070
:108270000CDCB4F1804F1CD03048204410B3B0F572
:10828000806F28D0B0F5006F52D12DE0B0F5806F2F
:108290003CD0B0F58E3F03D0B0F5923F48D13EE0E0
:1082A00040F20B30FFF706FA40F20B30FFF7F2F91D
:1082B0003FE04FF48060FFF7FDF94FF48060FFF777
:1082C000E9F936E040F20140FFF7F4F940F20140ED
:1082D000FFF7E0F92DE040F20240FFF7EBF940F242
:1082E0000240FFF7D7F924E040F20340FFF7E2F93C
:1082F00040F20340FFF7CEF91BE040F20440FFF7E5
:10830000D9F940F20440FFF7C5F912E040F2054008
:10831000FFF7D0F940F20540FFF7BCF909E040F261
:108320000D30FFF7C7F940F20D30FFF7B3F900E069
:1083300000BF00BF10BD00000010004000FCFFBFE8
:10834000016841F001010160704721B9426842F0C3
:108350008002426005E0012903D1426822F08002D8
:10836000426070470A8882621D4A90420ED0B0F186
:10837000804F0BD01B4A904208D01B4A904205D038
:108380001A4A904202D01A4A90420BD1026822F057
:108390007002026002684B881A43026002688B8890
:1083A0001A4302608A68C262124A90420AD0124A94
:1083B000904207D0026822F4407202600268CB88C3
:1083C0001A430260064A904202D0094A904201D103
:1083D0000A7B0263426942F0010242617047000079
:1083E000002C01400004004000080040000C004048
:1083F00000340140001000400014004070B50446F5
:108400000E46154636B1012E26D0022E48D0032E38
:108410007DD168E0206A20F001002062206A20F00F
:108420000A002062206A298808432062A06920F09F
:108430000300A061A06969880843A061A06920F0D9
:10844000F000A061A069E98840EA0110A061206AFB
:1084500040F0010020626DE0206A20F010002062F0
:10846000206A20F0A0002062206A298840EA0110DA
:108470002062A06920F44070A061A069698840EA88
:108480000120A061A06920F47040A061A069E98882
:1084900040EA0130A061206A40F01000206249E00B
:1084A000206A20F480702062206A20F4206020621C
:1084B000206A298840EA01202062E06920F0030058
:1084C000E061E06969880843E061E06920F0F0005C
:1084D000E061E069E98840EA0110E061206A40F467
:1084E0008070206226E0206A20F480502062206A9A
:1084F00020F400502062206A298840EA013020627E
:10850000E06920F44070E061E069698800E010E013
:1085100040EA0120E061E06920F47040E061E06938
:10852000E98840EA0130E061206A40F4805020622E
:1085300000E000BF00BFAA8831462046FFF7CDFC0F
:1085400070BD826822F07002826082680A43826095
:108550007047C2680A43C2607047CA4302617047ED
:108560000246D06800EA01031069084010B10BB15F
:10857000012070470020FCE7012904D1426C42F43D
:108580000042426403E0426C22F4004242647047BD
:1085900030B5846824F00704846084680C438460E8
:1085A000846940F20335AC438461846940F201156B
:1085B0002C438461046A24F00A040462046A24F0EF
:1085C000A0040462046A42EA03152C43046230BD2D
:1085D000826822F00702826082680A4382607047E4
:1085E0002DE9F04704460D460027B846B946002657
:1085F0001D49601A8C421CD006DC1C48204470B116
:10860000B0F5806F1FD10FE0B0F5806F16D0B0F5D8
:108610006C4F18D10320FEF781FF074614E00220BB
:10862000FEF77CFF07460FE00220FEF777FF0746C4
:108630000AE00220FEF772FF074605E00220FEF77F
:108640006DFF074600E000BF00BF07EB5500B0FB21
:10865000F5F64FF6F07006EA000806F00F0948EA52
:108660000900A060BDE8F087004C004000BCFFBFDF
:1086700010B504462049601A8C4228D006DC1F48F9
:10868000204490B1B0F5806F33D117E0B0F5806F22
:1086900026D0B0F56C4F2CD140F20E30FFF70AF81F
:1086A00040F20E30FEF7F6FF24E040F21140FFF7F3
:1086B00001F840F21140FEF7EDFF1BE040F21240DE
:1086C000FEF7F8FF40F21240FEF7E4FF12E040F23E
:1086D0001340FEF7EFFF40F21340FEF7DBFF09E027
:1086E00040F21440FEF7E6FF40F21440FEF7D2FFDE
:1086F00000E000BF00BF10BD004C004000BCFFBF49
:10870000426922F040024261426901F040031A438B
:1087100042617047426922F080024261426901F081
:1087200080031A4342617047C16841F40051C1603F
:108730007047000000B587B040F20460FEF79AFF72
:108740004FF4A060FEF796FF40F21270FEF792FF22
:108750004FF4C060FEF78EFF01214548FDF76EFB28
:108760004FF48063032218214248FDF7F8FA4FF4D2
:108770000063032204213F48FDF7F1FA3E48FFF76A
:1087800077FF4FF461213C48FFF72AFF04213A4864
:1087900000F07AF80821384800F0C4F83648FFF7AE
:1087A000C3FF01213548FDF745F96846FDF742FA58
:1087B00001208DF81A003248029001208DF819002E
:1087C00000200390202004902B48001D00900020E2
:1087D0008DF8180001904FF4405005906A46012131
:1087E0002648FDF76BF902212448FDF723F9684676
:1087F000FDF720FA00208DF81A002248029001208F
:108800008DF8190000200390202004901A48001DC4
:10881000009000208DF8180001904FF44050059012
:108820006A4602211548FDF749F901211348FDF771
:10883000E8F801211148FDF7D8F902210F48FDF7AA
:10884000E0F802210D48FDF7D0F940210A48FFF772
:1088500057FF01210948FDF7BBF880210648FFF7C3
:1088600059FF02210548FDF7B3F807B000BD00002D
:1088700010001400001001400048004000000240B9
:10888000DA030020BA030020C26822F00402C260AA
:10889000C26801F004031A43C260704730B587B064
:1088A00005460C46202C34D2022201211A48FDF73D
:1088B000F9F801282DD1224629461848FBF7D2FCA9
:1088C00001211548FDF7B6F86846FDF7B3F9012018
:1088D0008DF81A001148029001208DF8190000202F
:1088E000039004940E48009000208DF81800019029
:1088F0004FF4405005906A4601210748FDF7DEF825
:1089000001210548FDF77DF801210348FDF760F8D6
:1089100000BF07B030BD000000000240DA030020B5
:1089200004480040C26822F00802C260C26801F038
:1089300008031A43C260704707E090ED000ADFEDBC
:10894000100A30EE200A80ED000A90ED000AB5EE24
:10895000C00AF1EE10FAF0D307E090ED000ADFED67
:10896000080A30EE600A80ED000A90ED000ADFEDA3
:10897000040AB4EEE00AF1EE10FAEEDC70470000F3
:10898000DB0FC94000000000920E493CB10AC93C0F
:108990002BC3163D2EFB483D752B7B3D04A9963D10
:1089A00080B6AF3D36BDC83D2FBCE13D73B2FA3D48
:1089B00087CF093E8340163EB5AB223EA2102F3E24
:1089C000CF6E3B3EC2C5473E0115543E135C603E30
:1089D0007F9A6C3ECCCF783EC07D823E938E883E9F
:1089E000229A8E3E32A0943E86A09A3EE59AA03E00
:1089F000128FA63ED47CAC3EEF63B23E2A44B83E12
:108A0000491DBE3E15EFC33E53B9C93ECA7BCF3E9A
:108A10004136D53E80E8DA3E4F92E03E7533E63E81
:108A2000BBCBEB3EEA5AF13ECBE0F63E275DFC3E87
:108A3000E4E7003F3D9C033F824B063F9BF5083F28
:108A40006B9A0B3FDA390E3FCDD3103F2A68133FA4
:108A5000D9F6153FC07F183FC6021B3FD17F1D3F8F
:108A6000CBF61F3F9967223F25D2243F5636273F3A
:108A70001594293F4AEB2B3FDE3B2E3FBB85303F11
:108A8000C9C8323FF304353F233A373F4268393F84
:108A90003B8F3B3FF9AE3D3F67C73F3F70D8413FFB
:108AA00001E2433F03E4453F65DE473F12D1493FC2
:108AB000F8BB4B3F029F4D3F207A4F3F3D4D513F0A
:108AC0004918533F31DB543FE595563F5348583FD3
:108AD0006AF2593F1A945B3F532D5D3F05BE5E3FDE
:108AE0002146603F97C5613F5A3C633F59AA643FA6
:108AF000880F663FD86B673F3CBF683FA7096A3F56
:108B00000C4B6B3F5E836C3F93B26D3F9ED86E3FC4
:108B100073F56F3F0809713F5213723F4714733F5B
:108B2000DD0B743F0BFA743FC6DE753F07BA763F24
:108B3000C58B773FF853783F9812793F9DC7793FAF
:108B400002737A3FBE147B3FCDAC7B3F283B7C3F1A
:108B5000C9BF7C3FAC3A7D3FCCAB7D3F23137E3F0A
:108B6000B0707E3F6DC47E3F580E7F3F6D4E7F3F9D
:108B7000AB847F3F0FB17F3F97D37F3F43EC7F3F75
:108B800011FB7F3F0000803F11FB7F3F43EC7F3FA5
:108B900097D37F3F0FB17F3FAB847F3F6D4E7F3FC9
:108BA000580E7F3F6DC47E3FB0707E3F23137E3FE3
:108BB000CCAB7D3FAC3A7D3FC9BF7C3F283B7C3F7F
:108BC000CDAC7B3FBE147B3F02737A3F9DC7793F9C
:108BD0009812793FF853783FC58B773F07BA763FB5
:108BE000C6DE753F0BFA743FDD0B743F4714733FCD
:108BF0005213723F0809713F73F56F3F9ED86E3F65
:108C000093B26D3F5E836C3F0C4B6B3FA7096A3F8D
:108C10003CBF683FD86B673F880F663F59AA643FE7
:108C20005A3C633F97C5613F2146603F05BE5E3FAA
:108C3000532D5D3F1A945B3F6AF2593F5348583FAA
:108C4000E595563F31DB543F4918533F3D4D513F69
:108C5000207A4F3F029F4D3FF8BB4B3F12D1493F17
:108C600065DE473F03E4453F01E2433F70D8413FA3
:108C700067C73F3FF9AE3D3F3B8F3B3F4268393FBF
:108C8000233A373FF304353FC9C8323FBB85303FF5
:108C9000DE3B2E3F4AEB2B3F1594293F5636273FAC
:108CA00025D2243F9967223FCBF61F3FD17F1D3F3E
:108CB000C6021B3FC07F183FD9F6153F2A68133FF5
:108CC000CDD3103FDA390E3F6B9A0B3F9BF5083F2F
:108CD000824B063F3D9C033FE4E7003F275DFC3E9F
:108CE000CBE0F63EEA5AF13EBBCBEB3E7533E63EB7
:108CF0004F92E03E80E8DA3E4136D53ECA7BCF3E19
:108D000053B9C93E15EFC33E491DBE3E2A44B83E85
:108D1000EF63B23ED47CAC3E128FA63EE59AA03EF5
:108D200086A09A3E32A0943E229A8E3E938E883E32
:108D3000C07D823ECCCF783E7F9A6C3E135C603E15
:108D40000115543EC2C5473ECF6E3B3EA2102F3E9A
:108D5000B5AB223E8340163E87CF093E73B2FA3D43
:108D60002FBCE13D36BDC83D80B6AF3D04A9963D60
:108D7000752B7B3D2EFB483D2BC3163DB10AC93CEC
:108D8000920E493C00000000920E49BCB10AC9BCD9
:108D90002BC316BD2EFB48BD752B7BBD04A996BD0C
:108DA00080B6AFBD36BDC8BD2FBCE1BD73B2FABD44
:108DB00087CF09BE834016BEB5AB22BEA2102FBE20
:108DC000CF6E3BBEC2C547BE011554BE135C60BE2C
:108DD0007F9A6CBECCCF78BEC07D82BE938E88BE9B
:108DE000229A8EBE32A094BE86A09ABEE59AA0BEFC
:108DF000128FA6BED47CACBEEF63B2BE2A44B8BE0E
:108E0000491DBEBE15EFC3BE53B9C9BECA7BCFBE96
:108E10004136D5BE80E8DABE4F92E0BE7533E6BE7D
:108E2000BBCBEBBEEA5AF1BECBE0F6BE275DFCBE83
:108E3000E4E700BF3D9C03BF824B06BF9BF508BF24
:108E40006B9A0BBFDA390EBFCDD310BF2A6813BFA0
:108E5000D9F615BFC07F18BFC6021BBFD17F1DBF8B
:108E6000CBF61FBF996722BF25D224BF563627BF36
:108E7000159429BF4AEB2BBFDE3B2EBFBB8530BF0D
:108E8000C9C832BFF30435BF233A37BF426839BF80
:108E90003B8F3BBFF9AE3DBF67C73FBF70D841BFF7
:108EA00001E243BF03E445BF65DE47BF12D149BFBE
:108EB000F8BB4BBF029F4DBF207A4FBF3D4D51BF06
:108EC000491853BF31DB54BFE59556BF534858BFCF
:108ED0006AF259BF1A945BBF532D5DBF05BE5EBFDA
:108EE000214660BF97C561BF5A3C63BF59AA64BFA2
:108EF000880F66BFD86B67BF3CBF68BFA7096ABF52
:108F00000C4B6BBF5E836CBF93B26DBF9ED86EBFC0
:108F100073F56FBF080971BF521372BF471473BF57
:108F2000DD0B74BF0BFA74BFC6DE75BF07BA76BF20
:108F3000C58B77BFF85378BF981279BF9DC779BFAB
:108F400002737ABFBE147BBFCDAC7BBF283B7CBF16
:108F5000C9BF7CBFAC3A7DBFCCAB7DBF23137EBF06
:108F6000B0707EBF6DC47EBF580E7FBF6D4E7FBF99
:108F7000AB847FBF0FB17FBF97D37FBF43EC7FBF71
:108F800011FB7FBF000080BF11FB7FBF43EC7FBFA1
:108F900097D37FBF0FB17FBFAB847FBF6D4E7FBFC5
:108FA000580E7FBF6DC47EBFB0707EBF23137EBFDF
:108FB000CCAB7DBFAC3A7DBFC9BF7CBF283B7CBF7B
:108FC000CDAC7BBFBE147BBF02737ABF9DC779BF98
:108FD000981279BFF85378BFC58B77BF07BA76BFB1
:108FE000C6DE75BF0BFA74BFDD0B74BF471473BFC9
:108FF000521372BF080971BF73F56FBF9ED86EBF61
:1090000093B26DBF5E836CBF0C4B6BBFA7096ABF89
:109010003CBF68BFD86B67BF880F66BF59AA64BFE3
:109020005A3C63BF97C561BF214660BF05BE5EBFA6
:10903000532D5DBF1A945BBF6AF259BF534858BFA6
:10904000E59556BF31DB54BF491853BF3D4D51BF65
:10905000207A4FBF029F4DBFF8BB4BBF12D149BF13
:1090600065DE47BF03E445BF01E243BF70D841BF9F
:1090700067C73FBFF9AE3DBF3B8F3BBF426839BFBB
:10908000233A37BFF30435BFC9C832BFBB8530BFF1
:10909000DE3B2EBF4AEB2BBF159429BF563627BFA8
:1090A00025D224BF996722BFCBF61FBFD17F1DBF3A
:1090B000C6021BBFC07F18BFD9F615BF2A6813BFF1
:1090C000CDD310BFDA390EBF6B9A0BBF9BF508BF2B
:1090D000824B06BF3D9C03BFE4E700BF275DFCBE9B
:1090E000CBE0F6BEEA5AF1BEBBCBEBBE7533E6BEB3
:1090F0004F92E0BE80E8DABE4136D5BECA7BCFBE15
:1091000053B9C9BE15EFC3BE491DBEBE2A44B8BE81
:10911000EF63B2BED47CACBE128FA6BEE59AA0BEF1
:1091200086A09ABE32A094BE229A8EBE938E88BE2E
:10913000C07D82BECCCF78BE7F9A6CBE135C60BE11
:10914000011554BEC2C547BECF6E3BBEA2102FBE96
:10915000B5AB22BE834016BE87CF09BE73B2FABD3F
:109160002FBCE1BD36BDC8BD80B6AFBD04A996BD5C
:10917000752B7BBD2EFB48BD2BC316BDB10AC9BCE8
:10918000920E49BC00000080A89100080000002059
:109190005403000032460008849400085403002061
:1091A0004C060000344A00082D000C0D0300140189
:1091B000400010014055080140044210328030C97F
:1091C000CEFFC60FCFFFC10FD0FFBD0FD1FFB80F2D
:1091D000D2FFB30FD3FFAD0FD4FFA70FD5FFA10F61
:1091E000D6FF9B0FD7FF940FD8FF8C0FD9FF840FAA
:1091F000DAFF7C0FDBFF730FDCFF6A0FDDFF600F10
:10920000DEFF560FDFFF4B0FE0FF400FE1FF340F93
:10921000E2FF280FE3FF1A0FE4FF0D0FE5FFFE0E3C
:10922000E6FFEF0EE7FFDF0EE8FFCE0EE9FFBD0E13
:10923000EAFFAB0EEBFF980EECFF840EEDFF700E15
:10924000EEFF5A0EEFFF440EF0FF2D0EF1FF150E4C
:10925000F2FFFC0DF3FFE20DF4FFC80DF5FFAC0DBE
:10926000F6FF900DF7FF720DF8FF540DF9FF350D65
:10927000FAFF150DFBFFF40CFCFFD20CFDFFAF0C49
:10928000FEFF8C0CFFFF670C2C420C01001C0C0233
:1092900000F50B032CCE0B0400A60B05007D0B067E
:1092A0002C530B0700290B0800FF0A092CD30A0ACC
:1092B00000A80A0B007C0A0C2C4F0A0D00230A0E92
:1092C00000F6090F2CC80910009B0911006D091246
:1092D0002C3F09130011091400E408152CB60816D8
:1092E00000880817005B0818342D08192F081A0089
:1092F000D3071B00A7071C007A071D2C4E071E0072
:1093000023071F00F806202CCD062100A30622000B
:109310007A06232C51062400290625000106262C56
:10932000DA052700B30528008D05292C68052A00D9
:1093300044052B0020052C2CFD042D00DB042E0001
:10934000B9042F2C98043000780431005804322CD2
:109350003A0433001C043400FE03352CE2033600CB
:10936000C6033700AA03382C9003390076033A006D
:109370005D033B2C44033C002C033D0015033E2CB5
:10938000FE023F00E8024000D302412CBE02420030
:10939000AA0243009602442C830245007002460054
:1093A0005E02472C4D0248003C0249002B024A2C29
:1093B0001B024B000C024C00FD014D2CEE014E0037
:1093C000E0014F00D201502CC5015100B8015200FC
:1093D000AB01532C9F015400930155008801562C7A
:1093E0007D015700720158006801592C5D015A0037
:1093F00054015B004A015C2C41015D0038015E00B4
:109400002F015F2C270160001F01610017016238E6
:109410000F0163000801642F016500F9006600F385
:10942000006700EC00682EE6006900DF006A00D9E2
:10943000006B00D42E6C00CE006D00C8006E00C31F
:10944000006F2EBE007000B9007100B4007200AF52
:109450002E7300AB007400A6007500A200762E9E4D
:109460000077009A00780096007900922E7A008E9C
:10947000007B008B007C0087007D027784140E2720
:0494800007000000E1
:04000005080041317D
:00000001FF
