:020000040800F2
:104000008078002011420008ED480008AF45000804
:10401000E948000863450008DD4900080000000089
:104020000000000000000000000000001B49000824
:10403000AD45000800000000194900081D490008AE
:104040002B4200082B4200082B4200082B4200089C
:104050002B4200082B4200082B4200082B4200088C
:104060002B4200082B4200082B4200082B4200087C
:104070002B4200082B4200082B4200082B4200086C
:104080002B4200082B4200082B4200082B4200085C
:104090002B4200082B4200082B4200082B4200084C
:1040A0002B4200082B4200082B4200082B4200083C
:1040B0002B4200082B4200082B4200082B4200082C
:1040C0002B4200082B4200082B4200082B4200081C
:1040D0002B4200082B4200082B4200082B4200080C
:1040E0002B4200082B4200082B4200082B420008FC
:1040F0002B4200082B4200082B4200082B420008EC
:104100002B4200082B4200082B4200082B420008DB
:104110002B4200082B4200082B4200082B420008CB
:104120002B420008694500082B4200082B4200087A
:1041300000F002F800F05CF80AA090E8000C82445D
:104140008344AAF10107DA4501D100F051F8AFF23A
:10415000090EBAE80F0013F0010F18BFFB1A43F065
:104160000103184728BB010048BB01000A444FF077
:10417000000C10F8013B13F0070408BF10F8014BC6
:104180001D1108BF10F8015B641E05D010F8016B0B
:10419000641E01F8016BF9D113F0080F1EBF10F86F
:1041A000014BAD1C0C1B09D16D1E58BF01F801CB92
:1041B000FAD505E014F8016B01F8016B6D1EF9D515
:1041C0009142D6D37047000000230024002500262A
:1041D000103A28BF78C1FBD8520728BF30C148BF6A
:1041E0000B6070471FB518F0B9FC1FBD10B510BDAE
:1041F00000F07DF91146FFF7F5FF16F0FBFA00F02D
:104200009BF903B4FFF7F2FF03BC00F0A3F9000031
:104210000948804709480047FEE7FEE7FEE7FEE75A
:10422000FEE7FEE7FEE7FEE7FEE7FEE70448054996
:10423000054A064B70470000354900083141000827
:10424000807000208078002080740020807400201E
:1042500040EA0103024630B59B0710D14FF001340C
:1042600000E008C208C91D1B9D4315EAC41FF8D011
:1042700013F0FF0102F8011B0DD01B0AF8E711F83B
:10428000013B002B02F8013B05D011F8013B002B4C
:1042900002F8013BF3D130BD10B5431C02E010F829
:1042A000011B71B18107FAD14FF0013202C88C1A9B
:1042B0008C4314EAC211F9D0C01A0A0603D0C01EFA
:1042C00010BDC01A10BD0A0401D0801E10BD090225
:1042D000FCD0401E10BD032A40F2308010F0030CC9
:1042E00000F0158011F8013BBCF1020F624498BF49
:1042F00011F801CB00F8013B38BF11F8013BA2F1E6
:10430000040298BF00F801CB38BF00F8013B11F060
:10431000030300F02580083AC0F0088051F8043B00
:10432000083A51F804CBA0E80810F5E7121D5CBF6D
:1043300051F8043B40F8043BAFF30080D20724BFA0
:1043400011F8013B11F801CB48BF11F8012B24BF34
:1043500000F8013B00F801CB48BF00F8012B704783
:1043600010B5203AC0F00B80B1E81850203AA0E810
:104370001850B1E81850A0E81850BFF4F5AF5FEA44
:10438000027C24BFB1E81850A0E8185044BF18C9F7
:1043900018C0BDE810405FEA827C24BF51F8043B9E
:1043A00040F8043B08BF7047D20728BF31F8023BF2
:1043B00048BF11F8012B28BF20F8023B48BF00F886
:1043C000012B704702F0FF0343EA032242EA024254
:1043D00000F002B84FF000020429C0F0128010F083
:1043E000030C00F01B80CCF1040CBCF1020F18BFD1
:1043F00000F8012BA8BF20F8022BA1EB0C0100F064
:104400000DB85FEAC17C24BF00F8012B00F8012B36
:1044100048BF00F8012B70474FF0000200B513466B
:1044200094469646203922BFA0E80C50A0E80C50D4
:10443000B1F12001BFF4F7AF090728BFA0E80C5085
:1044400048BF0CC05DF804EB890028BF40F8042B7E
:1044500008BF704748BF20F8022B11F0804F18BFEB
:1044600000F8012B704700004FF0013C50F8042B7E
:1044700051F8043B9A4221D1A2EB0C03934313EA77
:10448000CC1317D150F8042B51F8043B9A4215D1A4
:10449000A2EB0C03934313EACC130BD150F8042B7B
:1044A00051F8043B9A4209D1A2EB0C03934313EA5F
:1044B000CC13DBD04FF00000704700BFD01A01BA18
:1044C000B1FA81F101F0180122FA01F0CB40C1F1FB
:1044D0002001DBB2C0B2C01A2CFA01F3D11A914309
:1044E00011EAC311E6D170477047704770477546AF
:1044F00000F02CF8AE4605006946534620F0070050
:10450000854618B020B5FFF791FEBDE820404FF07A
:1045100000064FF000074FF000084FF0000B21F0AD
:104520000701AC46ACE8C009ACE8C009ACE8C0097A
:10453000ACE8C0098D46704710B50446AFF3008063
:104540002046BDE81040FFF75CBE00000048704701
:104550001C70002001491820ABBEFEE726000200B7
:10456000704700BFFEE7000010B5022201210C4891
:1045700001F010F898B102220121094801F002F877
:1045800001220221074801F04FFB0748006830B1C3
:104590000548006807F01AF800200349086010BDBC
:1045A0000004024000100140F0030020704700BFEB
:1045B000FEE72DE9F04104460D4616461F462A2027
:1045C00000F06CF904F1280188B200F057F906F107
:1045D000280188B200F052F92B2000F05FF905F1B4
:1045E000350188B200F04AF907F1350188B200F0D0
:1045F00045F92C2000F052F9BDE8F0812DE9F84F83
:1046000006460F4614461D46DDF82880CDF800808A
:10461000A01BE91B48431FFA80FB681E83B2601E83
:1046200082B239463046FFF7C4FFB9460EE0B246C3
:1046300006E0404600F022F90AF101001FFA80FA74
:10464000A245F6DB09F101001FFA80F9A945EEDB6E
:10465000BDE8F88F10B540F2046016F0A9FA40F2F8
:10466000036016F0A5FA4FF40053032210211648F8
:1046700001F0DFFA01225103134801F0D5FA4FF49B
:10468000804303221021104801F0D3FA0122910344
:104690000D4801F0C9FA4FF40043032210210A48E3
:1046A00001F0C7FA0122D103074801F0BDFA022345
:1046B00003221021044801F0BCFA01220221024821
:1046C00001F0B2FA10BD00000010014010B5FFF774
:1046D000C1FF16F0B1FC00224FF40041664801F022
:1046E000A3FA642016F0E0FE0122D103624801F033
:1046F0009BFA642016F0D8FE012251035E4801F0B7
:1047000093FA642016F0D0FE112000F0C7F878204C
:1047100016F0CAFE362000F0C1F8702000F0B7F89D
:104720003A2000F0BBF8052000F0B1F8B22000F00C
:10473000B5F80C2000F0ABF80C2000F0A8F8002031
:1047400000F0A5F8332000F0A2F8332000F09FF825
:10475000B72000F0A3F8352000F099F8BB2000F056
:104760009DF8192000F093F8C02000F097F82C2055
:1047700000F08DF8C22000F091F8012000F087F8D9
:10478000C32000F08BF8122000F081F8C42000F064
:1047900085F8202000F07BF8C62000F07FF80F207D
:1047A00000F075F8D02000F079F8A42000F06FF840
:1047B000A12000F06CF8E02000F070F8D02000F0AC
:1047C00066F8042000F063F80D2000F060F8112076
:1047D00000F05DF8132000F05AF82B2000F057F895
:1047E0003F2000F054F8542000F051F84C2000F025
:1047F0004EF8182000F04BF80D2000F048F80B2080
:1048000000F045F81F2000F042F8232000F03FF8A8
:10481000E12000F043F8D02000F039F8042000F047
:1048200036F80C2000F033F8112000F030F8132097
:1048300000F02DF82C2000F02AF83F2000F027F897
:10484000442000F024F8512000F021F82F2000F03F
:104850001EF81F2000F01BF81F2000F018F8202081
:1048600000F015F8232000F012F8212000F016F8CF
:10487000292000F013F810BD0010014010B50446C7
:10488000201200F01FF8E0B200F01CF810BD10B5C7
:104890000446204600F016F810BD000010B504468E
:1048A00000224FF48041064801F0BEF9204600F096
:1048B00009F801229103024801F0B6F910BD000089
:1048C0000010014010B5044600220221054801F005
:1048D000ABF9204616F0F8FB01220221014801F055
:1048E000A3F910BD0010014000BFFEE770470000B3
:1048F00010B5002807DA0A07140E054A00F00F0366
:104900001B1FD45403E00A07130E024A135410BDB0
:1049100018ED00E000E400E07047704710B504486F
:104920000068401C02490860012015F0DDFB10BD45
:104930000000002008B52648006840F470002449B3
:1049400008602448006840F001002249086000BF68
:104950002048006800F002000028F9D000BF1D4880
:10496000406840F080001B4948600020009002E051
:104970000098401C009000985028F9D315484068D2
:1049800040F09000134948600020009002E0009839
:10499000401C009000985028F9D300BF0D48406893
:1049A00020F003000B494860084600680A490840A7
:1049B000084908604FF41F0088600846006820F42A
:1049C0008020086000204860C86216F069FD08BDBC
:1049D00088ED00E000100240FFFFF6FE00BFFEE79A
:1049E0002DE9F04180460E460025002709E056F8E3
:1049F00027001EA1FFF738FD08B1681C85B2781C9E
:104A000087B256F82700FFF747FC0028EFD1404651
:104A10000FF0E0FF0446606820B160680FF026F9EF
:104A200000206060A06820B1A0680FF01FF900208E
:104A3000A060E8000FF0F4F86060606808B900BF9B
:104A4000FEE768000FF0ECF8A060A06808B900BFAE
:104A5000FEE7606808B1A06800B900256900A06899
:104A6000FFF7B8FC2584BDE8F08100000A000000D3
:104A700010B58AB0044694F82000C0F3400020B975
:104A800094F8200000F0010070B194F82000C0F309
:104A90004000F0B994F8200000F00100C8B194F88B
:104AA0002000C0F38000A0B12422214601A8FFF716
:104AB00057FC214619480EF09AFD20460FF0D6F813
:104AC000012017490870049810B101A8049988477B
:104AD0001FE0E08B404200B2608394F8200000F0B9
:104AE0000100B0B194F82010C1F3800119B9A18B75
:104AF000494209B261831034217C8908C943227C70
:104B000061F3820222742068616821606060103C59
:104B100000BF034800780AB010BD00005007002015
:104B2000A40000202DE9F04107462F480EF078FC44
:104B3000044608E0206A20F00800206221462A4846
:104B40000EF073FC0446002CF4D12848006815F0E0
:104B5000ADFA064624480EF063FC04463CE0002013
:104B60002349087094F82000C0F3C00038BB206AC5
:104B700020F0080008302062608B304400B260836F
:104B8000B4F91A0000281ADBB4F91A00218B884204
:104B900002DD208B00B260832046A168884705466D
:104BA000606818B129B2D4E900029047B4F91A003C
:104BB000218B884202DB2046FFF75AFF00BF0C48DA
:104BC000007820B108480EF02BFC044604E0214692
:104BD00005480EF02AFC0446002CC0D115F074FAEA
:104BE00002490860BDE8F08150070020A0000020C5
:104BF000A400002030B50346022B04D10E48405CCF
:104C00005043001230BD032B04D10C48405C50438C
:104C10000012F7E7042B04D10948405C504300120E
:104C2000F0E7C1EBC105581EB5FBF0F0C4B2054872
:104C3000005D5043000AE5E7A2CB0108A4CB0108C0
:104C4000A7CB0108ABCB01080146C1F3C0107047E8
:104C50000146C1F3002070470146C1F3C000704710
:104C60000146C1F3401070470146C1F30010704780
:104C70000146C1F380107047F8B507460E46384626
:104C80000FF0A8FE0446E06B20B9B4F8400008B964
:104C90000120F8BDB4F8400000280CDD384613F0C0
:104CA0005DFD05460F4909688847B4F84010884201
:104CB00001D30020EDE7E06B90B10020009009E007
:104CC0006946094AE06B126890470546B54201D132
:104CD0000120DEE7E06B0099405C0028F0D1D8E7C6
:104CE0000120D6E7EC000020DC0000202DE9F04791
:104CF0008AB00546002006F0BBFC8146A74A002189
:104D0000284611F07CFBA54A0121284611F077FBCB
:104D100028460FF065FE0646284610F080FD07463F
:104D2000314610F03BF800BF0021284611F018FB77
:104D30009B499C4812F0B2FD99219A4801720021CA
:104D4000C1809948006809909648BDF82410818672
:104D50000021284604F08EFA9449086028460FF096
:104D60003FFE064600EBD670471028460FF0E0FEE7
:104D70004000032190FBF1F00FFA80F83A464146DB
:104D80008A48006810F0C6F819200023022219464C
:104D90000090864800680EF0FDFF022183480068FD
:104DA00005F0A1FB81487F4F06683946304610F078
:104DB00000F900BFB2217D48006805F078FB7A4811
:104DC000001D0068089079480899006804F00CFA02
:104DD0008246282251467548006805F0F4FA1E22E2
:104DE00051467248006805F0EEFA2F2251466F488E
:104DF000006805F0E8FA3B2251466C48006805F06F
:104E0000E2FA3B2251466948006805F0DCFA1F22AD
:104E100051466648006805F0D6FA37225146634885
:104E2000006805F0D0FA462251466048006805F057
:104E3000CAFA522251465D48006805F0C4FA5B2266
:104E400051465A48006805F0BEFA5549584812F0D4
:104E500025FD002007905648BDF81C10418052489F
:104E60000830006806905248BDF81810818047F657
:104E70001841C1804C480C30006805904C48BDF882
:104E800014104181992101720021418381830A21FB
:104E9000C18201834249474812F000FD4248103068
:104EA000006804904348BDF8101081803E481430DB
:104EB000006803903F48BDF80C10418047F6184148
:104EC000C1800A2141823848183000680290394870
:104ED000BDF808100182032141838183C1820183CF
:104EE0002F49354812F0DAFC47F618413248C180A4
:104EF000B22101720021284611F0A4FF04462C4A79
:104F00000021204612F0E4FA2A4A0121204612F03C
:104F1000DFFA294A0221204612F0DAFA2348006813
:104F20000FF006FE06462122314620460FF0F2FF22
:104F300020460FF055FD1D490968B1F91610A9EB7F
:104F400001010E1A06EBD670401007B200230D22A5
:104F500016480097016820460EF01CFF17492046AE
:104F60000FF01AFF26460A274FF47A784246394650
:104F7000304602F039FF00BF4FF42F774FF00008A2
:104F800042463946304602F079FF00BF0E212046E6
:104F900016F038F80AB0BDE8F08700008004002061
:104FA000700500202C6F0020A4FA0108F4030020F3
:104FB000686F0020A46F0020E06F002005B001089A
:104FC0002DE9FC4106460D4630460FF003FD044630
:104FD0005820005DC0F30010A84240D00DB1012060
:104FE00000E000205821095D60F3041158200155AC
:104FF000005D00F00F0090B35820005D00F0080045
:1050000068BB30460FF0B8FC074604F14E01684615
:1050100002F0EBFABDF80000216B098A084400B2E7
:10502000ADF80000BDF80210206B408A084400B2C1
:10503000ADF80200BDF80400216B098A084400B2F3
:10504000ADF80400BDF80610206B408A084400B299
:10505000ADF80600694638460CF0B8F800BFBDE868
:10506000FC812DE9F0470446201D0EF0D9F90646D3
:1050700020460FF0B2FC8046B8F1000F02D0204667
:105080000AF072FE08E03146201D0EF0CEF9074608
:105090003046FFF7E6FF3E46002EF4D100221321F2
:1050A00020460AF0D9FB20460AF0C6FB0021204624
:1050B00002F00EFA00200BF0D7FF05461BE0686BEC
:1050C000A04202D0A86BA04202D128460CF021F8E1
:1050D000E86BA04201D10021E963686D404506D12B
:1050E0000BF0D0FFA04202D128460CF012F828465F
:1050F0000BF0BAFF0546002DE1D120460FF0A1FCD0
:105100008146214609F104000EF071FA0022114691
:105110002046E3699847606A10B1606A0EF0A6FD08
:1051200020460EF0A3FDBDE8F08700002DE9FF4703
:10513000002006F069FA0546002006F099FA0646B6
:105140004549464812F0AAFB454805F05AFA009036
:105150004248BDF800104180414805F052FA0090E5
:105160003E48BDF8001081800021C18201833D4985
:105170003D4812F093FB00213B48017281813B497D
:105180003B4812F08BFB00213948C1807F2101721E
:105190003848006803903648BDF80C104180354807
:1051A000001D006802903248BDF80810818000217F
:1051B000818130480830006801902D48BDF8041006
:1051C0000184002006F049FA8246002114F064F9B7
:1051D00004463246294620460FF09CFE26A1204672
:1051E00014F010F8074626A1204614F00BF880466C
:1051F00025A1204614F006F88146184A00212046D1
:1052000014F03EFB154A0221204614F039FB124AE5
:105210000121204614F034FB134A0321204614F0E8
:105220002FFB134A0421204614F02AFB0E4A0521C5
:10523000204614F025FB0E4A0621204614F020FBE0
:10524000384617F0AFFB404601F0C8FF4846FFF76D
:105250004DFDBDE8FF870000F8040020C46D00206C
:10526000B77F4800E8050020006E002024060020DB
:105270003C6E002080FA01085772697465000000D6
:105280004C69737400000000436861727400000090
:105290002DE9F04705460C461646A0882188401A9D
:1052A000401C07B2E0886188401A401C0FFA80F861
:1052B00017FB08F916480560164815F021FF002174
:1052C000144815F067FF134815F05FFFB4F806C0E7
:1052D0001FFA8CF3B4F804C01FFA8CF2B4F802C0C1
:1052E0001FFA8CF1B4F800C01FFA8CF0FFF761F9D7
:1052F00000220221084800F097FC01229103064891
:1053000000F092FC4946304600F020FEBDE8F087F0
:10531000F0030020003C004000100140704770B5D1
:1053200005460C462146284600F0A0F908B900BF02
:10533000FEE704EB8400810005F10800405820F0EE
:10534000010104EB8400820005F10800815070BD6A
:1053500070B505460C462146284600F087F908B985
:1053600000BFFEE704EB8400810005F1080040580F
:1053700040F0010104EB8400820005F10800815037
:1053800070BD70B505460C462146284600F06EF902
:1053900008B900BFFEE704EB8400810005F10800B6
:1053A000405820F0200104EB8400820005F1080041
:1053B000815070BD70B504460D462946204600F068
:1053C00055F908B900BFFEE705EB8500810004F13F
:1053D0000800405820F0010105EB8500820004F12F
:1053E00008008150002105EB8500820004F10800CF
:1053F000815005EB8500820004F10C00815005EB23
:105400008500820004F11000815005EB85008200C8
:1054100004F1140081506068AA000F2191400843F4
:10542000606070BD2DE9F04104460D4616462946E0
:10543000204600F01BF908B900BFFEE705EB850028
:10544000820004F110003168815005EB8500820074
:1054500004F11400B1688150308A81B205EB8500F7
:10546000820004F10C00815005EB8500810004F1FD
:105470000800475827F47C57F16870680843716941
:105480000843074305EB8500810004F108004750FD
:10549000307E01280ED105EB8500810004F1080063
:1054A000405840F0400105EB8500820004F10800FF
:1054B00081500DE005EB8500810004F108004058A3
:1054C00020F0400105EB8500820004F108008150C6
:1054D000707E01280ED105EB8500810004F10800E3
:1054E000405840F0800105EB8500820004F108007F
:1054F00081500DE005EB8500810004F10800405863
:1055000020F0800105EB8500820004F10800815045
:10551000B07E70B905EB8500810004F108004058A9
:1055200020F0100105EB8500820004F10800815095
:105530000DE005EB8500810004F10800405840F0C3
:10554000100105EB8500820004F108008150BDE8E0
:10555000F08170B504460D4616462946204600F0F7
:1055600085F808B900BFFEE705EB8500810004F16E
:1055700008004058304305EB85018A0004F108011A
:10558000885070BD10B543688C0002FA04F42343C0
:10559000436010BD70B5034600BF00BF022A04D0AF
:1055A000042A11D0082A2DD11DE018688E0002FAB5
:1055B00006F600EA060501EB8100860003F108000B
:1055C000805900F002041FE018688E0002FA06F607
:1055D00000EA060501EB8100860003F1080080590E
:1055E00000F0040410E018688E0002FA06F600EAE3
:1055F000060501EB8100860003F10800805900F0E8
:10560000080401E000BFFEE700BF15B10CB10120A6
:1056100070BD0020FCE770B506460C4615462146D5
:10562000304600F023F808B900BFFEE704EB840021
:10563000810006F11400455070BD70B505460C465A
:105640002146284600F012F808B900BFFEE704EB37
:105650008400810005F10800405820F4804104EBEB
:105660008400820005F10800815070BD02460120CF
:10567000034B9A4202D1042900DD0020704700004C
:105680000004024070B506460C46154621463046D9
:10569000FFF7ECFF08B900BFFEE7A9B204EB8400F6
:1056A000820006F10C00815070BD70B505460C46B5
:1056B00028460FF08FF90646348428460FF068FA22
:1056C00070BD70B5054628680FF084F9044628209F
:1056D000005D20F0020128200155005D20F004014A
:1056E00028200155005D20F0100128200155005DA3
:1056F00020F008012820015528680FF049FA70BDF4
:1057000070B504460D460026207800F0010068B907
:105710002068B5EB500F09D82946204600F020F844
:10572000206820F00100401C2060261D304670BD1E
:1057300010B50146002011B9084A10680CE00A1D96
:105740000B6802EB5300031D044C246804F58044ED
:10575000A34200D3002000BF10BD0000B400002011
:1057600030B501F0030212B121F00301091D0A1D39
:105770000368B2EB530F01D1026851080268B1EB24
:10578000520F0ED0031D5A18146824F0010414603F
:105790000468C1EB5404241F156864F35F051560A9
:1057A00000BF026861F35F02026030BD2DE9F84F6F
:1057B00004468846914694F8580000F0010008B16C
:1057C000BDE8F88FE56800264FF0010A4FF0010BA5
:1057D00000BF8DB994F85800C0F3001000B956B955
:1057E000BBF1000F00D1EBE72046C04705464FF064
:1057F000000AD34600E0E3E716B92E4606B9DFE714
:10580000BAF1000F06D029462046C8470546B542E2
:1058100000D1D5E74FF0010A05B9DAE728680FF0A3
:10582000F6F800B900E0D4E700BFE068A84200D174
:10583000C6E7E068A8B1E168086800221021C369E2
:105840009847E168002208680D210AF005F80090E9
:105850000098012800D0B3E7E16808680FF098F9D4
:1058600000BFE560E168086800220F21C36998471E
:10587000E168002208680C2109F0EEFF0746012FBD
:1058800000D09DE7E168086815F0F8F8E16808685D
:105890000FF07EF9A06910B12046A169884700BFCA
:1058A0008EE72DE9FF4106460F4630460FF092F88D
:1058B000054602A930460FF052F800242DE0686832
:1058C00000EBC401684601F07CFEBDF80000BDF8A5
:1058D0000810084400B2ADF80000BDF80200BDF8A1
:1058E0000A10084400B2ADF80200BDF80400BDF88B
:1058F0000810084400B2ADF80400BDF80600BDF879
:105900000A10084400B2ADF806003946684601F0B6
:105910006DFF00B104E0601C84B2288CA042CEDC94
:1059200000BF288CA04201D14FF6FF74204604B07E
:10593000BDE8F081014601F007020AB11046704748
:105940000120FCE7F8B506460C4630460FF042F859
:105950000546286B0FF088F80746686C20B1204692
:10596000696C11F09BFF24E03946204611F096FF48
:10597000206A009060882084BDF800006080A01C30
:10598000BDF80010A180BDF800106181FF21E17316
:105990000121A18100216182E180FF21217200218A
:1059A0006183A183E18221830121E186FF212172AC
:1059B00000BFF8BD2DE9FC4780460E4616B9002011
:1059C000BDE8FC87D8F80C406069B04201D1A069FD
:1059D000F6E70025AEE005EB8501A06850F8210050
:1059E000301A019005EB8501A06800EB81008088EA
:1059F0000199884200D29BE0002705EB8501A06851
:105A000000EB8100807C00F0030040B905EB8501CC
:105A1000A06800EB8100C0880199471884E005EB7D
:105A20008501A06800EB8100807C00F00300012864
:105A30000FD105EB8502A16801EB8201C86805EB77
:105A40008502A16801EB8201C988019A825C8F18E6
:105A50006AE005EB8501A06800EB8100807C00F026
:105A60000300022827D13948009005EB8503A06880
:105A700000EB8300028A05EB8503A06800EB83003E
:105A80000223816801A814F08BFE8146B9F1000F52
:105A900010D005EB8502A16801EB82018968A9EBB2
:105AA0000100400805EB8502A16801EB8201C9886D
:105AB0000F1800BF38E005EB8501A06800EB8100FE
:105AC000807C00F0030003282ED12048009005EBD5
:105AD0008503A06800EB8300028A05EB8503A068BC
:105AE00000EB83000223816801A814F059FE81466F
:105AF000B9F1000F17D005EB8503A26802EB830212
:105B00009268A9EB0200400805EB8503A26802EB4E
:105B10008302D16805EB8503A26802EB8302D28879
:105B20000B5CD71800BF00BF6661A761384647E726
:105B3000681C85B2608AC0F30900A8423FF74BAFEA
:105B400066610020A06100BF3AE70000C9C80108F3
:105B50002DE9FC5F80460D461646D8F80C704FF0D4
:105B6000000A788AC0F34030002841D1FC68A06860
:105B7000C0F30160D8B9D4F8009005EB062080B2DC
:105B8000019027480090A06820F07F4202234946F8
:105B900001A814F005FE8346BBF1000F06D0ABEB65
:105BA00009004008616811F900A000BF1FE0A0686B
:105BB000C0F3016001281AD1D4F8009005EB06204B
:105BC000019018480090A06820F07F4204234946C5
:105BD00001A814F0E5FD8346BBF1000F06D0ABEB46
:105BE00009000009616811F900A000BF00BF13E0BF
:105BF000F8684368595D43689A5D00290BDD002A07
:105C000009DD531E4C1E90F80DC004FB0C330468D4
:105C1000E35C4FFA83FA00BF5046BDE8FC9F0000EA
:105C20009D5E00087D5E00080AB1016100E04161EF
:105C30007047F0B5044616460025002201F00F0516
:105C400001F0100747B1042E05D145F00305E76BBD
:105C50001F43E76300E0354300201EE00127874033
:105C60001F40C7B122684FEA800C0F2707FA0CF7D4
:105C7000BA43870005FA07F73A43282904D10127D8
:105C800087401F40676105E0482903D1012787400D
:105C90001F4027612260471CB8B20828DED30820C5
:105CA00022E0012787401F40E7B16268A0F10807A2
:105CB0004FEA870C0F2707FA0CF7BA43A0F1080741
:105CC000BF0005FA07F73A43282904D10127874086
:105CD0001F40676105E0482903D1012787401F4025
:105CE00027616260471CB8B21028DAD3F0BD0246C3
:105CF000D068084008B1012070470020FCE7000090
:105D0000F0B50A46002300240021002500F00046DB
:105D1000B6F1004F02D11D4EF16901E01B4E7168D2
:105D2000C0F3034583B200F44016B6F5401F08D116
:105D300021F0E061154E766826F0E066134F7E6034
:105D400012E000F48016B6F5801F06D1032606FA8D
:105D500005F4A14341F0E06106E0460D360103FA87
:105D600006F6B14341F0E06122B1460D360103FA77
:105D700006F6314300F00046B6F1004F02D1034E63
:105D8000F16101E0014E7160F0BD000000000140D2
:105D900001460020302905DB392903DCA1F130025E
:105DA000D0B21CE0612902DBA1F12002D1B2A1F145
:105DB0004102062A10D2DFE802F0030507090B0DA5
:105DC0000A200BE00B2009E00C2007E00D2005E085
:105DD0000E2003E00F2001E0002000BF00BF70474D
:105DE0002DE9FF4106460C464FF6FF70844201D173
:105DF000BDE8FF8130460EF0EDFD0546686800EB1A
:105E0000C40102A801F0DDFB694630460EF0A7FD93
:105E1000BDF80800BDF80010084400B2ADF8080055
:105E2000BDF80A00BDF80210084400B2ADF80A003F
:105E3000BDF80C00BDF80010084400B2ADF80C002D
:105E4000BDF80E00BDF80210084400B2ADF80E0017
:105E500030460EF091FD074602A90BF0B7F900BFDE
:105E6000C6E7000010B5044620680EF075FC00205F
:105E70000149086010BD0000FC03002030B5024657
:105E800014460B4620881D88A84203D020881D8810
:105E9000401B30BD60885D88401BFAE730B5024684
:105EA00014460B4620781D78A84203D020781D7830
:105EB000401B30BD60785D78401BFAE770B58AB052
:105EC00006460C4621461D4800680BF095FA112C39
:105ED00001D0122C30D11948006801901748006891
:105EE0000EF04AFE059005F089FB054605F0C0FB63
:105EF0000690134802901348039013480490002022
:105F0000ADF81E004FF49670ADF81C009DF824000B
:105F100020F001008DF824000020ADF820009DF84D
:105F2000240020F002008DF824000020ADF82200AB
:105F300001A801F0A1FA00BF0AB070BDFC03002067
:105F4000FD4F010829750008655E000870B504461C
:105F50000D460F4815F0D4F84FF400610C4815F0C9
:105F600019F90B4815F011F901210A48FFF7D7F983
:105F70002A4601210748FFF785FB224601210548F3
:105F8000FFF749FB01210348FFF7E2F970BD00006C
:105F9000003C00400004024010B540F2056014F0DF
:105FA00007FE40F2046014F003FE40F2026014F0B9
:105FB000FFFD4FF4C06014F0FBFD01211848FFF70E
:105FC0009FFE18490B681849032208681021FFF743
:105FD00030FE14494B681449032248681021FFF72A
:105FE00028FE10498B681049032288681021FFF7AA
:105FF00020FE0C4A11680C4A10680122FFF714FEBB
:10600000084A5168084A50680122FFF70DFE054A08
:106010009168054A90680122FFF706FE10BD000056
:1060200000023000100000200400002070B504467B
:106030000A4A52F824100A4A52F82400FFF757FE81
:10604000C0F10100C5B2054A52F82410044A52F8C2
:1060500024002A46FFF7E8FD70BD00001000002074
:10606000040000202DE9F04F85B00446894615460E
:106070001E46E88E401E07B24FEA670807F0010A85
:10608000FF2E02D13820405D03E03820405D704390
:10609000001283462088ADF80C00A088ADF81000EF
:1060A0006088A0EB0800A0EB0A0000B2ADF80E007B
:1060B000E088404400B2ADF81200BDF90C00BDF913
:1060C0001010884202DABDF90C0001E0BDF91000A1
:1060D000ADF80400BDF90C00BDF91010884202DDD6
:1060E000BDF90C0001E0BDF91000ADF80800BDF9E4
:1060F0000E00BDF91210884202DABDF90E0001E06F
:10610000BDF91200ADF80600BDF90E00BDF9121080
:10611000884202DDBDF90E0001E0BDF91200ADF8C4
:106120000A00A88E5B4602464946009001A805F089
:1061300017FC05B0BDE8F08F0FB59DB02298FF2881
:1061400003D1209890F8380005E0209890F83800A6
:106150002299484300121C9010F084FC0A9005F02C
:106160003CFA1B901D9881880088081A00B2ADF88F
:1061700068001D98C1884088081A00B2ADF86A000E
:106180001D98007EF0B11D98B0F90210B0F90620FC
:106190001E98104481420ADABDF86A00404200B2FB
:1061A000ADF86400BDF86800ADF8660028E0BDF801
:1061B0006A00ADF86400BDF86800404200B2ADF876
:1061C00066001DE01D98B0F90010B0F904201E987B
:1061D000104481420ADABDF86A00ADF86400BDF8E7
:1061E0006800404200B2ADF8660009E0BDF86A0000
:1061F000404200B2ADF86400BDF86800ADF866003A
:10620000BDF86400000100B2ADF86400BDF866009E
:10621000000100B2ADF866002098B0F93600189081
:106220001898400000B21790179880000A9005F067
:10623000F9FB169000201590189800283DD00020FA
:10624000039019AA03A904A800F0F2FE189840438D
:1062500002900020159029E0BDF81820DDE9151006
:1062600020F82120BDF81A20DDE9151000EB81008F
:106270004280BDF8180010FB00F1BDF81A2012FB97
:1062800002100190DDE90101884208D315981890A9
:106290001B9818B11898401E00B218900BE004A883
:1062A00000F030FF1598401C00B215901798401E62
:1062B00015998842D0DC00BF00BF189813901B9836
:1062C00028B1189808B901201390002014900020DC
:1062D000129011901898B0B11898401E169931F983
:1062E00020000A9000EBD070401012901898401EC9
:1062F000169901EB8000B0F902000A9000EBD07013
:106300004010119023E01D98007E70B11D98B0F9E7
:106310000210B0F906201E981044814205DB169841
:106320004088401E01B2169841801D98007E70B9C9
:106330001D98B0F90010B0F904201E981044814255
:1063400005DB16980088401E01B2169801800020D7
:10635000159077E1DDE9151030F821101298081A30
:1063600002B2DDE9151020F82120DDE9151000EB5F
:10637000810041881198081A02B2DDE9151000EB7E
:10638000810042801B9800287ED015980028FBD001
:106390001D98007E002878D01598401E169931F976
:1063A00020200846159930F921008242ECD0DDE921
:1063B000151000EB810042881499169800EB8100BB
:1063C0004088101A00B20A901D98B0F912000028F7
:1063D00047DA1C9801902098808EADF800001D9837
:1063E00042881499169800EB8100408811180A9889
:1063F0000844401C00B209901D9802881499169810
:1064000030F821001044401E00B208901F9BDDE9C7
:10641000091205F055FA1C9801902098808EADF86D
:1064200000001D98C2881499169800EB81004088DE
:1064300011180A980844401C00B209901D988288DF
:106440001499169830F821001044401C00B20890AE
:106450000A98404202B21F9BDDE9080105F030FABC
:1064600041E01C9801902098808EADF800001D98A6
:1064700042881499169800EB81004088104400B2BD
:1064800009901D98028801E0BDE02FE0169830F8D1
:1064900021001044401E00B208901F9BDDE9091244
:1064A00005F00EFA1C9801902098808EADF800003F
:1064B0001D98C2881499169800EB810040881044FA
:1064C00000B209901D988288169830F82100104477
:1064D000401C00B208900A98404202B21F9BDDE9BE
:1064E000080105F0EDF915981490A7E01598401EE5
:1064F000169901EB8000B0F902200846159900EBCF
:106500008100B0F9020082427DD0DDE9151030F83B
:106510002120149930F82100101A00B20A901D9819
:10652000B0F90E00002845DA1C9801902098808E62
:10653000ADF800001D9842881499169800EB810070
:1065400040881044401E00B209901D980288169899
:1065500030F8210011180A980844401C00B2089035
:106560001F9BDDE9091205F07DF91C980190209828
:10657000808EADF800001D98C2881499169800EB23
:10658000810040881044401C00B209901D98828808
:10659000169830F8210011180A980844401C00B2DF
:1065A00008900A98404202B21F9BDDE9080105F0FD
:1065B00059F940E01C9801902098808EADF80000B9
:1065C0001D9842881499169800EB81004088104469
:1065D000401E00B209901D980288169830F82100DC
:1065E000104400B208901F9BDDE9091205F03AF94A
:1065F0001C9801902098808EADF800001D98C288EC
:106600001499169800E019E000EB810040881044CE
:10661000401C00B209901D988288169830F821001D
:10662000104400B208900A98404202B21F9BDDE974
:10663000080105F017F91598149000BF1598401C33
:1066400000B21590189915988842FFF683AE1898F5
:1066500000287DD01B980028FBD01D98007E0028C4
:1066600077D01398401E169901EB800042880846A7
:10667000149900EB81004088101A00B20A901D980E
:10668000B0F91200002851DA1C9801902098808EF1
:10669000ADF800001D9842881499169800EB81000F
:1066A000408811180A98084400B208901D98028882
:1066B0001499169830F821001044401E00B207903B
:1066C0001D98418A0A98084400B2099002461F9B0F
:1066D000DDE9070105F0F4F81C9801902098808E00
:1066E000ADF800001D98C2881499169800EB81003F
:1066F000408811180A98084400B208901D988288B2
:106700001499169830F821001044401C00B20790EC
:106710001D98418A0A980844404200B209900246F6
:106720001F9BDDE9070105F0CBF84DE01C980190B7
:106730002098808EADF800001D9842881499169814
:1067400000EB81004088104400B208901D9801E0E1
:10675000E8E03AE00288169830F821001044401E24
:1067600000B207901D98418A0A98084400B2099027
:1067700002461F9BDDE9070105F0A2F81C98019075
:106780002098808EADF800001D98C2881499169844
:1067900000EB81004088104400B208901D98828868
:1067A000169830F821001044401C00B207901D9844
:1067B000418A0A980844404200B2099002461F9B51
:1067C000DDE9070105F07CF8ACE01398401E16994E
:1067D00031F820200846149930F82100101A00B230
:1067E0000A901D98B0F90E0000284FDA1C9801900D
:1067F0002098808EADF800001D9842881499169854
:1068000000EB810040881044401E00B208901D98A3
:106810000288169830F8210011180A98084400B22E
:1068200007901D98C1890A98084400B20990024651
:106830001F9BDDE9070105F015F81C9801902098D1
:10684000808EADF800001D98C2881499169800EB50
:10685000810040881044401C00B208901D98828836
:10686000169830F8210011180A98084400B20790D1
:106870001D98C1890A980844404200B20990024616
:106880001F9BDDE9070104F0EDFF4AE01C98019031
:106890002098808EADF800001D98428814991698B3
:1068A00000EB810040881044401E00B208901D9803
:1068B0000288169830F82100104400B207901D9805
:1068C000C1890A98084400B2099002461F9BDDE97D
:1068D000070104F0C7FF1C9801902098808EADF846
:1068E00000001D98C2881499169800EB810040881A
:1068F0001044401C00B208901D988288169830F809
:106900002100104400B207901D98C1890A980844DC
:10691000404200B2099002461F9BDDE9070104F0E6
:10692000A1FF00BF002010900F901B9840B31D984E
:10693000007EB8B91D98B0F90E00002809DA4FF0B2
:10694000FF301090189808B9002000E010980F90C0
:106950001FE001200F90189808B9002000E00F9860
:10696000109016E01D98B0F91200002809DA4FF0D7
:10697000FF301090189808B9002000E010980F9090
:1069800007E001200F90189808B9002000E00F9848
:1069900010901D980088ADF838001D984088ADF81B
:1069A0003A0001200B901D98007E00287ED0B5E0B3
:1069B0000020159053E0BDF83820DDE9151030F8BF
:1069C0002100104400B2ADF83000BDF83A20DDE9F6
:1069D000151000EB81004088104400B2ADF8320081
:1069E000BDF830101D9800890844BDF83810401AD1
:1069F000401E00B2ADF83400BDF83200ADF83600EC
:106A00002098808E0A9002460CA81C9B1F9904F0C7
:106A1000A7FF1598F8B1DDE9151030F92120481EBF
:106A2000169931F92000824215D00B9898B91C981C
:106A30000090BDF832101D98408A081A00B20990E3
:106A40002098808E0A90BDF930000890DDE9091386
:106A50001F9A05F0A8FF1598401C00B215901899D0
:106A600015988842A7DB1B98F0B31C9801902098DA
:106A7000808EADF80000BDF838101D980089081A06
:106A800000B20A90BDF83A10169840880144109858
:106A9000081A00B20990BDF838101698008808440A
:106AA00000B208901F9BDDE9091200E0E7E004F066
:106AB000D9FE1C9801902098808EADF800001D989A
:106AC0000189BDF83800081A00B20A90BDF83A20D2
:106AD0001398401E169901EB8000408811180F98FA
:106AE000084400B2099000E00EE0BDF83820139889
:106AF000401E169931F82000104400B208901F9BE8
:106B0000DDE9091204F0AEFE00200B901D9800890B
:106B1000ADF838001D984089ADF83A001D9800F096
:106B200036FB00287FF444AF159052E0BDF83820C2
:106B3000DDE9151030F82100104400B2ADF8300046
:106B4000BDF83A20DDE9151000EB810040881044C3
:106B500000B2ADF83200BDF830101D98008908442D
:106B6000BDF83810401A00B2ADF83400BDF832005C
:106B7000ADF836002098808E0A9002460CA81C9B27
:106B80001F9904F0EDFE1598F8B1DDE9151030F904
:106B90002120481E169931F92000824215D00B9809
:106BA00098B91C980090BDF832101D98408A081AB8
:106BB00000B209902098808E0A90BDF930000890AC
:106BC000DDE909131F9A05F0EEFE1598401C00B28E
:106BD0001590189915988842A8DB1B9800284DD06D
:106BE0001C9801902098808EADF800001D980089B7
:106BF000BDF83810401A401C404200B20A90BDF85F
:106C00003A101698408801441098081A00B209906A
:106C1000BDF8381016980088084400B208901F9BF1
:106C2000DDE9091204F01EFE1C9801902098808E68
:106C3000ADF800001D980089BDF83810401A401CBE
:106C400000B20A90BDF83A201398401E169901EB45
:106C50008000408811180F98084400B20990BDF8D0
:106C600038201398401E169931F82000104400B2C5
:106C700008901F9BDDE9091204F0F4FD6DE1B7E017
:106C80000020159058E0BDF83820DDE9151030F8E7
:106C90002100104400B2ADF83000BDF83A20DDE923
:106CA000151000EB81004088104400B2ADF83200AE
:106CB000BDF83000ADF83400BDF832101D984089A1
:106CC0000844BDF83A10401A401E00B2ADF8360034
:106CD0002098808E0A9002460CA81C9B1F9904F0F5
:106CE0003FFE159820B3DDE9151000EB8100B0F9E7
:106CF0000220481E169901EB8000B0F90200824282
:106D000016D00B98A0B91C980090BDF830101D98B3
:106D1000C089081A00B208902098808E0A90BDF9A8
:106D20003200099001460A9B1F9A089805F03BFE25
:106D30001598401C00B21590189915988842A2DB4E
:106D40001B98E8B31C9801902098808EADF8000045
:106D5000BDF83A101D984089081A00B20A90BDF893
:106D60003A1016984088084400B20990BDF83810CF
:106D70001698008801441098081A00B208901F9BCA
:106D8000DDE9091204F09CFD1C9801902098808E8A
:106D9000ADF800001D984089BDF83A10401A00B2C5
:106DA0000A90BDF83A201398401E169901EB800016
:106DB0004088104400B20990BDF83820139800E0D4
:106DC0000CE0401E31F8200011180F98084400B262
:106DD00008901F9BDDE9091204F072FD00200B9062
:106DE0001D980089ADF838001D984089ADF83A002B
:106DF0001D9800F0BBF900287FF442AF159057E0D2
:106E0000BDF83820DDE9151030F82100104400B23B
:106E1000ADF83000BDF83A20DDE9151000EB810037
:106E20004088104400B2ADF83200BDF83000ADF833
:106E30003400BDF832101D9840890844BDF83A105E
:106E4000401A00B2ADF836002098808E0A900246B3
:106E50000CA81C9B1F9904F083FD159820B3DDE955
:106E6000151000EB8100B0F90220481E169901EBC5
:106E70008000B0F90200824216D00B98A0B91C988D
:106E80000090BDF830101D98C089081A00B2089013
:106E90002098808E0A90BDF93200099001460A9B25
:106EA0001F9A089805F07FFD1598401C00B21590B8
:106EB000189915988842A3DB1B98E8B31C98019099
:106EC0002098808EADF800001D984089BDF83A10DA
:106ED000401A401C404200B20A90BDF83A10169881
:106EE0004088084400B20990BDF838101698008810
:106EF00001441098081A00B208901F9BDDE909129E
:106F000004F0DEFC1C9801902098808EADF8000003
:106F10001D984089BDF83A10401A401C00B20A90F2
:106F2000BDF83A201398401E169901EB8000408866
:106F3000104400B2099000E00FE0BDF8382013982B
:106F4000401E31F8200011180F98084400B2089034
:106F50001F9BDDE9091204F0B3FC21B000BD2DE94F
:106F6000F04F85B00446894615461E46E88E401E01
:106F700007B24FEA670807F0010AFF2E02D1382056
:106F8000405D03E03820405D704300128346208856
:106F9000A0EB080000B2ADF80C00A08840445044BB
:106FA00000B2ADF810006088ADF80E00E088ADF8D2
:106FB0001200BDF90C00BDF91010884202DABDF9CB
:106FC0000C0001E0BDF91000ADF80400BDF90C00A3
:106FD000BDF91010884202DDBDF90C0001E0BDF9D9
:106FE0001000ADF80800BDF90E00BDF9121088427E
:106FF00002DABDF90E0001E0BDF91200ADF806009D
:10700000BDF90E00BDF91210884202DDBDF90E0077
:1070100001E0BDF91200ADF80A00A88E5B460246F9
:107020004946009001A804F09BFC05B0BDE8F08F34
:1070300030B50B8803804B88438013888380548845
:10704000C480B0F90430B0F900401B1B002B05DDF3
:10705000B0F90430B0F900401B1B04E0B0F9003077
:10706000B0F904401B1B1BB28381B0F90030B0F9AA
:107070000440A34201DA012301E04FF0FF33C38152
:10708000B0F90630B0F902401B1B002B05DDB0F94A
:107090000630B0F902401B1B04E0B0F90240B0F921
:1070A0000630E31A1BB20382B0F90240B0F9063091
:1070B0009C4201DA012301E04FF0FF334382B0F933
:1070C0000C40B0F91050AC4202DDB0F90C4002E0C7
:1070D000B0F910406442234604EBD374641024B228
:1070E00084820023C382B0F90C30B0F91040A3426F
:1070F00001DD012300E00023037603880381448837
:10710000448130BD0146B1F90800B1F90420904234
:1071100007D1B1F90A20B1F90600824201D100205D
:107120007047888AC882B1F91600B1F90C20524222
:10713000904209DD888A0A8A801A00B2888208890A
:10714000CA89104400B20881B1F91600B1F91020C3
:10715000904209DA888A8A89104400B28882488974
:107160004A8A104402B24A810120D9E770B5044628
:10717000B4F9085000BF2046FFF7C4FF08B900204B
:1071800070BDB4F90800A842F5D00120F8E770B549
:107190000446B4F90A5000BF2046FFF7B3FF08B910
:1071A000002070BDB4F90A00A842F5D00120F8E72C
:1071B00070B505460C46032C0DD10A21064800681F
:1071C00010F022FE28460BF015FE06463146024816
:1071D000006810F0D9FE70BDF80300202DE9FE43D1
:1071E0000446002004F010FA0546704A00212046AB
:1071F0000FF005F96D4A012120460FF000F900213A
:1072000020460FF0ADF86A496A4810F047FB40F29B
:10721000333003F004FA00906648BDF80010418056
:10722000002002906348BDF8081081806248006821
:1072300001906048BDF804104181012181817F21C6
:10724000C1730021C18001465C4810F027FBD822A1
:107250009621552003F017FA00905848BDF8001009
:10726000418090226221372003F00DFA00905348AC
:10727000BDF800108180F122D521BB2003F003FA74
:1072800000904E48BDF800100184002120460BF00C
:107290006DFC074620460DF0A3FB4000032190FB48
:1072A000F1F006B2314638460DF078FD444A00212F
:1072B00038460BF09DFE424A012138460BF098FEFD
:1072C0003C4A042138460BF093FE3C4A05213846DF
:1072D0000BF08EFE1920002302221946009038463A
:1072E0000CF058FD37A238A138460BF0C7FA80469B
:1072F000364940460DF050FD35A237A138460BF017
:10730000BDFA8046314940460DF046FD33A235A115
:1073100038460BF0B3FA80462C4940460DF03CFD50
:1073200031A233A138460BF0A9FA804627494046DE
:107330000DF032FD2FA231A138460BF09FFA8046A6
:10734000224940460DF028FD2DA22FA138460BF012
:1073500095FA80461D4940460DF01EFD2BA22CA13A
:1073600038460BF08BFA8046184940460DF014FD64
:10737000002120460CF0ECF9814626A148460CF08D
:1073800027FBA5F1640001B248460DF01DFE2E4911
:1073900048460CF071F93220002302222146009069
:1073A00048460CF0F7FCBDE8FE8300008004002096
:1073B000E8050020B46E0020A0FA0108F06E00205D
:1073C000BC0400204E657700EF859B00B17100087A
:1073D0004F70656E00000000EF81BB0044656C6576
:1073E00074650000EF80940045646974000000003B
:1073F000EF8180005361766500000000EF83870015
:107400005769466900000000EF87AB004750530002
:10741000EF84A400436C69636B206120627574740F
:107420006F6E20746F20636F70792069747320749D
:1074300065787420746F20746865205465787420B2
:1074400061726561200000000004002010B5242155
:1074500006480CF004F812F037FE054908600023D6
:1074600003221E21034812F069FC10BD50070020C2
:10747000A0000020254B000870B50546686818B1CB
:10748000D5E9000100F024F80F480BF0F3FF0446A3
:107490000CB900BFFEE704B970BD95F8200020F0DC
:1074A000040085F82000242229462046FCF758FFD6
:1074B000606820B1238A19B2D4E900029047012004
:1074C0000249087000BFE7E750070020A400002031
:1074D0002DE9F04107460D464FF0000810480BF02B
:1074E0009FFF044617E021460D480BF09EFF06461D
:1074F0002068B8420ED16068A84200D055B9214634
:1075000007480CF074F820460CF0B0FB0120054948
:10751000087080463446002CE5D14046BDE8F08135
:1075200050070020A400002010B50146088BB1F9D7
:107530001A40A04202D14FF4806205E0B1F91A006E
:1075400080020C8B90FBF4F2D1E90440001B00FB9D
:1075500002F39B120869034418B210BD0146B1F949
:107560001A000A8B904202DB888A00B27047088AB0
:1075700000B2FBE730B504460B46981A002801DD3F
:10758000981A00E0D01A05464FF47A70684390FBD1
:10759000F4F1B1F5803F01D34FF6FF7101B9491CF9
:1075A00088B230BD0A6802604A68426070470A6863
:1075B00002604A68426070470A6802604A68426036
:1075C00070470A6802604A68426070470A68026051
:1075D0004A68426070470A6802604A6842607047C1
:1075E0000A6802604A68426070470A6802604A6836
:1075F000426070470146C8884A88801A401C00B221
:1076000070470146C8884A88801A401C00B27047FB
:107610000146C8884A88801A401C00B2704701465B
:10762000C8884A88801A401C00B270470146C88842
:107630004A88801A401C00B270470146C8884A88B0
:10764000801A401C00B2704710B50146B1F9042001
:10765000B1F90030D21A521CB1F90630B1F902402A
:107660001B1B5B1C02FB03F010BD014688880A88C7
:10767000801A401C00B27047014688880A88801A28
:10768000401C00B27047014688880A88801A401C56
:1076900000B27047014688880A88801A401C00B2F0
:1076A0007047014688880A88801A401C00B27047DB
:1076B000014688880A88801A401C00B2704701463B
:1076C00088880A88801A401C00B270470146888862
:1076D0000A88801A401C00B27047014688880A88D0
:1076E000801A401C00B27047014688880A88801AB8
:1076F000401C00B2704730B50346B1F90040B2F902
:107700000050AC4202DDB1F9004001E0B2F90040A6
:107710001C80B1F90240B2F90250AC4202DDB1F96D
:10772000024001E0B2F902405C80B1F90440B2F9D4
:107730000450AC4202DAB1F9044001E0B2F904406D
:107740009C80B1F90640B2F90650AC4202DAB1F9B8
:10775000064001E0B2F90640DC800120B3F90040A8
:10776000B3F90450AC4205DCB3F90240B3F906505A
:10777000AC4200DD002030BD10B502460020B2F959
:107780000030B1F90040A34212DBB2F90230B1F986
:107790000240A3420CDBB2F90430B1F90440A34229
:1077A00006DCB2F90630B1F90640A34200DC012044
:1077B00010BD0246B2F90000B1F90430984213DC62
:1077C000B2F90400B1F9003098420DDBB2F90200C1
:1077D000B1F90630984207DCB2F90600B1F902307F
:1077E000984201DB012070470020FCE710B50246FB
:1077F0000020B1F90030B2F90040A34212DBB1F928
:107800000030B2F90440A3420CDCB1F90230B2F905
:107810000240A34206DBB1F90230B2F90640A342AE
:1078200000DC012010BD10B5B1F90030B2F9004004
:10783000A34202DAB1F9003001E0B2F9003003806E
:10784000B1F90230B2F90240A34202DAB1F90230D2
:1078500001E0B2F902304380B1F90430B2F90440DA
:10786000A34202DDB1F9043001E0B2F904308380B3
:10787000B1F90630B2F90640A34202DDB1F9063093
:1078800001E0B2F90630C38010BD10B5029C018042
:1078900042808380C48010BD42880A44521E12B2C6
:1078A000C2807047F0B503460C46154600BF988865
:1078B0001988401A401C00B2064600BFD888598873
:1078C000401A401C00B207461C805D8031461846B5
:1078D00000F005F839461846FFF7DEFFF0BD0288D4
:1078E0000A44521E12B28280704770B505460C469B
:1078F00028460DF06FF80646748128460DF048F9C9
:1079000070BD70B5044620680DF064F805464FF070
:10791000FF306881B5F908100022206800F0AEFA47
:1079200070BD00002DE9F04180460E4631464046CC
:107930000CF098FD07460FB900BFFEE717B900200D
:10794000BDE8F0813948006820B938460DF089F863
:10795000364908603648006820B938460DF008F806
:1079600033490860142138460CF069FD04460CB90F
:1079700000BFFEE70CB90020E2E700206080642031
:10798000A08000202080C820A0810020E0802081ED
:10799000401E60810020A073264820612649384699
:1079A0000DF0B6FA254938460DF0D1F916BB002185
:1079B00038460DF0C3F92122C82138460DF0AAFA45
:1079C000B4F900100022384600F058FA12F068FBB3
:1079D000054655B1002138466A6D00F035FA01219F
:1079E0003846AA6D00F030FA03E0154938460DF02C
:1079F000E0FA19E030460CF0EDFF0546688860803B
:107A0000A888A0802888208028692061A87B00F0B1
:107A10000100A07338460DF083F9B4F9001000227C
:107A2000384600F02BFA00BF384689E7F400002002
:107A3000F0000020AC050020557F0008457A0008C2
:107A4000700500202DE9F04F8FB080468A469146A0
:107A5000B9F1020F08D14A4651464046C34B1B6854
:107A600098470FB0BDE8F08FB9F1000F7ED14046C6
:107A70000CF0D3FF834640460DF0F1F898B1002199
:107A8000404600F087F90546294668460FF006FF94
:107A90000021ADF80C105B466A46514608F1100013
:107AA00004F0ECFF05E04A4651464046AF4B1B68E8
:107AB000984740460CF08EFF0446B4F90010B4F924
:107AC0000200814208D1A07B00F0010020B9B4F986
:107AD0000600401C00287DD00121404600F05AF9E4
:107AE00005460DA8D8F810100160D8F814104160B0
:107AF00000BFBDF83410688B084400B2ADF8340004
:107B0000BDF83810A88B081A00B2ADF83800BDF8DF
:107B10003610E88A084400B2ADF83600BDF83A10D5
:107B2000288B081A00B2ADF83A0000BFBDF8380043
:107B3000BDF83410401A401C00B2064600BFBDF824
:107B40003A00BDF83610401A401C00B20746BE424B
:107B500073DBB4F90A00401C48B3B4F90620B4F949
:107B60000230D21A7243B4F9043000E0DBE0B4F919
:107B700002C0A3EB0C0392FBF3F210B2B4F908209D
:107B8000B4F90230D21A7243B4F90430B4F902C025
:107B9000A3EB0C0392FBF3F211B20A1AB4F90A3008
:107BA0005A4300EB222212B2ADF838200FE0B4F9AC
:107BB0000000B4F90210401A7043B4F90410B4F98B
:107BC0000220891A90FBF1F000B2ADF83800BDF840
:107BD000340000E0A6E0BDF838100844401E00B2B2
:107BE000ADF83800A07B00F00100002823D0B4F9E4
:107BF000020000281FDAB4F9040000281BDDB4F9E4
:107C00000410B4F902208A1AB4F9021049427143EF
:107C100091FBF2F1BDF83420114408B2BDF93810DF
:107C2000814202DDADF8340005E0BDF83810ADF852
:107C30003410ADF838006EE0FFE7B4F90A00401CDC
:107C400038B3B4F90620B4F90230D21A7A43B4F941
:107C50000430B4F902C0A3EB0C0392FBF3F210B2B0
:107C6000B4F90820B4F90230D21A7A43B4F90430D6
:107C7000B4F902C0A3EB0C0392FBF3F211B20A1A9F
:107C8000B4F90A305A4300EB222212B2ADF8362082
:107C90000FE0B4F90000B4F90210401A7843B4F9C7
:107CA0000410B4F90220891A90FBF1F000B2ADF88B
:107CB0003600BDF83A00BDF83610401A401C00B23C
:107CC000ADF83600A07B00F0010020B3B4F902004B
:107CD000002820DAB4F9040000281CDDB4F90410EF
:107CE000B4F902208A1AB4F902104942794391FB8F
:107CF000F2F1BDF83A20511A08B2BDF936108142AE
:107D000002DAADF83A0005E0BDF83610ADF83A10E9
:107D1000ADF8360000BF5B462A4651460DA804F078
:107D2000ADFE00BF20E0B9F1010F1DD140460CF0BF
:107D300096FFC8B140460CF070FE04460021404654
:107D400000F028F80546294668460FF0A7FD0021F7
:107D50008DF80810ADF8121023466A46514608F116
:107D6000100004F08BFE00BF01207AE6F000002036
:107D700070B5044620460CF02DFE0546B5F904000A
:107D800070BD70B5044620460CF024FE0546B5F9DA
:107D9000020070BD2DE9F04105460C46002628463C
:107DA0000CF018FE074614B1012C07D104E0284658
:107DB0000CF05AFE064603E03E6901E0002600BFD3
:107DC00000BF3046BDE8F08170B5054628460CF08E
:107DD00001FE0446B4F90A00401C10B1B4F90800D1
:107DE00070BDB4F90000FBE72DE9F04107460D46F0
:107DF000164638460CF0EEFD0446B4F90200A842DF
:107E000005D1B4F90400B04201D1BDE8F081A680EB
:107E10006580B4F90000B04206DD2680B4F9001098
:107E20000022384600F02AF8B4F90000A84206DA29
:107E30002580B4F900100022384600F01FF83846BB
:107E40000CF0A6FE00BFE0E72DE9F04106460D4626
:107E5000144630460CF0BEFD074615B1012D0AD17F
:107E600004E0214630460DF0A4F804E03C613046C1
:107E70000CF049FF00BF00BFBDE8F0812DE9F041E3
:107E80008AB007460E46904638460CF0A3FD0446DD
:107E9000B4F90000B04202D10AB0BDE8F081B4F9F3
:107EA0000400B04202DAB4F9040000E030460546AE
:107EB000B4F90200A84202DDB4F9020000E028464D
:107EC0000546B4F90000A84200D1E5E7B8F1000F7B
:107ED00004D1258038460CF05BFE33E0B4F90A008B
:107EE000401C18B92088E080258102E02089E080CC
:107EF00025810197002005904FF48070069012486C
:107F0000029012480390124804900020ADF81E0021
:107F1000A08980B2ADF81C009DF8240020F001007B
:107F20008DF824000020ADF820009DF8240020F0FA
:107F300002008DF824000020ADF8220001A8FFF710
:107F40009BFA00BF00BFA7E7EB780008297500087F
:107F5000037900082DE9F04104460D4616463246E5
:107F600029462046164B1B6898470746012F02D02A
:107F70003846BDE8F081052D0ED101212046FFF7DE
:107F800009FF8046B8F91200B4F93410884202DDC6
:107F9000B8F81200A08611E0062D0FD1314600205E
:107FA00005E051F8202002B903E0421CD0B20728B6
:107FB000F7DB00BF03A241F8202000BF3846D8E716
:107FC000F40000206C765F62617200002DE9F047DA
:107FD00080460F463946404602F028FC06460EB958
:107FE00000BFFEE716B90020BDE8F08741480068F1
:107FF00020B930460CF035FD3E4908603E48006827
:1080000020B930460CF0B4FC3B4908601C213046D6
:108010000CF015FA04460CB900BFFEE70CB90020BD
:10802000E2E7207E20F00700207634486060344983
:10803000A1603449E1603449216134496161207EA5
:1080400020F008002076324930460CF061FF3149BB
:1080500030460CF07CFE8FBBB8F1000F07D04FF01C
:1080600001094946304603F097F900BF00BF0121DE
:1080700030460CF063FE12F013F80546CDB1002136
:1080800030462A6900F08FF8012130466A6900F015
:108090008AF802213046AA6900F085F803213046AB
:1080A000EA6900F080F8042130462A6A00F07BF883
:1080B00003E0304661680CF07CFF18E0FFE73846CB
:1080C0000CF088FC0546287E217E60F302012176B3
:1080D000287EC108207E61F3C30020761422291D6A
:1080E000201DFCF73DF930460CF01AFE00BF30466B
:1080F0007AE70000F8000020FC000020E8050020DE
:1081000024060020600600209C060020D8060020DF
:10811000F58100081981000870B505460E46144621
:10812000022C01D1002070BD34B9224631462846C8
:10813000064B1B68984707E0012C05D122463146C3
:108140002846024B1B6898470120ECE7FC00002002
:1081500070B5044620460CF03DFC0546287E00F034
:10816000070070BD70B5044620460CF033FC054690
:10817000287EC0F3C00070BD70B506460C46304680
:108180000CF028FC0546287E00F00700A04209D02C
:10819000287E64F302002876281D50F8241030460B
:1081A0000CF007FF70BD2DE9F04107460E4615465D
:1081B00038460CF00FFC0446052E0ED2DFE806F020
:1081C000030507090B00656007E0A56005E0E560B1
:1081D00003E0256101E0656100BF00BF207E00F083
:1081E0000702201D50F8221038460CF0E2FEBDE8D0
:1081F000F08100002DE9F84F82460D469046424638
:1082000029465046824B1B6898470746012F02D0EB
:108210003846BDE8F88F50460CF0DCFB044650466B
:10822000FFF7A0FF0646072D12D1207E00F00700C1
:1082300020B901215046FFF79FFFE7E0207E00F0C4
:1082400007000228F9D103215046FFF795FFDDE032
:10825000092D13D1207E00F00700012804D1002150
:108260005046FFF789FFD1E0207E00F00700032889
:10827000E3D102215046FFF77FFFC7E0082D18D158
:10828000404608F035FF0028D7D0207E00F00700D8
:10829000012804D100215046FFF76EFFB6E0207E92
:1082A00000F007000328C8D102215046FFF764FF01
:1082B000ACE00A2D5CD1404608F01AFFF0BB00206C
:1082C0000090207E00F00700012807D136B9002178
:1082D0005046FFF751FF0020009027E0207E00F07D
:1082E0000700032807D136B902215046FFF744FFA3
:1082F000012000901AE0207E00F00700012808D13C
:10830000012E06D102215046FFF736FF01200090D2
:108310000CE0207E00F00700032807D1012E05D1D4
:1083200000215046FFF728FF002000905EB16A460A
:108330000E21504607F090FA074600E004E0012FB6
:1083400001D0384665E761E0207E00F00700012893
:1083500004D100215046FFF70FFF57E0207E00F0C8
:108360000700032852D102215046FFF705FF4DE0D8
:10837000112D38D198F80090B9F1130F02D0B9F14E
:10838000110F14D15046FFF7EDFE58B302215046AD
:10839000FFF7F2FE012000906A460E21504607F0DA
:1083A0005BFA0746012F01D0384632E71AE0B9F1EF
:1083B000140F02D0B9F1120F14D15046FFF7D2FEBC
:1083C00080B100215046FFF7D7FE002000906A469A
:1083D0000E21504607F040FA0746012F01D03846DB
:1083E00017E700BF12E08DB1062D0FD141460020E6
:1083F00005E051F8202002B903E0421CD0B2072862
:10840000F7DB00BF03A241F8202000BF384600E799
:10841000F80000206C765F62746E00002DE9F04178
:1084200007460C46164638460CF0D4FA0546288C0A
:10843000A04201DCBDE8F081A86830F81400B04328
:10844000A96821F8140021463846FDF7C9FC00BF91
:10845000F0E72DE9F04106460D4630460CF0BAFA39
:108460000746002406E02A4621463046FFF7D6FF9D
:10847000601C84B2388CA042F5DCBDE8F0810000BD
:108480002DE9F04780460E46314640460BF0EAFFA4
:1084900007460FB900BFFEE717B90020BDE8F08717
:1084A0004948006820B938460CF0DBFA46490860B4
:1084B000282138460BF0C3FF04460CB900BFFEE785
:1084C0000CB90020EAE7002020844FF6FF7060849A
:1084D000A08400206060A060206094F8260020F056
:1084E000010084F8260094F8260020F0020084F8A9
:1084F00026003648E06036492161364961613649D7
:10850000A1613649E1613648006820B938460CF06F
:108510002FFA33490860334938460CF0F9FC3249E8
:1085200038460CF014FC96BBC8224FF496713846BE
:108530000CF0F0FC2D49384600F0B0FA11F0B0FD17
:1085400005462DB300213846D5F8C42000F0C0FB05
:10855000C82042590121384600F0BAFB02213846B2
:10856000D5F8CC2000F0B4FB03213846D5F8D02054
:1085700000F0AEFB04213846D5F8D42000F0A8FB6B
:1085800005213846D5F8D82000F0A2FB04E004E02D
:10859000174938460CF00DFD13E030460CF01AFA7E
:1085A0000546142205F10C0104F10C00FBF7D8FE7E
:1085B000304600F003FA81464946384600F06EFA2C
:1085C00000BF38466AE7000020010020E8050020CF
:1085D00024060020600600209C060020D80600200B
:1085E0001C010020358D0008F585000800010020E1
:1085F000700500202DE9F74FA0B081469246BAF1F0
:10860000020F08D152464846BB4B21991B68984738
:1086100023B0BDE8F08FBAF1000F79D15246484639
:10862000B54B21991B68984748460CF0D3F904468E
:1086300048460CF019FA834648460CF0EEF91F90B4
:108640001DA948460CF08BF9002500260020099052
:1086500094F8260000F0010008B1012009900025DF
:1086600042E101E0701C86B2216851F82600A3A106
:10867000FBF7FAFE0028F5D0A16831F81500FCF7E9
:10868000EBFA00B12CE1606800EBC5011BA8FEF716
:1086900098FFBDF86C00BDF87410084400B2ADF846
:1086A0006C00BDF86E00BDF87610084400B2ADF85D
:1086B0006E00BDF87000BDF87410084400B2ADF84B
:1086C0007000BDF87200BDF87610084400B2ADF835
:1086D00072001BA8FEF7ECFF1A9000BFBDF87200F5
:1086E000BDF86E10401A401C00B21990A16831F814
:1086F0001500FCF7A9FA8046A16831F81500FCF7CF
:10870000AFFA30B10521484600F060F9074635E080
:10871000EFE0608CA84208D0B8F1000F05D101212C
:10872000484600F053F9074628E0608CA84208D17B
:10873000B8F1000F05D10221484600F047F907467D
:108740001CE0608CA84208D0B8F1010F05D10321CC
:10875000484600F03BF9074610E0608CA84208D17B
:10876000B8F1010F05D10421484600F02FF9074662
:1087700004E00121484600F029F9074639460AA8D5
:108780000FF08CF80AA8807B00F01000F0B3B9F964
:108790001210BBF916000844BDF96E10884205D1CD
:1087A0000AA8807B20F002010AA88173B9F916108B
:1087B000BBF91800081ABDF97210884205D10AA841
:1087C000807B20F001010AA8817336B90AA8807B5A
:1087D00020F004010AA881730DE0711E226852F88E
:1087E000210046A1FBF740FE28B90AA8807B20F0B3
:1087F00004010AA88173701C216851F820000078D8
:1088000048B1711C226852F8210000E009E03BA148
:10881000FBF72AFE28B90AA8807B20F008010AA8E5
:1088200081730AAA1BA81F9B219904F027F93878A5
:1088300000F0010000B15F46786A08901DA8FEF7BD
:1088400037FF0690B7F92A2006990998CDE900214B
:108850000290206850F82610B7F9283007A8089A27
:1088600011F004FDBDF91C201A99881A00EBD07193
:10887000BDF86C2002EB610109B2ADF86C10BDF9D6
:108880001E201999881A00EBD071BDF86E2002EBFA
:10889000610109B2ADF86E10BDF86C00BDF81C1096
:1088A000084400B2ADF87000BDF86E00BDF81E10AF
:1088B000084400B2ADF8720000204FF6FF71CDE918
:1088C0000201CDE904100998216851F82610CDE97C
:1088D00000103A461BA81F9B219903F01DF900BF09
:1088E000681C85B2701C86B2208CA8423FF7B9AED6
:1088F00000BF01208CE600001C0100200A000000DF
:1089000070B5044620460CF065F80546A88C70BD8D
:1089100070B5054628460CF05DF80446A08C4FF66D
:10892000FF71884204D0A18C284600F01BF870BD6E
:108930000020FCE72DE9F04107460C461546384675
:108940000CF048F80646308CA04202DC0020BDE85E
:10895000F081B06830F81400284008B10120F6E733
:108960000020F4E72DE9F04180460F4640460CF028
:1089700031F80546288CB84202DA0020BDE8F081C3
:10898000002400260CE0701C86B2601C84B22968AA
:1089900051F8240008A1FBF767FD08B9601C84B2F8
:1089A000BE42F0D1288CB04201D10020E6E7286811
:1089B00050F82400E2E700000A00000070B5044609
:1089C00020460CF007F80546286870BD2DE9F041F7
:1089D00006460D46002730460BF0FCFF0446062DE8
:1089E00013D2DFE805F003080A0C0E1030460CF035
:1089F0003BF807460BE0E76809E0276907E067698D
:108A000005E0A76903E0E76901E0002700BF00BFB8
:108A10003846BDE8F0812DE9F04107460C46164680
:108A200038460BF0D7FF0546288CA04201DCBDE894
:108A3000F081A86830F814003043A96821F81400C8
:108A400021463846FDF7CCF900BFF0E72DE9F041AB
:108A500006460D4630460BF0BDFF0746002406E0F3
:108A60002A4621463046FFF7D6FF601C84B2388C78
:108A7000A042F5DCBDE8F08170B505460E462846FB
:108A80000BF0A8FF0446218C4A003146A068FBF792
:108A900022FC2846216800F001F870BD2DE9F34F53
:108AA0008DB08846B8F1000F02D10FB0BDE8F08F4D
:108AB0000D980BF08FFF06464146306811F0D6FE48
:108AC00018B941460D98FBF78BFFC6F800800021CE
:108AD0000D98FFF77BFF04460D980CF029F801462E
:108AE000608B091AA08B081A00B20C900D980BF03D
:108AF00077FFE18A411A208B081A00B20B90B4F973
:108B0000169001200A90002009900EE0099958F86B
:108B100021006EA1FBF7A8FC18B90A98401CC0B24E
:108B20000A900998401CC0B20990099958F8210090
:108B3000FBF7B2FB0028E9D10A98411EB4F91E20C8
:108B40000B9801FB12000FFA80FB0A989BFBF0F0D8
:108B50000FFA80FBABF101000FFA80FB00200690BA
:108B60000027C246ABE00020089000250BE07A19F0
:108B7000B16831F81200FCF7DDFE0899084480B2B4
:108B80000890681C85B25AF8250050A1FBF76CFCD0
:108B900028B15AF82500FBF77FFB0028E7D15AF8E7
:108BA0002500007838B90B98A0EB0901208B084408
:108BB000401E0FFA80FB002D6FD0691EB4F91E20F5
:108BC0000C9801FB120000B20590B4F91A00039052
:108BD0000020079004905CE0B16831F81700FCF7C2
:108BE000A9FE05994843089990FBF1F000B2029064
:108BF0000298401E00B202900599079848430899D0
:108C000090FBF1F1B4F91E20049800FB0211608B77
:108C1000084400B20390E08BC8B9B4F91A10039865
:108C2000814214D009EB0B0000B200907A1ED6F8F6
:108C300004C00CEBC202B2F904100CEBC700DDE972
:108C400002C2624413B24A46FEF71FFE0EE009EB71
:108C50000B0000B20090716801EBC700DDE9022152
:108C600011440BB24A460399FEF70FFEB16831F882
:108C70001700FCF75FFE0799084480B2079006983A
:108C8000401C80B20690781C87B20498401C80B2C9
:108C900004900498A8429FDB00BFE08B58444844EE
:108CA0000FFA80F95AF82500FBF7F6FA00B907E049
:108CB000681C0AEB800A0698401C80B2069052E7B6
:108CC00000BF0D980BF064FF00BFEEE60A00000045
:108CD0002DE9F04107460E46144638460BF07AFE61
:108CE0000546062E22D2DFE806F003080D12171CF7
:108CF000214638460CF05DF918E0EC6038460BF080
:108D000047FF13E02C6138460BF042FF0EE06C6128
:108D100038460BF03DFF09E0AC6138460BF038FFF8
:108D200004E0EC6138460BF033FF00BF00BFBDE844
:108D3000F08100002DE9FC5F81460D4617463A465A
:108D400029464846F84B1B6898478046B8F1010F02
:108D500002D04046BDE8FC9F48460BF03BFE04466F
:108D600035B960680AF082FFA0680AF07FFF34E23C
:108D7000042D01D0022D04D148462168FFF78EFE54
:108D80002BE2072D44D108F069F98246504608F0DD
:108D90008FF9012804D0504608F08AF9032813D12E
:108DA00001A9384608F074F901A94846FCF779FD95
:108DB0000646618C4846FDF713F86684A684618CEC
:108DC0004846FDF70DF800BFA08C4FF6FF718842B2
:108DD0001DD0A28CA16831F81200FBF739FFB0B9A1
:108DE000A28CA16831F81200FBF73AFF78B9A28C87
:108DF000A16831F81200FBF72FFF40B9A08C00905A
:108E00006A460E21484606F027FD804600BFE4E191
:108E1000082D2ED101A9384608F03AF901A9484693
:108E2000FCF73FFD0646608CB0421FD0384608F084
:108E30008FF9608C4FF6FF71884203D0618C4846F1
:108E4000FCF7CEFF4FF6FF7086420FD0A08C00904B
:108E50006A460E21484606F0FFFC8046B8F1010F35
:108E600003D131464846FCF7BBFF00BF6684A684A9
:108E7000B3E10A2D5FD1608C4FF6FF718842C6D0F6
:108E8000628CA16831F81200FBF7F2FE20B3628C0D
:108E9000A16831F81200FBF7D7FE50B1618CA068D1
:108EA00030F8110020F08000628CA16821F81200D7
:108EB00009E0618CA06830F8110040F08000628CFD
:108EC000A16821F8120094F82600C0F3400018B100
:108ED000618C484611F0B6FC618C4846FCF780FF77
:108EE00048460BF07AFD0646304606F0E8FE484557
:108EF00002D04FF6FF706084A28CA16831F8120096
:108F0000FBF7A6FEB0B1A28CA16831F81200FBF706
:108F1000A7FE78B9A28CA16831F81200FBF79CFE7D
:108F200040B9A08C00906A460E21484606F094FC99
:108F3000804600BF51E10C2D25D1A08C4FF6FF716A
:108F4000884295D0A28CA16831F81200FBF78CFE04
:108F500000288DD1A28CA16831F81200FBF780FEA9
:108F6000002885D1A28CA16831F81200FBF774FEAD
:108F70000028DFD1A08C00906A460E21484606F0FA
:108F80006BFC804629E1092D01D0102D07D14FF649
:108F9000FF706084A08448460BF0FAFD1DE10F2DA0
:108FA0002CD108F05BF88346584608F081F8064655
:108FB000012E0BD16946584608F06AF869464846C2
:108FC000FCF76FFC8246A4F822A011E0042E0DD11C
:108FD00048460BF002FD824606F068FE10B1002004
:108FE000608405E04FF6FF70608401E0002060843B
:108FF000608CA08448460BF0CBFDEEE0112D71D1C2
:1090000097F800A0BAF1130F18D1608C4FF6FF71DA
:10901000884202D10020608402E0608C401C6084A1
:10902000618C208C401E814202DB208C401E6084BB
:10903000608CA08448460BF0ABFDB5E0BAF1140F8C
:1090400012D1608C4FF6FF71884201D100206084FC
:10905000608C002802DD608C401E6084608CA084DF
:1090600048460BF095FD9FE0BAF1120F4CD100215C
:109070004846FFF7ABFC0090608C4FF6FF718842CA
:1090800002D10020608439E0628C616801EBC2008B
:10909000FEF70EFB628C616831F8321001EB600064
:1090A0000FFA80FB668C20E0606800EBC600B0F928
:1090B0000200628C616801EBC201B1F902108842C2
:1090C00011DD606830F9360058450CDC606800EB53
:1090D000C600B0F904100098B0F91A0008445845C9
:1090E00001DB05E061E0701C86B2208CB042DBDC65
:1090F00000BF208CB04200DD668400BF608CA0847D
:1091000048460BF045FD4FE0BAF1110F4CD100215C
:109110004846FFF75BFC0090608C4FF6FF71884279
:1091200004D10020608439E020010020628C616855
:1091300001EBC200FEF7BCFA628C616831F83210B4
:1091400001EB60000FFA80FB608C06B21FE06068E4
:1091500000EBC600B0F90200628C616801EBC2014D
:10916000B1F90210884210DA606830F936100098C0
:10917000B0F91A00081A584507DC606800EBC60011
:10918000B0F90400584500DB03E0701E06B2002E63
:10919000DDDA00BF002E00DB668400BF608CA08497
:1091A00048460BF0F5FC00BF17E0122D03D13846FE
:1091B0000121017011E0062D0FD13946002005E094
:1091C00051F8202002B903E0421CD0B20728F7DB97
:1091D00000BF03A241F8202000BF4046BAE50000CE
:1091E0006C765F62746E6D002DE9F34781464846E8
:1091F0000BF0F0FB054628460AF03CF904460CB992
:1092000000BFFEE714B90020BDE8FC87DFF86080EE
:109210000CB90020F8E7BDF80400A080698A480076
:109220000AF0FEFC2060206808B900BFFEE7206855
:1092300040B9214628460AF0DAF920460AF016FD20
:109240000020E1E70020E0802768002604E0A7F87E
:109250000080BF1C701C86B2688AB042F7DC2E20EA
:10926000405D401CC1B22E2041552046CCE7000095
:10927000E883FFFF2DE9F04180460E463146404627
:109280000BF0F0F807460FB900BFFEE717B9002052
:10929000BDE8F081342138460BF0D1F804460CB912
:1092A00000BFFEE70CB90020F2E7082120460AF0D3
:1092B000D6F800212E2001550020A0816420E081F5
:1092C00003202074052060740A206082012020752C
:1092D000002084F82A00FF212F2001557F21302013
:1092E00001550220A0850020208520626062A061D7
:1092F000E061FF212620015527200155A177E17764
:109300002948006820B938460BF032FB264908602E
:109310002648006820B938460BF0A3FB23490860B3
:10932000234938460BF0F4FD224938460BF00FFD77
:10933000B6B9C8224FF4967138460BF0EBFD10F029
:10934000AFFE054635B100213846D5F8882001F03A
:10935000C1F804E0184A0021384601F0BBF820E0CB
:1093600030460BF037FB0546287D2075A889A08183
:10937000E889E081287C2074687C6074688A608257
:109380002F20415D0155288D2085D5E90801C4E9CC
:109390000801D5E90601C4E9060138460BF0C0FC16
:1093A00000BF384674E70000240100202801002097
:1093B00009A50008BD930008700500202DE9FF47AE
:1093C00006460F461546022D08D12A463946304634
:1093D0002D4B1B68984704B0BDE8F087002D50D195
:1093E00030460BF01AFB814630460BF03DFB8246BF
:1093F0004B465246394606F1100003F03FFB30461B
:109400000BF0E8FA04463946304600F0E3F902A9C9
:1094100030460BF0A4FA02AA39466846FEF76BF90B
:109420008046B8F1000F27D0207D00F0010018B170
:109430006946304600F062FA207D00F0020018B163
:109440006946304600F0F6F8207D00F0040018B1BF
:109450006946304600F006FB207D00F0080018B198
:109460006946304600F0BEFB207D00F0100018B1C8
:109470006946304600F00AF83946304600F0CEF82A
:1094800000BF0120A7E70000240100202DE9F34FD1
:1094900099B0064630460BF09DFA044630460BF074
:1094A00047FB169030460BF09BFA8046B6F9100049
:1094B0001590B6F91200149030460BF0AEFA1290E7
:1094C000544903A80EF0EAF9204609F0C3FF054607
:1094D00099E094F82A0000F0010008B9E88800E05B
:1094E00000200FFA80FBA888ADF80E002F20015D48
:1094F0008DF81410159800B2ADF85C00CDF84CB0A2
:109500002868DDF84CB030F91B00B4F90C10401A93
:1095100000FB08F9B4F90E00B4F90C10401A99FBDD
:10952000F0F9A8EB09011498084400B2ADF85E0008
:10953000012760E0BDF85C00ADF86000BDF85E009A
:10954000ADF862000BEB0700618A90FBF1F201FBC2
:1095500012000FFA80FA16987843618A491E90FB30
:10956000F1F11598084400B2ADF85C00286830F9B4
:109570001A00B4F90C10401A00FB08F9B4F90E00F7
:10958000B4F90C10401A99FBF0F9A8EB09011498F2
:10959000084400B2ADF85E002968139831F9100054
:1095A0001D49884223D0286830F91A0088421ED00D
:1095B0001898009017980190BDF86000ADF8080069
:1095C000F18AADF80A1003AA6846129B1A9906F0B0
:1095D00050F8BDF85C00ADF80800F08AADF8020064
:1095E00003AA6846129B1A9906F043F800BFCDF80B
:1095F0004CA0781C87B2608AB8429BDC2946204682
:1096000009F01EFF0546002D7FF463AF1BB0BDE8D7
:10961000F08F0000F8040020E883FFFF70B50446D7
:109620000D462946204600F0D5FC2946204600F08C
:109630009DFB70BD2DE9F04F9DB006468946304632
:109640000BF0C8F9044630460BF072FA1890304619
:109650000BF0C6F917902E20005D401C618A48432C
:10966000189991FBF0F00FFA80F8404608EBD071A2
:1096700049100691554907A80EF010F90021ADF8E0
:109680002810ADF822102F20015D07A80172F08A82
:10969000ADF87200002792E018987843618A90FB39
:1096A000F1F00FFA80FB318A0698084458440FFA0B
:1096B00080FB204609F0CEFE05467BE094F82A00A8
:1096C00000F0010008B9E88800E0002000B2049032
:1096D000ADF86CB0BDF86C00404400B2ADF870005D
:1096E0000BEB08000FFA80FBBDF97000B9F9001010
:1096F000884200DA59E0BDF96C00B9F904108842DB
:1097000000DD59E0A888ADF81E000020059030204B
:10971000025DA88801460190059801F048F8029082
:1097200007A8BDF80810ADF8201004983844618AE5
:1097300090FBF1F201FB120000B20390296803983C
:1097400031F91000B4F90C10401A179948431690DB
:10975000B4F90E00B4F90C10411A169890FBF1F010
:109760001690DDE91610411A708A084400B2ADF86F
:109770006E001BAA494619A8FDF7BDFF8246BAF143
:10978000000F11D02968039831F910001049884260
:109790000AD030460BF041F9034607AA19A90290F6
:1097A00006F1100003F06AF900BF2946204609F0CF
:1097B00047FE0546002D81D100BF781C87B2608A24
:1097C000B8423FF769AF1DB0BDE8F08FF804002044
:1097D000E883FFFF2DE9F34F87B0834658460BF02F
:1097E000F9F8044658460BF03FF9064658460BF088
:1097F00014F9069058460BF09BF9039058460BF06D
:10980000EFF80290BBF91090BBF912A0207CB8B31E
:10981000B08918B14FF00108277C04E04FF0000830
:10982000207C401CC7B20FFA89F0ADF814000398F1
:10983000484400B2ADF8100045461FE0B6F93610B6
:109840000298401A6843217C491C90FBF1F000B259
:10985000ADF81600BDF81600504400B2ADF8160081
:10986000BDF81600ADF8120006983346009004A922
:1098700005A8089A02F078FD681CC5B2BD42DDDD7E
:10988000607CB8B3B08918B14FF00108677C04E080
:109890004FF00008607C401CC7B20FFA8AF0ADF8A8
:1098A00016000298504400B2ADF8120045461FE081
:1098B000B6F936100398401A6843617C491C90FB46
:1098C000F1F000B2ADF81400BDF81400484400B245
:1098D000ADF81400BDF81400ADF81000069833463A
:1098E000009004A905A8089A02F03EFD681CC5B2C4
:1098F000BD42DDDD09B0BDE8F08F00002DE9F34F7A
:1099000097B017980BF066F8044617980BF010F90B
:10991000149017980BF064F880461798B0F910600F
:109920001798B0F91200139017980BF076F8119071
:109930004A4902A80DF0B2FF2F20015D8DF84010BA
:10994000A18DADF83E10204609F084FD05467FE06C
:10995000A888ADF83C0094F82A0000F0010008B98E
:10996000E88800E000200FFA80FB30B2ADF8580024
:1099700030B2ADF85400CDF848B02868DDF848B0F2
:1099800030F91B00B4F90C10401A00FB08F9B4F9C7
:109990000E00B4F90C10401A99FBF0F9A8EB09017C
:1099A0001398084400B2ADF85600012748E0BDF80E
:1099B0005400ADF85800BDF85600ADF85A001498A0
:1099C0007843618A491E90FBF1F0304400B2ADF853
:1099D00054000BEB0700618A90FBF1F201FB1200CF
:1099E0000FFA80FA286830F91A00B4F90C10401AFE
:1099F00000FB08F9B4F90E00B4F90C10401A99FBF9
:109A0000F0F9A8EB09011398084400B2ADF856002C
:109A10002968129831F91000114988420CD0286841
:109A200030F91A00884207D0119802AB009015A9AE
:109A300016A8189A02F098FCCDF848A0781C87B2B6
:109A4000608AB842B3DC2946204609F0F9FC054695
:109A5000002D7FF47DAF19B0BDE8F08FF804002031
:109A6000E883FFFF2DE9F34F99B0074638460AF027
:109A7000B1FF044638460BF05BF8169038460AF002
:109A8000AFFF8146B7F910001590B7F91200149096
:109A900000201390514904A80DF000FF0021ADF8FB
:109AA0001C1047F61841ADF816102F20015D8DF8F7
:109AB0001810A18DADF81610204609F0CBFC054614
:109AC00086E094F82A0000F0010008B9E88800E078
:109AD00000200FFA80FBA888ADF812000020039048
