:020000040800F2
:10400000687C00204541000829490008DF45000878
:1040100025490008A5430008CD4B0008000000001A
:1040200000000000000000000000000057490008E8
:10403000DD45000800000000554900085949000806
:104040005F4100085F4100085F4100085F410008D0
:104050005F4100085F4100085F4100085F410008C0
:104060005F4100085F4100085F4100085F410008B0
:104070005F4100085F4100085F4100085F410008A0
:104080005F4100085F410008914300085F4100085C
:10409000B54B00085F4100085F4100085F41000820
:1040A000114A00085F4100085F4100085F410008B5
:1040B0005F410008494A0008714B00085F41000851
:1040C0005F4100085F4100085F4100085F41000850
:1040D0005F4100085F4100085F4100085F41000840
:1040E0005F4100085F4100085F4100085F41000830
:1040F0005F4100085F4100085F4100085F41000820
:104100005F4100085F4100085F4100085F4100080F
:104110005F4100085F4100085F4100085F410008FF
:104120005F410008A94300085F4100085F410008A3
:10413000DFF80CD000F0EEF800480047854D01088C
:10414000687C00200648804706480047FEE7FEE7F7
:10415000FEE7FEE7FEE7FEE7FEE7FEE7FEE7FEE737
:1041600069490008314100089FED1A1AF5EE000A6E
:1041700040EE010ABDEEE00AF5EEC00A10EE100AAC
:10418000F1EE10FA38BF401E00EE100A1349F7EEA8
:10419000001AB8EEC00A30EEC00ADFED0F0A20EEBA
:1041A000200AFCEEC00A10EE900AC0F3080000EEF0
:1041B000900A01EB8000F8EE600A90ED011A70EEB3
:1041C000600A90ED000A71EEE01A21EE800A00EE1E
:1041D000810A704783F9223E000000447C120208E5
:1041E000DFED1D0AB5EEC00A60EE200ABDEEE01A52
:1041F00011EE100AF1EE10FA38BF401E00EE100A60
:10420000B8EEC00A30EEC00ADFED140A20EE200A34
:10421000B4EEE00AF1EE10FAA8BF30EE600AFCEE50
:10422000C00A0F49F7EE001A10EE900AC0F308001A
:1042300000EE900A01EB8000F8EE600A90ED011AA2
:1042400070EE600A90ED000A71EEE01A21EE800A2D
:1042500000EE810A7047000083F9223E000000440E
:104260007C12020840EA01039B0703D009E008C959
:10427000121F08C0042AFAD203E011F8013B00F82B
:10428000013B521EF9D27047D2B201E000F8012B77
:10429000491EFBD270470022F6E710B513460A46C6
:1042A00004461946FFF7F0FF204610BD421C10F8E7
:1042B000011B0029FBD1801A704710B5002200E0D5
:1042C000521C835C8C5CA34201D1002BF8D1D8B284
:1042D000E1B2401A10BD034611F8012B00F8012B82
:1042E000002AF9D11846704730B50B460146002028
:1042F0002022012409E021FA02F59D4205D303FAA8
:1043000002F5491B04FA02F52844151EA2F1010228
:10431000F1DC30BD064C074D06E0E06840F00103DB
:1043200094E8070098471034AC42F6D3FFF704FF37
:10433000801A0208A01A020870B58C1810F8015BE8
:1043400015F0070301D110F8013B2A1106D110F82E
:10435000012B03E010F8016B01F8016B5B1EF9D132
:104360002B0705D40023521E0DD401F8013BFAE7B8
:1043700010F8013BCB1A921C03E013F8015B01F823
:10438000015B521EF9D5A142D8D3002070BD0000B8
:1043900010B50421024801F014F810F0B7FF10BD69
:1043A0000024014000BFFEE710B5022201210C48A5
:1043B00002F0B6F898B102220121094802F0A8F8EB
:1043C00001220221074802F04DFD0748006830B184
:1043D0000548006805F0E6F900200349086010BDB3
:1043E00000040240001001408404002010B50122A6
:1043F0001146022000F0C6F810BD10B503464FF676
:10440000FF7404EAC3304FF4F04404EAC1242043AB
:10441000C2F30A04204310BD10B500224FF480619E
:10442000034802F01FFD012013F020F810BD00002A
:10443000000C014010B501229102034802F012FD68
:10444000012013F013F810BD000C014010B500243A
:10445000002000F07BF804462404012000F076F8E8
:104460000443204610BD000010B5002440F2026055
:1044700012F028FA40F2036012F024FA40F20360CE
:1044800012F020FA12F000FC1023032219462148F2
:1044900002F0EDFC4FF48063032210211E4802F06D
:1044A000E6FC0423032210211B4802F0E0FC00225A
:1044B0004FF48061184802F0D5FC01221021154804
:1044C00002F0D0FC01220421134802F0CBFC0220B0
:1044D00012F0CCFF002204210F4802F0C3FCFFF7CA
:1044E0009BFFFFF7A7FFFFF781FF032000F02EF8E7
:1044F0000446012000F022F8002000F017F8012007
:1045000000F00CF840F2FF30844201D000BFFEE71B
:1045100010BD000000080140000C014010B5044629
:10452000A201C021062000F02DF810BD10B50446F0
:10453000A201C021052000F025F810BD10B50446E9
:1045400022460F21052000F01DF810BD70B504466D
:104550000025002221460120FFF74FFF06460022DA
:104560001021074802F07EFC304612F0C1FB0546E0
:1045700001221021024802F075FCC5F30A0070BD4B
:10458000000801402DE9F04107460D461646384621
:10459000FFF7DCFF0446AC4334432146384600F0C5
:1045A00003F8BDE8F081000070B504460D462A46C8
:1045B00021460020FFF721FF064600221021064871
:1045C00002F050FC304612F093FB01221021024809
:1045D00002F048FC70BD000000080140704700BFB9
:1045E000FEE7000010B50121034802F09EFC08B967
:1045F000002010BD0120FCE7001001402DE9F04132
:1046000004460D4616461F462A2000F065F904F1BF
:10461000280188B200F050F906F1280188B200F0B4
:104620004BF92B2000F058F905F1350188B200F064
:1046300043F907F1350188B200F03EF92C2000F073
:104640004BF9BDE8F0812DE9F04706460F461446C8
:104650001D46DDF820A0681E83B2601E82B2394676
:104660003046FFF7CBFFB8460EE0B14606E05046B5
:1046700000F022F909F101001FFA80F9A145F6DBEB
:1046800008F101001FFA80F8A845EEDBBDE8F087CD
:1046900010B540F2046012F015F940F2036012F018
:1046A00011F94FF4005303221021164802F0DFFBEA
:1046B00001225103134802F0D5FB4FF4804303223B
:1046C0001021104802F0D3FB012291030D4802F0A3
:1046D000C9FB4FF40043032210210A4802F0C7FB34
:1046E0000122D103074802F0BDFB0223032210215F
:1046F000044802F0BCFB01220221024802F0B2FB96
:1047000010BD00000010014010B5FFF7C1FF12F00E
:1047100009FB00224FF40041664802F0A3FB64202D
:1047200012F0A4FE0122D103624802F09BFB642038
:1047300012F09CFE012251035E4802F093FB6420BC
:1047400012F094FE112000F0C7F8782012F08EFECF
:10475000362000F0C1F8702000F0B7F83A2000F0E1
:10476000BBF8052000F0B1F8B22000F0B5F80C203D
:1047700000F0ABF80C2000F0A8F8002000F0A5F83D
:10478000332000F0A2F8332000F09FF8B72000F0AB
:10479000A3F8352000F099F8BB2000F09DF819200F
:1047A00000F093F8C02000F097F82C2000F08DF86E
:1047B000C22000F091F8012000F087F8C32000F03B
:1047C0008BF8122000F081F8C42000F085F820203A
:1047D00000F07BF8C62000F07FF80F2000F075F89D
:1047E000D02000F079F8A42000F06FF8A12000F0AC
:1047F0006CF8E02000F070F8D02000F066F804209B
:1048000000F063F80D2000F060F8112000F05DF872
:10481000132000F05AF82B2000F057F83F2000F04A
:1048200054F8542000F051F84C2000F04EF81820B5
:1048300000F04BF80D2000F048F80B2000F045F890
:104840001F2000F042F8232000F03FF8E12000F0A4
:1048500043F8D02000F039F8042000F036F80C209E
:1048600000F033F8112000F030F8132000F02DF89C
:104870002C2000F02AF83F2000F027F8442000F018
:1048800024F8512000F021F82F2000F01EF81F20FE
:1048900000F01BF81F2000F018F8202000F015F899
:1048A000232000F012F8212000F016F8292000F053
:1048B00013F810BD0010014010B50446201200F09E
:1048C0001FF8E0B200F01CF810BD10B504462046F9
:1048D00000F016F810BD000010B5044600224FF499
:1048E0008041064802F0BEFA204600F009F8012295
:1048F0009103024802F0B6FA10BD0000001001401A
:1049000010B5044600220221054802F0ABFA204609
:1049100012F050FA01220221014802F0A3FA10BD60
:104920000010014000BFFEE77047000010B50028EE
:1049300007DA0A07140E054A00F00F031B1FD454B0
:1049400003E00A07130E024A135410BD18ED00E0ED
:1049500000E400E07047704702480068401C0149CD
:10496000086070471803002008B52648006840F426
:104970007000244908602448006840F00100224982
:10498000086000BF2048006800F002000028F9D04D
:1049900000BF1D48406840F080001B49486000206F
:1049A000009002E00098401C009000985028F9D335
:1049B0001548406840F0900013494860002000907E
:1049C00002E00098401C009000985028F9D300BFE6
:1049D0000D48406820F003000B4948600846006815
:1049E0000A490840084908604FF41F0088600846DB
:1049F000006820F48020086000204860C86212F03F
:104A000031FD08BD88ED00E000100240FFFFF6FE1A
:104A100010B5202200210B4812F076FF2022012140
:104A2000084812F071FF20220221064812F06CFFA4
:104A30008021044813F085F910F09AFF022002F05B
:104A400097FE10BD002C014010B502213D4813F027
:104A50007BF9012846D102213A4813F072F901216D
:104A6000384813F06EF90021364812F0F1FD401C71
:104A700035490860084690ED000AF8EE400A9FEDBF
:104A8000331A80EE810A9FED321AC1EE000A9FEDC3
:104A9000310A80EE801A304880ED111A02F09EFA39
:104AA0002E49087008460078002816DD0846007870
:104AB000062812DC00202A49086328480078401E96
:104AC000284901EB800090ED000ADFED270A30EE67
:104AD000200A214880ED120A33E00120204981F8A4
:104AE00035002EE00121174813F02EF9012828D1B6
:104AF0000121144813F025F99FED1C0A164880ED9A
:104B0000110A02F06BFA154908700846007800286F
:104B100013DD0846007806280FDC08460078401EA2
:104B2000104901EB800090ED000ADFED0F0A30EE36
:104B3000200A094880ED120A03E00120084981F8A3
:104B4000350010BD0004004004000020002474491A
:104B5000920A863F00007A467C7300200000002005
:104B60004006002008000020DB0FC93F00000000C5
:104B700010B5002440210D4813F0E6F8012814D1A7
:104B800040210A4813F0DDF8084812F058FF04B23B
:104B90000021064812F057FF002C03DD02200449D3
:104BA000087002E001200249087010BD00080040B2
:104BB0003700002000B585B06A460021024801F0A8
:104BC00054F905B000BD00000064004000BFFEE7DE
:104BD0000FB4084B10B504A902AA039800F06AF8B4
:104BE000044602A9002000F006FA204610BC5DF839
:104BF00014FB0000F74F000802E008C8121F08C1AC
:104C0000002AFAD170477047002001E001C1121F4D
:104C1000002AFBD170472DE9F04107460E46FC689B
:104C2000A0680068B04202D90020BDE8F081B2B2AD
:104C3000A368198A986800F0D3FD0546681C40B146
:104C4000606800EBC50120680A68C2F313021044D3
:104C5000EBE70020E9E72DE9F04780460C461746D0
:104C60009946D8F80C50A8680068B84202D90020CC
:104C7000BDE8F087BAB2AB68198A986800F0B0FD59
:104C80000646701CA0B1686800EBC6010868000DFC
:104C900020804879E0700879A07088792071C879FF
:104CA00040B26071688AC0F38220A0710120DFE702
:104CB0000020DDE72DE9FF4F8BB088460546002632
:104CC00006E025280BD0DDE90D1290476D1C761CFF
:104CD00028780028F5D10FB03046BDE8F08F0024C9
:104CE000A146A2460122AE4900E0044315F8013F67
:104CF000203B02FA03F00842F7D128782A2810D086
:104D00006FF02F022878A0F13001092915D809EB9E
:104D1000890102EB410144F0020400EB01096D1C22
:104D2000F0E758F8041B5FEA010903D544F4005486
:104D3000C9F1000944F002046D1C28782E2817D10F
:104D400015F8010F44F004042A280ED06FF02F024A
:104D50002878A0F1300109290AD80AEB8A0102EB70
:104D6000410100EB010A6D1CF2E758F804AB6D1C21
:104D700028786C280FD006DC4C2817D068280DD076
:104D80006A2814D104E0742810D07A280FD10DE0DD
:104D900044F400140AE044F4801401E044F44014A4
:104DA0006978814202D104F580146D1C6D1C28784D
:104DB000692865D006DC00288DD0632827D06428B8
:104DC00006D15DE06E2808D073282AD0752877D0E8
:104DD000DDE90D129047761CE0E0C4F30250022892
:104DE00009D003280DD0D8F8001004280DD00E608B
:104DF00008F10408D2E0D8F80010F217C1E9006207
:104E0000F6E7D8F800100E80F2E70E70F0E718F819
:104E1000041B8DF8001000208DF80100EB460120E6
:104E200003E058F804BB4FF0FF3061074FF0000774
:104E300001D40AE07F1C57450DDA8742FADB1BF8E4
:104E400007100029F6D106E07F1C8742FCDB1BF827
:104E500007100029F8D1DDE90D23A9EB07008146F1
:104E6000214600F0B1F83044C61904E0DDE90D1226
:104E70001BF8010B90477F1EF8D22146484688E078
:104E800058F8040BC4F302514FF00A0B032900D168
:104E900000B2042900D140B2002802DA40422D219C
:104EA00002E0210505D52B218DF82410012104E015
:104EB00006E0E10710D02021F6E708AF089113E0E3
:104EC00058F8040BC4F302514FF00A0B032900D128
:104ED00080B2042900D1C0B20021EEE75946FFF7A5
:104EE00003FA303107F8011D0028F7D1ADEB0700B8
:104EF00000F1200B600702D524F4803401E04FF06C
:104F0000010ADA4502DDAAEB0B0000E00020824630
:104F100000EB0B0108980144A9EB01000A90E003A3
:104F200006D4DDE90D2321460A9800F04DF8064429
:104F30004FF0000908E009A911F80900DDE90D1298
:104F4000904709F10109761C08998945F3DBE003D4
:104F50000CD5DDE90D2321460A9800F035F806440A
:104F600004E0DDE90D1230209047761CBAF1000113
:104F7000AAF1010AF5DC05E0DDE90D1217F8010BD5
:104F80009047761CBBF10001ABF1010BF4DC0A98F1
:104F90002146DDE90D2300F005F806446D1C97E677
:104FA000092801002DE9F041044600251E46174658
:104FB000880404D405E039462020B0476D1C641EE7
:104FC000F9D52846BDE8F0812DE9F04104460025D9
:104FD0001E469046C80301D5302700E020278804EC
:104FE00004D505E041463846B0476D1C641EF9D52E
:104FF0002846BDE8F0810A68531C0B6010707047AA
:1050000010B540F2096011F05DFC012011F078FB51
:10501000002000F0D9F901221102224800F067FABD
:10502000002202211F4800F062FA00211D4800F012
:10503000DBF8032202211B4800F0B3F800230E2204
:105040001946184800F056F900230F22012115488F
:1050500000F050F9002308220221124800F04AF91A
:105060004FF4805202210F4800F0F1F80122022192
:105070000C4800F0CDF802210A4800F0A2F9042102
:10508000084800F09EF90421064800F084F905481C
:1050900000F0B5F8012012F0E9F9024800F06CF8D0
:1050A00010BD00000024014010B500F0F3F8FFF738
:1050B000A7FF10BD10B540F2046011F003FC40F2F0
:1050C000046011F0FFFB40F2026011F0FBFB0823CB
:1050D00004220021234801F0CAFE04231A460021BD
:1050E000204801F0C4FE0823042200211E4801F0DC
:1050F000BEFE40F20A6011F0E5FB002011F000FB5B
:10510000002000F061F90021184800F06DF801223C
:105110001146164800F045F84FF46022012113486B
:1051200000F095F801221146104800F071F80F4880
:1051300000F065F8012012F099F90C4800F01CF815
:10514000012012F093F90A480A490978425C0123C8
:105150000021064800F062F90121044800F0B8F986
:1051600010BD00000010014000080140002801406F
:105170003400002033000020816841F00801816084
:1051800000BF816801F008010029FAD1816841F06F
:105190000401816000BF816801F004010029FAD197
:1051A000704730B5012902D002291AD10CE0C36A38
:1051B00023F47003C362C36A541E4FF4700505EAFA
:1051C00004542343C3620DE0836B23F440138363D1
:1051D000836B541E4FF4401505EA04542343836344
:1051E00000E000BF00BF30BD21B1826842F4006220
:1051F000826003E0826822F4006282607047816806
:1052000001F0010119B9816841F001018160704725
:1052100072B101F001031BB1836843F48013836012
:1052200001F0020393B1836843F4004383600DE00F
:1052300001F001031BB1836823F48013836001F044
:1052400002031BB1836823F4004383607047012984
:1052500002D0022910D107E0836823F46023836021
:1052600083681343836008E0836823F4E04383602A
:1052700083681343836000E000BF00BF7047CA43E8
:10528000026070470246002013680B4003B1012002
:105290007047000010B540F2046011F013FB40F2BB
:1052A000046011F00FFB40F2036011F00BFB40F2C1
:1052B000026011F007FB1023042200210A4801F0CC
:1052C000D6FD202304220021074801F0D0FD012350
:1052D00004220021054801F0CAFD08230422002110
:1052E000034801F0C4FD10BD00100140000C014056
:1052F00000080140F0B50C46876BC7F30156856B7B
:10530000E71CBF1B07EB870C1F2707FA0CF7BD43F1
:10531000E71CBF1B07EB870702FA07F73D438563CE
:105320000A2A0DD2016902EB420C072707FA0CF793
:10533000B94302EB420703FA07F73943016112E070
:10534000122A10D2C168A2F10A0707EB470C0727FF
:1053500007FA0CF7B943A2F10A0707EB470703FA6C
:1053600007F73943C160F0BD02460B4633B1012B4C
:1053700006D0022B06D0032B08D105E0D16B07E045
:10538000116C05E0516C03E0916C01E0002100BF5D
:1053900000BF88B2704701F001021AB1426842F0C2
:1053A0004002426001F002021AB1426842F020025B
:1053B000426001F004021AB1426842F08002426089
:1053C0007047CA43026070470549096821F470219B
:1053D000034A1160114609680143116070470000DB
:1053E0000424014010B5014600230022032911DAEC
:1053F00000BF0AE001EB0110074C04EB4000801CE9
:1054000030F812000344501C82B2102AF2DBC3F3BE
:105410000F1010BD0020FCE788050020F0B51D46E8
:1054200006290CD2436B01EB81071F26BE40B34314
:1054300001EB810602FA06F63343436322E00C29AE
:105440000ED2036B8E1F06EB86071F26BE40B343AA
:105450008E1F06EB860602FA06F63343036311E05D
:1054600010290FD2C36AA1F10C0606EB86071F268E
:10547000BE40B343A1F10C0606EB860602FA06F61F
:105480003343C3620A2A0CD2046902EB420707269F
:10549000BE40B44302EB420605FA06F6344304610B
:1054A00011E0122A0FD2C468A2F10A0606EB4607E1
:1054B0000726BE40B443A2F10A0606EB460605FAEB
:1054C00006F63443C460F0BD0146C86C80B2704734
:1054D00001F001021AB1826842F48002826001F098
:1054E00002021AB1826842F4001282607047AAB1C7
:1054F00001F480731BB1436843F48073436001F48B
:1055000080631BB1436843F48063436001F002038E
:10551000CBB1836843F00203836014E001F480732D
:105520001BB1436823F48073436001F480631BB1B3
:10553000436823F48063436001F002031BB1836876
:1055400023F002038360704710B502212A48FFF759
:1055500099FE01284ED102212748FFF790FE2648E8
:10556000FFF7B2FF2549097801EB0111244A02EB4C
:105570004101891C214A127802EB0212204B33F8B8
:10558000122021F812001D48007800EB0010194687
:1055900031F81000401C1949097801EB01111A4635
:1055A00022F811001548007800EB0010114631F880
:1055B0001000102806DB00201049097801EB0111CA
:1055C00022F811000D480078401C0C49087008466C
:1055D0000078032801DB002008700A480749097891
:1055E000425C012300210448FFF718FF0121024813
:1055F000FFF76EFF10BD00000028014033000020BF
:10560000880500203400002010B58AB0044694F8C4
:105610002000C0F3400020B994F8200000F0010001
:1056200070B194F82000C0F34000F0B994F8200065
:1056300000F00100C8B194F82000C0F38000A0B1D0
:105640002422214601A8FEF70DFE214619480BF041
:1056500034FB20460BF09CFB01201749087004988E
:1056600010B101A8049988471FE0E08B404200B2C6
:10567000608394F8200000F00100B0B194F820108D
:10568000C1F3800119B9A18B494209B26183103479
:10569000217C8908C943227C61F38202227420683C
:1056A000616821606060103C00BF034800780AB068
:1056B00010BD0000F4090020F40300202DE9F041A2
:1056C00007462F480BF012FA044608E0206A20F043
:1056D0000800206221462A480BF00DFA0446002CEF
:1056E000F4D1284800680EF0B5FF064624480BF0B8
:1056F000FDF904463CE000202349087094F820009E
:10570000C0F3C00038BB206A20F0080008302062D7
:10571000608B304400B26083B4F91A0000281ADBB1
:10572000B4F91A00218B884202DD208B00B260831D
:105730002046A16888470546606818B129B2D4E9B7
:1057400000029047B4F91A00218B884202DB204600
:10575000FFF75AFF00BF0C48007820B108480BF053
:10576000C5F9044604E0214605480BF0C4F9044697
:10577000002CC0D10EF07CFF02490860BDE8F0812A
:10578000F4090020F0030020F403002030B50346A4
:10579000022B04D10E48405C5043001230BD032B55
:1057A00004D10C48405C50430012F7E7042B04D1AD
:1057B0000948405C50430012F0E7C1EBC105581E98
:1057C000B5FBF0F0C4B20548005D5043000AE5E7C0
:1057D000CE920108D0920108D3920108D792010815
:1057E000F0B503460C460025661E11E0A81900EB33
:1057F000D077791033F81100904201DD4E1E07E09A
:1058000033F81100904201DA4D1C01E00846F0BD6A
:10581000B542EBDD4FF0FF30F9E7D0ED061A90ED21
:10582000072A71EEC21AF0EE610AC0ED090AD0ED46
:10583000001A90ED012A42EE201AB0EE610AD0ED76
:10584000041AF4EEC01AF1EE10FA04D2D0ED041AE4
:10585000C0ED081A0DE0D0ED051AF4EEC01AF1EE15
:1058600010FA04DDD0ED051AC0ED081A01E080ED54
:10587000080AD0ED081A30EE611AD0ED001A90ED4A
:10588000022A42EE201A90ED032A42EE411AC0EDA0
:10589000001A704761480078002875D05F4890F87A
:1058A000600030B1012815D002282BD003284BD13D
:1058B00039E05A48008959498988884205DA5748A9
:1058C0000089401C5549088103E00120534981F8B3
:1058D00060003AE0514890ED030AD0ED0D0AB4EEB5
:1058E000E00AF1EE10FA08D290ED030AD0ED0E0AAC
:1058F00030EE200A80ED030A03E00220474981F8D8
:10590000600022E0454840894449C988884205DA58
:1059100042484089401C4149488103E003203F49F7
:1059200081F8600011E03E4890ED000A3D48D0ED5E
:10593000060A30EE600A3C4880ED000A0120374933
:1059400088700020087000E000BF00BF344890ED70
:10595000000A3248D0ED030A30EE200A304880EDCC
:10596000000A90ED000ADFED310AB4EEE00AF1EE34
:1059700010FA51DD90ED000ADFED2C0A30EE600ADE
:1059800080ED000A48E0FFE7264890ED060A264829
:10599000D0ED000A30EE200A214880ED000A2248AE
:1059A00090ED000AB0EEC00ADFED210AB4EEE00A85
:1059B000F1EE10FA19DD90ED000AB5EEC00AF1EE35
:1059C00010FA08D290ED000ADFED190A30EE200A35
:1059D00080ED000A0EE0144890ED000ADFED140A95
:1059E00030EE600A80ED000A04E09FED120A0E48D6
:1059F00080ED000A0B4890ED190ADFED0F0AB4EEB6
:105A0000E00AF1EE10FA07DD90ED190ADFED0A0A5F
:105A100030EE600A80ED190A704700007C730020A8
:105A2000B0720020E07300203C050020DB0FC9406D
:105A3000CDCC4C3D000000006D11C93830B5014699
:105A40000020AF231EE0C41804EBD4756A10354C57
:105A500004EB8204B4F902408C4201DA531E10E0D8
:105A6000304C04EB8204B4F902408C4201DD501C3E
:105A700007E02C4C34F9224000EE104AB8EEC00A80
:105A800030BD00BF9842DEDD38B9264AB2F90020A9
:105A900000EE102AB8EEC00AF2E7AF2B07D1214A78
:105AA000B2F9BC2200EE102AB8EEC00AE8E7421EA6
:105AB0001C4C34F9222000EE102AB8EEC00AF0EE99
:105AC000400A421E04EB8202B2F9022000EE102AC4
:105AD000B8EEC00AB0EE401A224632F9202000EE9D
:105AE000102AB8EEC00AF0EE401A224602EB8002FD
:105AF000B2F9022000EE102AB8EEC00AB0EE402A39
:105B000071EEE02A00EE101AB8EE400A30EE410ABB
:105B100022EE800A32EE413AC0EE032A32EEA00AAB
:105B2000AEE700005400002010B500F0F3F800F0DC
:105B3000B7FA00F007F80221014800F092F910BD11
:105B40000064004000B589B006A9002000F0AFFA5B
:105B500001A9012000F0ABFA40F2197010F0B2FE7A
:105B60001F4800F03FF800208DF81C0001208DF840
:105B70001D0000208DF81E0001208DF81F00002060
:105B80008DF820008DF821008DF818008DF819008F
:105B900006208DF81A0001208DF81B000C20ADF8AE
:105BA000220006A90E4800F0CBF80020ADF80E0048
:105BB000ADF810000120ADF812000020ADF804008F
:105BC000ADF80600ADF80800ADF80A00ADF80C001D
:105BD00001208DF8140001A800F014F809B000BDF0
:105BE0000064004010B504460548844207D140F2E5
:105BF000194010F087FE40F2194010F073FE10BDFE
:105C00000064004010B50021837A012202FA03F1FA
:105C10003E4A126842F001023C4B1A603B4A1C3279
:105C200012688A43394B1C331A60C289DAB9374A81
:105C30000C3212688A43354B0C331A60C288344BDD
:105C400003EA024243881A434389304C403444F803
:105C5000332082882E4B03EA024203881A43438989
:105C600004EBC3035A60C289012A1BD1274A0C32B4
:105C700012680A43254B0C331A600288244B03EA4E
:105C8000024243881A434389204C403444F833206D
:105C900082881F4B03EA0242C3881A43438904EBFC
:105CA000C3035A6082893AB9184A121D12688A439E
:105CB000164B1B1D1A6006E0144A121D12680A4397
:105CC000124B1B1D1A6002893AB9104A143212682D
:105CD0008A430E4B14331A6006E00C4A14321268E1
:105CE0000A430A4B14331A60027C012A06D1074A80
:105CF0001C3212680A43054B1C331A60034A1268AF
:105D000022F00102014B1A6010BD00000066004045
:105D10000000FFFF10B540F2026010F0D3FD4FF419
:105D2000006303224821054801F0A1F84FF4805395
:105D300003221821014801F09AF810BD0008014023
:105D400070B502464FF6FF730020146824F0020479
:105D50001460146844F00104146000E05B1E546891
:105D600004F001040CB9002BF8D1546804F00104CC
:105D70000CB9002074E00C784FF0404505EA8474BB
:105D80004D784FF0407606EA05652C438D784FF448
:105D9000702606EA05452C43CD784FF4E00606EA66
:105DA00005552C434D896D1EC5F309052C43D4615F
:105DB0000C79012C04D1146844F08004146003E0D1
:105DC000146824F0800414604C79012C04D1146808
:105DD00044F04004146003E0146824F040041460AC
:105DE0008C79012C04D1146844F02004146003E081
:105DF000146824F020041460CC79012C04D11468B8
:105E000024F01004146003E0146844F010041460DB
:105E10000C7A012C04D1146824F00804146003E007
:105E2000146844F0080414604C7A012C04D11468FE
:105E300044F00404146003E0146824F004041460C3
:105E4000146824F0010414604FF6FF7300E05B1E39
:105E5000546804F001040CB1002BF8D103B1012007
:105E600070BD42690A434261704710B500F5D873AE
:105E700003EB01131B6803F004031372137A3BB99D
:105E800000F5D87303EB01131B685B0D136006E08C
:105E900000F5D87303EB01131B68DB08536000F5B2
:105EA000D87303EB01131B6803F00203537200F570
:105EB000DA7303EB01131B681B0AD37400F5DA7362
:105EC00003EB01131B6803F00F03937200F5DC73FF
:105ED00003EB01131B68D37200F5DC7303EB0113B2
:105EE0001B681C0A147300F5DC7303EB01131B68B9
:105EF0001C0C547300F5DC7303EB01131B681C0EC0
:105F0000947300F5DE7303EB01131B68D37300F584
:105F1000DE7303EB01131B681C0A147400F5DE73B7
:105F200003EB01131B681C0C547400F5DE7303EBC8
:105F300001131B681C0E947421B9C36843F020033D
:105F4000C36003E0036943F02003036110BD000058
:105F500030B502460B460021906800F08060B0F139
:105F6000806F00D110E0906800F00060B0F1006F29
:105F700001D1012108E0906800F08050B0F1805F0D
:105F800001D1022100E00321032901D1032030BD0A
:105F900002F5C07000EB0110006800F0010402F58A
:105FA000C07000EB01100460187A88B918883B4C67
:105FB00004EA40505C7A204302F5C07404EB0114FB
:105FC0002468204302F5C07404EB0114206013E040
:105FD0006FF00704586804EAC0001C7A20435C7A1A
:105FE000204302F5C07404EB01142468204302F539
:105FF000C07404EB0114206002F5C27000EB0110C4
:10600000006820F00F0402F5C27000EB011004607C
:1060100002F5C27000EB011000689C7A204302F583
:10602000C27404EB01142060987B4FF07F4404EAB3
:1060300000605C7B4FF47F0505EA044420431C7B31
:106040002D1205EA04242043DC7A204302F5C474AF
:1060500004EB01142060987C2C0404EA00605C7C52
:106060002D0205EA044420431C7C2D1205EA042479
:106070002043DC7B204302F5C67404EB011420604E
:1060800002F5C07000EB0110006840F0010402F559
:10609000C07000EB01100460084678E70000E0FFE4
:1060A00010B50122114614200FF07CFE10BD10B572
:1060B000024609B900BFFEE732B1012A16D0022A12
:1060C00020D0032A41D12EE000234B71CB718B717C
:1060D00040F2FF334B8100230B724B7002238B7015
:1060E0000023CB700B714B720B7030E00123CB811E
:1060F00000230B740B810B804B808B80CB808B81BA
:106100004B8124E0002005E0002401F10B031C5426
:10611000431CD8B20828F7D300238B724B600B7254
:106120004B720B6013E0002005E0002401F10B032B
:106130001C54431CD8B20828F7D300238B724B6041
:106140000B72CB744B720B6001E000BFFEE700BF27
:1061500010BD000090ED030A80ED060A90ED030AE1
:10616000DFED080A20EE200AD0ED040AB0EE001A96
:1061700060EE810A9FED031A00EE810A80ED070AA6
:10618000704700003ACD133F10B540F2057010F093
:1061900099FB10BD184909684908184AB1FBF2F18A
:1061A000491E174A116016491439096841F0010166
:1061B000134A143A11600021121F11601049091D81
:1061C00008600F492839096841F008010C4A283A4B
:1061D00011601146096841F00101116000BF0849D2
:1061E0001839096801F001010029F8D00021044A9A
:1061F000183A1160704700004403002040420F002D
:10620000281400402DE9F04705460C461646A088A4
:106210002188401A401C07B2E0886188401A401C5F
:106220000FFA80F817FB08F916480560164810F0B9
:10623000DDFD0021144810F023FE134810F01BFE72
:10624000B4F806C01FFA8CF3B4F804C01FFA8CF23D
:10625000B4F802C01FFA8CF1B4F800C01FFA8CF039
:10626000FEF7CCF900220221084800F0FBFD0122D4
:106270009103064800F0F6FD4946304601F0FCF96E
:10628000BDE8F08784040020003C0040001001407D
:10629000704770B505460C462146284600F0ACF91B
:1062A00008B900BFFEE704EB8400810005F1080097
:1062B000405820F0010104EB8400820005F1080041
:1062C000815070BD70B505460C462146284600F049
:1062D00093F908B900BFFEE704EB8400810005F1E3
:1062E0000800405840F0010104EB8400820005F1F1
:1062F0000800815070BD70B505460C462146284601
:1063000000F07AF908B900BFFEE704EB84008100D1
:1063100005F10800405820F0200104EB84008200C1
:1063200005F10800815070BD70B504460D46294640
:10633000204600F061F908B900BFFEE705EB8500D3
:10634000810004F10800405820F0010105EB8500B0
:10635000820004F108008150002105EB85008200D5
:1063600004F10800815005EB8500820004F10C0067
:10637000815005EB8500820004F11000815005EB8F
:106380008500820004F1140081506068AA000F218A
:1063900091400843606070BD30B503461C688D00B5
:1063A00002FA05F52C400CB1012000E0002030BDC0
:1063B0002DE9F04104460D4616462946204600F0D8
:1063C0001BF908B900BFFEE705EB8500820004F168
:1063D00010003168815005EB8500820004F1140043
:1063E000B1688150308A81B205EB8500820004F1EA
:1063F0000C00815005EB8500810004F1080047582E
:1064000027F47C57F16870680843716908430743B3
:1064100005EB8500810004F108004750307E01281B
:106420000ED105EB8500810004F10800405840F0D2
:10643000400105EB8500820004F1080081500DE069
:1064400005EB8500810004F10800405820F0400170
:1064500005EB8500820004F108008150707E012860
:106460000ED105EB8500810004F10800405840F092
:10647000800105EB8500820004F1080081500DE0E9
:1064800005EB8500810004F10800405820F08001F0
:1064900005EB8500820004F108008150B07E70B9E0
:1064A00005EB8500810004F10800405820F0100140
:1064B00005EB8500820004F1080081500DE005EB3A
:1064C0008500810004F10800405840F0100105EB00
:1064D0008500820004F108008150BDE8F08170B5AC
:1064E00004460D4616462946204600F085F808B9B0
:1064F00000BFFEE705EB8500810004F1080040586D
:10650000304305EB85018A0004F10801885070BD15
:1065100010B543688C0002FA04F42343436010BDB5
:1065200070B5034600BF00BF022A04D0042A11D070
:10653000082A2DD11DE018688E0002FA06F600EA3E
:10654000060501EB8100860003F10800805900F088
:1065500002041FE018688E0002FA06F600EA06053B
:1065600001EB8100860003F10800805900F004046B
:1065700010E018688E0002FA06F600EA060501EB44
:106580008100860003F10800805900F0080401E052
:1065900000BFFEE700BF15B10CB1012070BD0020A7
:1065A000FCE770B506460C4615462146304600F01D
:1065B00023F808B900BFFEE704EB8400810006F170
:1065C0001400455070BD70B505460C46214628465E
:1065D00000F012F808B900BFFEE704EB8400810068
:1065E00005F10800405820F4804104EB840082004B
:1065F00005F10800815070BD02460120034B9A420C
:1066000002D1042900DD0020704700000004024090
:1066100008B900BFFEE7002101604160017681609A
:10662000C1604176016181764161704770B506466F
:106630000C46154621463046FFF7DEFF08B900BF7D
:10664000FEE7A9B204EB8400820006F10C00815041
:1066500070BD70B505460C4628460BF0D5F90646C8
:10666000348428460BF0A0FA70BD70B50546286842
:106670000BF0CAF904462820005D20F00201282012
:106680000155005D20F0040128200155005D20F037
:10669000100128200155005D20F008012820015537
:1066A00028680BF081FA70BD10B5002440221D4906
:1066B000002000F063F81B48C46B1B4884422FD1B4
:1066C0001A481849098801801948164949880180E3
:1066D000184814498988018017481249897901703E
:1066E00016481049B1F80710018015480D49497A3C
:1066F000017014480B49897A017013480949B1F8AF
:106700000B10018011480749B1F80D1001801048A5
:106710000449B1F80F1001800E480249497C01700C
:1067200010BD000048050020481255AA2000002096
:106730002200002024000020260000202800002045
:106740002A0000202B0000202C0000202E0000201A
:1067500030000020320000207CB504460D4616466D
:106760004FF47A702B4601222146CDE90060A0202B
:1067700000F00FFE052010F079FE7CBD7CB50446CC
:106780000D4616464FF47A702B4601222146CDE97C
:106790000060A02000F0B2FD7CBD000010B5194CD7
:1067A00040211948FDF777FD1748184909880180ED
:1067B0001749098841801749098881801649097855
:1067C000817116490988A0F80710154909784172A6
:1067D00014490978817214490988A0F80B101349EB
:1067E0000988A0F80D1012490988A0F80F10114966
:1067F00009784174C46340220146002000F01CF86F
:1068000010BD0000481255AA4805002020000020B5
:106810002200002024000020260000202800002064
:106820002A0000202B0000202C0000202E00002039
:1068300030000020320000202DE9F04705460F46C9
:1068400014464FF00008C146C24600262846E91704
:1068500005EB5171C910A5EBC10101F0FF0ACAF1A6
:106860000800C6B22046E11704EB5171C1F3C70816
:10687000E11704EB5171C910A4EBC10101F0FF094C
:10688000BAF1000F22D1B8F1000F05D14A463946BE
:106890002846FFF761FF54E008E008223946284601
:1068A000FFF75AFF05F10800C5B20837B8F100003C
:1068B000A8F1010101F0FF08EFD1B9F1000F40D0BC
:1068C0004A4639462846FFF747FF3AE0B8F1000F3D
:1068D00005D14A4639462846FFF73EFF31E0A01B66
:1068E00084B22046E11704EB5171C1F3C708E117E8
:1068F00004EB5171C910A4EBC10101F0FF093EB1D5
:10690000324639462846FFF727FFA819C5B2374453
:1069100008E0082239462846FFF71EFF05F1080067
:10692000C5B20837B8F10000A8F1010101F0FF0875
:10693000EFD1B9F1000F04D04A4639462846FFF797
:106940000BFFBDE8F0870000024908780021014AEA
:10695000117070473700002010B540F203600FF04F
:10696000B1FF40F203600FF0ADFF40F204600FF0A2
:10697000A9FF402303220421074800F078FA80236E
:1069800003220421044800F072FA012303220421A7
:10699000024800F06CFA10BD000C014000100140EC
:1069A00010B5012211461E200FF0FCF9FFF7D4FFAD
:1069B00000F004F800F030FE10BD000000B587B014
:1069C00040F202700FF07EFF1F4811F03FF80020E8
:1069D000ADF80400ADF80600ADF808004FF6FF7002
:1069E00003900020ADF80A008DF8100001A91648A8
:1069F00011F0ACF80020ADF814000120ADF816003D
:106A00000020ADF818001020ADF81A0005AA0021EA
:106A10000D4811F0E7F805AA01210B4811F0E2F842
:106A20005021094811F081F900231A460321064834
:106A300011F0A2F94021044811F07FF9024811F049
:106A400073F807B000BD00000008004070B50446B0
:106A50000D460026207800F0010068B92068B5EBEB
:106A6000500F09D82946204600F020F8206820F071
:106A70000100401C2060261D304670BD10B5014647
:106A8000002011B9084A10680CE00A1D0B6802EBDF
:106A90005300031D044C246804F58044A34200D332
:106AA000002000BF10BD00000404002030B501F03C
:106AB000030212B121F00301091D0A1D0368B2EBA4
:106AC000530F01D1026851080268B1EB520F0ED08A
:106AD000031D5A18146824F0010414600468C1EB03
:106AE0005404241F156864F35F05156000BF026835
:106AF00061F35F02026030BD2DE9F84F044688461D
:106B0000914694F8580000F0010008B1BDE8F88FF4
:106B1000E56800264FF0010A4FF0010B00BF8DB968
:106B200094F85800C0F3001000B956B9BBF1000F3B
:106B300000D1EBE72046C04705464FF0000AD34698
:106B400000E0E3E716B92E4606B9DFE7BAF1000F19
:106B500006D029462046C8470546B54200D1D5E7AC
:106B60004FF0010A05B9DAE728680AF05BFF00B9BF
:106B700000E0D4E700BFE068A84200D1C6E7E068C3
:106B8000A8B1E168086800221021C3699847E1684C
:106B9000002208680D2106F065FC0090009801288D
:106BA00000D0B3E7E16808680AF0FEFF00BFE560C7
:106BB000E168086800220F21C3699847E168002254
:106BC00008680C2106F04EFC0746012F00D09DE717
:106BD000E16808680FF052F9E16808680AF0E4FF1C
:106BE000A06910B12046A169884700BF8EE7000068
:106BF0002DE9FC4780460E4616B90020BDE8FC870B
:106C0000D8F80C406069B04201D1A069F6E70025D0
:106C1000AEE005EB8501A06850F82100301A019024
:106C200005EB8501A06800EB81008088019988420E
:106C300000D29BE0002705EB8501A06800EB8100F6
:106C4000807C00F0030040B905EB8501A06800EBF3
:106C50008100C0880199471884E005EB8501A06890
:106C600000EB8100807C00F0030001280FD105EBD0
:106C70008502A16801EB8201C86805EB8502A16865
:106C800001EB8201C988019A825C8F186AE005EBEA
:106C90008501A06800EB8100807C00F003000228E1
:106CA00027D13948009005EB8503A06800EB8300ED
:106CB000028A05EB8503A06800EB8300022381684C
:106CC00001A80DF0F5FF8146B9F1000F10D005EBDA
:106CD0008502A16801EB82018968A9EB01004008E7
:106CE00005EB8502A16801EB8201C9880F1800BF7E
:106CF00038E005EB8501A06800EB8100807C00F0A6
:106D0000030003282ED12048009005EB8503A068DE
:106D100000EB8300028A05EB8503A06800EB83008B
:106D20000223816801A80DF0C3FF8146B9F1000F6D
:106D300017D005EB8503A26802EB83029268A9EBEA
:106D40000200400805EB8503A26802EB8302D168CC
:106D500005EB8503A26802EB8302D2880B5CD7188F
:106D600000BF00BF6661A761384647E7681C85B26F
:106D7000608AC0F30900A8423FF74BAF666100206C
:106D8000A06100BF3AE70000318F01082DE9FC5FE8
:106D900080460D461646D8F80C704FF0000A788AE7
:106DA000C0F34030002841D1FC68A068C0F3016006
:106DB000D8B9D4F8009005EB062080B2019027489E
:106DC0000090A06820F07F420223494601A80DF000
:106DD0006FFF8346BBF1000F06D0ABEB0900400804
:106DE000616811F900A000BF1FE0A068C0F3016056
:106DF00001281AD1D4F8009005EB0620019018481C
:106E00000090A06820F07F420423494601A80DF0BD
:106E10004FFF8346BBF1000F06D0ABEB0900000922
:106E2000616811F900A000BF00BF13E0F868436873
:106E3000595D43689A5D00290BDD002A09DD531E68
:106E40004C1E90F80DC004FB0C330468E35C4FFA51
:106E500083FA00BF5046BDE8FC9F0000AD740008F7
:106E60008D7400080AB1016100E041617047F0B51E
:106E7000044616460025002201F00F0501F0100718
:106E800047B1042E05D145F00305E76B1F43E763C7
:106E900000E0354300201EE0012787401F40C7B1B6
:106EA00022684FEA800C0F2707FA0CF7BA438700D5
:106EB00005FA07F73A43282904D1012787401F40E4
:106EC000676105E0482903D1012787401F402761FA
:106ED0002260471CB8B20828DED3082022E0012730
:106EE00087401F40E7B16268A0F108074FEA870CAE
:106EF0000F2707FA0CF7BA43A0F10807BF0005FAFD
:106F000007F73A43282904D1012787401F406761CA
:106F100005E0482903D1012787401F4027616260AF
:106F2000471CB8B21028DAD3F0BD0246906808407A
:106F300008B1012070470020FCE70246D0680840F5
:106F400008B1012070470020FCE70000F0B50A46B8
:106F5000002300240021002500F00046B6F1004F78
:106F600002D11D4EF16901E01B4E7168C0F303456B
:106F700083B200F44016B6F5401F08D121F0E0615D
:106F8000154E766826F0E066134F7E6012E000F43E
:106F90008016B6F5801F06D1032606FA05F4A14334
:106FA00041F0E06106E0460D360103FA06F6B14312
:106FB00041F0E06122B1460D360103FA06F6314395
:106FC00000F00046B6F1004F02D1034EF16101E03E
:106FD000014E7160F0BD00000000014010B50024BA
:106FE00040210A48FFF7A1FF044380210748FFF72B
:106FF0009CFF44EA4000C4B24FF480710348FFF79D
:1070000094FF44EA8000C4B2204610BD0010014045
:1070100010B540F204600FF055FC40F204600FF030
:1070200051FC40F204600FF04DFC4FF4C0600FF0D3
:1070300049FC01210C48FFF789FF4023032204216A
:107040000A48FFF714FF8023032204210748FFF7B3
:107050000EFF4FF48073032204210448FFF707FF5B
:1070600000F090F810BD0000000C1A000010014064
:1070700010B52DED068BB0EE408AB0EE480AFDF754
:10708000AFF8F0EE408AB0EE480AFDF76DF8B0EECA
:10709000409A3648D0ED130AB0EE600AFDF7A0F82A
:1070A000F0EE409A3148D0ED130AB0EE600AFDF7D9
:1070B0005BF8B0EE40AA28EE8A0A09EE690A2B486E
:1070C00080ED170A90ED160AD0ED170A30EE200A6F
:1070D00080ED160A90ED170ADFED250A20EE200A52
:1070E000D0ED160A9FED231A01EE200A80ED140A56
:1070F00090ED130AD0ED140A9FED1F1A00EE810ADD
:1071000080ED130A90ED130ADFED1C0AB4EEE00ADD
:10711000F1EE10FA08DD90ED130ADFED180A30EEFB
:10712000600A80ED130A0FE0104890ED130AB5EEE7
:10713000C00AF1EE10FA07D290ED130ADFED0F0A44
:1071400030EE200A80ED130A084890ED140AD0EDC5
:10715000150A70EE600A90ED150A9FED091A01EE0E
:10716000200A80ED150ABDEC068B10BD7C73002053
:107170000000FA4301007A406F128338DB0FC940E8
:107180000AD7A33B00B587B040F201700FF09AFB1D
:10719000354810F05BFC7720ADF804000020ADF816
:1071A0000600ADF808004FF6FF7003900020ADF820
:1071B0000A008DF8100001A92B4810F0C7FC002030
:1071C000ADF814000320ADF816000020ADF818004B
:1071D000ADF81A0005AA0021234810F003FD002095
:1071E000ADF814000320ADF816000020ADF818002B
:1071F000ADF81A0005AA01211B4810F0F3FC00208D
:10720000ADF814000320ADF816000020ADF818000A
:10721000ADF81A0005AA0221134810F0E3FC402142
:10722000114810F082FD04210F4810F0C5FD002127
:107230000D4810F07EFC0C4810F0F6F902210A48C7
:1072400010F07FFD0121084810F07BFD0221064867
:1072500010F073FD0121044810F06FFD024810F09A
:1072600063FC07B000BD00000004004001460020A0
:10727000302905DB392903DCA1F13002D0B21CE052
:10728000612902DBA1F12002D1B2A1F14102062A5B
:1072900010D2DFE802F0030507090B0D0A200BE00E
:1072A0000B2009E00C2007E00D2005E00E2003E094
:1072B0000F2001E0002000BF00BF704710B540F272
:1072C00003600FF0FFFA4FF48073032210210A4885
:1072D000FFF7CDFD4FF40073032214210648FFF79A
:1072E000C6FD012251020448FFF7BCFD0122110234
:1072F0000148FFF7B7FD10BD000C01402DE9F04734
:1073000004460D4690461E46DDE9087924F0010446
:107310000FF048FCE0B20FF011FC48460FF086FC7D
:10732000012801D1BDE8F087B8F1100F08D1280A73
:107330000FF004FC48460FF079FC012800D1F1E77A
:10734000E8B20FF0FBFB48460FF070FC012800D1BB
:10735000E8E70FF027FC44F00104E0B20FF0EEFB89
:1073600048460FF063FC012800D1DBE70BE00FF08B
:10737000B7FB3070761C781E87B217B90FF090FB00
:1073800001E00FF06BFB002FF1D10FF02BFC002080
:10739000C8E72DE9F04704460D4617461E46DDE9CD
:1073A000088924F001040FF0FDFBE0B20FF0C6FBEA
:1073B00048460FF03BFC012801D1BDE8F087102FB3
:1073C00008D1280A0FF0BAFB48460FF02FFC01281D
:1073D00000D1F2E7E8B20FF0B1FB48460FF026FC0F
:1073E000012800D1E9E710E030780FF0A7FB48460C
:1073F0000FF01CFC012800D1DFE7761CA8F101008A
:107400001FFA80F80A20FEF7C5FEB8F1000FEBD195
:107410000FF0E8FB0020D0E79FED040A80ED000AA2
:107420009FED020A80ED080A70470000000000008E
:1074300010B50022114618200EF0B4FC02220021E3
:1074400012200EF0AFFC012211461D200EF0AAFC06
:1074500010BD90ED0A0AD0ED020A20EE200AD0ED10
:107460000B0A90ED011A00EEC10A80ED0C0A90EDB6
:107470000A0AD0ED010A20EE200AD0ED0B0A90EDA9
:10748000021A00EE810A80ED0D0A704730B50246FF
:1074900014460B4620881D88A84203D020881D88EA
:1074A000401B30BD60885D88401BFAE730B502465E
:1074B00014460B4620781D78A84203D020781D780A
:1074C000401B30BD60785D78401BFAE770B505461B
:1074D000344800EB051420688047002840D120790B
:1074E000052802DA052020715AE020790A2803DAFB
:1074F0002079401C207153E0A07A38B90120A07295
:1075000005EB4501491CC8B200F068F82089002845
:1075100046DDE088218988420FDAE088401CE0805F
:10752000E088218988423BDB05EB4501C91CC8B2D4
:1075300000F054F80120607332E0E07A00282FDD7B
:10754000207B401C2073207BE17A884228DB0020CE
:10755000207305EB4501491CC8B200F03FF81FE05D
:107560002079052802DD0520207116E02079002809
:1075700003DD2079401E20710FE0A07A01280CD194
:107580000020A072607B10B10020607305E005EB65
:107590004501891CC8B200F021F80020E08020736A
:1075A00070BD0000F00500200B4880780A4AD278B0
:1075B000904201D100207047074882788078401CB3
:1075C000054B98701846815C8078022802DB002009
:1075D0001A4690700846EEE7380000200749CA783E
:1075E000C978491C054BD97019468854C9780229B5
:1075F00002DB00211A46D1707047000038000020DD
:1076000010B5002400BF04E02046FFF75FFF601CB8
:10761000C4B2012CF8DB10BD00200021134A917088
:10762000D17000BF1CE06421114A02EB00121181ED
:1076300002210F4A02EB0012117100210C4A02EBE9
:10764000001291720A4A02EB0012D172084A02EB50
:1076500000121173064A02EB00125173411CC8B2AA
:107660000128E0DB0349024A11607047380000201E
:10767000F0050020E545000870B504460D460F48AA
:107680000FF0B4FB4FF400610C480FF0F9FB0B480E
:107690000FF0F1FB01210A48FEF7FBFD2A4601210C
:1076A0000748FEF7C3FF224601210548FEF779FF90
:1076B00001210348FEF706FE70BD0000003C0040BB
:1076C0000004024010B540F205600FF0FBF840F2F4
:1076D00004600FF0F7F840F202600FF0F3F84FF497
:1076E000C0600FF0EFF801211848FFF72FFC184990
:1076F0000B681849032208681021FFF7B8FB1449EA
:107700004B681449032248681021FFF7B0FB104969
:107710008B681049032288681021FFF7A8FB0C4AE8
:1077200011680C4A10680122FFF79CFB084A516857
:10773000084A50680122FFF795FB054A9168054AFF
:1077400090680122FFF78EFB10BD000000023000A0
:10775000480000203C000020034951F82010034A53
:1077600052F8202011617047480000203C000020A2
:10777000034951F82010034A52F820205161704704
:10778000480000203C00002070B504460A4A52F828
:1077900024100A4A52F82400FFF7CFFBC0F1010081
:1077A000C5B2054A52F82410044A52F824002A4669
:1077B000FFF758FB70BD0000480000203C0000208F
:1077C00010B52421064809F0B0F90CF051FF054925
:1077D0000860002303221E2103480CF083FD10BD26
:1077E000F4090020F0030020BD56000870B50546DE
:1077F000686818B1D5E9000100F024F80F4809F0D5
:107800009FF904460CB900BFFEE704B970BD95F8B6
:10781000200020F0040085F820002422294620467C
:10782000FCF720FD606820B1238A19B2D4E9000278
:10783000904701200249087000BFE7E7F4090020E3
:10784000F40300202DE9F04107460D464FF00008F3
:10785000104809F04BF9044617E021460D4809F09D
:107860004AF906462068B8420ED16068A84200D0A6
:1078700055B92146074809F020FA204609F088FA50
:1078800001200549087080463446002CE5D1404669
:10789000BDE8F081F4090020F403002010B5014692
:1078A000088BB1F91A40A04202D14FF4806205E082
:1078B000B1F91A0080020C8B90FBF4F2D1E904407C
:1078C000001B00FB02F39B120869034418B210BDB1
:1078D00030B504460B46981A002801DD981A00E0DE
:1078E000D01A05464FF47A70684390FBF4F1B1F575
:1078F000803F01D34FF6FF7101B9491C88B230BDFA
:107900000A6802604A68426070470A6802604A6812
:10791000426070470A6802604A68426070470A68BD
:1079200002604A68426070470A6802604A684260C2
:1079300070470146C8884A88801A401C00B27047C8
:107940000146C8884A88801A401C00B27047014628
:10795000C8884A88801A401C00B270470146C8880F
:107960004A88801A401C00B2704710B50146B1F930
:107970000420B1F90030D21A521CB1F90630B1F925
:1079800002401B1B5B1C02FB03F010BD01468888F4
:107990000A88801A401C00B27047014688880A880D
:1079A000801A401C00B27047014688880A88801AF5
:1079B000401C00B27047014688880A88801A401C23
:1079C00000B27047014688880A88801A401C00B2BD
:1079D0007047014688880A88801A401C00B27047A8
:1079E000014688880A88801A401C00B2704730B56A
:1079F0000346B1F90040B2F90050AC4202DDB1F9E2
:107A0000004001E0B2F900401C80B1F90240B2F937
:107A10000250AC4202DDB1F9024001E0B2F902408D
:107A20005C80B1F90440B2F90450AC4202DAB1F919
:107A3000044001E0B2F904409C80B1F90640B2F97B
:107A40000650AC4202DAB1F9064001E0B2F9064054
:107A5000DC800120B3F90040B3F90450AC4205DCEE
:107A6000B3F90240B3F90650AC4200DD002030BD4E
:107A700010B502460020B2F90030B1F90040A3422F
:107A800012DBB2F90230B1F90240A3420CDBB2F9C9
:107A90000430B1F90440A34206DCB2F90630B1F972
:107AA0000640A34200DC012010BD0246B2F90000EE
:107AB000B1F90430984213DCB2F90400B1F9003096
:107AC00098420DDBB2F90200B1F90630984207DCAA
:107AD000B2F90600B1F90230984201DB012070478B
:107AE0000020FCE710B5B1F90030B2F90040A34224
:107AF00002DAB1F9003001E0B2F900300380B1F9E7
:107B00000230B2F90240A34202DAB1F9023001E0D8
:107B1000B2F902304380B1F90430B2F90440A34213
:107B200002DDB1F9043001E0B2F904308380B1F92B
:107B30000630B2F90640A34202DDB1F9063001E099
:107B4000B2F90630C38010BD10B5029C018042809E
:107B50008380C48010BD42880A44521E12B2C28083
:107B60007047F0B503460C46154600BF9888198843
:107B7000401A401C00B2064600BFD8885988401AF7
:107B8000401C00B207461C805D803146184600F05C
:107B900005F839461846FFF7DEFFF0BD02880A44B3
:107BA000521E12B28280704770B505460C462846B8
:107BB00009F02AFF06467481284609F0F5FF70BDDA
:107BC00070B50446206809F01FFF05464FF0FF30EE
:107BD0006881B5F908100022206800F08BFA70BDAA
:107BE0002DE9F04180460E463146404609F0CCFC76
:107BF00007460FB900BFFEE717B90020BDE8F081C6
:107C00003948006820B9384609F036FF364908601F
:107C10003648006820B9384609F0C4FE3349086088
:107C20001421384609F09DFC04460CB900BFFEE75C
:107C30000CB90020E2E7002060806420A0800020D2
:107C40002080C820A0810020E0802081401E60812B
:107C50000020A07326482061264938460AF064F9BE
:107C6000254938460AF07FF816BB002138460AF04D
:107C700071F82122C82138460AF058F9B4F90010E9
:107C80000022384600F036FA0CF0DEFC054655B10D
:107C9000002138466A6D00F013FA01213846AA6DBA
:107CA00000F00EFA03E0154938460AF08EF919E0A3
:107CB000304609F0A9FE054668886080A888A08043
:107CC0002888208028692061A87B00F00100A0732B
:107CD00038460AF031F8B4F900100022384600F0B6
:107CE00009FA00BF384689E7440400204004002018
:107CF00050080020CD810008017D000814080020F4
:107D00002DE9F04F8FB080468A469146B9F1020FB7
:107D100008D14A4651464046C34B1B6898470FB0AE
:107D2000BDE8F08FB9F1000F7ED1404609F080FE2A
:107D30008346404609F09FFF98B10021404600F07D
:107D400075F90546294668460CF00AF80021ADF899
:107D50000C105B466A46514608F1100002F081FDA6
:107D600005E04A4651464046AF4B1B68984740469F
:107D700009F04AFE0446B4F90010B4F90200814249
:107D800008D1A07B00F0010020B9B4F90600401C26
:107D900000287DD00121404600F048F905460DA895
:107DA000D8F810100160D8F81410416000BFBDF879
:107DB0003410688B084400B2ADF83400BDF83810B8
:107DC000A88B081A00B2ADF83800BDF83610E88A62
:107DD000084400B2ADF83600BDF83A10288B081AF6
:107DE00000B2ADF83A0000BFBDF83800BDF834105D
:107DF000401A401C00B2064600BFBDF83A00BDF86C
:107E00003610401A401C00B20746BE4273DBB4F97C
:107E10000A00401C48B3B4F90620B4F90230D21A63
:107E20007243B4F9043000E0DBE0B4F902C0A3EB24
:107E30000C0392FBF3F210B2B4F90820B4F902304B
:107E4000D21A7243B4F90430B4F902C0A3EB0C03A4
:107E500092FBF3F211B20A1AB4F90A305A4300EB5A
:107E6000222212B2ADF838200FE0B4F90000B4F9C4
:107E70000210401A7043B4F90410B4F90220891AB0
:107E800090FBF1F000B2ADF83800BDF8340000E02E
:107E9000A6E0BDF838100844401E00B2ADF8380026
:107EA000A07B00F00100002823D0B4F902000028D4
:107EB0001FDAB4F9040000281BDDB4F90410B4F98A
:107EC00002208A1AB4F902104942714391FBF2F17F
:107ED000BDF83420114408B2BDF93810814202DDEA
:107EE000ADF8340005E0BDF83810ADF83410ADF849
:107EF00038006EE0FFE7B4F90A00401C38B3B4F96B
:107F00000620B4F90230D21A7A43B4F90430B4F935
:107F100002C0A3EB0C0392FBF3F210B2B4F90820F9
:107F2000B4F90230D21A7A43B4F90430B4F902C079
:107F3000A3EB0C0392FBF3F211B20A1AB4F90A3064
:107F40005A4300EB222212B2ADF836200FE0B4F90A
:107F50000000B4F90210401A7843B4F90410B4F9DF
:107F60000220891A90FBF1F000B2ADF83600BDF89E
:107F70003A00BDF83610401A401C00B2ADF8360089
:107F8000A07B00F0010020B3B4F90200002820DA41
:107F9000B4F9040000281CDDB4F90410B4F902207F
:107FA0008A1AB4F902104942794391FBF2F1BDF803
:107FB0003A20511A08B2BDF93610814202DAADF802
:107FC0003A0005E0BDF83610ADF83A10ADF83600CD
:107FD00000BF5B462A4651460DA802F042FC00BF96
:107FE00020E0B9F1010F1DD1404609F044FEC8B1AF
:107FF000404609F01DFD04460021404600F016F8F9
:108000000546294668460BF0ABFE00218DF80810A6
:10801000ADF8121023466A46514608F1100002F0EE
:1080200020FC00BF01207AE6400400202DE9F04149
:1080300005460C460026284609F0E6FC074614B122
:10804000012C07D104E0284609F01AFD064603E09A
:108050003E6901E0002600BF00BF3046BDE8F08168
:108060002DE9F04107460D461646384609F0CCFC8E
:108070000446B4F90200A84205D1B4F90400B042A4
:1080800001D1BDE8F081A6806580B4F90000B0425E
:1080900006DD2680B4F900100022384600F02AF8E8
:1080A000B4F90000A84206DA2580B4F900100022D5
:1080B000384600F01FF8384609F076FD00BFE0E7CB
:1080C0002DE9F04106460D461446304609F09CFC69
:1080D000074615B1012D0AD104E02146304609F0CA
:1080E00074FF04E03C61304609F019FE00BF00BF98
:1080F000BDE8F0812DE9F0418AB007460E46904672
:10810000384609F081FC0446B4F90000B04202D1BF
:108110000AB0BDE8F081B4F90400B04202DAB4F963
:10812000040000E030460546B4F90200A84202DD32
:10813000B4F9020000E028460546B4F90000A84260
:1081400000D1E5E7B8F1000F04D12580384609F0E9
:108150002BFD33E0B4F90A00401C18B92088E080F8
:10816000258102E02089E08025810197002005908B
:108170004FF4807006901248029012480390124803
:1081800004900020ADF81E00A08980B2ADF81C005C
:108190009DF8240020F001008DF824000020ADF8A7
:1081A00020009DF8240020F002008DF8240000201B
:1081B000ADF8220001A8FFF719FB00BF00BFA7E739
:1081C000A97B00089D780008C17B00082DE9F041DB
:1081D00004460D461646324629462046164B1B6875
:1081E00098470746012F02D03846BDE8F081052D9B
:1081F0000ED101212046FFF719FF8046B8F9120081
:10820000B4F93410884202DDB8F81200A08611E0FB
:10821000062D0FD13146002005E051F8202002B98B
:1082200003E0421CD0B20728F7DB00BF03A241F8ED
:10823000202000BF3846D8E7440400206C765F62F7
:10824000617200002DE9F04780460F4639464046EE
:1082500000F0E4FB06460EB900BFFEE716B90020A9
:10826000BDE8F0874148006820B9304609F004FCB9
:108270003E4908603E48006820B9304609F092FB4C
:108280003B4908601C21304609F06BF904460CB9E3
:1082900000BFFEE70CB90020E2E7207E20F00700D7
:1082A0002076344860603449A1603449E160344943
:1082B000216134496161207E20F008002076324936
:1082C000304609F031FE3149304609F04CFD8FBB94
:1082D000B8F1000F07D04FF001094946304601F0D0
:1082E00047F900BF00BF0121304609F033FD0CF013
:1082F000ABF90546CDB1002130462A6900F097F868
:10830000012130466A6900F092F802213046AA69DC
:1083100000F08DF803213046EA6900F088F8042166
:1083200030462A6A00F083F803E03046616809F0BD
:108330004CFE18E0FFE7384609F066FB0546287E4C
:10834000217E60F302012176287EC108207E61F340
:10835000C30020761422291D201DFBF783FF304621
:1083600009F0EAFC00BF30467AE70000480400202C
:108370004C0400208C080020C808002004090020BC
:10838000400900207C0900207D84000891830008BA
:1083900070B505460E461446022C01D1002070BD72
:1083A00034B9224631462846064B1B68984707E0F9
:1083B000012C05D1224631462846024B1B689847BE
:1083C0000120ECE74C04002070B50446204609F07B
:1083D0001BFB0546287E00F0070070BD70B5044603
:1083E000204609F011FB0546287EC0F3C00070BD91
:1083F00070B504460D462946204601F0B9F870BD17
:1084000070B506460C46304609F0FEFA0546287E51
:1084100000F00700A04209D0287E64F3020028760D
:10842000281D50F82410304609F0CFFD70BD2DE90D
:10843000F04107460E461546384609F0E5FA04466F
:10844000052E0ED2DFE806F0030507090B00656074
:1084500007E0A56005E0E56003E0256101E06561F6
:1084600000BF00BF207E00F00702201D50F8221040
:10847000384609F0AAFDBDE8F08100002DE9F84F6B
:1084800082460D469046424629465046824B1B681E
:1084900098470746012F02D03846BDE8F88F50466E
:1084A00009F0B2FA04465046FFF798FF0646072D3A
:1084B00012D1207E00F0070020B901215046FFF7BD
:1084C0009FFFE7E0207E00F007000228F9D103219A
:1084D0005046FFF795FFDDE0092D13D1207E00F017
:1084E0000700012804D100215046FFF789FFD1E0A1
:1084F000207E00F007000328E3D102215046FFF759
:108500007FFFC7E0082D18D1404606F06BFB00281E
:10851000D7D0207E00F00700012804D1002150466A
:10852000FFF76EFFB6E0207E00F007000328C8D1F9
:1085300002215046FFF764FFACE00A2D5CD14046B3
:1085400006F050FBF0BB00200090207E00F00700FA
:10855000012807D136B900215046FFF751FF00200E
:10856000009027E0207E00F00700032807D136B9ED
:1085700002215046FFF744FF012000901AE0207EC0
:1085800000F00700012808D1012E06D10221504633
:10859000FFF736FF012000900CE0207E00F007007E
:1085A000032807D1012E05D100215046FFF728FFEF
:1085B000002000905EB16A460E21504604F052FF42
:1085C000074600E004E0012F01D0384665E761E08E
:1085D000207E00F00700012804D100215046FFF75B
:1085E0000FFF57E0207E00F00700032852D1022140
:1085F0005046FFF705FF4DE0112D38D198F8009057
:10860000B9F1130F02D0B9F1110F14D15046FFF791
:10861000E5FE58B302215046FFF7F2FE012000901C
:108620006A460E21504604F01DFF0746012F01D077
:10863000384632E71AE0B9F1140F02D0B9F1120F3F
:1086400014D15046FFF7CAFE80B100215046FFF713
:10865000D7FE002000906A460E21504604F002FF2B
:108660000746012F01D0384617E700BF12E08DB151
:10867000062D0FD14146002005E051F8202002B917
:1086800003E0421CD0B20728F7DB00BF03A241F889
:10869000202000BF384600E7480400206C765F6267
:1086A000746E00000146B1F90200B1F90020904259
:1086B00001DC012070470020FCE70280002343809A
:1086C000C2F101031BB20B8070474288521C12B2E8
:1086D0004280B1F90020002A07DC0B884288520052
:1086E000521C1A4412B20A800CE00288521E12B2C6
:1086F000028042880388D21A5200521C0B881A4406
:1087000012B20A8070473CB50146C1F30740C1F37D
:108710000722CBB2DD08BDF8004065F304040094E5
:108720009508BDF8004065F34A140094C508BDF8EB
:10873000004065F3CF240094BDF800502C4601940E
:10874000BDF8042010463CBD2DE9F04F85B08246AF
:1087500089461446CAEB0A204FF4B471B0FBF1F01D
:108760001FFA80FAC9EB0920642190FBF1F000F0B8
:10877000FF09C4EB042090FBF1F0C4B2B9F1000F83
:108780000ED125462646274622462146204600F0A1
:1087900072F80090BDF80010084605B0BDE8F08FF3
:1087A0002B209AFBF0F0C0B204902B21049810FB10
:1087B00001F0AAEB000000EB40004006000E039021
:1087C000C9F1FF0060434FEA2028039809FB00F03D
:1087D000FF21A1EB20206043001202900398C0F11A
:1087E000FF0000FB09F0A1EB202060434FEA202BA3
:1087F0000498052818D2DFE800F003070B0F1300D8
:1088000025465E46474613E0029D264647460FE052
:10881000454626465F460BE04546029E274607E052
:108820005D464646274603E025464646029F00BF72
:1088300000BF3A463146284600F01DF80190BDF8C9
:1088400004100846A9E718B50346D408BDF800008F
:1088500064F3040000908C08BDF8000064F34A1033
:108860000090DC08BDF8000064F3CF200090BDF854
:108870000040204618BD18B50346D408BDF80000D6
:1088800064F3040000908C08BDF8000064F34A1003
:108890000090DC08BDF8000064F3CF200090BDF824
:1088A0000040204618BD07B581B0BDF80800C00AD9
:1088B000C2F1FF014843BDF80410C90A01FB0200E0
:1088C000010ABDF8000061F3CF200090BDF8080058
:1088D000C0F34510C2F1FF014843BDF80410C1F3D5
:1088E000451101FB0200010ABDF8000061F34A10C6
:1088F0000090BDF8080000F01F00C2F1FF014843DE
:10890000BDF8041001F01F0101FB0200010ABDF8CF
:10891000000061F304000090BDF80010084604B0A8
:1089200000BD07B581B0BDF80800C00AC2F1FF0163
:108930004843BDF80410C90A01FB0200010ABDF852
:10894000000061F3CF200090BDF80800C0F345108F
:10895000C2F1FF014843BDF80410C1F3451101FB0A
:108960000200010ABDF8000061F34A100090BDF852
:10897000080000F01F00C2F1FF014843BDF80410D9
:1089800001F01F0101FB0200010ABDF8000061F3C4
:1089900004000090BDF80010084604B000BD07B503
:1089A00081B0BDF80800C00AC2F1FF014843BDF81C
:1089B0000410C90A01FB0200010ABDF8000061F3BE
:1089C000CF200090BDF80800C0F34510C2F1FF01B0
:1089D0004843BDF80410C1F3451101FB0200010A30
:1089E000BDF8000061F34A100090BDF8080000F0E7
:1089F0001F00C2F1FF014843BDF8041001F01F0140
:108A000001FB0200010ABDF8000061F304000090C0
:108A1000BDF80010084604B000BD00002DE9F0418B
:108A200080460E463146404608F0AEFD07460FB977
:108A300000BFFEE717B90020BDE8F08133480068A9
:108A400020B9384609F018F8304908600221384644
:108A500008F087FD384608F0D7FF04460CB900201F
:108A6000EAE70CB900BFFEE7207820F03000207064
:108A7000207820F0C0002070607820F00300607043
:108A8000607820F00C006070207820F00F002070DB
:108A90001F49384609F048FA96B9B8F1000F33D0AB
:108AA0000BF0D2FD05462DB100213846EA6800F0F2
:108AB00077FD04E0174A0021384600F071FD23E0FD
:108AC000304608F0A1FF054628780109207861F3B7
:108AD0000510207028788109207861F387102070B4
:108AE0006878617860F30101617068788108607866
:108AF00061F3830060702878217860F303012170AE
:108B0000384609F019F900BF384695E750040020AF
:108B1000B59500081408002070B50446204608F0FA
:108B200073FF05462878C0F3011070BD70B5044688
:108B3000204608F069FF0546687800F0030070BD24
:108B400070B50446204608F05FFF0546287800F01F
:108B50000F0070BD2DE9F84F0446204608F090FF45
:108B600007464FF000090026201D07F0BFFF05460D
:108B700019E0284608F056FF20B90421284609F0DC
:108B800087F800B10AE0284608F044FF0146F88B58
:108B90000844304406B209F1010900BF2946201DEE
:108BA00007F0A9FF0546002DE3D1B9F1000F01D16F
:108BB000BDE8F88FF88B301A06B20121204609F083
:108BC000ADF9304606EBD071491049420FFA81F8F1
:108BD000201D07F0A5FF05462AE0284608F022FFE1
:108BE00020B90421284609F053F800B11BE02846BB
:108BF00008F010FF824600EBDA7008EB60000FFA15
:108C000080FB00231A4621462846CDF800B008F024
:108C100053F9284608F0FEFE0146F88B084440440C
:108C20000FFA80F800BF2946201D07F06FFF0546A8
:108C3000002DD2D10121204608F09DFC00BFB7E7EE
:108C40002DE9F84F06463046FFF77AFF8246304658
:108C500008F016FF8046BAF1020F06D0BAF1030FF2
:108C600007D0BAF1040F0DD106E0B8F91A5001246B
:108C70000BE00025022408E0B8F81C00404205B2D1
:108C8000032402E00025012400BF00BF012130467B
:108C900009F044F9B8F91690301D07F041FF074676
:108CA00021E0384608F0BEFE20B90421384608F01D
:108CB000EFFF00B112E02B46224631463846CDF890
:108CC000009008F0F9F8384608F0A4FE0146B8F81C
:108CD0001E00084448440FFA80F900BF3946301D91
:108CE00007F014FF0746002FDBD10121304608F0C2
:108CF00042FCBDE8F88F2DE9F04F87B08146484629
:108D000008F0BEFE0446484608F01EFF069000210B
:108D1000484608F01CFE019008F016FF054648463C
:108D200008F01AFF05900021484608F010FE019057
:108D300008F070FE0490B4F91E004119059890FBEC
:108D4000F1F086B2012E09DD059806FB1501701EB3
:108D500091FBF0F028440FFA80F80AE0069901EB45
:108D6000D1725210284605EBD073A2EB63020FFAC2
:108D700082F8E18B0498084400B203900121484630
:108D800009F0CCF8B4F91AA0B4F916B0002002909A
:108D900009F1040007F0C4FE074630E0384608F049
:108DA00041FE20B90421384608F072FF00B120E0EE
:108DB000012E09DD5A465146384609F05EF80AEBA5
:108DC00008000FFA80FA04E05A464146384609F096
:108DD00054F80298401C80B202900298B04207DB1F
:108DE00000200290B4F91AA0039858440FFA80FBAF
:108DF00000BF394609F1040007F088FE0746002F3E
:108E0000CCD10121484608F0B6FB07B0BDE8F08F91
:108E10002DE9F04F89B00546284608F031FE80461E
:108E2000284608F091FE0790B8F91690281D07F023
:108E300077FE064616B909B0BDE8F08F0121284635
:108E400009F06CF83446FBE04FF0000AB8F81A104D
:108E5000B8F81C00084400B20690002700BF204666
:108E600008F0E0FD88BB0421204608F011FF60BB3C
:108E7000204608F069FE069901440798814207DD03
:108E80002CB127B12146281D07F035FE044626E007
:108E9000204608F059FE0146B8F81E000144069825
:108EA000084400B20690204608F0B4FD504501DAAF
:108EB000504602E0204608F0ADFD82467F1C0821A6
:108EC000204608F0E5FE00B109E0FFE72146281D35
:108ED00007F01CFE044607B92646002CBFD100BF90
:108EE00077B9002C0BD00023022229462046CDF86A
:108EF000009007F0E1FF204608F08CFD824690E0EC
:108F0000012F08D10023022229463046CDF80090D7
:108F100007F0D2FF85E0022F3ED105963146281D8D
:108F200007F0F4FD0490059808F00EFE83460498BF
:108F300008F00AFE584400B20690DDE90610401A17
:108F4000032190FBF1F000B20390059808F062FD58
:108F5000AAEB000B0BEBDB7009EB600000B2029098
:108F6000009001222946039B059807F0A5FF04986D
:108F700008F050FDAAEB000B0BEBDB7009EB600077
:108F800000B2029000900398404203B203222946A7
:108F9000049807F091FF44E0B8F91E10069801FB11
:108FA000170000B20690DDE90610411A781EB1FBE9
:108FB000F0F000B20590B8F91AB008962CE00898C5
:108FC00008F030FDF8B90421089808F061FED0B926
:108FD000089808F01FFDAAEB0000049000EBD07089
:108FE00009EB600000B203905B4601222946009025
:108FF000089807F061FF089808F0A6FD0599084455
:1090000058440FFA80FB0898A04200D107E0281DC1
:10901000089907F07BFD089008980028CFD100BF81
:1090200000BF04B90FE0B8F81E00504448440FFADE
:1090300080F92146281D07F069FD0646344600BF29
:10904000002E7FF401AF00BF0121284608F093FAFB
:1090500000BFF0E62DE9F84F06463046FFF770FDF9
:109060008246304608F00CFD8046BAF1050F06D066
:10907000BAF1060F07D0BAF1070F0DD106E0B8F923
:10908000165001240BE00025072408E0B8F818006A
:10909000404205B2042402E00025012400BF00BFC5
:1090A0000121304608F03AFFB8F91A90301D07F058
:1090B00037FD074620E0384608F0B4FC20B904210B
:1090C000384608F0E5FD00B111E04B462246314636
:1090D0003846009507F0F0FE384608F035FD0146A9
:1090E000B8F81E00084448440FFA80F900BF39461A
:1090F000301D07F00BFD0746002FDCD10121304663
:1091000008F039FABDE8F88F2DE9F04788B0054638
:10911000284608F079FC06463078C0F3011068B99B
:109120003078800950B9707800F0030030B9707859
:10913000C0F3810010B908B0BDE8F087284608F0F8
:109140009FFC8046284608F087FC8246504608F07F
:1091500097FC81460AF1100102A8FEF7E0FBBDF87A
:109160000810B9F81A00084400B2ADF80800BDF8BC
:109170000C10B9F81C00081A00B2ADF80C00BDF8CC
:109180000A10B9F81600084400B2ADF80A00BDF89C
:109190000E10B9F81800081A00B2ADF80E0004A9B4
:1091A000284608F0F6FB06A9284608F0F2FB281D21
:1091B00007F042FD80F00107002F71D047F61840FC
:1091C000ADF81800ADF81A0048F2E830ADF81C0010
:1091D000ADF81E00281D07F089FC04463EE020463D
:1091E00008F020FC00B134E0BDF91800B4F910100B
:1091F000884202DABDF9180001E0B4F91000ADF8B8
:109200001800BDF91A10B4F91200814202DABDF952
:109210001A0001E0B4F91200ADF81A00BDF91C10F3
:10922000B4F91400814202DDBDF91C0001E0B4F97B
:109230001400ADF81C00BDF91E10B4F916008142EF
:1092400002DDBDF91E0001E0B4F91600ADF81E0004
:1092500000BF2146281D07F04EFC0446002CBED15D
:10926000BDF81810B8F81A00081A00B2ADF81800C6
:10927000BDF81C10B8F81C00084400B2ADF81C0082
:10928000BDF81A10B8F81600081A00B2ADF81A00A6
:10929000BDF81E10B8F81800084400B2ADF81E0062
:1092A00004A96846FEF73BFB3078C0F301100128A3
:1092B00004D0022807D003281CD109E0BDF818000B
:1092C000ADF8000017E0BDF80800ADF8000012E0AE
:1092D0005FB1BDF91800BDF90810884202DABDF986
:1092E000180004E0BDF9080001E0BDF90800ADF880
:1092F000000000E000BF00BF30788009012804D0E2
:10930000022807D003281CD109E0BDF81C00ADF8E5
:10931000040017E0BDF80C00ADF8040012E05FB1E6
:10932000BDF91C00BDF90C10884202DDBDF91C001E
:1093300004E0BDF90C0001E0BDF90C00ADF804003B
:1093400000E000BF00BF707800F00300012804D0E7
:10935000022807D003281CD109E0BDF81A00ADF897
:10936000020017E0BDF80A00ADF8020012E05FB19C
:10937000BDF91A00BDF90A10884202DABDF91A00D7
:1093800004E0BDF90A0001E0BDF90A00ADF80200F1
:1093900000E000BF00BF7078C0F38100012804D056
:1093A000022807D003281CD109E0BDF81E00ADF843
:1093B000060017E0BDF80E00ADF8060012E05FB140
:1093C000BDF91E00BDF90E10884202DDBDF91E0078
:1093D00004E0BDF90E0001E0BDF90E00ADF8060095
:1093E00000E000BF00BFB5F91000BDF900108842D1
:1093F00011D1B5F91200BDF9021088420BD1B5F9AF
:109400001400BDF90410884205D1B5F91600BDF964
:10941000061088422DD0284608F0C6FB694605F1A3
:109420001000FEF77CFA284608F0BEFB04AA0221D1
:109430002846EB6998472A4601215046DAF81C3045
:109440009847284608F07DFA10B1284608F048FCF5
:10945000281D07F04BFB044609E0002203212046AB
:10946000E36998472146281D07F045FB0446002C78
:10947000F3D100BF5FE670B505462846FFF760FBF5
:1094800004460021284608F062FA00B970BD04B90C
:10949000FCE7012C03D12846FFF75CFB1EE0022C01
:1094A00003D0032C01D0042C03D12846FFF7C8FBBE
:1094B00014E0052C03D0062C01D0072C03D128463C
:1094C000FFF7C8FD0AE0082C03D12846FFF7A0FCEF
:1094D00004E0092C02D12846FFF70DFC00BFD5E7B8
:1094E000F8B506460D46144623462A462946304618
:1094F000009400F001F8F8BD2DE9F04780460D46D4
:1095000016461F46DDF82090404608F04DFB4046C9
:1095100008F07AFA04462078C0F30110A8420FD16F
:109520002078B6EB901F0BD1607800F00300B842B2
:1095300006D16078C0F38100484501D1BDE8F087CD
:10954000207865F305102070207866F3871020706E
:10955000607867F301006070607869F38300607081
:10956000002201214046D8F81C30984700BFE5E7AB
:1095700070B506460C46304608F046FA054628788F
:1095800000F00F00A04200D170BD287864F3030002
:109590002870002201213046F369984700BFF3E7A5
:1095A00070B505460E4614462146284608F00DFDC6
:1095B00070BD00002DE9F04107460C4615462A46CD
:1095C00021463846284B1B6898470646012E02D094
:1095D0003046BDE8F081042C06D13846FFF74BFF3A
:1095E0003846FFF791FD3DE0012C06D13846FFF7E4
:1095F00042FF3846FFF788FD34E0022C1AD1384686
:1096000008F0A2FAA9882A88891A491C09B2884256
:1096100009D1384608F0FEF9E9886A88891A491C98
:1096200009B288421ED03846FFF725FF3846FFF7BB
:109630006BFD17E0032C03D13846FFF765FD11E001
:10964000062C0FD12946002005E051F8202002B950
:1096500003E0421CD0B20728F7DB00BF03A241F8A9
:10966000202000BF3046B4E7500400206C765F63D2
:109670006F6E74002DE9F04104460F4615461E46F4
:109680001C212046FAF707FE276065602068A0606D
:10969000E660BDE8F081000038B504462021204690
:1096A000FAF7F9FD0020E060F0202080872060803C
:1096B00000206060A06820F00200A06006480068FA
:1096C0000090BDF80000A083A06820F00100401CBD
:1096D000A0600020606138BD140B020870B505461B
:1096E0002C4807F02DFA044624B90CB900BFFEE758
:1096F000002070BD202229462046FAF7B3FD202124
:1097000004F59E70FAF7C7FD4FF4807104F13C0038
:10971000FAF7C1FD442104F1240007F006FA1E48BF
:10972000006808B91C4804601B48066804600020F3
:10973000C4F85C010021084607F026FF20630021E1
:10974000084607F021FF60630021084607F01CFF70
:10975000A0631249606B08F038FC1049A06B08F058
:1097600034FC206B08F020FA0B48066023460322E5
:109770001E210B480AF0B6FD2062206A08B900BF1E
:10978000FEE7206A08B90020B3E7206A0AF01CFF50
:109790002046AEE7C4090020E4030020E8060020CC
:1097A000A99800084168896921F001014268916126
:1097B000704700B5014611B900F00CF8014609B92F
:1097C000002000BD087A00F00100FAE70146486871
:1097D000704700000148006870470000E403002063
:1097E00000B5014611B9FFF7F5FF014609B9F020B0
:1097F00000BD087AC0F3400010B9B1F90000F7E7E6
:10980000B1F90200F4E710B5044614B9FFF7E2FF1E
:1098100004460CB9002010BDA06BFCE710B504464F
:1098200014B9FFF7D7FF04460CB9002010BD606BD8
:10983000FCE710B5044614B9FFF7CCFF04460CB999
:10984000002010BD206BFCE700B5014611B9FFF701
:10985000C1FF014609B9872000BD087AC0F3400066
:1098600010B9B1F90200F7E7B1F90000F4E70146D9
:109870004868006820B14868406808B10120704716
:109880000020FCE700B502461088518810FB01F368
:109890001046FFF7ECFF28B15068C068984201D12C
:1098A000012000BD0020FCE72DE9FC5F80460AF0A6
:1098B000DFFE01905249D8F80C0008600AF09EF8CB
:1098C0000AF024F84E480068B0F85C01C0F30900C3
:1098D00000287DD04A480068FFF7D4FF002865D0F3
:1098E00047480068FFF772FF05460AF0ABF900BF72
:1098F000A86900F001000028FAD1D5F8089029687D
:10990000A868884201D1686800E0286800903C4857
:109910000068FFF765FF064600243EE0384800680F
:1099200000F59E70005DB0BB354800683C3030F9F2
:109930003410334800683C3000EBC400B0F902003A
:1099400006FB001047002E4909683C3101EBC400BA
:10995000FEF71CF84FEA400B294800683C3000EB4A
:10996000C400B0F902A00CE0009AD11909EB07007D
:109970005A46FAF777FC07EB46070AF101000FFA9F
:1099800080FA1F4800683C3000EBC400B0F90600C4
:109990005045E9DA00BF601C84B219480068B0F88D
:1099A0005C01C0F30900A042B8DC00BF4FF4807135
:1099B000134800683C30FAF76EFC2021104800681C
:1099C00000F59E70FAF767FC00200D49096800E079
:1099D00012E0C1F85C010A480068806960B1019832
:1099E0000AF038FE044606480068836905482146A7
:1099F000026803480068984700F092F8BDE8FC9FB1
:109A0000600300205C03002010B503460BB9002062
:109A100010BD082B07DA581E074C54F82000405C94
:109A20005043000AF4E7012000EB410050435C0082
:109A300090FBF4F0C0B2EBE7680300202DE9F041A1
:109A400004460D46164609F093FF8046FFF7B1FE27
:109A50000746B4EB650F04DBC5F34F040CB1601E81
:109A600084B2B4EB660F04DBC6F34F040CB1601E86
:109A700084B2002C01DDE01B84B22046BDE8F081F9
:109A80002DE9FF4F85B0804689461D46102D02DA2C
:109A900009B0BDE8F08FFB2D00DDFF254A464146A9
:109AA00003A8FDF7A4FF074607B9F1E709F060FF37
:109AB00083465846FFF78AFE0446BDF80C00218A0B
:109AC000401A00B2ADF80400BDF80E10608A081A02
:109AD00000B2ADF80600BDF81000218A401A00B2AD
