:020000040800F2
:1040000068080020D1410008994200089142000848
:10401000954200088B420008814300080000000020
:10402000000000000000000000000000C74200087F
:104030008F42000800000000C5420008C942000885
:10404000EB410008EB410008EB410008EB410008A0
:10405000EB410008EB410008EB410008EB41000890
:10406000EB410008EB410008EB410008EB41000880
:10407000EB410008EB410008EB410008EB41000870
:10408000EB410008EB410008EB410008EB41000860
:10409000EB410008EB410008EB410008EB41000850
:1040A000EB410008EB410008EB410008EB41000840
:1040B000EB410008EB410008EB410008EB41000830
:1040C000EB410008EB410008EB410008EB41000820
:1040D000EB410008EB410008EB410008EB41000810
:1040E000EB410008EB410008EB410008EB41000800
:1040F000EB410008EB410008EB410008EB410008F0
:10410000EB410008EB410008EB410008EB410008DF
:10411000EB410008EB410008EB410008EB410008CF
:10412000EB410008EB410008EB410008EB410008BF
:1041300000F002F800F03CF80AA090E8000C82447D
:104140008344AAF10107DA4501D100F031F8AFF25A
:10415000090EBAE80F0013F0010F18BFFB1A43F065
:10416000010318472805000048050000103A24BF45
:1041700078C878C1FAD8520724BF30C830C144BFCC
:1041800004680C607047000000230024002500260E
:10419000103A28BF78C1FBD8520728BF30C148BFAA
:1041A0000B6070471FB500F06BFA1FBD10B510BD56
:1041B00000F031F81146FFF7F5FF00F04FF900F07D
:1041C0004FF803B4FFF7F2FF03BC00F057F800000C
:1041D0000948804709480047FEE7FEE7FEE7FEE79B
:1041E000FEE7FEE7FEE7FEE7FEE7FEE704480549D7
:1041F000054A064B70470000D942000831410008CB
:10420000680000206808002068040020680400207E
:10421000704770477047754600F02CF8AE460500B1
:104220006946534620F00700854618B020B5FFF7D1
:10423000DDFFBDE820404FF000064FF000074FF0D3
:1042400000084FF0000B21F00701AC46ACE8C009B4
:10425000ACE8C009ACE8C009ACE8C0098D467047BD
:1042600010B50446AFF300802046BDE81040FFF7CC
:10427000A8BF00000048704708000020014918202E
:10428000ABBEFEE726000200704700BFFEE77047A6
:1042900000BFFEE700BFFEE77047000010B5002832
:1042A00007DA0A07140E054A00F00F031B1FD45447
:1042B00003E00A07130E024A135410BD18ED00E084
:1042C00000E400E07047704702480068401C014964
:1042D000086070470000002008B52648006840F4D8
:1042E0007000244908602448006840F00100224919
:1042F000086000BF2048006800F002000028F9D0E4
:1043000000BF1D48406840F080001B494860002005
:10431000009002E00098401C009000985028F9D3CB
:104320001548406840F09000134948600020009014
:1043300002E00098401C009000985028F9D300BF7C
:104340000D48406820F003000B49486008460068AB
:104350000A490840084908604FF41F008860084671
:10436000006820F48020086000204860C86200F0E7
:104370003DF908BD88ED00E000100240FFFFF6FEA9
:1043800000BFFEE70AB1016100E041617047F0B58E
:10439000044616460025002201F00F0501F0100723
:1043A00047B1042E05D145F00305E76B1F43E763D2
:1043B00000E0354300201EE0012787401F40C7B1C1
:1043C00022684FEA800C0F2707FA0CF7BA438700E0
:1043D00005FA07F73A43282904D1012787401F40EF
:1043E000676105E0482903D1012787401F40276105
:1043F0002260471CB8B20828DED3082022E001273B
:1044000087401F40E7B16268A0F108074FEA870CB8
:104410000F2707FA0CF7BA43A0F10807BF0005FA07
:1044200007F73A43282904D1012787401F406761D5
:1044300005E0482903D1012787401F4027616260BA
:10444000471CB8B21028DAD3F0BD02469068084085
:1044500008B1012070470020FCE700001348144910
:10446000086062B600F0E4F840F2056000F024F85D
:104470000423012210210F48FFF789FF00220421A5
:104480000C48FFF77FFF0FE004210A48FFF7DDFF2C
:10449000C0F10100C4B2224604210648FFF772FFB2
:1044A0004FF4FA7000F0A6F8EEE7000000400008B4
:1044B00008ED00E000140140064A02EB9011096883
:1044C00000F01F0301229A401143024B03EB9012AC
:1044D0001160704700100240002000213F4A12681E
:1044E00042F480323D4B1A6000BF401C3B4A1268C8
:1044F00002F4003119B94FF6FF729042F5D1374AF4
:10450000126802F400320AB900BFFEE7334AD269EA
:1045100042F08052314BDA61314A126842F4404233
:104520002F4B1A602D4A52682C4B5A601A4652681B
:104530005A601A46526842F480625A601A465268BB
:1045400022F440325A601A46526842F440325A60AD
:104550001A465268234B1A40204B5A601A4652683A
:10456000214B1A431D4B5A601A46126842F0807262
:104570001A6000BF194A126802F00072002AF9D0CE
:10458000174A126842F48032154B1A6000BF144A71
:10459000526802F48032002AF9D0114A126842F4BB
:1045A00000320F4B1A6000BF0D4A526802F400320D
:1045B000002AF9D0094A526822F00302074B5A60D8
:1045C0001A46526842F002025A6000BF034A52681B
:1045D00002F00802002AF9D07047000000100240E3
:1045E00000700040FFFFC3B70000340810B5FFF7AC
:1045F00073FF10BD10B5034600F014F8014600F03B
:1046000011F80246002400BF00F00CF802468A426E
:1046100001D3501A02E0C1F1FF30104404469C421D
:10462000F2D310BD01480068704700000000002070
:1046300010B5124800684FF47A71B0FBF1F4601EB7
:10464000B0F1807F01D301200FE0601E4FF0E02128
:1046500048610F214FF0FF30FFF720FE00204FF0A0
:10466000E021886107200861002008B100BFFEE753
:104670000021481EFFF712FE10BD000004000020BC
:104680004FF04070E1EE100A70470000AC460008A1
:1046900000000020080000006C410008B44600083B
:1046A00008000020600800008841000800000000A9
:0446B000000E2707CA
:04000005080041317D
:00000001FF
